{
  "_format": "hh-sol-artifact-1",
  "contractName": "FarcasterOracle",
  "sourceName": "contracts/FarcasterOracle.sol",
  "abi": [
    {
      "inputs": [
        {
          "internalType": "string",
          "name": "_name",
          "type": "string"
        },
        {
          "internalType": "string",
          "name": "_symbol",
          "type": "string"
        },
        {
          "internalType": "string",
          "name": "_targetToken",
          "type": "string"
        },
        {
          "internalType": "uint8",
          "name": "_consensusThreshold",
          "type": "uint8"
        },
        {
          "internalType": "uint256",
          "name": "_updateFrequency",
          "type": "uint256"
        },
        {
          "internalType": "address",
          "name": "_registry",
          "type": "address"
        },
        {
          "internalType": "address[5]",
          "name": "_validators",
          "type": "address[5]"
        }
      ],
      "stateMutability": "nonpayable",
      "type": "constructor"
    },
    {
      "inputs": [
        {
          "internalType": "address",
          "name": "owner",
          "type": "address"
        }
      ],
      "name": "OwnableInvalidOwner",
      "type": "error"
    },
    {
      "inputs": [
        {
          "internalType": "address",
          "name": "account",
          "type": "address"
        }
      ],
      "name": "OwnableUnauthorizedAccount",
      "type": "error"
    },
    {
      "inputs": [],
      "name": "ReentrancyGuardReentrantCall",
      "type": "error"
    },
    {
      "anonymous": false,
      "inputs": [
        {
          "indexed": false,
          "internalType": "uint256",
          "name": "mentions24h",
          "type": "uint256"
        },
        {
          "indexed": false,
          "internalType": "int256",
          "name": "sentimentScore",
          "type": "int256"
        },
        {
          "indexed": false,
          "internalType": "uint256",
          "name": "engagementRate",
          "type": "uint256"
        },
        {
          "indexed": false,
          "internalType": "uint256",
          "name": "timestamp",
          "type": "uint256"
        }
      ],
      "name": "ConsensusReached",
      "type": "event"
    },
    {
      "anonymous": false,
      "inputs": [
        {
          "indexed": true,
          "internalType": "address",
          "name": "validator",
          "type": "address"
        },
        {
          "indexed": false,
          "internalType": "uint256",
          "name": "mentions24h",
          "type": "uint256"
        },
        {
          "indexed": false,
          "internalType": "int256",
          "name": "sentimentScore",
          "type": "int256"
        },
        {
          "indexed": false,
          "internalType": "uint256",
          "name": "timestamp",
          "type": "uint256"
        }
      ],
      "name": "MetricsSubmitted",
      "type": "event"
    },
    {
      "anonymous": false,
      "inputs": [
        {
          "indexed": true,
          "internalType": "address",
          "name": "previousOwner",
          "type": "address"
        },
        {
          "indexed": true,
          "internalType": "address",
          "name": "newOwner",
          "type": "address"
        }
      ],
      "name": "OwnershipTransferred",
      "type": "event"
    },
    {
      "anonymous": false,
      "inputs": [
        {
          "indexed": false,
          "internalType": "address[5]",
          "name": "validators",
          "type": "address[5]"
        }
      ],
      "name": "ValidatorsUpdated",
      "type": "event"
    },
    {
      "inputs": [],
      "name": "consensusThreshold",
      "outputs": [
        {
          "internalType": "uint8",
          "name": "",
          "type": "uint8"
        }
      ],
      "stateMutability": "view",
      "type": "function"
    },
    {
      "inputs": [
        {
          "internalType": "uint256",
          "name": "",
          "type": "uint256"
        }
      ],
      "name": "currentSubmissions",
      "outputs": [
        {
          "internalType": "address",
          "name": "validator",
          "type": "address"
        },
        {
          "components": [
            {
              "internalType": "uint256",
              "name": "mentions24h",
              "type": "uint256"
            },
            {
              "internalType": "int256",
              "name": "sentimentScore",
              "type": "int256"
            },
            {
              "internalType": "uint256",
              "name": "engagementRate",
              "type": "uint256"
            },
            {
              "internalType": "uint256",
              "name": "uniqueUsers",
              "type": "uint256"
            },
            {
              "internalType": "uint256",
              "name": "totalEngagement",
              "type": "uint256"
            },
            {
              "internalType": "uint256",
              "name": "topCastFid",
              "type": "uint256"
            },
            {
              "internalType": "uint256",
              "name": "timestamp",
              "type": "uint256"
            }
          ],
          "internalType": "struct FarcasterOracle.SocialMetrics",
          "name": "metrics",
          "type": "tuple"
        },
        {
          "internalType": "uint256",
          "name": "timestamp",
          "type": "uint256"
        },
        {
          "internalType": "bool",
          "name": "processed",
          "type": "bool"
        }
      ],
      "stateMutability": "view",
      "type": "function"
    },
    {
      "inputs": [],
      "name": "getCurrentSubmissionCount",
      "outputs": [
        {
          "internalType": "uint256",
          "name": "",
          "type": "uint256"
        }
      ],
      "stateMutability": "view",
      "type": "function"
    },
    {
      "inputs": [],
      "name": "getLatestMetrics",
      "outputs": [
        {
          "internalType": "uint256",
          "name": "mentions24h",
          "type": "uint256"
        },
        {
          "internalType": "int256",
          "name": "sentimentScore",
          "type": "int256"
        },
        {
          "internalType": "uint256",
          "name": "engagementRate",
          "type": "uint256"
        },
        {
          "internalType": "uint256",
          "name": "uniqueUsers",
          "type": "uint256"
        },
        {
          "internalType": "uint256",
          "name": "totalEngagement",
          "type": "uint256"
        },
        {
          "internalType": "uint256",
          "name": "topCastFid",
          "type": "uint256"
        },
        {
          "internalType": "uint256",
          "name": "timestamp",
          "type": "uint256"
        }
      ],
      "stateMutability": "view",
      "type": "function"
    },
    {
      "inputs": [
        {
          "internalType": "uint256",
          "name": "index",
          "type": "uint256"
        }
      ],
      "name": "getSubmission",
      "outputs": [
        {
          "internalType": "address",
          "name": "validator",
          "type": "address"
        },
        {
          "internalType": "uint256",
          "name": "mentions24h",
          "type": "uint256"
        },
        {
          "internalType": "int256",
          "name": "sentimentScore",
          "type": "int256"
        },
        {
          "internalType": "uint256",
          "name": "engagementRate",
          "type": "uint256"
        },
        {
          "internalType": "uint256",
          "name": "timestamp",
          "type": "uint256"
        }
      ],
      "stateMutability": "view",
      "type": "function"
    },
    {
      "inputs": [
        {
          "internalType": "address",
          "name": "",
          "type": "address"
        }
      ],
      "name": "hasSubmittedThisRound",
      "outputs": [
        {
          "internalType": "bool",
          "name": "",
          "type": "bool"
        }
      ],
      "stateMutability": "view",
      "type": "function"
    },
    {
      "inputs": [
        {
          "internalType": "address",
          "name": "",
          "type": "address"
        }
      ],
      "name": "isValidator",
      "outputs": [
        {
          "internalType": "bool",
          "name": "",
          "type": "bool"
        }
      ],
      "stateMutability": "view",
      "type": "function"
    },
    {
      "inputs": [],
      "name": "lastUpdate",
      "outputs": [
        {
          "internalType": "uint256",
          "name": "",
          "type": "uint256"
        }
      ],
      "stateMutability": "view",
      "type": "function"
    },
    {
      "inputs": [],
      "name": "latestMetrics",
      "outputs": [
        {
          "internalType": "uint256",
          "name": "mentions24h",
          "type": "uint256"
        },
        {
          "internalType": "int256",
          "name": "sentimentScore",
          "type": "int256"
        },
        {
          "internalType": "uint256",
          "name": "engagementRate",
          "type": "uint256"
        },
        {
          "internalType": "uint256",
          "name": "uniqueUsers",
          "type": "uint256"
        },
        {
          "internalType": "uint256",
          "name": "totalEngagement",
          "type": "uint256"
        },
        {
          "internalType": "uint256",
          "name": "topCastFid",
          "type": "uint256"
        },
        {
          "internalType": "uint256",
          "name": "timestamp",
          "type": "uint256"
        }
      ],
      "stateMutability": "view",
      "type": "function"
    },
    {
      "inputs": [],
      "name": "name",
      "outputs": [
        {
          "internalType": "string",
          "name": "",
          "type": "string"
        }
      ],
      "stateMutability": "view",
      "type": "function"
    },
    {
      "inputs": [],
      "name": "needsUpdate",
      "outputs": [
        {
          "internalType": "bool",
          "name": "",
          "type": "bool"
        }
      ],
      "stateMutability": "view",
      "type": "function"
    },
    {
      "inputs": [],
      "name": "owner",
      "outputs": [
        {
          "internalType": "address",
          "name": "",
          "type": "address"
        }
      ],
      "stateMutability": "view",
      "type": "function"
    },
    {
      "inputs": [],
      "name": "registry",
      "outputs": [
        {
          "internalType": "address",
          "name": "",
          "type": "address"
        }
      ],
      "stateMutability": "view",
      "type": "function"
    },
    {
      "inputs": [],
      "name": "renounceOwnership",
      "outputs": [],
      "stateMutability": "nonpayable",
      "type": "function"
    },
    {
      "inputs": [
        {
          "internalType": "uint256",
          "name": "_mentions24h",
          "type": "uint256"
        },
        {
          "internalType": "int256",
          "name": "_sentimentScore",
          "type": "int256"
        },
        {
          "internalType": "uint256",
          "name": "_engagementRate",
          "type": "uint256"
        },
        {
          "internalType": "uint256",
          "name": "_uniqueUsers",
          "type": "uint256"
        },
        {
          "internalType": "uint256",
          "name": "_totalEngagement",
          "type": "uint256"
        },
        {
          "internalType": "uint256",
          "name": "_topCastFid",
          "type": "uint256"
        }
      ],
      "name": "submitMetrics",
      "outputs": [],
      "stateMutability": "nonpayable",
      "type": "function"
    },
    {
      "inputs": [],
      "name": "symbol",
      "outputs": [
        {
          "internalType": "string",
          "name": "",
          "type": "string"
        }
      ],
      "stateMutability": "view",
      "type": "function"
    },
    {
      "inputs": [],
      "name": "targetToken",
      "outputs": [
        {
          "internalType": "string",
          "name": "",
          "type": "string"
        }
      ],
      "stateMutability": "view",
      "type": "function"
    },
    {
      "inputs": [
        {
          "internalType": "address",
          "name": "newOwner",
          "type": "address"
        }
      ],
      "name": "transferOwnership",
      "outputs": [],
      "stateMutability": "nonpayable",
      "type": "function"
    },
    {
      "inputs": [],
      "name": "updateFrequency",
      "outputs": [
        {
          "internalType": "uint256",
          "name": "",
          "type": "uint256"
        }
      ],
      "stateMutability": "view",
      "type": "function"
    },
    {
      "inputs": [
        {
          "internalType": "address[5]",
          "name": "_validators",
          "type": "address[5]"
        }
      ],
      "name": "updateValidators",
      "outputs": [],
      "stateMutability": "nonpayable",
      "type": "function"
    },
    {
      "inputs": [
        {
          "internalType": "address",
          "name": "",
          "type": "address"
        }
      ],
      "name": "validatorSubmissionCount",
      "outputs": [
        {
          "internalType": "uint256",
          "name": "",
          "type": "uint256"
        }
      ],
      "stateMutability": "view",
      "type": "function"
    },
    {
      "inputs": [
        {
          "internalType": "uint256",
          "name": "",
          "type": "uint256"
        }
      ],
      "name": "validators",
      "outputs": [
        {
          "internalType": "address",
          "name": "",
          "type": "address"
        }
      ],
      "stateMutability": "view",
      "type": "function"
    }
  ],
  "bytecode": "0x60806040523480156200001157600080fd5b5060405162001f2638038062001f268339810160408190526200003491620004a7565b33806200005c57604051631e4fbdf760e01b8152600060048201526024015b60405180910390fd5b6200006781620002e7565b5060018055603360ff85161080159062000085575060648460ff1611155b620000c75760405162461bcd60e51b8152602060048201526011602482015270125b9d985b1a59081d1a1c995cda1bdb19607a1b604482015260640162000053565b60008551116200011a5760405162461bcd60e51b815260206004820152601560248201527f54617267657420746f6b656e2072657175697265640000000000000000000000604482015260640162000053565b600262000128888262000613565b50600362000137878262000613565b50600462000146868262000613565b506005805460068590556001600160a81b031916600160a01b60ff8716026001600160a01b031916176001600160a01b03841617905560005b6005811015620002a0576000828260058110620001a057620001a0620006df565b60200201516001600160a01b031603620001f15760405162461bcd60e51b815260206004820152601160248201527024b73b30b634b2103b30b634b230ba37b960791b604482015260640162000053565b818160058110620002065762000206620006df565b602002015160088260058110620002215762000221620006df565b0180546001600160a01b0319166001600160a01b03929092169190911790556001600d60008484600581106200025b576200025b620006df565b602090810291909101516001600160a01b03168252810191909152604001600020805460ff1916911515919091179055806200029781620006f5565b9150506200017f565b507f0b97a76b184160ad9b56b3cd68a81377eec64b471b84ff87ba40304754c11b3a81604051620002d291906200071d565b60405180910390a15050505050505062000759565b600080546001600160a01b038381166001600160a01b0319831681178455604051919092169283917f8be0079c531659141344cd1fd0a4f28419497f9722a3daafe3b4186f6b6457e09190a35050565b634e487b7160e01b600052604160045260246000fd5b604051601f8201601f191681016001600160401b038111828210171562000378576200037862000337565b604052919050565b600082601f8301126200039257600080fd5b81516001600160401b03811115620003ae57620003ae62000337565b6020620003c4601f8301601f191682016200034d565b8281528582848701011115620003d957600080fd5b60005b83811015620003f9578581018301518282018401528201620003dc565b506000928101909101919091529392505050565b80516001600160a01b03811681146200042557600080fd5b919050565b600082601f8301126200043c57600080fd5b60405160a081016001600160401b038111828210171562000461576200046162000337565b6040528060a08401858111156200047757600080fd5b845b818110156200049c576200048d816200040d565b83526020928301920162000479565b509195945050505050565b6000806000806000806000610160888a031215620004c457600080fd5b87516001600160401b0380821115620004dc57600080fd5b620004ea8b838c0162000380565b985060208a01519150808211156200050157600080fd5b6200050f8b838c0162000380565b975060408a01519150808211156200052657600080fd5b50620005358a828b0162000380565b955050606088015160ff811681146200054d57600080fd5b608089015190945092506200056560a089016200040d565b9150620005768960c08a016200042a565b905092959891949750929550565b600181811c908216806200059957607f821691505b602082108103620005ba57634e487b7160e01b600052602260045260246000fd5b50919050565b601f8211156200060e57600081815260208120601f850160051c81016020861015620005e95750805b601f850160051c820191505b818110156200060a57828155600101620005f5565b5050505b505050565b81516001600160401b038111156200062f576200062f62000337565b620006478162000640845462000584565b84620005c0565b602080601f8311600181146200067f5760008415620006665750858301515b600019600386901b1c1916600185901b1785556200060a565b600085815260208120601f198616915b82811015620006b0578886015182559484019460019091019084016200068f565b5085821015620006cf5787850151600019600388901b60f8161c191681555b5050505050600190811b01905550565b634e487b7160e01b600052603260045260246000fd5b6000600182016200071657634e487b7160e01b600052601160045260246000fd5b5060010190565b60a08101818360005b6005811015620007505781516001600160a01b031683526020928301929091019060010162000726565b50505092915050565b6117bd80620007696000396000f3fe608060405234801561001057600080fd5b50600436106101415760003560e01c80638da5cb5b116100b8578063ee8132bd1161007c578063ee8132bd146102eb578063f2fde38b146102fe578063f7b92fcd14610311578063f9b0b5b914610333578063facd743b14610359578063fdce5e421461037c57600080fd5b80638da5cb5b1461029357806392ac27f9146102a457806395d89b41146102b7578063963398bd146102bf578063c0463711146102e257600080fd5b8063395924dc1161010a578063395924dc146101bd5780633e8686cc146102085780634d44b9e71461024d578063673ea0861461026d578063715018a6146102765780637b1039991461028057600080fd5b8062f1abf51461014657806306fdde031461015d578063327107f714610172578063346c94091461017a57806335aa2e4414610192575b600080fd5b6016545b6040519081526020015b60405180910390f35b610165610402565b604051610154919061150e565b610165610490565b61018261049d565b6040519015158152602001610154565b6101a56101a036600461155c565b6104b7565b6040516001600160a01b039091168152602001610154565b600f546010546011546012546013546014546015545b604080519788526020880196909652948601939093526060850191909152608084015260a083015260c082015260e001610154565b61021b61021636600461155c565b6104d7565b604080516001600160a01b0390961686526020860194909452928401919091526060830152608082015260a001610154565b61014a61025b366004611591565b600e6020526000908152604090205481565b61014a60065481565b61027e6105fb565b005b6005546101a5906001600160a01b031681565b6000546001600160a01b03166101a5565b61027e6102b23660046115c9565b61060f565b6101656107c6565b6101826102cd366004611591565b60176020526000908152604090205460ff1681565b61014a60075481565b61027e6102f936600461165c565b6107d3565b61027e61030c366004611591565b610c01565b600f546010546011546012546013546014546015546101d39695949392919087565b60055461034790600160a01b900460ff1681565b60405160ff9091168152602001610154565b610182610367366004611591565b600d6020526000908152604090205460ff1681565b61038f61038a36600461155c565b610c3f565b604080516001600160a01b03909516855283516020808701919091528401518582015283015160608086019190915283015160808086019190915283015160a08086019190915283015160c0808601919091529092015160e0840152610100830152151561012082015261014001610154565b6002805461040f9061169f565b80601f016020809104026020016040519081016040528092919081815260200182805461043b9061169f565b80156104885780601f1061045d57610100808354040283529160200191610488565b820191906000526020600020905b81548152906001019060200180831161046b57829003601f168201915b505050505081565b6004805461040f9061169f565b60006006546007546104af91906116ef565b421015905090565b600881600581106104c757600080fd5b01546001600160a01b0316905081565b600080600080600060168054905086106105285760405162461bcd60e51b815260206004820152600d60248201526c092dcecc2d8d2c840d2dcc8caf609b1b60448201526064015b60405180910390fd5b60006016878154811061053d5761053d611708565b60009182526020918290206040805160808082018352600a9490940290920180546001600160a01b03168352815160e08101835260018201548152600282015481870190815260038301548285019081526004840154606080850191909152600585015497840197909752600684015460a0840152600784015460c0840152968501829052600883015493850184905260099092015460ff161515948401949094529151925191519351929b919a5092985090965090945092505050565b610603610cce565b61060d6000610cfb565b565b610617610cce565b60005b6005811015610678576000600d60006008846005811061063c5761063c611708565b01546001600160a01b031681526020810191909152604001600020805460ff1916911515919091179055806106708161171e565b91505061061a565b5060005b600581101561078b57600082826005811061069957610699611708565b60200201516001600160a01b0316036106e85760405162461bcd60e51b815260206004820152601160248201527024b73b30b634b2103b30b634b230ba37b960791b604482015260640161051f565b8181600581106106fa576106fa611708565b60200201516008826005811061071257610712611708565b0180546001600160a01b0319166001600160a01b03929092169190911790556001600d600084846005811061074957610749611708565b602090810291909101516001600160a01b03168252810191909152604001600020805460ff1916911515919091179055806107838161171e565b91505061067c565b507f0b97a76b184160ad9b56b3cd68a81377eec64b471b84ff87ba40304754c11b3a816040516107bb9190611737565b60405180910390a150565b6003805461040f9061169f565b6107db610d4b565b336000908152600d602052604090205460ff1661082c5760405162461bcd60e51b815260206004820152600f60248201526e2737ba1030903b30b634b230ba37b960891b604482015260640161051f565b3360009081526017602052604090205460ff16156108805760405162461bcd60e51b8152602060048201526011602482015270105b1c9958591e481cdd589b5a5d1d1959607a1b604482015260640161051f565b61270f19851215801561089557506127108513155b6108d55760405162461bcd60e51b8152602060048201526011602482015270125b9d985b1a59081cd95b9d1a5b595b9d607a1b604482015260640161051f565b6127108411156109275760405162461bcd60e51b815260206004820152601760248201527f496e76616c696420656e676167656d656e742072617465000000000000000000604482015260640161051f565b6040805160e08101825287815260208082018890528183018790526060808301879052608080840187905260a08085018790524260c08087018290528751808501895233808252818801898152828b018581526000848a0181815260168054600180820183559184529651600a9097027fd833147d7dc355ba459fc788f669e58cfaf9dc25ddcd0702e87d69c7b5124289810180546001600160a01b039099166001600160a01b031990991698909817909755935180517fd833147d7dc355ba459fc788f669e58cfaf9dc25ddcd0702e87d69c7b512428a880155808d01517fd833147d7dc355ba459fc788f669e58cfaf9dc25ddcd0702e87d69c7b512428b880155808f01517fd833147d7dc355ba459fc788f669e58cfaf9dc25ddcd0702e87d69c7b512428c880155808c01517fd833147d7dc355ba459fc788f669e58cfaf9dc25ddcd0702e87d69c7b512428d880155998a01517fd833147d7dc355ba459fc788f669e58cfaf9dc25ddcd0702e87d69c7b512428e870155978901517fd833147d7dc355ba459fc788f669e58cfaf9dc25ddcd0702e87d69c7b512428f86015597909401517fd833147d7dc355ba459fc788f669e58cfaf9dc25ddcd0702e87d69c7b512429084015592517fd833147d7dc355ba459fc788f669e58cfaf9dc25ddcd0702e87d69c7b512429183015593517fd833147d7dc355ba459fc788f669e58cfaf9dc25ddcd0702e87d69c7b5124292909101805491151560ff1992831617905583855260178752888520805490911682179055600e865292879020805490930190925585518c81529384018b9052948301529192917fedfe439ddaf7fc9d12ba5b30d1ca8618f24fc50d6cfa8507ea429e40e07ee706910160405180910390a260006064600560149054906101000a900460ff1660050260ff1681610bd457610bd4611771565b0460ff1690508060168054905010610bee57610bee610d75565b5050610bf960018055565b505050505050565b610c09610cce565b6001600160a01b038116610c3357604051631e4fbdf760e01b81526000600482015260240161051f565b610c3c81610cfb565b50565b60168181548110610c4f57600080fd5b6000918252602091829020600a9091020180546040805160e081018252600184015481526002840154948101949094526003830154908401526004820154606084015260058201546080840152600682015460a0840152600782015460c084015260088201546009909201546001600160a01b03909116935060ff1684565b6000546001600160a01b0316331461060d5760405163118cdaa760e01b815233600482015260240161051f565b600080546001600160a01b038381166001600160a01b0319831681178455604051919092169283917f8be0079c531659141344cd1fd0a4f28419497f9722a3daafe3b4186f6b6457e09190a35050565b600260015403610d6e57604051633ee5aeb560e01b815260040160405180910390fd5b6002600155565b60165480610db65760405162461bcd60e51b815260206004820152600e60248201526d4e6f207375626d697373696f6e7360901b604482015260640161051f565b60008167ffffffffffffffff811115610dd157610dd16115b3565b604051908082528060200260200182016040528015610dfa578160200160208202803683370190505b50905060008267ffffffffffffffff811115610e1857610e186115b3565b604051908082528060200260200182016040528015610e41578160200160208202803683370190505b50905060008367ffffffffffffffff811115610e5f57610e5f6115b3565b604051908082528060200260200182016040528015610e88578160200160208202803683370190505b50905060008467ffffffffffffffff811115610ea657610ea66115b3565b604051908082528060200260200182016040528015610ecf578160200160208202803683370190505b50905060008567ffffffffffffffff811115610eed57610eed6115b3565b604051908082528060200260200182016040528015610f16578160200160208202803683370190505b50905060005b868110156110895760168181548110610f3757610f37611708565b90600052602060002090600a020160010160000154868281518110610f5e57610f5e611708565b60200260200101818152505060168181548110610f7d57610f7d611708565b90600052602060002090600a020160010160010154858281518110610fa457610fa4611708565b60200260200101818152505060168181548110610fc357610fc3611708565b90600052602060002090600a020160010160020154848281518110610fea57610fea611708565b6020026020010181815250506016818154811061100957611009611708565b90600052602060002090600a02016001016003015483828151811061103057611030611708565b6020026020010181815250506016818154811061104f5761104f611708565b90600052602060002090600a02016001016004015482828151811061107657611076611708565b6020908102919091010152600101610f1c565b5061109385611232565b61109c84611326565b6110a583611232565b6110ae82611232565b6110b781611232565b60006002870490506040518060e001604052808783815181106110dc576110dc611708565b602002602001015181526020018683815181106110fb576110fb611708565b6020026020010151815260200185838151811061111a5761111a611708565b6020026020010151815260200184838151811061113957611139611708565b6020026020010151815260200183838151811061115857611158611708565b60200260200101518152602001601660008154811061117957611179611708565b60009182526020918290206006600a9092020101548252429181018290528251600f81905590830151601081905560408085015160118190556060860151601255608086015160135560a086015160145560c0909501516015556007849055517f4a878493c5a0b8218095634b4c65c123c272527e6c6a94a92e4290fdd16fb5dd9461121c94909193845260208401929092526040830152606082015260800190565b60405180910390a1505050505050610c3c611415565b805160018111611240575050565b60005b600182038110156113215760005b6001828403038110156113185783816001018151811061127357611273611708565b602002602001015184828151811061128d5761128d611708565b60200260200101511115611310578381600101815181106112b0576112b0611708565b60200260200101518482815181106112ca576112ca611708565b60200260200101518583815181106112e4576112e4611708565b6020026020010186846001018151811061130057611300611708565b6020908102919091010191909152525b600101611251565b50600101611243565b505050565b805160018111611334575050565b60005b600182038110156113215760005b60018284030381101561140c5783816001018151811061136757611367611708565b602002602001015184828151811061138157611381611708565b60200260200101511315611404578381600101815181106113a4576113a4611708565b60200260200101518482815181106113be576113be611708565b60200260200101518583815181106113d8576113d8611708565b602002602001018684600101815181106113f4576113f4611708565b6020908102919091010191909152525b600101611345565b50600101611337565b60005b601654811015611486576000601760006016848154811061143b5761143b611708565b60009182526020808320600a92909202909101546001600160a01b031683528201929092526040019020805460ff19169115159190911790558061147e8161171e565b915050611418565b5061060d6016805460008255600a0290600052602060002090810190610c3c91905b8082111561150a5780546001600160a01b0319168155600060018201819055600282018190556003820181905560048201819055600582018190556006820181905560078201819055600882015560098101805460ff19169055600a016114a8565b5090565b600060208083528351808285015260005b8181101561153b5785810183015185820160400152820161151f565b506000604082860101526040601f19601f8301168501019250505092915050565b60006020828403121561156e57600080fd5b5035919050565b80356001600160a01b038116811461158c57600080fd5b919050565b6000602082840312156115a357600080fd5b6115ac82611575565b9392505050565b634e487b7160e01b600052604160045260246000fd5b600060a082840312156115db57600080fd5b82601f8301126115ea57600080fd5b60405160a0810181811067ffffffffffffffff8211171561161b57634e487b7160e01b600052604160045260246000fd5b6040528060a084018581111561163057600080fd5b845b818110156116515761164381611575565b835260209283019201611632565b509195945050505050565b60008060008060008060c0878903121561167557600080fd5b505084359660208601359650604086013595606081013595506080810135945060a0013592509050565b600181811c908216806116b357607f821691505b6020821081036116d357634e487b7160e01b600052602260045260246000fd5b50919050565b634e487b7160e01b600052601160045260246000fd5b80820180821115611702576117026116d9565b92915050565b634e487b7160e01b600052603260045260246000fd5b600060018201611730576117306116d9565b5060010190565b60a08101818360005b60058110156117685781516001600160a01b0316835260209283019290910190600101611740565b50505092915050565b634e487b7160e01b600052601260045260246000fdfea26469706673582212209ba07549572f16805ab30df0084e5eed17d4183faf6eeaf8918f436d7819088964736f6c63430008140033",
  "linkReferences": {},
  "deployedLinkReferences": {}
}