{
  "_format": "hh-sol-artifact-1",
  "contractName": "BuilderID",
  "sourceName": "contracts/BuilderID.sol",
  "abi": [
    {
      "inputs": [
        {
          "internalType": "string",
          "name": "_baseTokenURI",
          "type": "string"
        }
      ],
      "stateMutability": "nonpayable",
      "type": "constructor"
    },
    {
      "inputs": [
        {
          "internalType": "uint256",
          "name": "fid",
          "type": "uint256"
        }
      ],
      "name": "AlreadyMinted",
      "type": "error"
    },
    {
      "inputs": [
        {
          "internalType": "address",
          "name": "sender",
          "type": "address"
        },
        {
          "internalType": "uint256",
          "name": "tokenId",
          "type": "uint256"
        },
        {
          "internalType": "address",
          "name": "owner",
          "type": "address"
        }
      ],
      "name": "ERC721IncorrectOwner",
      "type": "error"
    },
    {
      "inputs": [
        {
          "internalType": "address",
          "name": "operator",
          "type": "address"
        },
        {
          "internalType": "uint256",
          "name": "tokenId",
          "type": "uint256"
        }
      ],
      "name": "ERC721InsufficientApproval",
      "type": "error"
    },
    {
      "inputs": [
        {
          "internalType": "address",
          "name": "approver",
          "type": "address"
        }
      ],
      "name": "ERC721InvalidApprover",
      "type": "error"
    },
    {
      "inputs": [
        {
          "internalType": "address",
          "name": "operator",
          "type": "address"
        }
      ],
      "name": "ERC721InvalidOperator",
      "type": "error"
    },
    {
      "inputs": [
        {
          "internalType": "address",
          "name": "owner",
          "type": "address"
        }
      ],
      "name": "ERC721InvalidOwner",
      "type": "error"
    },
    {
      "inputs": [
        {
          "internalType": "address",
          "name": "receiver",
          "type": "address"
        }
      ],
      "name": "ERC721InvalidReceiver",
      "type": "error"
    },
    {
      "inputs": [
        {
          "internalType": "address",
          "name": "sender",
          "type": "address"
        }
      ],
      "name": "ERC721InvalidSender",
      "type": "error"
    },
    {
      "inputs": [
        {
          "internalType": "uint256",
          "name": "tokenId",
          "type": "uint256"
        }
      ],
      "name": "ERC721NonexistentToken",
      "type": "error"
    },
    {
      "inputs": [],
      "name": "InsufficientPayment",
      "type": "error"
    },
    {
      "inputs": [],
      "name": "InvalidFID",
      "type": "error"
    },
    {
      "inputs": [
        {
          "internalType": "address",
          "name": "owner",
          "type": "address"
        }
      ],
      "name": "OwnableInvalidOwner",
      "type": "error"
    },
    {
      "inputs": [
        {
          "internalType": "address",
          "name": "account",
          "type": "address"
        }
      ],
      "name": "OwnableUnauthorizedAccount",
      "type": "error"
    },
    {
      "inputs": [],
      "name": "SoulboundToken",
      "type": "error"
    },
    {
      "inputs": [],
      "name": "WithdrawFailed",
      "type": "error"
    },
    {
      "anonymous": false,
      "inputs": [
        {
          "indexed": true,
          "internalType": "address",
          "name": "owner",
          "type": "address"
        },
        {
          "indexed": true,
          "internalType": "address",
          "name": "approved",
          "type": "address"
        },
        {
          "indexed": true,
          "internalType": "uint256",
          "name": "tokenId",
          "type": "uint256"
        }
      ],
      "name": "Approval",
      "type": "event"
    },
    {
      "anonymous": false,
      "inputs": [
        {
          "indexed": true,
          "internalType": "address",
          "name": "owner",
          "type": "address"
        },
        {
          "indexed": true,
          "internalType": "address",
          "name": "operator",
          "type": "address"
        },
        {
          "indexed": false,
          "internalType": "bool",
          "name": "approved",
          "type": "bool"
        }
      ],
      "name": "ApprovalForAll",
      "type": "event"
    },
    {
      "anonymous": false,
      "inputs": [
        {
          "indexed": false,
          "internalType": "string",
          "name": "newBaseURI",
          "type": "string"
        }
      ],
      "name": "BaseURIUpdated",
      "type": "event"
    },
    {
      "anonymous": false,
      "inputs": [
        {
          "indexed": false,
          "internalType": "uint256",
          "name": "_fromTokenId",
          "type": "uint256"
        },
        {
          "indexed": false,
          "internalType": "uint256",
          "name": "_toTokenId",
          "type": "uint256"
        }
      ],
      "name": "BatchMetadataUpdate",
      "type": "event"
    },
    {
      "anonymous": false,
      "inputs": [
        {
          "indexed": true,
          "internalType": "address",
          "name": "to",
          "type": "address"
        },
        {
          "indexed": true,
          "internalType": "uint256",
          "name": "tokenId",
          "type": "uint256"
        },
        {
          "indexed": true,
          "internalType": "uint256",
          "name": "fid",
          "type": "uint256"
        },
        {
          "indexed": false,
          "internalType": "string",
          "name": "username",
          "type": "string"
        }
      ],
      "name": "BuilderMinted",
      "type": "event"
    },
    {
      "anonymous": false,
      "inputs": [
        {
          "indexed": false,
          "internalType": "uint256",
          "name": "_tokenId",
          "type": "uint256"
        }
      ],
      "name": "MetadataUpdate",
      "type": "event"
    },
    {
      "anonymous": false,
      "inputs": [
        {
          "indexed": false,
          "internalType": "uint256",
          "name": "newPrice",
          "type": "uint256"
        }
      ],
      "name": "MintPriceUpdated",
      "type": "event"
    },
    {
      "anonymous": false,
      "inputs": [
        {
          "indexed": true,
          "internalType": "address",
          "name": "previousOwner",
          "type": "address"
        },
        {
          "indexed": true,
          "internalType": "address",
          "name": "newOwner",
          "type": "address"
        }
      ],
      "name": "OwnershipTransferred",
      "type": "event"
    },
    {
      "anonymous": false,
      "inputs": [
        {
          "indexed": true,
          "internalType": "address",
          "name": "from",
          "type": "address"
        },
        {
          "indexed": true,
          "internalType": "address",
          "name": "to",
          "type": "address"
        },
        {
          "indexed": true,
          "internalType": "uint256",
          "name": "tokenId",
          "type": "uint256"
        }
      ],
      "name": "Transfer",
      "type": "event"
    },
    {
      "anonymous": false,
      "inputs": [
        {
          "indexed": false,
          "internalType": "address",
          "name": "to",
          "type": "address"
        },
        {
          "indexed": false,
          "internalType": "uint256",
          "name": "amount",
          "type": "uint256"
        }
      ],
      "name": "Withdrawn",
      "type": "event"
    },
    {
      "inputs": [
        {
          "internalType": "address",
          "name": "to",
          "type": "address"
        },
        {
          "internalType": "uint256",
          "name": "tokenId",
          "type": "uint256"
        }
      ],
      "name": "approve",
      "outputs": [],
      "stateMutability": "nonpayable",
      "type": "function"
    },
    {
      "inputs": [
        {
          "internalType": "address",
          "name": "owner",
          "type": "address"
        }
      ],
      "name": "balanceOf",
      "outputs": [
        {
          "internalType": "uint256",
          "name": "",
          "type": "uint256"
        }
      ],
      "stateMutability": "view",
      "type": "function"
    },
    {
      "inputs": [],
      "name": "baseTokenURI",
      "outputs": [
        {
          "internalType": "string",
          "name": "",
          "type": "string"
        }
      ],
      "stateMutability": "view",
      "type": "function"
    },
    {
      "inputs": [
        {
          "internalType": "uint256",
          "name": "fid",
          "type": "uint256"
        },
        {
          "internalType": "string",
          "name": "username",
          "type": "string"
        }
      ],
      "name": "claim",
      "outputs": [],
      "stateMutability": "payable",
      "type": "function"
    },
    {
      "inputs": [
        {
          "internalType": "uint256",
          "name": "",
          "type": "uint256"
        }
      ],
      "name": "fidToTokenId",
      "outputs": [
        {
          "internalType": "uint256",
          "name": "",
          "type": "uint256"
        }
      ],
      "stateMutability": "view",
      "type": "function"
    },
    {
      "inputs": [
        {
          "internalType": "uint256",
          "name": "tokenId",
          "type": "uint256"
        }
      ],
      "name": "getApproved",
      "outputs": [
        {
          "internalType": "address",
          "name": "",
          "type": "address"
        }
      ],
      "stateMutability": "view",
      "type": "function"
    },
    {
      "inputs": [
        {
          "internalType": "uint256",
          "name": "tokenId",
          "type": "uint256"
        }
      ],
      "name": "getFidByTokenId",
      "outputs": [
        {
          "internalType": "uint256",
          "name": "",
          "type": "uint256"
        }
      ],
      "stateMutability": "view",
      "type": "function"
    },
    {
      "inputs": [
        {
          "internalType": "uint256",
          "name": "fid",
          "type": "uint256"
        }
      ],
      "name": "getTokenIdByFid",
      "outputs": [
        {
          "internalType": "uint256",
          "name": "",
          "type": "uint256"
        }
      ],
      "stateMutability": "view",
      "type": "function"
    },
    {
      "inputs": [
        {
          "internalType": "uint256",
          "name": "fid",
          "type": "uint256"
        }
      ],
      "name": "hasBuilderID",
      "outputs": [
        {
          "internalType": "bool",
          "name": "",
          "type": "bool"
        }
      ],
      "stateMutability": "view",
      "type": "function"
    },
    {
      "inputs": [
        {
          "internalType": "uint256",
          "name": "",
          "type": "uint256"
        }
      ],
      "name": "hasMinted",
      "outputs": [
        {
          "internalType": "bool",
          "name": "",
          "type": "bool"
        }
      ],
      "stateMutability": "view",
      "type": "function"
    },
    {
      "inputs": [
        {
          "internalType": "address",
          "name": "owner",
          "type": "address"
        },
        {
          "internalType": "address",
          "name": "operator",
          "type": "address"
        }
      ],
      "name": "isApprovedForAll",
      "outputs": [
        {
          "internalType": "bool",
          "name": "",
          "type": "bool"
        }
      ],
      "stateMutability": "view",
      "type": "function"
    },
    {
      "inputs": [
        {
          "internalType": "address",
          "name": "to",
          "type": "address"
        },
        {
          "internalType": "uint256",
          "name": "fid",
          "type": "uint256"
        },
        {
          "internalType": "string",
          "name": "username",
          "type": "string"
        }
      ],
      "name": "mint",
      "outputs": [],
      "stateMutability": "nonpayable",
      "type": "function"
    },
    {
      "inputs": [],
      "name": "mintPrice",
      "outputs": [
        {
          "internalType": "uint256",
          "name": "",
          "type": "uint256"
        }
      ],
      "stateMutability": "view",
      "type": "function"
    },
    {
      "inputs": [],
      "name": "name",
      "outputs": [
        {
          "internalType": "string",
          "name": "",
          "type": "string"
        }
      ],
      "stateMutability": "view",
      "type": "function"
    },
    {
      "inputs": [],
      "name": "owner",
      "outputs": [
        {
          "internalType": "address",
          "name": "",
          "type": "address"
        }
      ],
      "stateMutability": "view",
      "type": "function"
    },
    {
      "inputs": [
        {
          "internalType": "uint256",
          "name": "tokenId",
          "type": "uint256"
        }
      ],
      "name": "ownerOf",
      "outputs": [
        {
          "internalType": "address",
          "name": "",
          "type": "address"
        }
      ],
      "stateMutability": "view",
      "type": "function"
    },
    {
      "inputs": [],
      "name": "renounceOwnership",
      "outputs": [],
      "stateMutability": "nonpayable",
      "type": "function"
    },
    {
      "inputs": [
        {
          "internalType": "address",
          "name": "from",
          "type": "address"
        },
        {
          "internalType": "address",
          "name": "to",
          "type": "address"
        },
        {
          "internalType": "uint256",
          "name": "tokenId",
          "type": "uint256"
        }
      ],
      "name": "safeTransferFrom",
      "outputs": [],
      "stateMutability": "nonpayable",
      "type": "function"
    },
    {
      "inputs": [
        {
          "internalType": "address",
          "name": "from",
          "type": "address"
        },
        {
          "internalType": "address",
          "name": "to",
          "type": "address"
        },
        {
          "internalType": "uint256",
          "name": "tokenId",
          "type": "uint256"
        },
        {
          "internalType": "bytes",
          "name": "data",
          "type": "bytes"
        }
      ],
      "name": "safeTransferFrom",
      "outputs": [],
      "stateMutability": "nonpayable",
      "type": "function"
    },
    {
      "inputs": [
        {
          "internalType": "address",
          "name": "operator",
          "type": "address"
        },
        {
          "internalType": "bool",
          "name": "approved",
          "type": "bool"
        }
      ],
      "name": "setApprovalForAll",
      "outputs": [],
      "stateMutability": "nonpayable",
      "type": "function"
    },
    {
      "inputs": [
        {
          "internalType": "string",
          "name": "newBaseURI",
          "type": "string"
        }
      ],
      "name": "setBaseURI",
      "outputs": [],
      "stateMutability": "nonpayable",
      "type": "function"
    },
    {
      "inputs": [
        {
          "internalType": "uint256",
          "name": "newPrice",
          "type": "uint256"
        }
      ],
      "name": "setMintPrice",
      "outputs": [],
      "stateMutability": "nonpayable",
      "type": "function"
    },
    {
      "inputs": [
        {
          "internalType": "bytes4",
          "name": "interfaceId",
          "type": "bytes4"
        }
      ],
      "name": "supportsInterface",
      "outputs": [
        {
          "internalType": "bool",
          "name": "",
          "type": "bool"
        }
      ],
      "stateMutability": "view",
      "type": "function"
    },
    {
      "inputs": [],
      "name": "symbol",
      "outputs": [
        {
          "internalType": "string",
          "name": "",
          "type": "string"
        }
      ],
      "stateMutability": "view",
      "type": "function"
    },
    {
      "inputs": [
        {
          "internalType": "uint256",
          "name": "",
          "type": "uint256"
        }
      ],
      "name": "tokenIdToFid",
      "outputs": [
        {
          "internalType": "uint256",
          "name": "",
          "type": "uint256"
        }
      ],
      "stateMutability": "view",
      "type": "function"
    },
    {
      "inputs": [
        {
          "internalType": "uint256",
          "name": "tokenId",
          "type": "uint256"
        }
      ],
      "name": "tokenURI",
      "outputs": [
        {
          "internalType": "string",
          "name": "",
          "type": "string"
        }
      ],
      "stateMutability": "view",
      "type": "function"
    },
    {
      "inputs": [],
      "name": "totalSupply",
      "outputs": [
        {
          "internalType": "uint256",
          "name": "",
          "type": "uint256"
        }
      ],
      "stateMutability": "view",
      "type": "function"
    },
    {
      "inputs": [
        {
          "internalType": "address",
          "name": "from",
          "type": "address"
        },
        {
          "internalType": "address",
          "name": "to",
          "type": "address"
        },
        {
          "internalType": "uint256",
          "name": "tokenId",
          "type": "uint256"
        }
      ],
      "name": "transferFrom",
      "outputs": [],
      "stateMutability": "nonpayable",
      "type": "function"
    },
    {
      "inputs": [
        {
          "internalType": "address",
          "name": "newOwner",
          "type": "address"
        }
      ],
      "name": "transferOwnership",
      "outputs": [],
      "stateMutability": "nonpayable",
      "type": "function"
    },
    {
      "inputs": [
        {
          "internalType": "address",
          "name": "to",
          "type": "address"
        }
      ],
      "name": "withdraw",
      "outputs": [],
      "stateMutability": "nonpayable",
      "type": "function"
    }
  ],
  "bytecode": "0x6080604052655af3107a40006008553480156200001b57600080fd5b5060405162002001380380620020018339810160408190526200003e916200015e565b336040518060400160405280600a815260200169109d5a5b19195c88125160b21b81525060405180604001604052806007815260200166212aa4a62222a960c91b8152508160009081620000939190620002c2565b506001620000a28282620002c2565b5050506001600160a01b038116620000d457604051631e4fbdf760e01b81526000600482015260240160405180910390fd5b620000df81620000f6565b506009620000ee8282620002c2565b50506200038e565b600780546001600160a01b038381166001600160a01b0319831681179093556040519116919082907f8be0079c531659141344cd1fd0a4f28419497f9722a3daafe3b4186f6b6457e090600090a35050565b634e487b7160e01b600052604160045260246000fd5b600060208083850312156200017257600080fd5b82516001600160401b03808211156200018a57600080fd5b818501915085601f8301126200019f57600080fd5b815181811115620001b457620001b462000148565b604051601f8201601f19908116603f01168101908382118183101715620001df57620001df62000148565b816040528281528886848701011115620001f857600080fd5b600093505b828410156200021c5784840186015181850187015292850192620001fd565b600086848301015280965050505050505092915050565b600181811c908216806200024857607f821691505b6020821081036200026957634e487b7160e01b600052602260045260246000fd5b50919050565b601f821115620002bd57600081815260208120601f850160051c81016020861015620002985750805b601f850160051c820191505b81811015620002b957828155600101620002a4565b5050505b505050565b81516001600160401b03811115620002de57620002de62000148565b620002f681620002ef845462000233565b846200026f565b602080601f8311600181146200032e5760008415620003155750858301515b600019600386901b1c1916600185901b178555620002b9565b600085815260208120601f198616915b828110156200035f578886015182559484019460019091019084016200033e565b50858210156200037e5787850151600019600388901b60f8161c191681555b5050505050600190811b01905550565b611c63806200039e6000396000f3fe6080604052600436106101cd5760003560e01c8063715018a6116100f7578063c87b56dd11610095578063e5b9559511610064578063e5b9559514610532578063e985e9c514610562578063f2fde38b14610582578063f4a0a528146105a257600080fd5b8063c87b56dd146104ad578063d3fc9864146104cd578063d547cfb7146104ed578063ddb435f91461050257600080fd5b806393bc7214116100d157806393bc72141461042b57806395d89b4114610458578063a22cb4651461046d578063b88d4fde1461048d57600080fd5b8063715018a6146103d85780637949694e146103ed5780638da5cb5b1461040d57600080fd5b80633b4d03561161016f57806355f804b31161013e57806355f804b3146103625780636352211e146103825780636817c76c146103a257806370a08231146103b857600080fd5b80633b4d0356146102d55780633f0b49c8146102f557806342842e0e1461032257806351cff8d91461034257600080fd5b8063095ea7b3116101ab578063095ea7b31461026157806318160ddd1461028357806323b872dd146102a2578063268b15ed146102c257600080fd5b806301ffc9a7146101d257806306fdde0314610207578063081812fc14610229575b600080fd5b3480156101de57600080fd5b506101f26101ed3660046115cc565b6105c2565b60405190151581526020015b60405180910390f35b34801561021357600080fd5b5061021c6105d3565b6040516101fe9190611640565b34801561023557600080fd5b50610249610244366004611653565b610665565b6040516001600160a01b0390911681526020016101fe565b34801561026d57600080fd5b5061028161027c366004611688565b61068e565b005b34801561028f57600080fd5b50600d545b6040519081526020016101fe565b3480156102ae57600080fd5b506102816102bd3660046116b2565b61069d565b6102816102d0366004611737565b61072d565b3480156102e157600080fd5b506102946102f0366004611653565b610853565b34801561030157600080fd5b50610294610310366004611653565b600b6020526000908152604090205481565b34801561032e57600080fd5b5061028161033d3660046116b2565b6108c3565b34801561034e57600080fd5b5061028161035d366004611783565b6108de565b34801561036e57600080fd5b5061028161037d36600461179e565b6109a1565b34801561038e57600080fd5b5061024961039d366004611653565b6109f4565b3480156103ae57600080fd5b5061029460085481565b3480156103c457600080fd5b506102946103d3366004611783565b6109ff565b3480156103e457600080fd5b50610281610a47565b3480156103f957600080fd5b50610294610408366004611653565b610a5b565b34801561041957600080fd5b506007546001600160a01b0316610249565b34801561043757600080fd5b50610294610446366004611653565b600a6020526000908152604090205481565b34801561046457600080fd5b5061021c610ac1565b34801561047957600080fd5b506102816104883660046117e0565b610ad0565b34801561049957600080fd5b506102816104a8366004611832565b610adb565b3480156104b957600080fd5b5061021c6104c8366004611653565b610af3565b3480156104d957600080fd5b506102816104e836600461190e565b610b41565b3480156104f957600080fd5b5061021c610ba9565b34801561050e57600080fd5b506101f261051d366004611653565b6000908152600c602052604090205460ff1690565b34801561053e57600080fd5b506101f261054d366004611653565b600c6020526000908152604090205460ff1681565b34801561056e57600080fd5b506101f261057d366004611968565b610c37565b34801561058e57600080fd5b5061028161059d366004611783565b610c65565b3480156105ae57600080fd5b506102816105bd366004611653565b610ca3565b60006105cd82610ce6565b92915050565b6060600080546105e29061199b565b80601f016020809104026020016040519081016040528092919081815260200182805461060e9061199b565b801561065b5780601f106106305761010080835404028352916020019161065b565b820191906000526020600020905b81548152906001019060200180831161063e57829003601f168201915b5050505050905090565b600061067082610d0b565b506000828152600460205260409020546001600160a01b03166105cd565b610699828233610d44565b5050565b6001600160a01b0382166106cc57604051633250574960e11b8152600060048201526024015b60405180910390fd5b60006106d9838333610d51565b9050836001600160a01b0316816001600160a01b031614610727576040516364283d7b60e01b81526001600160a01b03808616600483015260248201849052821660448201526064016106c3565b50505050565b8260000361074e5760405163c1408aaf60e01b815260040160405180910390fd5b6000838152600c602052604090205460ff1615610781576040516314b27b7f60e31b8152600481018490526024016106c3565b6008543410156107a45760405163cd1c886760e01b815260040160405180910390fd5b6107b033848484610db2565b60085434111561084e5760085460009033906107cc90346119eb565b604051600081818185875af1925050503d8060008114610808576040519150601f19603f3d011682016040523d82523d6000602084013e61080d565b606091505b50509050806107275760405162461bcd60e51b815260206004820152600d60248201526c1499599d5b990819985a5b1959609a1b60448201526064016106c3565b505050565b6000818152600b602052604081205415158061086d575081155b6108b05760405162461bcd60e51b8152602060048201526014602482015273151bdad95b88191bd95cc81b9bdd08195e1a5cdd60621b60448201526064016106c3565b506000908152600b602052604090205490565b61084e83838360405180602001604052806000815250610adb565b6108e6610e52565b60405147906000906001600160a01b0384169083908381818185875af1925050503d8060008114610933576040519150601f19603f3d011682016040523d82523d6000602084013e610938565b606091505b505090508061095a57604051631d42c86760e21b815260040160405180910390fd5b604080516001600160a01b0385168152602081018490527f7084f5476618d8e60b11ef0d7d3f06914655adb8793e28ff7f018d4c76d505d5910160405180910390a1505050565b6109a9610e52565b60096109b6828483611a44565b507f6741b2fc379fad678116fe3d4d4b9a1a184ab53ba36b86ad0fa66340b1ab41ad82826040516109e8929190611b04565b60405180910390a15050565b60006105cd82610d0b565b60006001600160a01b038216610a2b576040516322718ad960e21b8152600060048201526024016106c3565b506001600160a01b031660009081526003602052604090205490565b610a4f610e52565b610a596000610e7f565b565b6000818152600c602052604081205460ff16610aae5760405162461bcd60e51b8152602060048201526012602482015271119251081a185cc81b9bdd081b5a5b9d195960721b60448201526064016106c3565b506000908152600a602052604090205490565b6060600180546105e29061199b565b610699338383610ed1565b610ae684848461069d565b6107273385858585610f70565b6060610afe82610d0b565b506000828152600b60205260409020546009610b198261109b565b604051602001610b2a929190611b33565b604051602081830303815290604052915050919050565b610b49610e52565b82600003610b6a5760405163c1408aaf60e01b815260040160405180910390fd5b6000838152600c602052604090205460ff1615610b9d576040516314b27b7f60e31b8152600481018490526024016106c3565b61072784848484610db2565b60098054610bb69061199b565b80601f0160208091040260200160405190810160405280929190818152602001828054610be29061199b565b8015610c2f5780601f10610c0457610100808354040283529160200191610c2f565b820191906000526020600020905b815481529060010190602001808311610c1257829003601f168201915b505050505081565b6001600160a01b03918216600090815260056020908152604080832093909416825291909152205460ff1690565b610c6d610e52565b6001600160a01b038116610c9757604051631e4fbdf760e01b8152600060048201526024016106c3565b610ca081610e7f565b50565b610cab610e52565b60088190556040518181527f525b762709cc2a983aec5ccdfd807a061f993c91090b5bcd7da92ca254976aaa9060200160405180910390a150565b60006001600160e01b03198216632483248360e11b14806105cd57506105cd8261112e565b6000818152600260205260408120546001600160a01b0316806105cd57604051637e27328960e01b8152600481018490526024016106c3565b61084e838383600161117e565b6000828152600260205260408120546001600160a01b03168015801590610d8057506001600160a01b03851615155b15610d9e57604051636e10574960e01b815260040160405180910390fd5b610da9858585611284565b95945050505050565b600d80549081906000610dc483611bba565b90915550506000848152600c60209081526040808320805460ff19166001179055600a8252808320849055838352600b9091529020849055610e06858261137d565b8381866001600160a01b03167fbb1d689a609db333f76d56140a92b47b79220a064a79a33ae3c97c1856bce8438686604051610e43929190611b04565b60405180910390a45050505050565b6007546001600160a01b03163314610a595760405163118cdaa760e01b81523360048201526024016106c3565b600780546001600160a01b038381166001600160a01b0319831681179093556040519116919082907f8be0079c531659141344cd1fd0a4f28419497f9722a3daafe3b4186f6b6457e090600090a35050565b6001600160a01b038216610f0357604051630b61174360e31b81526001600160a01b03831660048201526024016106c3565b6001600160a01b03838116600081815260056020908152604080832094871680845294825291829020805460ff191686151590811790915591519182527f17307eab39ab6107e8899845ad3d59bd9653f200f220920489ca2b5937696c31910160405180910390a3505050565b6001600160a01b0383163b1561109457604051630a85bd0160e11b81526001600160a01b0384169063150b7a0290610fb2908890889087908790600401611bd3565b6020604051808303816000875af1925050508015610fed575060408051601f3d908101601f19168201909252610fea91810190611c10565b60015b611056573d80801561101b576040519150601f19603f3d011682016040523d82523d6000602084013e611020565b606091505b50805160000361104e57604051633250574960e11b81526001600160a01b03851660048201526024016106c3565b805160208201fd5b6001600160e01b03198116630a85bd0160e11b1461109257604051633250574960e11b81526001600160a01b03851660048201526024016106c3565b505b5050505050565b606060006110a883611397565b600101905060008167ffffffffffffffff8111156110c8576110c861181c565b6040519080825280601f01601f1916602001820160405280156110f2576020820181803683370190505b5090508181016020015b600019016f181899199a1a9b1b9c1cb0b131b232b360811b600a86061a8153600a85049450846110fc57509392505050565b60006001600160e01b031982166380ac58cd60e01b148061115f57506001600160e01b03198216635b5e139f60e01b145b806105cd57506301ffc9a760e01b6001600160e01b03198316146105cd565b808061119257506001600160a01b03821615155b156112545760006111a284610d0b565b90506001600160a01b038316158015906111ce5750826001600160a01b0316816001600160a01b031614155b80156111e157506111df8184610c37565b155b1561120a5760405163a9fbf51f60e01b81526001600160a01b03841660048201526024016106c3565b81156112525783856001600160a01b0316826001600160a01b03167f8c5be1e5ebec7d5bd14f71427d1e84f3dd0314c0f7b2291e5b200ac8c7c3b92560405160405180910390a45b505b5050600090815260046020526040902080546001600160a01b0319166001600160a01b0392909216919091179055565b6000828152600260205260408120546001600160a01b03908116908316156112b1576112b181848661146f565b6001600160a01b038116156112ef576112ce60008560008061117e565b6001600160a01b038116600090815260036020526040902080546000190190555b6001600160a01b0385161561131e576001600160a01b0385166000908152600360205260409020805460010190555b60008481526002602052604080822080546001600160a01b0319166001600160a01b0389811691821790925591518793918516917fddf252ad1be2c89b69c2b068fc378daa952ba7f163c4a11628f55a4df523b3ef91a4949350505050565b6106998282604051806020016040528060008152506114d3565b60008072184f03e93ff9f4daa797ed6e38ed64bf6a1f0160401b83106113d65772184f03e93ff9f4daa797ed6e38ed64bf6a1f0160401b830492506040015b6d04ee2d6d415b85acef81000000008310611402576d04ee2d6d415b85acef8100000000830492506020015b662386f26fc10000831061142057662386f26fc10000830492506010015b6305f5e1008310611438576305f5e100830492506008015b612710831061144c57612710830492506004015b6064831061145e576064830492506002015b600a83106105cd5760010192915050565b61147a8383836114eb565b61084e576001600160a01b0383166114a857604051637e27328960e01b8152600481018290526024016106c3565b60405163177e802f60e01b81526001600160a01b0383166004820152602481018290526044016106c3565b6114dd8383611551565b61084e336000858585610f70565b60006001600160a01b038316158015906115495750826001600160a01b0316846001600160a01b0316148061152557506115258484610c37565b8061154957506000828152600460205260409020546001600160a01b038481169116145b949350505050565b6001600160a01b03821661157b57604051633250574960e11b8152600060048201526024016106c3565b600061158983836000610d51565b90506001600160a01b0381161561084e576040516339e3563760e11b8152600060048201526024016106c3565b6001600160e01b031981168114610ca057600080fd5b6000602082840312156115de57600080fd5b81356115e9816115b6565b9392505050565b60005b8381101561160b5781810151838201526020016115f3565b50506000910152565b6000815180845261162c8160208601602086016115f0565b601f01601f19169290920160200192915050565b6020815260006115e96020830184611614565b60006020828403121561166557600080fd5b5035919050565b80356001600160a01b038116811461168357600080fd5b919050565b6000806040838503121561169b57600080fd5b6116a48361166c565b946020939093013593505050565b6000806000606084860312156116c757600080fd5b6116d08461166c565b92506116de6020850161166c565b9150604084013590509250925092565b60008083601f84011261170057600080fd5b50813567ffffffffffffffff81111561171857600080fd5b60208301915083602082850101111561173057600080fd5b9250929050565b60008060006040848603121561174c57600080fd5b83359250602084013567ffffffffffffffff81111561176a57600080fd5b611776868287016116ee565b9497909650939450505050565b60006020828403121561179557600080fd5b6115e98261166c565b600080602083850312156117b157600080fd5b823567ffffffffffffffff8111156117c857600080fd5b6117d4858286016116ee565b90969095509350505050565b600080604083850312156117f357600080fd5b6117fc8361166c565b91506020830135801515811461181157600080fd5b809150509250929050565b634e487b7160e01b600052604160045260246000fd5b6000806000806080858703121561184857600080fd5b6118518561166c565b935061185f6020860161166c565b925060408501359150606085013567ffffffffffffffff8082111561188357600080fd5b818701915087601f83011261189757600080fd5b8135818111156118a9576118a961181c565b604051601f8201601f19908116603f011681019083821181831017156118d1576118d161181c565b816040528281528a60208487010111156118ea57600080fd5b82602086016020830137600060208483010152809550505050505092959194509250565b6000806000806060858703121561192457600080fd5b61192d8561166c565b935060208501359250604085013567ffffffffffffffff81111561195057600080fd5b61195c878288016116ee565b95989497509550505050565b6000806040838503121561197b57600080fd5b6119848361166c565b91506119926020840161166c565b90509250929050565b600181811c908216806119af57607f821691505b6020821081036119cf57634e487b7160e01b600052602260045260246000fd5b50919050565b634e487b7160e01b600052601160045260246000fd5b818103818111156105cd576105cd6119d5565b601f82111561084e57600081815260208120601f850160051c81016020861015611a255750805b601f850160051c820191505b8181101561109257828155600101611a31565b67ffffffffffffffff831115611a5c57611a5c61181c565b611a7083611a6a835461199b565b836119fe565b6000601f841160018114611aa45760008515611a8c5750838201355b600019600387901b1c1916600186901b178355611094565b600083815260209020601f19861690835b82811015611ad55786850135825560209485019460019092019101611ab5565b5086821015611af25760001960f88860031b161c19848701351681555b505060018560011b0183555050505050565b60208152816020820152818360408301376000818301604090810191909152601f909201601f19160101919050565b6000808454611b418161199b565b60018281168015611b595760018114611b6e57611b9d565b60ff1984168752821515830287019450611b9d565b8860005260208060002060005b85811015611b945781548a820152908401908201611b7b565b50505082870194505b505050508351611bb18183602088016115f0565b01949350505050565b600060018201611bcc57611bcc6119d5565b5060010190565b6001600160a01b0385811682528416602082015260408101839052608060608201819052600090611c0690830184611614565b9695505050505050565b600060208284031215611c2257600080fd5b81516115e9816115b656fea2646970667358221220df39780a191f0c7530d246578ee18f8e802a6530e0bbd8157c97f6516a8bd56564736f6c63430008140033",
  "linkReferences": {},
  "deployedLinkReferences": {}
}