{
  "_format": "hh-sol-artifact-1",
  "contractName": "ClawgFeeSplitter",
  "sourceName": "contracts/ClawgFeeSplitter.sol",
  "abi": [
    {
      "inputs": [
        {
          "internalType": "address",
          "name": "_stakingContract",
          "type": "address"
        },
        {
          "internalType": "address",
          "name": "_treasury",
          "type": "address"
        },
        {
          "internalType": "address",
          "name": "_clawgToken",
          "type": "address"
        },
        {
          "internalType": "address",
          "name": "_owner",
          "type": "address"
        }
      ],
      "stateMutability": "nonpayable",
      "type": "constructor"
    },
    {
      "inputs": [
        {
          "internalType": "address",
          "name": "owner",
          "type": "address"
        }
      ],
      "name": "OwnableInvalidOwner",
      "type": "error"
    },
    {
      "inputs": [
        {
          "internalType": "address",
          "name": "account",
          "type": "address"
        }
      ],
      "name": "OwnableUnauthorizedAccount",
      "type": "error"
    },
    {
      "inputs": [],
      "name": "ReentrancyGuardReentrantCall",
      "type": "error"
    },
    {
      "inputs": [
        {
          "internalType": "address",
          "name": "token",
          "type": "address"
        }
      ],
      "name": "SafeERC20FailedOperation",
      "type": "error"
    },
    {
      "anonymous": false,
      "inputs": [
        {
          "indexed": true,
          "internalType": "address",
          "name": "token",
          "type": "address"
        },
        {
          "indexed": false,
          "internalType": "uint256",
          "name": "toStakers",
          "type": "uint256"
        },
        {
          "indexed": false,
          "internalType": "uint256",
          "name": "toTreasury",
          "type": "uint256"
        },
        {
          "indexed": true,
          "internalType": "address",
          "name": "caller",
          "type": "address"
        }
      ],
      "name": "Distributed",
      "type": "event"
    },
    {
      "anonymous": false,
      "inputs": [
        {
          "indexed": false,
          "internalType": "uint256",
          "name": "amount",
          "type": "uint256"
        }
      ],
      "name": "ETHReceived",
      "type": "event"
    },
    {
      "anonymous": false,
      "inputs": [
        {
          "indexed": true,
          "internalType": "address",
          "name": "previousOwner",
          "type": "address"
        },
        {
          "indexed": true,
          "internalType": "address",
          "name": "newOwner",
          "type": "address"
        }
      ],
      "name": "OwnershipTransferStarted",
      "type": "event"
    },
    {
      "anonymous": false,
      "inputs": [
        {
          "indexed": true,
          "internalType": "address",
          "name": "previousOwner",
          "type": "address"
        },
        {
          "indexed": true,
          "internalType": "address",
          "name": "newOwner",
          "type": "address"
        }
      ],
      "name": "OwnershipTransferred",
      "type": "event"
    },
    {
      "anonymous": false,
      "inputs": [
        {
          "indexed": true,
          "internalType": "address",
          "name": "token",
          "type": "address"
        }
      ],
      "name": "TokenAdded",
      "type": "event"
    },
    {
      "anonymous": false,
      "inputs": [
        {
          "indexed": true,
          "internalType": "address",
          "name": "oldTreasury",
          "type": "address"
        },
        {
          "indexed": true,
          "internalType": "address",
          "name": "newTreasury",
          "type": "address"
        }
      ],
      "name": "TreasuryUpdated",
      "type": "event"
    },
    {
      "inputs": [],
      "name": "BPS_DENOMINATOR",
      "outputs": [
        {
          "internalType": "uint256",
          "name": "",
          "type": "uint256"
        }
      ],
      "stateMutability": "view",
      "type": "function"
    },
    {
      "inputs": [],
      "name": "CLAWG",
      "outputs": [
        {
          "internalType": "address",
          "name": "",
          "type": "address"
        }
      ],
      "stateMutability": "view",
      "type": "function"
    },
    {
      "inputs": [],
      "name": "MIN_DISTRIBUTE",
      "outputs": [
        {
          "internalType": "uint256",
          "name": "",
          "type": "uint256"
        }
      ],
      "stateMutability": "view",
      "type": "function"
    },
    {
      "inputs": [],
      "name": "STAKERS_BPS",
      "outputs": [
        {
          "internalType": "uint256",
          "name": "",
          "type": "uint256"
        }
      ],
      "stateMutability": "view",
      "type": "function"
    },
    {
      "inputs": [],
      "name": "TREASURY_BPS",
      "outputs": [
        {
          "internalType": "uint256",
          "name": "",
          "type": "uint256"
        }
      ],
      "stateMutability": "view",
      "type": "function"
    },
    {
      "inputs": [],
      "name": "WETH",
      "outputs": [
        {
          "internalType": "address",
          "name": "",
          "type": "address"
        }
      ],
      "stateMutability": "view",
      "type": "function"
    },
    {
      "inputs": [],
      "name": "acceptOwnership",
      "outputs": [],
      "stateMutability": "nonpayable",
      "type": "function"
    },
    {
      "inputs": [
        {
          "internalType": "address",
          "name": "token",
          "type": "address"
        }
      ],
      "name": "addFeeToken",
      "outputs": [],
      "stateMutability": "nonpayable",
      "type": "function"
    },
    {
      "inputs": [
        {
          "internalType": "address",
          "name": "token",
          "type": "address"
        }
      ],
      "name": "distribute",
      "outputs": [],
      "stateMutability": "nonpayable",
      "type": "function"
    },
    {
      "inputs": [],
      "name": "distributeAll",
      "outputs": [],
      "stateMutability": "nonpayable",
      "type": "function"
    },
    {
      "inputs": [
        {
          "internalType": "address",
          "name": "token",
          "type": "address"
        },
        {
          "internalType": "address",
          "name": "to",
          "type": "address"
        },
        {
          "internalType": "uint256",
          "name": "amount",
          "type": "uint256"
        }
      ],
      "name": "emergencyWithdraw",
      "outputs": [],
      "stateMutability": "nonpayable",
      "type": "function"
    },
    {
      "inputs": [
        {
          "internalType": "uint256",
          "name": "",
          "type": "uint256"
        }
      ],
      "name": "feeTokens",
      "outputs": [
        {
          "internalType": "address",
          "name": "",
          "type": "address"
        }
      ],
      "stateMutability": "view",
      "type": "function"
    },
    {
      "inputs": [],
      "name": "getFeeTokens",
      "outputs": [
        {
          "internalType": "address[]",
          "name": "",
          "type": "address[]"
        }
      ],
      "stateMutability": "view",
      "type": "function"
    },
    {
      "inputs": [
        {
          "internalType": "address",
          "name": "",
          "type": "address"
        }
      ],
      "name": "isFeeToken",
      "outputs": [
        {
          "internalType": "bool",
          "name": "",
          "type": "bool"
        }
      ],
      "stateMutability": "view",
      "type": "function"
    },
    {
      "inputs": [],
      "name": "owner",
      "outputs": [
        {
          "internalType": "address",
          "name": "",
          "type": "address"
        }
      ],
      "stateMutability": "view",
      "type": "function"
    },
    {
      "inputs": [
        {
          "internalType": "address",
          "name": "token",
          "type": "address"
        }
      ],
      "name": "pendingFees",
      "outputs": [
        {
          "internalType": "uint256",
          "name": "",
          "type": "uint256"
        }
      ],
      "stateMutability": "view",
      "type": "function"
    },
    {
      "inputs": [],
      "name": "pendingOwner",
      "outputs": [
        {
          "internalType": "address",
          "name": "",
          "type": "address"
        }
      ],
      "stateMutability": "view",
      "type": "function"
    },
    {
      "inputs": [],
      "name": "renounceOwnership",
      "outputs": [],
      "stateMutability": "nonpayable",
      "type": "function"
    },
    {
      "inputs": [
        {
          "internalType": "address",
          "name": "_treasury",
          "type": "address"
        }
      ],
      "name": "setTreasury",
      "outputs": [],
      "stateMutability": "nonpayable",
      "type": "function"
    },
    {
      "inputs": [],
      "name": "stakingContract",
      "outputs": [
        {
          "internalType": "address",
          "name": "",
          "type": "address"
        }
      ],
      "stateMutability": "view",
      "type": "function"
    },
    {
      "inputs": [
        {
          "internalType": "address",
          "name": "newOwner",
          "type": "address"
        }
      ],
      "name": "transferOwnership",
      "outputs": [],
      "stateMutability": "nonpayable",
      "type": "function"
    },
    {
      "inputs": [],
      "name": "treasury",
      "outputs": [
        {
          "internalType": "address",
          "name": "",
          "type": "address"
        }
      ],
      "stateMutability": "view",
      "type": "function"
    },
    {
      "stateMutability": "payable",
      "type": "receive"
    }
  ],
  "bytecode": "0x60a06040523480156200001157600080fd5b5060405162001125380380620011258339810160408190526200003491620002b4565b6001600055806001600160a01b0381166200006a57604051631e4fbdf760e01b8152600060048201526024015b60405180910390fd5b620000758162000227565b506001600160a01b038416620000c05760405162461bcd60e51b815260206004820152600f60248201526e496e76616c6964207374616b696e6760881b604482015260640162000061565b6001600160a01b0383166200010b5760405162461bcd60e51b815260206004820152601060248201526f496e76616c696420747265617375727960801b604482015260640162000061565b6001600160a01b03808516608052600380548583166001600160a01b03199182161790915560056020527f113e300cbfcb107d961958639e10e4c56d214f1359f5d6fe43316ac71df69dbe805460ff191660019081179091556004805491820181556000527f8a35acfbc15ff81a39ae7d344fd709f28e8600b4aa8c65c6b64bfe7fe36bd19b0180549091167342000000000000000000000000000000000000061790558216156200021d576001600160a01b0382166000818152600560205260408120805460ff191660019081179091556004805491820181559091527f8a35acfbc15ff81a39ae7d344fd709f28e8600b4aa8c65c6b64bfe7fe36bd19b0180546001600160a01b03191690911790555b5050505062000311565b600280546001600160a01b0319169055620002428162000245565b50565b600180546001600160a01b038381166001600160a01b0319831681179093556040519116919082907f8be0079c531659141344cd1fd0a4f28419497f9722a3daafe3b4186f6b6457e090600090a35050565b80516001600160a01b0381168114620002af57600080fd5b919050565b60008060008060808587031215620002cb57600080fd5b620002d68562000297565b9350620002e66020860162000297565b9250620002f66040860162000297565b9150620003066060860162000297565b905092959194509250565b608051610df1620003346000396000818161045a0152610a3f0152610df16000f3fe6080604052600436106101395760003560e01c8063a04941a2116100ab578063e30c39781161006f578063e30c3978146103ef578063e60bff711461040d578063e63ea40814610428578063ee99205c14610448578063f0f442601461047c578063f2fde38b1461049c57600080fd5b8063a04941a214610366578063aa2eded21461037c578063ad5c46481461039c578063cdc73d51146103b7578063e1a45218146103d957600080fd5b806363453ae1116100fd57806363453ae1146102b6578063715018a6146102d657806379ba5097146102eb5780637acabd1a146103005780638da5cb5b146103285780638ef4403c1461034657600080fd5b806316ad82d7146101e057806325d2a3f314610225578063436596c4146102535780634c25d1971461026857806361d027b31461027e57600080fd5b366101db5734156101d9576006602160991b016001600160a01b031663d0e30db0346040518263ffffffff1660e01b81526004016000604051808303818588803b15801561018657600080fd5b505af115801561019a573d6000803e3d6000fd5b50505050507f27f12abfe35860a9a927b465bb3d4a9c23c8428174b83f278fe45ed7b4da2662346040516101d091815260200190565b60405180910390a15b005b600080fd5b3480156101ec57600080fd5b506102106101fb366004610c4d565b60056020526000908152604090205460ff1681565b60405190151581526020015b60405180910390f35b34801561023157600080fd5b50610245610240366004610c4d565b6104bc565b60405190815260200161021c565b34801561025f57600080fd5b506101d961052d565b34801561027457600080fd5b50610245610bb881565b34801561028a57600080fd5b5060035461029e906001600160a01b031681565b6040516001600160a01b03909116815260200161021c565b3480156102c257600080fd5b506101d96102d1366004610c4d565b610591565b3480156102e257600080fd5b506101d961060e565b3480156102f757600080fd5b506101d9610620565b34801561030c57600080fd5b5061029e7306a127f0b53f83dd5d94e83d96b55a279705bb0781565b34801561033457600080fd5b506001546001600160a01b031661029e565b34801561035257600080fd5b5061029e610361366004610c6f565b610661565b34801561037257600080fd5b50610245611b5881565b34801561038857600080fd5b506101d9610397366004610c4d565b61068b565b3480156103a857600080fd5b5061029e6006602160991b0181565b3480156103c357600080fd5b506103cc6107be565b60405161021c9190610c88565b3480156103e557600080fd5b5061024561271081565b3480156103fb57600080fd5b506002546001600160a01b031661029e565b34801561041957600080fd5b5061024566038d7ea4c6800081565b34801561043457600080fd5b506101d9610443366004610cd5565b610820565b34801561045457600080fd5b5061029e7f000000000000000000000000000000000000000000000000000000000000000081565b34801561048857600080fd5b506101d9610497366004610c4d565b610841565b3480156104a857600080fd5b506101d96104b7366004610c4d565b6108e4565b6040516370a0823160e01b81523060048201526000906001600160a01b038316906370a0823190602401602060405180830381865afa158015610503573d6000803e3d6000fd5b505050506040513d601f19601f820116820180604052508101906105279190610d11565b92915050565b610535610955565b60005b600454811015610584576105726004828154811061055857610558610d2a565b6000918252602090912001546001600160a01b031661097f565b8061057c81610d56565b915050610538565b5061058f6001600055565b565b610599610955565b6001600160a01b03811660009081526005602052604090205460ff166105f85760405162461bcd60e51b815260206004820152600f60248201526e2737ba1030903332b2903a37b5b2b760891b60448201526064015b60405180910390fd5b6106018161097f565b61060b6001600055565b50565b610616610ad0565b61058f6000610afd565b60025433906001600160a01b031681146106585760405163118cdaa760e01b81526001600160a01b03821660048201526024016105ef565b61060b81610afd565b6004818154811061067157600080fd5b6000918252602090912001546001600160a01b0316905081565b610693610ad0565b6001600160a01b0381166106d95760405162461bcd60e51b815260206004820152600d60248201526c24b73b30b634b2103a37b5b2b760991b60448201526064016105ef565b6001600160a01b03811660009081526005602052604090205460ff16156107325760405162461bcd60e51b815260206004820152600d60248201526c105b1c9958591e481859191959609a1b60448201526064016105ef565b6001600160a01b038116600081815260056020526040808220805460ff1916600190811790915560048054918201815583527f8a35acfbc15ff81a39ae7d344fd709f28e8600b4aa8c65c6b64bfe7fe36bd19b0180546001600160a01b03191684179055517f784c8f4dbf0ffedd6e72c76501c545a70f8b203b30a26ce542bf92ba87c248a49190a250565b6060600480548060200260200160405190810160405280929190818152602001828054801561081657602002820191906000526020600020905b81546001600160a01b031681526001909101906020018083116107f8575b5050505050905090565b610828610ad0565b61083c6001600160a01b0384168383610b16565b505050565b610849610ad0565b6001600160a01b0381166108925760405162461bcd60e51b815260206004820152601060248201526f496e76616c696420747265617375727960801b60448201526064016105ef565b600380546001600160a01b038381166001600160a01b0319831681179093556040519116919082907f4ab5be82436d353e61ca18726e984e561f5c1cc7c6d38b29d2553c790434705a90600090a35050565b6108ec610ad0565b600280546001600160a01b0383166001600160a01b0319909116811790915561091d6001546001600160a01b031690565b6001600160a01b03167f38d16b8cac22d99fc7c124b9cd0de2d3fa1faef420bfe791d8c362d765e2270060405160405180910390a350565b60026000540361097857604051633ee5aeb560e01b815260040160405180910390fd5b6002600055565b6040516370a0823160e01b81523060048201526000906001600160a01b038316906370a0823190602401602060405180830381865afa1580156109c6573d6000803e3d6000fd5b505050506040513d601f19601f820116820180604052508101906109ea9190610d11565b905066038d7ea4c680008110156109ff575050565b6000612710610a10611b5884610d6f565b610a1a9190610d86565b90506000610a288284610da8565b90508115610a6457610a646001600160a01b0385167f000000000000000000000000000000000000000000000000000000000000000084610b16565b8015610a8457600354610a84906001600160a01b03868116911683610b16565b604080518381526020810183905233916001600160a01b038716917f7e8fa2108664fda977be43fe236889421aae905ebc6da63e6b7c147b82ab0332910160405180910390a350505050565b6001546001600160a01b0316331461058f5760405163118cdaa760e01b81523360048201526024016105ef565b600280546001600160a01b031916905561060b81610b68565b604080516001600160a01b038416602482015260448082018490528251808303909101815260649091019091526020810180516001600160e01b031663a9059cbb60e01b17905261083c908490610bba565b600180546001600160a01b038381166001600160a01b0319831681179093556040519116919082907f8be0079c531659141344cd1fd0a4f28419497f9722a3daafe3b4186f6b6457e090600090a35050565b600080602060008451602086016000885af180610bdd576040513d6000823e3d81fd5b50506000513d91508115610bf5578060011415610c02565b6001600160a01b0384163b155b15610c2b57604051635274afe760e01b81526001600160a01b03851660048201526024016105ef565b50505050565b80356001600160a01b0381168114610c4857600080fd5b919050565b600060208284031215610c5f57600080fd5b610c6882610c31565b9392505050565b600060208284031215610c8157600080fd5b5035919050565b6020808252825182820181905260009190848201906040850190845b81811015610cc95783516001600160a01b031683529284019291840191600101610ca4565b50909695505050505050565b600080600060608486031215610cea57600080fd5b610cf384610c31565b9250610d0160208501610c31565b9150604084013590509250925092565b600060208284031215610d2357600080fd5b5051919050565b634e487b7160e01b600052603260045260246000fd5b634e487b7160e01b600052601160045260246000fd5b600060018201610d6857610d68610d40565b5060010190565b808202811582820484141761052757610527610d40565b600082610da357634e487b7160e01b600052601260045260246000fd5b500490565b8181038181111561052757610527610d4056fea2646970667358221220e46a6789a094793b0b0745e62ced29dd91e4e227baafe63fff0441e79edf62b864736f6c63430008140033",
  "linkReferences": {},
  "deployedLinkReferences": {}
}