{
  "_format": "hh-sol-artifact-1",
  "contractName": "OracleFactory",
  "sourceName": "contracts/OracleFactory.sol",
  "abi": [
    {
      "inputs": [
        {
          "internalType": "address",
          "name": "_registry",
          "type": "address"
        }
      ],
      "stateMutability": "nonpayable",
      "type": "constructor"
    },
    {
      "anonymous": false,
      "inputs": [
        {
          "indexed": true,
          "internalType": "address",
          "name": "oracleAddress",
          "type": "address"
        },
        {
          "indexed": true,
          "internalType": "address",
          "name": "creator",
          "type": "address"
        },
        {
          "indexed": false,
          "internalType": "string",
          "name": "name",
          "type": "string"
        },
        {
          "indexed": false,
          "internalType": "string",
          "name": "symbol",
          "type": "string"
        }
      ],
      "name": "OracleDeployed",
      "type": "event"
    },
    {
      "inputs": [
        {
          "internalType": "string",
          "name": "_name",
          "type": "string"
        },
        {
          "internalType": "string",
          "name": "_symbol",
          "type": "string"
        },
        {
          "internalType": "string",
          "name": "_targetToken",
          "type": "string"
        },
        {
          "internalType": "uint8",
          "name": "_consensusThreshold",
          "type": "uint8"
        },
        {
          "internalType": "uint256",
          "name": "_updateFrequency",
          "type": "uint256"
        }
      ],
      "name": "deployFarcasterOracle",
      "outputs": [
        {
          "internalType": "address",
          "name": "",
          "type": "address"
        }
      ],
      "stateMutability": "nonpayable",
      "type": "function"
    },
    {
      "inputs": [
        {
          "internalType": "string",
          "name": "_name",
          "type": "string"
        },
        {
          "internalType": "string",
          "name": "_symbol",
          "type": "string"
        },
        {
          "internalType": "uint8",
          "name": "_consensusThreshold",
          "type": "uint8"
        },
        {
          "internalType": "uint256",
          "name": "_updateFrequency",
          "type": "uint256"
        }
      ],
      "name": "deployPriceOracle",
      "outputs": [
        {
          "internalType": "address",
          "name": "",
          "type": "address"
        }
      ],
      "stateMutability": "nonpayable",
      "type": "function"
    },
    {
      "inputs": [],
      "name": "getValidators",
      "outputs": [
        {
          "internalType": "address[]",
          "name": "",
          "type": "address[]"
        }
      ],
      "stateMutability": "view",
      "type": "function"
    },
    {
      "inputs": [],
      "name": "registry",
      "outputs": [
        {
          "internalType": "address",
          "name": "",
          "type": "address"
        }
      ],
      "stateMutability": "view",
      "type": "function"
    },
    {
      "inputs": [
        {
          "internalType": "address[]",
          "name": "_validators",
          "type": "address[]"
        }
      ],
      "name": "setValidators",
      "outputs": [],
      "stateMutability": "nonpayable",
      "type": "function"
    },
    {
      "inputs": [
        {
          "internalType": "uint256",
          "name": "",
          "type": "uint256"
        }
      ],
      "name": "validators",
      "outputs": [
        {
          "internalType": "address",
          "name": "",
          "type": "address"
        }
      ],
      "stateMutability": "view",
      "type": "function"
    }
  ],
  "bytecode": "0x608060405234801561001057600080fd5b5060405161440738038061440783398101604081905261002f91610054565b600080546001600160a01b0319166001600160a01b0392909216919091179055610084565b60006020828403121561006657600080fd5b81516001600160a01b038116811461007d57600080fd5b9392505050565b614374806100936000396000f3fe60806040523480156200001157600080fd5b50600436106200006a5760003560e01c8063258fb352146200006f57806335aa2e4414620000a35780637b10399914620000ba5780639300c92614620000ce578063b53e6afa14620000e7578063b7ab4db514620000fe575b600080fd5b620000866200008036600462000706565b62000117565b6040516001600160a01b0390911681526020015b60405180910390f35b62000086620000b43660046200078b565b62000287565b60005462000086906001600160a01b031681565b620000e5620000df366004620007a5565b620002b2565b005b62000086620000f836600462000870565b62000312565b620001086200050f565b6040516200009a91906200091d565b600154600090620001645760405162461bcd60e51b815260206004820152601260248201527115985b1a59185d1bdc9cc81b9bdd081cd95d60721b60448201526064015b60405180910390fd5b60008585858560008054906101000a90046001600160a01b031660016040516200018e9062000573565b6200019f96959493929190620009b4565b604051809103906000f080158015620001bc573d6000803e3d6000fd5b50600054604051633fa691ab60e01b815291925082916001600160a01b0390911690633fa691ab90620001fa9084908b9089908b9060040162000a4d565b600060405180830381600087803b1580156200021557600080fd5b505af11580156200022a573d6000803e3d6000fd5b50505050336001600160a01b0316816001600160a01b03167f0eff651cd2f0a3b5089cd3d999a0a7f814f6388a2195fe05cc3356f43b9201a289896040516200027592919062000aac565b60405180910390a39695505050505050565b600181815481106200029857600080fd5b6000918252602090912001546001600160a01b0316905081565b600581511115620002f95760405162461bcd60e51b815260206004820152601060248201526f4d617820352076616c696461746f727360801b60448201526064016200015b565b80516200030e90600190602084019062000581565b5050565b600154600090600514620003695760405162461bcd60e51b815260206004820152601e60248201527f4d75737420686176652065786163746c7920352076616c696461746f7273000060448201526064016200015b565b62000373620005eb565b60005b6005811015620003e8576001818154811062000396576200039662000ade565b6000918252602090912001546001600160a01b0316828260058110620003c057620003c062000ade565b6001600160a01b03909216602092909202015280620003df8162000af4565b91505062000376565b506000878787878760008054906101000a90046001600160a01b031687604051620004139062000609565b62000425979695949392919062000b1c565b604051809103906000f08015801562000442573d6000803e3d6000fd5b50600054604051633fa691ab60e01b815291925082916001600160a01b0390911690633fa691ab90620004809084908d908a908c9060040162000bbe565b600060405180830381600087803b1580156200049b57600080fd5b505af1158015620004b0573d6000803e3d6000fd5b50505050336001600160a01b0316816001600160a01b03167f0eff651cd2f0a3b5089cd3d999a0a7f814f6388a2195fe05cc3356f43b9201a28b8b604051620004fb92919062000aac565b60405180910390a398975050505050505050565b606060018054806020026020016040519081016040528092919081815260200182805480156200056957602002820191906000526020600020905b81546001600160a01b031681526001909101906020018083116200054a575b5050505050905090565b6117f78062000c2283390190565b828054828255906000526020600020908101928215620005d9579160200282015b82811115620005d957825182546001600160a01b0319166001600160a01b03909116178255602090920191600190910190620005a2565b50620005e792915062000617565b5090565b6040518060a001604052806005906020820280368337509192915050565b611f26806200241983390190565b5b80821115620005e7576000815560010162000618565b634e487b7160e01b600052604160045260246000fd5b604051601f8201601f1916810167ffffffffffffffff811182821017156200067057620006706200062e565b604052919050565b600082601f8301126200068a57600080fd5b813567ffffffffffffffff811115620006a757620006a76200062e565b620006bc601f8201601f191660200162000644565b818152846020838601011115620006d257600080fd5b816020850160208301376000918101602001919091529392505050565b803560ff811681146200070157600080fd5b919050565b600080600080608085870312156200071d57600080fd5b843567ffffffffffffffff808211156200073657600080fd5b620007448883890162000678565b955060208701359150808211156200075b57600080fd5b506200076a8782880162000678565b9350506200077b60408601620006ef565b9396929550929360600135925050565b6000602082840312156200079e57600080fd5b5035919050565b60006020808385031215620007b957600080fd5b823567ffffffffffffffff80821115620007d257600080fd5b818501915085601f830112620007e757600080fd5b813581811115620007fc57620007fc6200062e565b8060051b91506200080f84830162000644565b81815291830184019184810190888411156200082a57600080fd5b938501935b838510156200086457843592506001600160a01b0383168314620008535760008081fd5b82825293850193908501906200082f565b98975050505050505050565b600080600080600060a086880312156200088957600080fd5b853567ffffffffffffffff80821115620008a257600080fd5b620008b089838a0162000678565b96506020880135915080821115620008c757600080fd5b620008d589838a0162000678565b95506040880135915080821115620008ec57600080fd5b50620008fb8882890162000678565b9350506200090c60608701620006ef565b949793965091946080013592915050565b6020808252825182820181905260009190848201906040850190845b81811015620009605783516001600160a01b03168352928401929184019160010162000939565b50909695505050505050565b6000815180845260005b81811015620009945760208185018101518683018201520162000976565b506000602082860101526020601f19601f83011685010191505092915050565b60c081526000620009c960c08301896200096c565b602083820381850152620009de828a6200096c565b60ff89166040860152606085018890526001600160a01b03878116608087015285820360a087015286548083526000888152848120955091928401915b8181101562000a3b57855484168352600195860195928501920162000a1b565b50909c9b505050505050505050505050565b6001600160a01b038516815260a06020820181905260009062000a73908301866200096c565b82810360408401526005815264707269636560d81b60208201526040810191505083606083015260ff8316608083015295945050505050565b60408152600062000ac160408301856200096c565b828103602084015262000ad581856200096c565b95945050505050565b634e487b7160e01b600052603260045260246000fd5b60006001820162000b1557634e487b7160e01b600052601160045260246000fd5b5060010190565b600061016080835262000b328184018b6200096c565b905060208382038185015262000b49828b6200096c565b9150838203604085015262000b5f828a6200096c565b60ff89166060860152608085018890526001600160a01b0387811660a0870152909350915060c084018560005b600581101562000bad57815185168352918301919083019060010162000b8c565b505050505098975050505050505050565b6001600160a01b038516815260a06020820181905260009062000be4908301866200096c565b828103604084015260098152683330b931b0b9ba32b960b91b60208201526040810191505083606083015260ff831660808301529594505050505056fe60806040523480156200001157600080fd5b50604051620017f7380380620017f78339810160408190526200003491620003ed565b60018055603360ff85161080159062000051575060648460ff1611155b620000975760405162461bcd60e51b8152602060048201526011602482015270125b9d985b1a59081d1a1c995cda1bdb19607a1b60448201526064015b60405180910390fd5b6000815111620000dc5760405162461bcd60e51b815260206004820152600f60248201526e4e6565642076616c696461746f727360881b60448201526064016200008e565b6002620000ea878262000545565b506003620000f9868262000545565b506004805460ff191660ff86161790556005839055600680546001600160a01b0319166001600160a01b0384161790556001600c556200013b600033620001ba565b5060005b8151811015620001ad57620001977f21702c8af46127c7fa207f89d0b0a8441bb32959a0ac7df790e9ab1a25c9892683838151811062000183576200018362000611565b6020026020010151620001ba60201b60201c565b5080620001a48162000627565b9150506200013f565b505050505050506200064f565b6000828152602081815260408083206001600160a01b038516845290915281205460ff166200025f576000838152602081815260408083206001600160a01b03861684529091529020805460ff19166001179055620002163390565b6001600160a01b0316826001600160a01b0316847f2f8788117e7eff1d82e926ec794901d17c78024a50270940304540a733656f0d60405160405180910390a450600162000263565b5060005b92915050565b634e487b7160e01b600052604160045260246000fd5b604051601f8201601f191681016001600160401b0381118282101715620002aa57620002aa62000269565b604052919050565b600082601f830112620002c457600080fd5b81516001600160401b03811115620002e057620002e062000269565b6020620002f6601f8301601f191682016200027f565b82815285828487010111156200030b57600080fd5b60005b838110156200032b5785810183015182820184015282016200030e565b506000928101909101919091529392505050565b80516001600160a01b03811681146200035757600080fd5b919050565b600082601f8301126200036e57600080fd5b815160206001600160401b038211156200038c576200038c62000269565b8160051b6200039d8282016200027f565b9283528481018201928281019087851115620003b857600080fd5b83870192505b84831015620003e257620003d2836200033f565b82529183019190830190620003be565b979650505050505050565b60008060008060008060c087890312156200040757600080fd5b86516001600160401b03808211156200041f57600080fd5b6200042d8a838b01620002b2565b975060208901519150808211156200044457600080fd5b620004528a838b01620002b2565b96506040890151915060ff821682146200046b57600080fd5b819550606089015194506200048360808a016200033f565b935060a08901519150808211156200049a57600080fd5b50620004a989828a016200035c565b9150509295509295509295565b600181811c90821680620004cb57607f821691505b602082108103620004ec57634e487b7160e01b600052602260045260246000fd5b50919050565b601f8211156200054057600081815260208120601f850160051c810160208610156200051b5750805b601f850160051c820191505b818110156200053c5782815560010162000527565b5050505b505050565b81516001600160401b0381111562000561576200056162000269565b6200057981620005728454620004b6565b84620004f2565b602080601f831160018114620005b15760008415620005985750858301515b600019600386901b1c1916600185901b1785556200053c565b600085815260208120601f198616915b82811015620005e257888601518255948401946001909101908401620005c1565b5085821015620006015787850151600019600388901b60f8161c191681555b5050505050600190811b01905550565b634e487b7160e01b600052603260045260246000fd5b6000600182016200064857634e487b7160e01b600052601160045260246000fd5b5060010190565b611198806200065f6000396000f3fe608060405234801561001057600080fd5b50600436106101585760003560e01c80638a19c8bc116100c3578063a57d38061161007c578063a57d380614610306578063c49baebe14610334578063c8f33c9114610349578063d547741f14610352578063f9b0b5b914610365578063fe9bd8cc1461038457600080fd5b80638a19c8bc1461029f5780638e15f473146102a857806391d14854146102ce57806395d89b41146102e1578063a217fddf146102e9578063a3e6ba94146102f157600080fd5b806336568abe1161011557806336568abe1461021f57806340a141ff146102325780634d238c8e146102455780636306d87414610258578063673ea0861461026b5780637b1039991461027457600080fd5b806301ffc9a71461015d57806306fdde031461018557806321768fbe1461019a578063248a9ca3146101d15780632f2ff15d14610202578063346c940914610217575b600080fd5b61017061016b366004610e99565b610399565b60405190151581526020015b60405180910390f35b61018d6103d0565b60405161017c9190610eca565b6101ad6101a8366004610f18565b61045e565b6040805193845260208401929092526001600160a01b03169082015260600161017c565b6101f46101df366004610f3a565b60009081526020819052604090206001015490565b60405190815260200161017c565b610215610210366004610f6f565b6104a9565b005b6101706104d4565b61021561022d366004610f6f565b6104ee565b610215610240366004610f9b565b610526565b610215610253366004610f9b565b610549565b610215610266366004610fb6565b61056c565b6101f460055481565b600654610287906001600160a01b031681565b6040516001600160a01b03909116815260200161017c565b6101f4600c5481565b6102b0610710565b60408051938452602084019290925260ff169082015260600161017c565b6101706102dc366004610f6f565b610781565b61018d6107aa565b6101f4600081565b6007546008546009546102b092919060ff1683565b610170610314366004610f6f565b600b60209081526000928352604080842090915290825290205460ff1681565b6101f460008051602061114383398151915281565b6101f4600d5481565b610215610360366004610f6f565b6107b7565b6004546103729060ff1681565b60405160ff909116815260200161017c565b61038c6107dc565b60405161017c9190610fec565b60006001600160e01b03198216637965db0b60e01b14806103ca57506301ffc9a760e01b6001600160e01b03198316145b92915050565b600280546103dd9061104e565b80601f01602080910402602001604051908101604052809291908181526020018280546104099061104e565b80156104565780601f1061042b57610100808354040283529160200191610456565b820191906000526020600020905b81548152906001019060200180831161043957829003601f168201915b505050505081565b600a602052816000526040600020818154811061047a57600080fd5b60009182526020909120600390910201805460018201546002909201549093509091506001600160a01b031683565b6000828152602081905260409020600101546104c481610871565b6104ce838361087e565b50505050565b6000600554600d546104e6919061109e565b421015905090565b6001600160a01b03811633146105175760405163334bd91960e11b815260040160405180910390fd5b6105218282610910565b505050565b600061053181610871565b61052160008051602061114383398151915283610910565b600061055481610871565b6105216000805160206111438339815191528361087e565b60008051602061114383398151915261058481610871565b61058c61097b565b600083116105d15760405162461bcd60e51b815260206004820152600d60248201526c496e76616c696420707269636560981b60448201526064015b60405180910390fd5b600c546000908152600b6020908152604080832033845290915290205460ff16156106325760405162461bcd60e51b8152602060048201526011602482015270105b1c9958591e481cdd589b5a5d1d1959607a1b60448201526064016105c8565b6040805160608101825284815242602080830191825233838501818152600c80546000908152600a855287812080546001808201835591835286832089516003909202019081559651878201559251600290960180546001600160a01b0319166001600160a01b039097169690961790955580548552600b8452868520838652845293869020805460ff191690911790559154845188815291820152919290917fb856642cc40fb1a5399c4c63a6e055952edac364712907f58c00983449b398f7910160405180910390a2610706836109a5565b5061052160018055565b600080600080600760010154116107695760405162461bcd60e51b815260206004820152601760248201527f4e6f207072696365206461746120617661696c61626c6500000000000000000060448201526064016105c8565b5050600754600854600954919390925060ff90911690565b6000918252602082815260408084206001600160a01b0393909316845291905290205460ff1690565b600380546103dd9061104e565b6000828152602081905260409020600101546107d281610871565b6104ce8383610910565b6060600a6000600c548152602001908152602001600020805480602002602001604051908101604052809291908181526020016000905b82821015610868576000848152602090819020604080516060810182526003860290920180548352600180820154848601526002909101546001600160a01b0316918301919091529083529092019101610813565b50505050905090565b61087b8133610e5c565b50565b600061088a8383610781565b610908576000838152602081815260408083206001600160a01b03861684529091529020805460ff191660011790556108c03390565b6001600160a01b0316826001600160a01b0316847f2f8788117e7eff1d82e926ec794901d17c78024a50270940304540a733656f0d60405160405180910390a45060016103ca565b5060006103ca565b600061091c8383610781565b15610908576000838152602081815260408083206001600160a01b0386168085529252808320805460ff1916905551339286917ff6391f5c32d9c69d2a47ea670b442974b53935d1edc7fd64eb21e047a839171b9190a45060016103ca565b60026001540361099e57604051633ee5aeb560e01b815260040160405180910390fd5b6002600155565b6000600a6000600c548152602001908152602001600020805480602002602001604051908101604052809291908181526020016000905b82821015610a31576000848152602090819020604080516060810182526003860290920180548352600180820154848601526002909101546001600160a01b03169183019190915290835290920191016109dc565b5050825192935050506002811015610a4857505050565b60008167ffffffffffffffff811115610a6357610a636110b1565b604051908082528060200260200182016040528015610a8c578160200160208202803683370190505b50905060005b82811015610ae757838181518110610aac57610aac6110c7565b602002602001015160000151828281518110610aca57610aca6110c7565b602090810291909101015280610adf816110dd565b915050610a92565b5060005b8151811015610be3576000610b0182600161109e565b90505b8251811015610bd057828181518110610b1f57610b1f6110c7565b6020026020010151838381518110610b3957610b396110c7565b60200260200101511115610bbe576000838381518110610b5b57610b5b6110c7565b60200260200101519050838281518110610b7757610b776110c7565b6020026020010151848481518110610b9157610b916110c7565b60200260200101818152505080848381518110610bb057610bb06110c7565b602002602001018181525050505b80610bc8816110dd565b915050610b04565b5080610bdb816110dd565b915050610aeb565b5060008160028351610bf591906110f6565b81518110610c0557610c056110c7565b602002602001015190506000806064836005610c219190611118565b610c2b91906110f6565b905060005b8451811015610cb257610c43828561112f565b858281518110610c5557610c556110c7565b602002602001015110158015610c8d5750610c70828561109e565b858281518110610c8257610c826110c7565b602002602001015111155b15610ca05782610c9c816110dd565b9350505b80610caa816110dd565b915050610c30565b50600085610cc1846064611118565b610ccb91906110f6565b60045490915060ff90811690821610610dc45760408051606081018252858152426020820181905260ff8b16918301829052600787905560088190556009805460ff1916909217909155600d55600c5490517ff861a1fe3ca8b7bdb29e61b793d162ffaa8a33712b873d11e27654b7146bb0ec91610d609187908590928352602083019190915260ff16604082015260600190565b60405180910390a1600c546040805186815242602082015280820192909252517f15819dd2fd9f6418b142e798d08a18d0bf06ea368f4480b7b0d3f75bd966bc489181900360600190a1600c8054906000610dba836110dd565b9190505550610e52565b60058610610e52577fa00af7757ae2591f16ac195e556143da33aedda4804b4768561df0e5e0b61d86600c54604051610e34918152604060208201819052601b908201527f436f6e73656e737573207468726573686f6c64206e6f74206d65740000000000606082015260800190565b60405180910390a1600c8054906000610e4c836110dd565b91905055505b5050505050505050565b610e668282610781565b610e955760405163e2517d3f60e01b81526001600160a01b0382166004820152602481018390526044016105c8565b5050565b600060208284031215610eab57600080fd5b81356001600160e01b031981168114610ec357600080fd5b9392505050565b600060208083528351808285015260005b81811015610ef757858101830151858201604001528201610edb565b506000604082860101526040601f19601f8301168501019250505092915050565b60008060408385031215610f2b57600080fd5b50508035926020909101359150565b600060208284031215610f4c57600080fd5b5035919050565b80356001600160a01b0381168114610f6a57600080fd5b919050565b60008060408385031215610f8257600080fd5b82359150610f9260208401610f53565b90509250929050565b600060208284031215610fad57600080fd5b610ec382610f53565b60008060408385031215610fc957600080fd5b82359150602083013560ff81168114610fe157600080fd5b809150509250929050565b602080825282518282018190526000919060409081850190868401855b828110156110415781518051855286810151878601528501516001600160a01b03168585015260609093019290850190600101611009565b5091979650505050505050565b600181811c9082168061106257607f821691505b60208210810361108257634e487b7160e01b600052602260045260246000fd5b50919050565b634e487b7160e01b600052601160045260246000fd5b808201808211156103ca576103ca611088565b634e487b7160e01b600052604160045260246000fd5b634e487b7160e01b600052603260045260246000fd5b6000600182016110ef576110ef611088565b5060010190565b60008261111357634e487b7160e01b600052601260045260246000fd5b500490565b80820281158282048414176103ca576103ca611088565b818103818111156103ca576103ca61108856fe21702c8af46127c7fa207f89d0b0a8441bb32959a0ac7df790e9ab1a25c98926a2646970667358221220679912c295ffbc34ed3f240a4c3134aa1b48db1f8e606f73c18f564f596775a764736f6c6343000814003360806040523480156200001157600080fd5b5060405162001f2638038062001f268339810160408190526200003491620004a7565b33806200005c57604051631e4fbdf760e01b8152600060048201526024015b60405180910390fd5b6200006781620002e7565b5060018055603360ff85161080159062000085575060648460ff1611155b620000c75760405162461bcd60e51b8152602060048201526011602482015270125b9d985b1a59081d1a1c995cda1bdb19607a1b604482015260640162000053565b60008551116200011a5760405162461bcd60e51b815260206004820152601560248201527f54617267657420746f6b656e2072657175697265640000000000000000000000604482015260640162000053565b600262000128888262000613565b50600362000137878262000613565b50600462000146868262000613565b506005805460068590556001600160a81b031916600160a01b60ff8716026001600160a01b031916176001600160a01b03841617905560005b6005811015620002a0576000828260058110620001a057620001a0620006df565b60200201516001600160a01b031603620001f15760405162461bcd60e51b815260206004820152601160248201527024b73b30b634b2103b30b634b230ba37b960791b604482015260640162000053565b818160058110620002065762000206620006df565b602002015160088260058110620002215762000221620006df565b0180546001600160a01b0319166001600160a01b03929092169190911790556001600d60008484600581106200025b576200025b620006df565b602090810291909101516001600160a01b03168252810191909152604001600020805460ff1916911515919091179055806200029781620006f5565b9150506200017f565b507f0b97a76b184160ad9b56b3cd68a81377eec64b471b84ff87ba40304754c11b3a81604051620002d291906200071d565b60405180910390a15050505050505062000759565b600080546001600160a01b038381166001600160a01b0319831681178455604051919092169283917f8be0079c531659141344cd1fd0a4f28419497f9722a3daafe3b4186f6b6457e09190a35050565b634e487b7160e01b600052604160045260246000fd5b604051601f8201601f191681016001600160401b038111828210171562000378576200037862000337565b604052919050565b600082601f8301126200039257600080fd5b81516001600160401b03811115620003ae57620003ae62000337565b6020620003c4601f8301601f191682016200034d565b8281528582848701011115620003d957600080fd5b60005b83811015620003f9578581018301518282018401528201620003dc565b506000928101909101919091529392505050565b80516001600160a01b03811681146200042557600080fd5b919050565b600082601f8301126200043c57600080fd5b60405160a081016001600160401b038111828210171562000461576200046162000337565b6040528060a08401858111156200047757600080fd5b845b818110156200049c576200048d816200040d565b83526020928301920162000479565b509195945050505050565b6000806000806000806000610160888a031215620004c457600080fd5b87516001600160401b0380821115620004dc57600080fd5b620004ea8b838c0162000380565b985060208a01519150808211156200050157600080fd5b6200050f8b838c0162000380565b975060408a01519150808211156200052657600080fd5b50620005358a828b0162000380565b955050606088015160ff811681146200054d57600080fd5b608089015190945092506200056560a089016200040d565b9150620005768960c08a016200042a565b905092959891949750929550565b600181811c908216806200059957607f821691505b602082108103620005ba57634e487b7160e01b600052602260045260246000fd5b50919050565b601f8211156200060e57600081815260208120601f850160051c81016020861015620005e95750805b601f850160051c820191505b818110156200060a57828155600101620005f5565b5050505b505050565b81516001600160401b038111156200062f576200062f62000337565b620006478162000640845462000584565b84620005c0565b602080601f8311600181146200067f5760008415620006665750858301515b600019600386901b1c1916600185901b1785556200060a565b600085815260208120601f198616915b82811015620006b0578886015182559484019460019091019084016200068f565b5085821015620006cf5787850151600019600388901b60f8161c191681555b5050505050600190811b01905550565b634e487b7160e01b600052603260045260246000fd5b6000600182016200071657634e487b7160e01b600052601160045260246000fd5b5060010190565b60a08101818360005b6005811015620007505781516001600160a01b031683526020928301929091019060010162000726565b50505092915050565b6117bd80620007696000396000f3fe608060405234801561001057600080fd5b50600436106101415760003560e01c80638da5cb5b116100b8578063ee8132bd1161007c578063ee8132bd146102eb578063f2fde38b146102fe578063f7b92fcd14610311578063f9b0b5b914610333578063facd743b14610359578063fdce5e421461037c57600080fd5b80638da5cb5b1461029357806392ac27f9146102a457806395d89b41146102b7578063963398bd146102bf578063c0463711146102e257600080fd5b8063395924dc1161010a578063395924dc146101bd5780633e8686cc146102085780634d44b9e71461024d578063673ea0861461026d578063715018a6146102765780637b1039991461028057600080fd5b8062f1abf51461014657806306fdde031461015d578063327107f714610172578063346c94091461017a57806335aa2e4414610192575b600080fd5b6016545b6040519081526020015b60405180910390f35b610165610402565b604051610154919061150e565b610165610490565b61018261049d565b6040519015158152602001610154565b6101a56101a036600461155c565b6104b7565b6040516001600160a01b039091168152602001610154565b600f546010546011546012546013546014546015545b604080519788526020880196909652948601939093526060850191909152608084015260a083015260c082015260e001610154565b61021b61021636600461155c565b6104d7565b604080516001600160a01b0390961686526020860194909452928401919091526060830152608082015260a001610154565b61014a61025b366004611591565b600e6020526000908152604090205481565b61014a60065481565b61027e6105fb565b005b6005546101a5906001600160a01b031681565b6000546001600160a01b03166101a5565b61027e6102b23660046115c9565b61060f565b6101656107c6565b6101826102cd366004611591565b60176020526000908152604090205460ff1681565b61014a60075481565b61027e6102f936600461165c565b6107d3565b61027e61030c366004611591565b610c01565b600f546010546011546012546013546014546015546101d39695949392919087565b60055461034790600160a01b900460ff1681565b60405160ff9091168152602001610154565b610182610367366004611591565b600d6020526000908152604090205460ff1681565b61038f61038a36600461155c565b610c3f565b604080516001600160a01b03909516855283516020808701919091528401518582015283015160608086019190915283015160808086019190915283015160a08086019190915283015160c0808601919091529092015160e0840152610100830152151561012082015261014001610154565b6002805461040f9061169f565b80601f016020809104026020016040519081016040528092919081815260200182805461043b9061169f565b80156104885780601f1061045d57610100808354040283529160200191610488565b820191906000526020600020905b81548152906001019060200180831161046b57829003601f168201915b505050505081565b6004805461040f9061169f565b60006006546007546104af91906116ef565b421015905090565b600881600581106104c757600080fd5b01546001600160a01b0316905081565b600080600080600060168054905086106105285760405162461bcd60e51b815260206004820152600d60248201526c092dcecc2d8d2c840d2dcc8caf609b1b60448201526064015b60405180910390fd5b60006016878154811061053d5761053d611708565b60009182526020918290206040805160808082018352600a9490940290920180546001600160a01b03168352815160e08101835260018201548152600282015481870190815260038301548285019081526004840154606080850191909152600585015497840197909752600684015460a0840152600784015460c0840152968501829052600883015493850184905260099092015460ff161515948401949094529151925191519351929b919a5092985090965090945092505050565b610603610cce565b61060d6000610cfb565b565b610617610cce565b60005b6005811015610678576000600d60006008846005811061063c5761063c611708565b01546001600160a01b031681526020810191909152604001600020805460ff1916911515919091179055806106708161171e565b91505061061a565b5060005b600581101561078b57600082826005811061069957610699611708565b60200201516001600160a01b0316036106e85760405162461bcd60e51b815260206004820152601160248201527024b73b30b634b2103b30b634b230ba37b960791b604482015260640161051f565b8181600581106106fa576106fa611708565b60200201516008826005811061071257610712611708565b0180546001600160a01b0319166001600160a01b03929092169190911790556001600d600084846005811061074957610749611708565b602090810291909101516001600160a01b03168252810191909152604001600020805460ff1916911515919091179055806107838161171e565b91505061067c565b507f0b97a76b184160ad9b56b3cd68a81377eec64b471b84ff87ba40304754c11b3a816040516107bb9190611737565b60405180910390a150565b6003805461040f9061169f565b6107db610d4b565b336000908152600d602052604090205460ff1661082c5760405162461bcd60e51b815260206004820152600f60248201526e2737ba1030903b30b634b230ba37b960891b604482015260640161051f565b3360009081526017602052604090205460ff16156108805760405162461bcd60e51b8152602060048201526011602482015270105b1c9958591e481cdd589b5a5d1d1959607a1b604482015260640161051f565b61270f19851215801561089557506127108513155b6108d55760405162461bcd60e51b8152602060048201526011602482015270125b9d985b1a59081cd95b9d1a5b595b9d607a1b604482015260640161051f565b6127108411156109275760405162461bcd60e51b815260206004820152601760248201527f496e76616c696420656e676167656d656e742072617465000000000000000000604482015260640161051f565b6040805160e08101825287815260208082018890528183018790526060808301879052608080840187905260a08085018790524260c08087018290528751808501895233808252818801898152828b018581526000848a0181815260168054600180820183559184529651600a9097027fd833147d7dc355ba459fc788f669e58cfaf9dc25ddcd0702e87d69c7b5124289810180546001600160a01b039099166001600160a01b031990991698909817909755935180517fd833147d7dc355ba459fc788f669e58cfaf9dc25ddcd0702e87d69c7b512428a880155808d01517fd833147d7dc355ba459fc788f669e58cfaf9dc25ddcd0702e87d69c7b512428b880155808f01517fd833147d7dc355ba459fc788f669e58cfaf9dc25ddcd0702e87d69c7b512428c880155808c01517fd833147d7dc355ba459fc788f669e58cfaf9dc25ddcd0702e87d69c7b512428d880155998a01517fd833147d7dc355ba459fc788f669e58cfaf9dc25ddcd0702e87d69c7b512428e870155978901517fd833147d7dc355ba459fc788f669e58cfaf9dc25ddcd0702e87d69c7b512428f86015597909401517fd833147d7dc355ba459fc788f669e58cfaf9dc25ddcd0702e87d69c7b512429084015592517fd833147d7dc355ba459fc788f669e58cfaf9dc25ddcd0702e87d69c7b512429183015593517fd833147d7dc355ba459fc788f669e58cfaf9dc25ddcd0702e87d69c7b5124292909101805491151560ff1992831617905583855260178752888520805490911682179055600e865292879020805490930190925585518c81529384018b9052948301529192917fedfe439ddaf7fc9d12ba5b30d1ca8618f24fc50d6cfa8507ea429e40e07ee706910160405180910390a260006064600560149054906101000a900460ff1660050260ff1681610bd457610bd4611771565b0460ff1690508060168054905010610bee57610bee610d75565b5050610bf960018055565b505050505050565b610c09610cce565b6001600160a01b038116610c3357604051631e4fbdf760e01b81526000600482015260240161051f565b610c3c81610cfb565b50565b60168181548110610c4f57600080fd5b6000918252602091829020600a9091020180546040805160e081018252600184015481526002840154948101949094526003830154908401526004820154606084015260058201546080840152600682015460a0840152600782015460c084015260088201546009909201546001600160a01b03909116935060ff1684565b6000546001600160a01b0316331461060d5760405163118cdaa760e01b815233600482015260240161051f565b600080546001600160a01b038381166001600160a01b0319831681178455604051919092169283917f8be0079c531659141344cd1fd0a4f28419497f9722a3daafe3b4186f6b6457e09190a35050565b600260015403610d6e57604051633ee5aeb560e01b815260040160405180910390fd5b6002600155565b60165480610db65760405162461bcd60e51b815260206004820152600e60248201526d4e6f207375626d697373696f6e7360901b604482015260640161051f565b60008167ffffffffffffffff811115610dd157610dd16115b3565b604051908082528060200260200182016040528015610dfa578160200160208202803683370190505b50905060008267ffffffffffffffff811115610e1857610e186115b3565b604051908082528060200260200182016040528015610e41578160200160208202803683370190505b50905060008367ffffffffffffffff811115610e5f57610e5f6115b3565b604051908082528060200260200182016040528015610e88578160200160208202803683370190505b50905060008467ffffffffffffffff811115610ea657610ea66115b3565b604051908082528060200260200182016040528015610ecf578160200160208202803683370190505b50905060008567ffffffffffffffff811115610eed57610eed6115b3565b604051908082528060200260200182016040528015610f16578160200160208202803683370190505b50905060005b868110156110895760168181548110610f3757610f37611708565b90600052602060002090600a020160010160000154868281518110610f5e57610f5e611708565b60200260200101818152505060168181548110610f7d57610f7d611708565b90600052602060002090600a020160010160010154858281518110610fa457610fa4611708565b60200260200101818152505060168181548110610fc357610fc3611708565b90600052602060002090600a020160010160020154848281518110610fea57610fea611708565b6020026020010181815250506016818154811061100957611009611708565b90600052602060002090600a02016001016003015483828151811061103057611030611708565b6020026020010181815250506016818154811061104f5761104f611708565b90600052602060002090600a02016001016004015482828151811061107657611076611708565b6020908102919091010152600101610f1c565b5061109385611232565b61109c84611326565b6110a583611232565b6110ae82611232565b6110b781611232565b60006002870490506040518060e001604052808783815181106110dc576110dc611708565b602002602001015181526020018683815181106110fb576110fb611708565b6020026020010151815260200185838151811061111a5761111a611708565b6020026020010151815260200184838151811061113957611139611708565b6020026020010151815260200183838151811061115857611158611708565b60200260200101518152602001601660008154811061117957611179611708565b60009182526020918290206006600a9092020101548252429181018290528251600f81905590830151601081905560408085015160118190556060860151601255608086015160135560a086015160145560c0909501516015556007849055517f4a878493c5a0b8218095634b4c65c123c272527e6c6a94a92e4290fdd16fb5dd9461121c94909193845260208401929092526040830152606082015260800190565b60405180910390a1505050505050610c3c611415565b805160018111611240575050565b60005b600182038110156113215760005b6001828403038110156113185783816001018151811061127357611273611708565b602002602001015184828151811061128d5761128d611708565b60200260200101511115611310578381600101815181106112b0576112b0611708565b60200260200101518482815181106112ca576112ca611708565b60200260200101518583815181106112e4576112e4611708565b6020026020010186846001018151811061130057611300611708565b6020908102919091010191909152525b600101611251565b50600101611243565b505050565b805160018111611334575050565b60005b600182038110156113215760005b60018284030381101561140c5783816001018151811061136757611367611708565b602002602001015184828151811061138157611381611708565b60200260200101511315611404578381600101815181106113a4576113a4611708565b60200260200101518482815181106113be576113be611708565b60200260200101518583815181106113d8576113d8611708565b602002602001018684600101815181106113f4576113f4611708565b6020908102919091010191909152525b600101611345565b50600101611337565b60005b601654811015611486576000601760006016848154811061143b5761143b611708565b60009182526020808320600a92909202909101546001600160a01b031683528201929092526040019020805460ff19169115159190911790558061147e8161171e565b915050611418565b5061060d6016805460008255600a0290600052602060002090810190610c3c91905b8082111561150a5780546001600160a01b0319168155600060018201819055600282018190556003820181905560048201819055600582018190556006820181905560078201819055600882015560098101805460ff19169055600a016114a8565b5090565b600060208083528351808285015260005b8181101561153b5785810183015185820160400152820161151f565b506000604082860101526040601f19601f8301168501019250505092915050565b60006020828403121561156e57600080fd5b5035919050565b80356001600160a01b038116811461158c57600080fd5b919050565b6000602082840312156115a357600080fd5b6115ac82611575565b9392505050565b634e487b7160e01b600052604160045260246000fd5b600060a082840312156115db57600080fd5b82601f8301126115ea57600080fd5b60405160a0810181811067ffffffffffffffff8211171561161b57634e487b7160e01b600052604160045260246000fd5b6040528060a084018581111561163057600080fd5b845b818110156116515761164381611575565b835260209283019201611632565b509195945050505050565b60008060008060008060c0878903121561167557600080fd5b505084359660208601359650604086013595606081013595506080810135945060a0013592509050565b600181811c908216806116b357607f821691505b6020821081036116d357634e487b7160e01b600052602260045260246000fd5b50919050565b634e487b7160e01b600052601160045260246000fd5b80820180821115611702576117026116d9565b92915050565b634e487b7160e01b600052603260045260246000fd5b600060018201611730576117306116d9565b5060010190565b60a08101818360005b60058110156117685781516001600160a01b0316835260209283019290910190600101611740565b50505092915050565b634e487b7160e01b600052601260045260246000fdfea26469706673582212209ba07549572f16805ab30df0084e5eed17d4183faf6eeaf8918f436d7819088964736f6c63430008140033a264697066735822122016ab2039f2e4365a086569a2437ee815fa7b8fbdd782527daf363bea5cb9265c64736f6c63430008140033",
  "linkReferences": {},
  "deployedLinkReferences": {}
}