{"contracts/FixrStaking.sol":{"FixrStaking":{"abi":[{"inputs":[{"internalType":"address","name":"_fixrToken","type":"address"},{"internalType":"address","name":"_owner","type":"address"}],"stateMutability":"nonpayable","type":"constructor"},{"inputs":[],"name":"EnforcedPause","type":"error"},{"inputs":[],"name":"ExpectedPause","type":"error"},{"inputs":[{"internalType":"address","name":"owner","type":"address"}],"name":"OwnableInvalidOwner","type":"error"},{"inputs":[{"internalType":"address","name":"account","type":"address"}],"name":"OwnableUnauthorizedAccount","type":"error"},{"inputs":[],"name":"ReentrancyGuardReentrantCall","type":"error"},{"inputs":[{"internalType":"address","name":"token","type":"address"}],"name":"SafeERC20FailedOperation","type":"error"},{"anonymous":false,"inputs":[{"indexed":true,"internalType":"address","name":"previousOwner","type":"address"},{"indexed":true,"internalType":"address","name":"newOwner","type":"address"}],"name":"OwnershipTransferStarted","type":"event"},{"anonymous":false,"inputs":[{"indexed":true,"internalType":"address","name":"previousOwner","type":"address"},{"indexed":true,"internalType":"address","name":"newOwner","type":"address"}],"name":"OwnershipTransferred","type":"event"},{"anonymous":false,"inputs":[{"indexed":false,"internalType":"address","name":"account","type":"address"}],"name":"Paused","type":"event"},{"anonymous":false,"inputs":[{"indexed":true,"internalType":"address","name":"user","type":"address"},{"indexed":true,"internalType":"address","name":"token","type":"address"},{"indexed":false,"internalType":"uint256","name":"amount","type":"uint256"}],"name":"RewardsClaimed","type":"event"},{"anonymous":false,"inputs":[{"indexed":true,"internalType":"address","name":"token","type":"address"},{"indexed":false,"internalType":"uint256","name":"amount","type":"uint256"}],"name":"RewardsDeposited","type":"event"},{"anonymous":false,"inputs":[{"indexed":true,"internalType":"address","name":"user","type":"address"},{"indexed":true,"internalType":"uint256","name":"positionId","type":"uint256"},{"indexed":false,"internalType":"uint256","name":"amount","type":"uint256"},{"indexed":false,"internalType":"uint256","name":"lockTier","type":"uint256"},{"indexed":false,"internalType":"uint256","name":"unlockAt","type":"uint256"}],"name":"Staked","type":"event"},{"anonymous":false,"inputs":[{"indexed":false,"internalType":"address","name":"account","type":"address"}],"name":"Unpaused","type":"event"},{"anonymous":false,"inputs":[{"indexed":true,"internalType":"address","name":"user","type":"address"},{"indexed":true,"internalType":"uint256","name":"positionId","type":"uint256"},{"indexed":false,"internalType":"uint256","name":"amount","type":"uint256"}],"name":"Unstaked","type":"event"},{"inputs":[],"name":"MAX_REWARD_TOKENS","outputs":[{"internalType":"uint256","name":"","type":"uint256"}],"stateMutability":"view","type":"function"},{"inputs":[],"name":"MULTIPLIER_BASE","outputs":[{"internalType":"uint256","name":"","type":"uint256"}],"stateMutability":"view","type":"function"},{"inputs":[],"name":"NUM_TIERS","outputs":[{"internalType":"uint256","name":"","type":"uint256"}],"stateMutability":"view","type":"function"},{"inputs":[],"name":"acceptOwnership","outputs":[],"stateMutability":"nonpayable","type":"function"},{"inputs":[{"internalType":"address","name":"rewardToken","type":"address"}],"name":"claimRewardToken","outputs":[],"stateMutability":"nonpayable","type":"function"},{"inputs":[],"name":"claimRewards","outputs":[],"stateMutability":"nonpayable","type":"function"},{"inputs":[{"internalType":"address","name":"token","type":"address"},{"internalType":"uint256","name":"amount","type":"uint256"}],"name":"depositRewards","outputs":[],"stateMutability":"nonpayable","type":"function"},{"inputs":[{"internalType":"address","name":"token","type":"address"},{"internalType":"address","name":"to","type":"address"},{"internalType":"uint256","name":"amount","type":"uint256"}],"name":"emergencyWithdraw","outputs":[],"stateMutability":"nonpayable","type":"function"},{"inputs":[],"name":"fixrToken","outputs":[{"internalType":"contract IERC20","name":"","type":"address"}],"stateMutability":"view","type":"function"},{"inputs":[{"internalType":"uint256","name":"tierIndex","type":"uint256"}],"name":"getLockTier","outputs":[{"components":[{"internalType":"uint256","name":"duration","type":"uint256"},{"internalType":"uint256","name":"multiplier","type":"uint256"}],"internalType":"struct IFixrStaking.LockTier","name":"tier","type":"tuple"}],"stateMutability":"view","type":"function"},{"inputs":[{"internalType":"address","name":"user","type":"address"}],"name":"getPositions","outputs":[{"components":[{"internalType":"uint256","name":"amount","type":"uint256"},{"internalType":"uint256","name":"weightedAmount","type":"uint256"},{"internalType":"uint256","name":"lockTier","type":"uint256"},{"internalType":"uint256","name":"stakedAt","type":"uint256"},{"internalType":"uint256","name":"unlockAt","type":"uint256"}],"internalType":"struct IFixrStaking.StakePosition[]","name":"result","type":"tuple[]"}],"stateMutability":"view","type":"function"},{"inputs":[],"name":"getRewardTokens","outputs":[{"internalType":"address[]","name":"tokens","type":"address[]"}],"stateMutability":"view","type":"function"},{"inputs":[{"internalType":"address","name":"","type":"address"}],"name":"isRewardToken","outputs":[{"internalType":"bool","name":"","type":"bool"}],"stateMutability":"view","type":"function"},{"inputs":[{"internalType":"uint256","name":"","type":"uint256"}],"name":"lockTiers","outputs":[{"internalType":"uint256","name":"duration","type":"uint256"},{"internalType":"uint256","name":"multiplier","type":"uint256"}],"stateMutability":"view","type":"function"},{"inputs":[],"name":"owner","outputs":[{"internalType":"address","name":"","type":"address"}],"stateMutability":"view","type":"function"},{"inputs":[],"name":"pause","outputs":[],"stateMutability":"nonpayable","type":"function"},{"inputs":[],"name":"paused","outputs":[{"internalType":"bool","name":"","type":"bool"}],"stateMutability":"view","type":"function"},{"inputs":[],"name":"pendingOwner","outputs":[{"internalType":"address","name":"","type":"address"}],"stateMutability":"view","type":"function"},{"inputs":[{"internalType":"address","name":"user","type":"address"},{"internalType":"address","name":"rewardToken","type":"address"}],"name":"pendingRewards","outputs":[{"internalType":"uint256","name":"pending","type":"uint256"}],"stateMutability":"view","type":"function"},{"inputs":[{"internalType":"address","name":"","type":"address"}],"name":"positionCount","outputs":[{"internalType":"uint256","name":"","type":"uint256"}],"stateMutability":"view","type":"function"},{"inputs":[{"internalType":"address","name":"","type":"address"},{"internalType":"uint256","name":"","type":"uint256"}],"name":"positions","outputs":[{"internalType":"uint256","name":"amount","type":"uint256"},{"internalType":"uint256","name":"weightedAmount","type":"uint256"},{"internalType":"uint256","name":"lockTier","type":"uint256"},{"internalType":"uint256","name":"stakedAt","type":"uint256"},{"internalType":"uint256","name":"unlockAt","type":"uint256"}],"stateMutability":"view","type":"function"},{"inputs":[],"name":"renounceOwnership","outputs":[],"stateMutability":"nonpayable","type":"function"},{"inputs":[{"internalType":"address","name":"","type":"address"}],"name":"rewardPerTokenStored","outputs":[{"internalType":"uint256","name":"","type":"uint256"}],"stateMutability":"view","type":"function"},{"inputs":[{"internalType":"uint256","name":"","type":"uint256"}],"name":"rewardTokens","outputs":[{"internalType":"address","name":"","type":"address"}],"stateMutability":"view","type":"function"},{"inputs":[{"internalType":"address","name":"","type":"address"},{"internalType":"address","name":"","type":"address"}],"name":"rewards","outputs":[{"internalType":"uint256","name":"","type":"uint256"}],"stateMutability":"view","type":"function"},{"inputs":[{"internalType":"uint256","name":"amount","type":"uint256"},{"internalType":"uint256","name":"tierIndex","type":"uint256"}],"name":"stake","outputs":[{"internalType":"uint256","name":"positionId","type":"uint256"}],"stateMutability":"nonpayable","type":"function"},{"inputs":[],"name":"totalWeightedStake","outputs":[{"internalType":"uint256","name":"","type":"uint256"}],"stateMutability":"view","type":"function"},{"inputs":[{"internalType":"address","name":"newOwner","type":"address"}],"name":"transferOwnership","outputs":[],"stateMutability":"nonpayable","type":"function"},{"inputs":[],"name":"unpause","outputs":[],"stateMutability":"nonpayable","type":"function"},{"inputs":[{"internalType":"uint256","name":"positionId","type":"uint256"}],"name":"unstake","outputs":[],"stateMutability":"nonpayable","type":"function"},{"inputs":[{"internalType":"address","name":"","type":"address"},{"internalType":"address","name":"","type":"address"}],"name":"userRewardPerTokenPaid","outputs":[{"internalType":"uint256","name":"","type":"uint256"}],"stateMutability":"view","type":"function"},{"inputs":[{"internalType":"address","name":"","type":"address"}],"name":"userWeightedStake","outputs":[{"internalType":"uint256","name":"","type":"uint256"}],"stateMutability":"view","type":"function"}],"evm":{"bytecode":{"linkReferences":{},"object":"60a06040523480156200001157600080fd5b5060405162001c6238038062001c628339810160408190526200003491620001e3565b6001600055806001600160a01b0381166200006a57604051631e4fbdf760e01b8152600060048201526024015b60405180910390fd5b62000075816200014e565b506001600160a01b038216620000be5760405162461bcd60e51b815260206004820152600d60248201526c24b73b30b634b2103a37b5b2b760991b604482015260640162000061565b506001600160a01b031660805260408051808201825262093a8080825261271060209283018190526003919091556004558151808301835262278d008082526130d4918301829052600555600655815180830183526276a700808252613a98918301829052600755600855815180830190925262ed4e00808352614e2092909101829052600955600a556200021b565b600280546001600160a01b031916905562000169816200016c565b50565b600180546001600160a01b03838116610100818102610100600160a81b031985161790945560405193909204169182907f8be0079c531659141344cd1fd0a4f28419497f9722a3daafe3b4186f6b6457e090600090a35050565b80516001600160a01b0381168114620001de57600080fd5b919050565b60008060408385031215620001f757600080fd5b6200020283620001c6565b91506200021260208401620001c6565b90509250929050565b608051611a166200024c600039600081816103360152818161067701528181610ada01526111ab0152611a166000f3fe608060405234801561001057600080fd5b50600436106101f05760003560e01c80638456cb591161010f578063c4f59f9b116100a2578063e70b9e2711610071578063e70b9e27146104f1578063eed9da1f1461051c578063f2fde38b14610525578063f97136af1461053857600080fd5b8063c4f59f9b146104a5578063ca37271b146104ba578063e30c3978146104cd578063e63ea408146104de57600080fd5b8063aff9f95f116100de578063aff9f95f146103bc578063b5fd73f8146103ea578063b915a4fd1461040d578063c1be66771461043557600080fd5b80638456cb591461036b5780638da5cb5b1461037357806397ad1cce146103895780639ce43f901461039c57600080fd5b80637035ab98116101875780637b0472f0116101565780637b0472f0146102f35780637bb7bed1146103065780637f1f9bca1461033157806380ac82281461035857600080fd5b80637035ab98146102985780637043c712146102c3578063715018a6146102e357806379ba5097146102eb57600080fd5b806342fd3880116101c357806342fd3880146102435780635c975abb146102715780635d0cde9714610288578063648c9f401461029057600080fd5b80632e17de78146101f5578063372500ab1461020a5780633eeb530e146102125780633f4ba83a1461023b575b600080fd5b610208610203366004611740565b610541565b005b6102086106ed565b610225610220366004611775565b61075b565b6040516102329190611797565b60405180910390f35b610208610897565b610263610251366004611775565b600d6020526000908152604090205481565b604051908152602001610232565b60015460ff165b6040519015158152602001610232565b610263600a81565b610263600481565b6102636102a6366004611805565b601260209081526000928352604080842090915290825290205481565b6102636102d1366004611775565b600e6020526000908152604090205481565b6102086108a7565b6102086108b9565b610263610301366004611838565b6108fa565b610319610314366004611740565b610b70565b6040516001600160a01b039091168152602001610232565b6103197f000000000000000000000000000000000000000000000000000000000000000081565b610263610366366004611805565b610b9a565b610208610c79565b60015461010090046001600160a01b0316610319565b61020861039736600461185a565b610c89565b6102636103aa366004611775565b60116020526000908152604090205481565b6103cf6103ca366004611740565b61100b565b60408051825181526020928301519281019290925201610232565b6102786103f8366004611775565b60106020526000908152604090205460ff1681565b61042061041b366004611740565b61109b565b60408051928352602083019190915201610232565b61047d61044336600461185a565b600c602090815260009283526040808420909152908252902080546001820154600283015460038401546004909401549293919290919085565b604080519586526020860194909452928401919091526060830152608082015260a001610232565b6104ad6110bd565b6040516102329190611884565b6102086104c8366004611775565b61111f565b6002546001600160a01b0316610319565b6102086104ec3660046118d1565b6111a1565b6102636104ff366004611805565b601360209081526000928352604080842090915290825290205481565b610263600b5481565b610208610533366004611775565b611243565b61026361271081565b6105496112ba565b336000908152600c60209081526040808320848452909152902080546105ab5760405162461bcd60e51b8152602060048201526012602482015271141bdcda5d1a5bdb881b9bdd08199bdd5b9960721b60448201526064015b60405180910390fd5b80600401544210156105ee5760405162461bcd60e51b815260206004820152600c60248201526b14dd1a5b1b081b1bd8dad95960a21b60448201526064016105a2565b6105f7336112e4565b80546001820154336000908152600e60205260408120805483929061061d908490611923565b9250508190555080600b60008282546106369190611923565b9091555050336000818152600c602090815260408083208884529091528120818155600181018290556002810182905560038101829055600401556106a6907f00000000000000000000000000000000000000000000000000000000000000006001600160a01b03169084611405565b604051828152849033907f7fc4727e062e336010f2c282598ef5f14facb3de68cf8195c2f23e1454b2b74e9060200160405180910390a35050506106ea6001600055565b50565b6106f56112ba565b6106fe336112e4565b60005b600f5481101561074e5761073c33600f838154811061072257610722611936565b6000918252602090912001546001600160a01b0316611464565b806107468161194c565b915050610701565b506107596001600055565b565b6001600160a01b0381166000908152600d60205260409020546060908067ffffffffffffffff81111561079057610790611965565b6040519080825280602002602001820160405280156107f357816020015b6107e06040518060a0016040528060008152602001600081526020016000815260200160008152602001600081525090565b8152602001906001900390816107ae5790505b50915060005b81811015610890576001600160a01b0384166000908152600c60209081526040808320848452825291829020825160a08101845281548152600182015492810192909252600281015492820192909252600382015460608201526004909101546080820152835184908390811061087257610872611936565b602002602001018190525080806108889061194c565b9150506107f9565b5050919050565b61089f611516565b610759611549565b6108af611516565b610759600061159b565b60025433906001600160a01b031681146108f15760405163118cdaa760e01b81526001600160a01b03821660048201526024016105a2565b6106ea8161159b565b60006109046112ba565b61090c6115b4565b6000831161094d5760405162461bcd60e51b815260206004820152600e60248201526d043616e6e6f74207374616b6520360941b60448201526064016105a2565b6004821061098c5760405162461bcd60e51b815260206004820152600c60248201526b24b73b30b634b2103a34b2b960a11b60448201526064016105a2565b610995336112e4565b6000600383600481106109aa576109aa611936565b6002020160405180604001604052908160008201548152602001600182015481525050905060006127108260200151866109e4919061197b565b6109ee9190611992565b336000908152600d6020526040812080549550919250849190610a108361194c565b91905055506040518060a00160405280868152602001828152602001858152602001428152602001836000015142610a4891906119b4565b9052336000818152600c6020908152604080832088845282528083208551815585830151600182015585820151600282015560608601516003820155608090950151600490950194909455918152600e9091529081208054839290610aae9084906119b4565b9250508190555080600b6000828254610ac791906119b4565b90915550610b0290506001600160a01b037f0000000000000000000000000000000000000000000000000000000000000000163330886115d8565b82336001600160a01b03167f9cfd25589d1eb8ad71e342a86a8524e83522e3936c0803048c08f6d9ad974f408787866000015142610b4091906119b4565b6040805193845260208401929092529082015260600160405180910390a35050610b6a6001600055565b92915050565b600f8181548110610b8057600080fd5b6000918252602090912001546001600160a01b0316905081565b6001600160a01b0382166000908152600e6020526040812054808203610be75750506001600160a01b03808316600090815260136020908152604080832093851683529290522054610b6a565b6001600160a01b038084166000818152601160209081526040808320549489168352601282528083209383529290522054670de0b6b3a7640000610c2b8284611923565b610c35908561197b565b610c3f9190611992565b6001600160a01b038088166000908152601360209081526040808320938a1683529290522054610c6f91906119b4565b9695505050505050565b610c81611516565b610759611617565b610c916112ba565b60008111610cd45760405162461bcd60e51b815260206004820152601060248201526f043616e6e6f74206465706f73697420360841b60448201526064016105a2565b6000600b5411610d135760405162461bcd60e51b815260206004820152600a6024820152694e6f207374616b65727360b01b60448201526064016105a2565b6001600160a01b038216610d595760405162461bcd60e51b815260206004820152600d60248201526c24b73b30b634b2103a37b5b2b760991b60448201526064016105a2565b6001600160a01b03821660009081526010602052604090205460ff16610e3157600f54600a11610dcb5760405162461bcd60e51b815260206004820152601960248201527f4d61782072657761726420746f6b656e7320726561636865640000000000000060448201526064016105a2565b6001600160a01b0382166000818152601060205260408120805460ff19166001908117909155600f805491820181559091527f8d1108e10bcb7c27dddfc02ed9d693a074039d026cf4ea4240b40f7d581ac8020180546001600160a01b03191690911790555b6040516370a0823160e01b81523060048201526000906001600160a01b038416906370a0823190602401602060405180830381865afa158015610e78573d6000803e3d6000fd5b505050506040513d601f19601f82011682018060405250810190610e9c91906119c7565b9050610eb36001600160a01b0384163330856115d8565b6040516370a0823160e01b815230600482015260009082906001600160a01b038616906370a0823190602401602060405180830381865afa158015610efc573d6000803e3d6000fd5b505050506040513d601f19601f82011682018060405250810190610f2091906119c7565b610f2a9190611923565b905060008111610f715760405162461bcd60e51b8152602060048201526012602482015271139bc81d1bdad95b9cc81c9958d95a5d995960721b60448201526064016105a2565b600b54610f8682670de0b6b3a764000061197b565b610f909190611992565b6001600160a01b03851660009081526011602052604081208054909190610fb89084906119b4565b90915550506040518181526001600160a01b038516907fb8b27d0db504fa5d914f1fd330347096e88d5ff94b6c612d32797e7c12a8f66f9060200160405180910390a250506110076001600055565b5050565b60408051808201909152600080825260208201526004821061105e5760405162461bcd60e51b815260206004820152600c60248201526b24b73b30b634b2103a34b2b960a11b60448201526064016105a2565b6003826004811061107157611071611936565b60020201604051806040016040529081600082015481526020016001820154815250509050919050565b600381600481106110ab57600080fd5b60020201805460019091015490915082565b6060600f80548060200260200160405190810160405280929190818152602001828054801561111557602002820191906000526020600020905b81546001600160a01b031681526001909101906020018083116110f7575b5050505050905090565b6111276112ba565b6001600160a01b03811660009081526010602052604090205460ff166111845760405162461bcd60e51b81526020600482015260126024820152712737ba1030903932bbb0b932103a37b5b2b760711b60448201526064016105a2565b61118d336112e4565b6111973382611464565b6106ea6001600055565b6111a9611516565b7f00000000000000000000000000000000000000000000000000000000000000006001600160a01b0316836001600160a01b03160361122a5760405162461bcd60e51b815260206004820152601c60248201527f43616e6e6f74207769746864726177207374616b656420746f6b656e0000000060448201526064016105a2565b61123e6001600160a01b0384168383611405565b505050565b61124b611516565b600280546001600160a01b0383166001600160a01b031990911681179091556112826001546001600160a01b036101009091041690565b6001600160a01b03167f38d16b8cac22d99fc7c124b9cd0de2d3fa1faef420bfe791d8c362d765e2270060405160405180910390a350565b6002600054036112dd57604051633ee5aeb560e01b815260040160405180910390fd5b6002600055565b6001600160a01b0381166000908152600e6020526040812054905b600f5481101561123e576000600f828154811061131e5761131e611936565b60009182526020808320909101546001600160a01b0390811680845260118352604080852054928916855260128452808520828652909352919092205490925084156113c857670de0b6b3a76400006113778284611923565b611381908761197b565b61138b9190611992565b6001600160a01b038088166000908152601360209081526040808320938816835292905290812080549091906113c29084906119b4565b90915550505b506001600160a01b0380861660009081526012602090815260408083209590931682529390935290912055806113fd8161194c565b9150506112ff565b6040516001600160a01b0383811660248301526044820183905261123e91859182169063a9059cbb906064015b604051602081830303815290604052915060e01b6020820180516001600160e01b038381831617835250505050611652565b6001600160a01b03808316600090815260136020908152604080832093851683529290522054801561123e576001600160a01b038084166000908152601360209081526040808320938616808452939091528120556114c4908483611405565b816001600160a01b0316836001600160a01b03167f9310ccfcb8de723f578a9e4282ea9f521f05ae40dc08f3068dfad528a65ee3c78360405161150991815260200190565b60405180910390a3505050565b6001546001600160a01b036101009091041633146107595760405163118cdaa760e01b81523360048201526024016105a2565b6115516116c3565b6001805460ff191690557f5db9ee0a495bf2e6ff9c91a7834c1ba4fdd244a5e8aa4e537bd38aeae4b073aa335b6040516001600160a01b03909116815260200160405180910390a1565b600280546001600160a01b03191690556106ea816116e6565b60015460ff16156107595760405163d93c066560e01b815260040160405180910390fd5b6040516001600160a01b0384811660248301528381166044830152606482018390526116119186918216906323b872dd90608401611432565b50505050565b61161f6115b4565b6001805460ff1916811790557f62e78cea01bee320cd4e420270b5ea74000d11b0c9f74754ebdbfc544b05a2583361157e565b600080602060008451602086016000885af180611675576040513d6000823e3d81fd5b50506000513d9150811561168d57806001141561169a565b6001600160a01b0384163b155b1561161157604051635274afe760e01b81526001600160a01b03851660048201526024016105a2565b60015460ff1661075957604051638dfc202b60e01b815260040160405180910390fd5b600180546001600160a01b03838116610100818102610100600160a81b031985161790945560405193909204169182907f8be0079c531659141344cd1fd0a4f28419497f9722a3daafe3b4186f6b6457e090600090a35050565b60006020828403121561175257600080fd5b5035919050565b80356001600160a01b038116811461177057600080fd5b919050565b60006020828403121561178757600080fd5b61179082611759565b9392505050565b602080825282518282018190526000919060409081850190868401855b828110156117f85781518051855286810151878601528581015186860152606080820151908601526080908101519085015260a090930192908501906001016117b4565b5091979650505050505050565b6000806040838503121561181857600080fd5b61182183611759565b915061182f60208401611759565b90509250929050565b6000806040838503121561184b57600080fd5b50508035926020909101359150565b6000806040838503121561186d57600080fd5b61187683611759565b946020939093013593505050565b6020808252825182820181905260009190848201906040850190845b818110156118c55783516001600160a01b0316835292840192918401916001016118a0565b50909695505050505050565b6000806000606084860312156118e657600080fd5b6118ef84611759565b92506118fd60208501611759565b9150604084013590509250925092565b634e487b7160e01b600052601160045260246000fd5b81810381811115610b6a57610b6a61190d565b634e487b7160e01b600052603260045260246000fd5b60006001820161195e5761195e61190d565b5060010190565b634e487b7160e01b600052604160045260246000fd5b8082028115828204841417610b6a57610b6a61190d565b6000826119af57634e487b7160e01b600052601260045260246000fd5b500490565b80820180821115610b6a57610b6a61190d565b6000602082840312156119d957600080fd5b505191905056fea2646970667358221220bcce2f005bc34828bdbc8b77df022f4d7349a4dc800bb2cdcf81982a2ee33def64736f6c63430008140033","opcodes":"PUSH1 0xA0 PUSH1 0x40 MSTORE CALLVALUE DUP1 ISZERO PUSH3 0x11 JUMPI PUSH1 0x0 DUP1 REVERT JUMPDEST POP PUSH1 0x40 MLOAD PUSH3 0x1C62 CODESIZE SUB DUP1 PUSH3 0x1C62 DUP4 CODECOPY DUP2 ADD PUSH1 0x40 DUP2 SWAP1 MSTORE PUSH3 0x34 SWAP2 PUSH3 0x1E3 JUMP JUMPDEST PUSH1 0x1 PUSH1 0x0 SSTORE DUP1 PUSH1 0x1 PUSH1 0x1 PUSH1 0xA0 SHL SUB DUP2 AND PUSH3 0x6A JUMPI PUSH1 0x40 MLOAD PUSH4 0x1E4FBDF7 PUSH1 0xE0 SHL DUP2 MSTORE PUSH1 0x0 PUSH1 0x4 DUP3 ADD MSTORE PUSH1 0x24 ADD JUMPDEST PUSH1 0x40 MLOAD DUP1 SWAP2 SUB SWAP1 REVERT JUMPDEST PUSH3 0x75 DUP2 PUSH3 0x14E JUMP JUMPDEST POP PUSH1 0x1 PUSH1 0x1 PUSH1 0xA0 SHL SUB DUP3 AND PUSH3 0xBE JUMPI PUSH1 0x40 MLOAD PUSH3 0x461BCD PUSH1 0xE5 SHL DUP2 MSTORE PUSH1 0x20 PUSH1 0x4 DUP3 ADD MSTORE PUSH1 0xD PUSH1 0x24 DUP3 ADD MSTORE PUSH13 0x24B73B30B634B2103A37B5B2B7 PUSH1 0x99 SHL PUSH1 0x44 DUP3 ADD MSTORE PUSH1 0x64 ADD PUSH3 0x61 JUMP JUMPDEST POP PUSH1 0x1 PUSH1 0x1 PUSH1 0xA0 SHL SUB AND PUSH1 0x80 MSTORE PUSH1 0x40 DUP1 MLOAD DUP1 DUP3 ADD DUP3 MSTORE PUSH3 0x93A80 DUP1 DUP3 MSTORE PUSH2 0x2710 PUSH1 0x20 SWAP3 DUP4 ADD DUP2 SWAP1 MSTORE PUSH1 0x3 SWAP2 SWAP1 SWAP2 SSTORE PUSH1 0x4 SSTORE DUP2 MLOAD DUP1 DUP4 ADD DUP4 MSTORE PUSH3 0x278D00 DUP1 DUP3 MSTORE PUSH2 0x30D4 SWAP2 DUP4 ADD DUP3 SWAP1 MSTORE PUSH1 0x5 SSTORE PUSH1 0x6 SSTORE DUP2 MLOAD DUP1 DUP4 ADD DUP4 MSTORE PUSH3 0x76A700 DUP1 DUP3 MSTORE PUSH2 0x3A98 SWAP2 DUP4 ADD DUP3 SWAP1 MSTORE PUSH1 0x7 SSTORE PUSH1 0x8 SSTORE DUP2 MLOAD DUP1 DUP4 ADD SWAP1 SWAP3 MSTORE PUSH3 0xED4E00 DUP1 DUP4 MSTORE PUSH2 0x4E20 SWAP3 SWAP1 SWAP2 ADD DUP3 SWAP1 MSTORE PUSH1 0x9 SSTORE PUSH1 0xA SSTORE PUSH3 0x21B JUMP JUMPDEST PUSH1 0x2 DUP1 SLOAD PUSH1 0x1 PUSH1 0x1 PUSH1 0xA0 SHL SUB NOT AND SWAP1 SSTORE PUSH3 0x169 DUP2 PUSH3 0x16C JUMP JUMPDEST POP JUMP JUMPDEST PUSH1 0x1 DUP1 SLOAD PUSH1 0x1 PUSH1 0x1 PUSH1 0xA0 SHL SUB DUP4 DUP2 AND PUSH2 0x100 DUP2 DUP2 MUL PUSH2 0x100 PUSH1 0x1 PUSH1 0xA8 SHL SUB NOT DUP6 AND OR SWAP1 SWAP5 SSTORE PUSH1 0x40 MLOAD SWAP4 SWAP1 SWAP3 DIV AND SWAP2 DUP3 SWAP1 PUSH32 0x8BE0079C531659141344CD1FD0A4F28419497F9722A3DAAFE3B4186F6B6457E0 SWAP1 PUSH1 0x0 SWAP1 LOG3 POP POP JUMP JUMPDEST DUP1 MLOAD PUSH1 0x1 PUSH1 0x1 PUSH1 0xA0 SHL SUB DUP2 AND DUP2 EQ PUSH3 0x1DE JUMPI PUSH1 0x0 DUP1 REVERT JUMPDEST SWAP2 SWAP1 POP JUMP JUMPDEST PUSH1 0x0 DUP1 PUSH1 0x40 DUP4 DUP6 SUB SLT ISZERO PUSH3 0x1F7 JUMPI PUSH1 0x0 DUP1 REVERT JUMPDEST PUSH3 0x202 DUP4 PUSH3 0x1C6 JUMP JUMPDEST SWAP2 POP PUSH3 0x212 PUSH1 0x20 DUP5 ADD PUSH3 0x1C6 JUMP JUMPDEST SWAP1 POP SWAP3 POP SWAP3 SWAP1 POP JUMP JUMPDEST PUSH1 0x80 MLOAD PUSH2 0x1A16 PUSH3 0x24C PUSH1 0x0 CODECOPY PUSH1 0x0 DUP2 DUP2 PUSH2 0x336 ADD MSTORE DUP2 DUP2 PUSH2 0x677 ADD MSTORE DUP2 DUP2 PUSH2 0xADA ADD MSTORE PUSH2 0x11AB ADD MSTORE PUSH2 0x1A16 PUSH1 0x0 RETURN INVALID PUSH1 0x80 PUSH1 0x40 MSTORE CALLVALUE DUP1 ISZERO PUSH2 0x10 JUMPI PUSH1 0x0 DUP1 REVERT JUMPDEST POP PUSH1 0x4 CALLDATASIZE LT PUSH2 0x1F0 JUMPI PUSH1 0x0 CALLDATALOAD PUSH1 0xE0 SHR DUP1 PUSH4 0x8456CB59 GT PUSH2 0x10F JUMPI DUP1 PUSH4 0xC4F59F9B GT PUSH2 0xA2 JUMPI DUP1 PUSH4 0xE70B9E27 GT PUSH2 0x71 JUMPI DUP1 PUSH4 0xE70B9E27 EQ PUSH2 0x4F1 JUMPI DUP1 PUSH4 0xEED9DA1F EQ PUSH2 0x51C JUMPI DUP1 PUSH4 0xF2FDE38B EQ PUSH2 0x525 JUMPI DUP1 PUSH4 0xF97136AF EQ PUSH2 0x538 JUMPI PUSH1 0x0 DUP1 REVERT JUMPDEST DUP1 PUSH4 0xC4F59F9B EQ PUSH2 0x4A5 JUMPI DUP1 PUSH4 0xCA37271B EQ PUSH2 0x4BA JUMPI DUP1 PUSH4 0xE30C3978 EQ PUSH2 0x4CD JUMPI DUP1 PUSH4 0xE63EA408 EQ PUSH2 0x4DE JUMPI PUSH1 0x0 DUP1 REVERT JUMPDEST DUP1 PUSH4 0xAFF9F95F GT PUSH2 0xDE JUMPI DUP1 PUSH4 0xAFF9F95F EQ PUSH2 0x3BC JUMPI DUP1 PUSH4 0xB5FD73F8 EQ PUSH2 0x3EA JUMPI DUP1 PUSH4 0xB915A4FD EQ PUSH2 0x40D JUMPI DUP1 PUSH4 0xC1BE6677 EQ PUSH2 0x435 JUMPI PUSH1 0x0 DUP1 REVERT JUMPDEST DUP1 PUSH4 0x8456CB59 EQ PUSH2 0x36B JUMPI DUP1 PUSH4 0x8DA5CB5B EQ PUSH2 0x373 JUMPI DUP1 PUSH4 0x97AD1CCE EQ PUSH2 0x389 JUMPI DUP1 PUSH4 0x9CE43F90 EQ PUSH2 0x39C JUMPI PUSH1 0x0 DUP1 REVERT JUMPDEST DUP1 PUSH4 0x7035AB98 GT PUSH2 0x187 JUMPI DUP1 PUSH4 0x7B0472F0 GT PUSH2 0x156 JUMPI DUP1 PUSH4 0x7B0472F0 EQ PUSH2 0x2F3 JUMPI DUP1 PUSH4 0x7BB7BED1 EQ PUSH2 0x306 JUMPI DUP1 PUSH4 0x7F1F9BCA EQ PUSH2 0x331 JUMPI DUP1 PUSH4 0x80AC8228 EQ PUSH2 0x358 JUMPI PUSH1 0x0 DUP1 REVERT JUMPDEST DUP1 PUSH4 0x7035AB98 EQ PUSH2 0x298 JUMPI DUP1 PUSH4 0x7043C712 EQ PUSH2 0x2C3 JUMPI DUP1 PUSH4 0x715018A6 EQ PUSH2 0x2E3 JUMPI DUP1 PUSH4 0x79BA5097 EQ PUSH2 0x2EB JUMPI PUSH1 0x0 DUP1 REVERT JUMPDEST DUP1 PUSH4 0x42FD3880 GT PUSH2 0x1C3 JUMPI DUP1 PUSH4 0x42FD3880 EQ PUSH2 0x243 JUMPI DUP1 PUSH4 0x5C975ABB EQ PUSH2 0x271 JUMPI DUP1 PUSH4 0x5D0CDE97 EQ PUSH2 0x288 JUMPI DUP1 PUSH4 0x648C9F40 EQ PUSH2 0x290 JUMPI PUSH1 0x0 DUP1 REVERT JUMPDEST DUP1 PUSH4 0x2E17DE78 EQ PUSH2 0x1F5 JUMPI DUP1 PUSH4 0x372500AB EQ PUSH2 0x20A JUMPI DUP1 PUSH4 0x3EEB530E EQ PUSH2 0x212 JUMPI DUP1 PUSH4 0x3F4BA83A EQ PUSH2 0x23B JUMPI JUMPDEST PUSH1 0x0 DUP1 REVERT JUMPDEST PUSH2 0x208 PUSH2 0x203 CALLDATASIZE PUSH1 0x4 PUSH2 0x1740 JUMP JUMPDEST PUSH2 0x541 JUMP JUMPDEST STOP JUMPDEST PUSH2 0x208 PUSH2 0x6ED JUMP JUMPDEST PUSH2 0x225 PUSH2 0x220 CALLDATASIZE PUSH1 0x4 PUSH2 0x1775 JUMP JUMPDEST PUSH2 0x75B JUMP JUMPDEST PUSH1 0x40 MLOAD PUSH2 0x232 SWAP2 SWAP1 PUSH2 0x1797 JUMP JUMPDEST PUSH1 0x40 MLOAD DUP1 SWAP2 SUB SWAP1 RETURN JUMPDEST PUSH2 0x208 PUSH2 0x897 JUMP JUMPDEST PUSH2 0x263 PUSH2 0x251 CALLDATASIZE PUSH1 0x4 PUSH2 0x1775 JUMP JUMPDEST PUSH1 0xD PUSH1 0x20 MSTORE PUSH1 0x0 SWAP1 DUP2 MSTORE PUSH1 0x40 SWAP1 KECCAK256 SLOAD DUP2 JUMP JUMPDEST PUSH1 0x40 MLOAD SWAP1 DUP2 MSTORE PUSH1 0x20 ADD PUSH2 0x232 JUMP JUMPDEST PUSH1 0x1 SLOAD PUSH1 0xFF AND JUMPDEST PUSH1 0x40 MLOAD SWAP1 ISZERO ISZERO DUP2 MSTORE PUSH1 0x20 ADD PUSH2 0x232 JUMP JUMPDEST PUSH2 0x263 PUSH1 0xA DUP2 JUMP JUMPDEST PUSH2 0x263 PUSH1 0x4 DUP2 JUMP JUMPDEST PUSH2 0x263 PUSH2 0x2A6 CALLDATASIZE PUSH1 0x4 PUSH2 0x1805 JUMP JUMPDEST PUSH1 0x12 PUSH1 0x20 SWAP1 DUP2 MSTORE PUSH1 0x0 SWAP3 DUP4 MSTORE PUSH1 0x40 DUP1 DUP5 KECCAK256 SWAP1 SWAP2 MSTORE SWAP1 DUP3 MSTORE SWAP1 KECCAK256 SLOAD DUP2 JUMP JUMPDEST PUSH2 0x263 PUSH2 0x2D1 CALLDATASIZE PUSH1 0x4 PUSH2 0x1775 JUMP JUMPDEST PUSH1 0xE PUSH1 0x20 MSTORE PUSH1 0x0 SWAP1 DUP2 MSTORE PUSH1 0x40 SWAP1 KECCAK256 SLOAD DUP2 JUMP JUMPDEST PUSH2 0x208 PUSH2 0x8A7 JUMP JUMPDEST PUSH2 0x208 PUSH2 0x8B9 JUMP JUMPDEST PUSH2 0x263 PUSH2 0x301 CALLDATASIZE PUSH1 0x4 PUSH2 0x1838 JUMP JUMPDEST PUSH2 0x8FA JUMP JUMPDEST PUSH2 0x319 PUSH2 0x314 CALLDATASIZE PUSH1 0x4 PUSH2 0x1740 JUMP JUMPDEST PUSH2 0xB70 JUMP JUMPDEST PUSH1 0x40 MLOAD PUSH1 0x1 PUSH1 0x1 PUSH1 0xA0 SHL SUB SWAP1 SWAP2 AND DUP2 MSTORE PUSH1 0x20 ADD PUSH2 0x232 JUMP JUMPDEST PUSH2 0x319 PUSH32 0x0 DUP2 JUMP JUMPDEST PUSH2 0x263 PUSH2 0x366 CALLDATASIZE PUSH1 0x4 PUSH2 0x1805 JUMP JUMPDEST PUSH2 0xB9A JUMP JUMPDEST PUSH2 0x208 PUSH2 0xC79 JUMP JUMPDEST PUSH1 0x1 SLOAD PUSH2 0x100 SWAP1 DIV PUSH1 0x1 PUSH1 0x1 PUSH1 0xA0 SHL SUB AND PUSH2 0x319 JUMP JUMPDEST PUSH2 0x208 PUSH2 0x397 CALLDATASIZE PUSH1 0x4 PUSH2 0x185A JUMP JUMPDEST PUSH2 0xC89 JUMP JUMPDEST PUSH2 0x263 PUSH2 0x3AA CALLDATASIZE PUSH1 0x4 PUSH2 0x1775 JUMP JUMPDEST PUSH1 0x11 PUSH1 0x20 MSTORE PUSH1 0x0 SWAP1 DUP2 MSTORE PUSH1 0x40 SWAP1 KECCAK256 SLOAD DUP2 JUMP JUMPDEST PUSH2 0x3CF PUSH2 0x3CA CALLDATASIZE PUSH1 0x4 PUSH2 0x1740 JUMP JUMPDEST PUSH2 0x100B JUMP JUMPDEST PUSH1 0x40 DUP1 MLOAD DUP3 MLOAD DUP2 MSTORE PUSH1 0x20 SWAP3 DUP4 ADD MLOAD SWAP3 DUP2 ADD SWAP3 SWAP1 SWAP3 MSTORE ADD PUSH2 0x232 JUMP JUMPDEST PUSH2 0x278 PUSH2 0x3F8 CALLDATASIZE PUSH1 0x4 PUSH2 0x1775 JUMP JUMPDEST PUSH1 0x10 PUSH1 0x20 MSTORE PUSH1 0x0 SWAP1 DUP2 MSTORE PUSH1 0x40 SWAP1 KECCAK256 SLOAD PUSH1 0xFF AND DUP2 JUMP JUMPDEST PUSH2 0x420 PUSH2 0x41B CALLDATASIZE PUSH1 0x4 PUSH2 0x1740 JUMP JUMPDEST PUSH2 0x109B JUMP JUMPDEST PUSH1 0x40 DUP1 MLOAD SWAP3 DUP4 MSTORE PUSH1 0x20 DUP4 ADD SWAP2 SWAP1 SWAP2 MSTORE ADD PUSH2 0x232 JUMP JUMPDEST PUSH2 0x47D PUSH2 0x443 CALLDATASIZE PUSH1 0x4 PUSH2 0x185A JUMP JUMPDEST PUSH1 0xC PUSH1 0x20 SWAP1 DUP2 MSTORE PUSH1 0x0 SWAP3 DUP4 MSTORE PUSH1 0x40 DUP1 DUP5 KECCAK256 SWAP1 SWAP2 MSTORE SWAP1 DUP3 MSTORE SWAP1 KECCAK256 DUP1 SLOAD PUSH1 0x1 DUP3 ADD SLOAD PUSH1 0x2 DUP4 ADD SLOAD PUSH1 0x3 DUP5 ADD SLOAD PUSH1 0x4 SWAP1 SWAP5 ADD SLOAD SWAP3 SWAP4 SWAP2 SWAP3 SWAP1 SWAP2 SWAP1 DUP6 JUMP JUMPDEST PUSH1 0x40 DUP1 MLOAD SWAP6 DUP7 MSTORE PUSH1 0x20 DUP7 ADD SWAP5 SWAP1 SWAP5 MSTORE SWAP3 DUP5 ADD SWAP2 SWAP1 SWAP2 MSTORE PUSH1 0x60 DUP4 ADD MSTORE PUSH1 0x80 DUP3 ADD MSTORE PUSH1 0xA0 ADD PUSH2 0x232 JUMP JUMPDEST PUSH2 0x4AD PUSH2 0x10BD JUMP JUMPDEST PUSH1 0x40 MLOAD PUSH2 0x232 SWAP2 SWAP1 PUSH2 0x1884 JUMP JUMPDEST PUSH2 0x208 PUSH2 0x4C8 CALLDATASIZE PUSH1 0x4 PUSH2 0x1775 JUMP JUMPDEST PUSH2 0x111F JUMP JUMPDEST PUSH1 0x2 SLOAD PUSH1 0x1 PUSH1 0x1 PUSH1 0xA0 SHL SUB AND PUSH2 0x319 JUMP JUMPDEST PUSH2 0x208 PUSH2 0x4EC CALLDATASIZE PUSH1 0x4 PUSH2 0x18D1 JUMP JUMPDEST PUSH2 0x11A1 JUMP JUMPDEST PUSH2 0x263 PUSH2 0x4FF CALLDATASIZE PUSH1 0x4 PUSH2 0x1805 JUMP JUMPDEST PUSH1 0x13 PUSH1 0x20 SWAP1 DUP2 MSTORE PUSH1 0x0 SWAP3 DUP4 MSTORE PUSH1 0x40 DUP1 DUP5 KECCAK256 SWAP1 SWAP2 MSTORE SWAP1 DUP3 MSTORE SWAP1 KECCAK256 SLOAD DUP2 JUMP JUMPDEST PUSH2 0x263 PUSH1 0xB SLOAD DUP2 JUMP JUMPDEST PUSH2 0x208 PUSH2 0x533 CALLDATASIZE PUSH1 0x4 PUSH2 0x1775 JUMP JUMPDEST PUSH2 0x1243 JUMP JUMPDEST PUSH2 0x263 PUSH2 0x2710 DUP2 JUMP JUMPDEST PUSH2 0x549 PUSH2 0x12BA JUMP JUMPDEST CALLER PUSH1 0x0 SWAP1 DUP2 MSTORE PUSH1 0xC PUSH1 0x20 SWAP1 DUP2 MSTORE PUSH1 0x40 DUP1 DUP4 KECCAK256 DUP5 DUP5 MSTORE SWAP1 SWAP2 MSTORE SWAP1 KECCAK256 DUP1 SLOAD PUSH2 0x5AB JUMPI PUSH1 0x40 MLOAD PUSH3 0x461BCD PUSH1 0xE5 SHL DUP2 MSTORE PUSH1 0x20 PUSH1 0x4 DUP3 ADD MSTORE PUSH1 0x12 PUSH1 0x24 DUP3 ADD MSTORE PUSH18 0x141BDCDA5D1A5BDB881B9BDD08199BDD5B99 PUSH1 0x72 SHL PUSH1 0x44 DUP3 ADD MSTORE PUSH1 0x64 ADD JUMPDEST PUSH1 0x40 MLOAD DUP1 SWAP2 SUB SWAP1 REVERT JUMPDEST DUP1 PUSH1 0x4 ADD SLOAD TIMESTAMP LT ISZERO PUSH2 0x5EE JUMPI PUSH1 0x40 MLOAD PUSH3 0x461BCD PUSH1 0xE5 SHL DUP2 MSTORE PUSH1 0x20 PUSH1 0x4 DUP3 ADD MSTORE PUSH1 0xC PUSH1 0x24 DUP3 ADD MSTORE PUSH12 0x14DD1A5B1B081B1BD8DAD959 PUSH1 0xA2 SHL PUSH1 0x44 DUP3 ADD MSTORE PUSH1 0x64 ADD PUSH2 0x5A2 JUMP JUMPDEST PUSH2 0x5F7 CALLER PUSH2 0x12E4 JUMP JUMPDEST DUP1 SLOAD PUSH1 0x1 DUP3 ADD SLOAD CALLER PUSH1 0x0 SWAP1 DUP2 MSTORE PUSH1 0xE PUSH1 0x20 MSTORE PUSH1 0x40 DUP2 KECCAK256 DUP1 SLOAD DUP4 SWAP3 SWAP1 PUSH2 0x61D SWAP1 DUP5 SWAP1 PUSH2 0x1923 JUMP JUMPDEST SWAP3 POP POP DUP2 SWAP1 SSTORE POP DUP1 PUSH1 0xB PUSH1 0x0 DUP3 DUP3 SLOAD PUSH2 0x636 SWAP2 SWAP1 PUSH2 0x1923 JUMP JUMPDEST SWAP1 SWAP2 SSTORE POP POP CALLER PUSH1 0x0 DUP2 DUP2 MSTORE PUSH1 0xC PUSH1 0x20 SWAP1 DUP2 MSTORE PUSH1 0x40 DUP1 DUP4 KECCAK256 DUP9 DUP5 MSTORE SWAP1 SWAP2 MSTORE DUP2 KECCAK256 DUP2 DUP2 SSTORE PUSH1 0x1 DUP2 ADD DUP3 SWAP1 SSTORE PUSH1 0x2 DUP2 ADD DUP3 SWAP1 SSTORE PUSH1 0x3 DUP2 ADD DUP3 SWAP1 SSTORE PUSH1 0x4 ADD SSTORE PUSH2 0x6A6 SWAP1 PUSH32 0x0 PUSH1 0x1 PUSH1 0x1 PUSH1 0xA0 SHL SUB AND SWAP1 DUP5 PUSH2 0x1405 JUMP JUMPDEST PUSH1 0x40 MLOAD DUP3 DUP2 MSTORE DUP5 SWAP1 CALLER SWAP1 PUSH32 0x7FC4727E062E336010F2C282598EF5F14FACB3DE68CF8195C2F23E1454B2B74E SWAP1 PUSH1 0x20 ADD PUSH1 0x40 MLOAD DUP1 SWAP2 SUB SWAP1 LOG3 POP POP POP PUSH2 0x6EA PUSH1 0x1 PUSH1 0x0 SSTORE JUMP JUMPDEST POP JUMP JUMPDEST PUSH2 0x6F5 PUSH2 0x12BA JUMP JUMPDEST PUSH2 0x6FE CALLER PUSH2 0x12E4 JUMP JUMPDEST PUSH1 0x0 JUMPDEST PUSH1 0xF SLOAD DUP2 LT ISZERO PUSH2 0x74E JUMPI PUSH2 0x73C CALLER PUSH1 0xF DUP4 DUP2 SLOAD DUP2 LT PUSH2 0x722 JUMPI PUSH2 0x722 PUSH2 0x1936 JUMP JUMPDEST PUSH1 0x0 SWAP2 DUP3 MSTORE PUSH1 0x20 SWAP1 SWAP2 KECCAK256 ADD SLOAD PUSH1 0x1 PUSH1 0x1 PUSH1 0xA0 SHL SUB AND PUSH2 0x1464 JUMP JUMPDEST DUP1 PUSH2 0x746 DUP2 PUSH2 0x194C JUMP JUMPDEST SWAP2 POP POP PUSH2 0x701 JUMP JUMPDEST POP PUSH2 0x759 PUSH1 0x1 PUSH1 0x0 SSTORE JUMP JUMPDEST JUMP JUMPDEST PUSH1 0x1 PUSH1 0x1 PUSH1 0xA0 SHL SUB DUP2 AND PUSH1 0x0 SWAP1 DUP2 MSTORE PUSH1 0xD PUSH1 0x20 MSTORE PUSH1 0x40 SWAP1 KECCAK256 SLOAD PUSH1 0x60 SWAP1 DUP1 PUSH8 0xFFFFFFFFFFFFFFFF DUP2 GT ISZERO PUSH2 0x790 JUMPI PUSH2 0x790 PUSH2 0x1965 JUMP JUMPDEST PUSH1 0x40 MLOAD SWAP1 DUP1 DUP3 MSTORE DUP1 PUSH1 0x20 MUL PUSH1 0x20 ADD DUP3 ADD PUSH1 0x40 MSTORE DUP1 ISZERO PUSH2 0x7F3 JUMPI DUP2 PUSH1 0x20 ADD JUMPDEST PUSH2 0x7E0 PUSH1 0x40 MLOAD DUP1 PUSH1 0xA0 ADD PUSH1 0x40 MSTORE DUP1 PUSH1 0x0 DUP2 MSTORE PUSH1 0x20 ADD PUSH1 0x0 DUP2 MSTORE PUSH1 0x20 ADD PUSH1 0x0 DUP2 MSTORE PUSH1 0x20 ADD PUSH1 0x0 DUP2 MSTORE PUSH1 0x20 ADD PUSH1 0x0 DUP2 MSTORE POP SWAP1 JUMP JUMPDEST DUP2 MSTORE PUSH1 0x20 ADD SWAP1 PUSH1 0x1 SWAP1 SUB SWAP1 DUP2 PUSH2 0x7AE JUMPI SWAP1 POP JUMPDEST POP SWAP2 POP PUSH1 0x0 JUMPDEST DUP2 DUP2 LT ISZERO PUSH2 0x890 JUMPI PUSH1 0x1 PUSH1 0x1 PUSH1 0xA0 SHL SUB DUP5 AND PUSH1 0x0 SWAP1 DUP2 MSTORE PUSH1 0xC PUSH1 0x20 SWAP1 DUP2 MSTORE PUSH1 0x40 DUP1 DUP4 KECCAK256 DUP5 DUP5 MSTORE DUP3 MSTORE SWAP2 DUP3 SWAP1 KECCAK256 DUP3 MLOAD PUSH1 0xA0 DUP2 ADD DUP5 MSTORE DUP2 SLOAD DUP2 MSTORE PUSH1 0x1 DUP3 ADD SLOAD SWAP3 DUP2 ADD SWAP3 SWAP1 SWAP3 MSTORE PUSH1 0x2 DUP2 ADD SLOAD SWAP3 DUP3 ADD SWAP3 SWAP1 SWAP3 MSTORE PUSH1 0x3 DUP3 ADD SLOAD PUSH1 0x60 DUP3 ADD MSTORE PUSH1 0x4 SWAP1 SWAP2 ADD SLOAD PUSH1 0x80 DUP3 ADD MSTORE DUP4 MLOAD DUP5 SWAP1 DUP4 SWAP1 DUP2 LT PUSH2 0x872 JUMPI PUSH2 0x872 PUSH2 0x1936 JUMP JUMPDEST PUSH1 0x20 MUL PUSH1 0x20 ADD ADD DUP2 SWAP1 MSTORE POP DUP1 DUP1 PUSH2 0x888 SWAP1 PUSH2 0x194C JUMP JUMPDEST SWAP2 POP POP PUSH2 0x7F9 JUMP JUMPDEST POP POP SWAP2 SWAP1 POP JUMP JUMPDEST PUSH2 0x89F PUSH2 0x1516 JUMP JUMPDEST PUSH2 0x759 PUSH2 0x1549 JUMP JUMPDEST PUSH2 0x8AF PUSH2 0x1516 JUMP JUMPDEST PUSH2 0x759 PUSH1 0x0 PUSH2 0x159B JUMP JUMPDEST PUSH1 0x2 SLOAD CALLER SWAP1 PUSH1 0x1 PUSH1 0x1 PUSH1 0xA0 SHL SUB AND DUP2 EQ PUSH2 0x8F1 JUMPI PUSH1 0x40 MLOAD PUSH4 0x118CDAA7 PUSH1 0xE0 SHL DUP2 MSTORE PUSH1 0x1 PUSH1 0x1 PUSH1 0xA0 SHL SUB DUP3 AND PUSH1 0x4 DUP3 ADD MSTORE PUSH1 0x24 ADD PUSH2 0x5A2 JUMP JUMPDEST PUSH2 0x6EA DUP2 PUSH2 0x159B JUMP JUMPDEST PUSH1 0x0 PUSH2 0x904 PUSH2 0x12BA JUMP JUMPDEST PUSH2 0x90C PUSH2 0x15B4 JUMP JUMPDEST PUSH1 0x0 DUP4 GT PUSH2 0x94D JUMPI PUSH1 0x40 MLOAD PUSH3 0x461BCD PUSH1 0xE5 SHL DUP2 MSTORE PUSH1 0x20 PUSH1 0x4 DUP3 ADD MSTORE PUSH1 0xE PUSH1 0x24 DUP3 ADD MSTORE PUSH14 0x43616E6E6F74207374616B65203 PUSH1 0x94 SHL PUSH1 0x44 DUP3 ADD MSTORE PUSH1 0x64 ADD PUSH2 0x5A2 JUMP JUMPDEST PUSH1 0x4 DUP3 LT PUSH2 0x98C JUMPI PUSH1 0x40 MLOAD PUSH3 0x461BCD PUSH1 0xE5 SHL DUP2 MSTORE PUSH1 0x20 PUSH1 0x4 DUP3 ADD MSTORE PUSH1 0xC PUSH1 0x24 DUP3 ADD MSTORE PUSH12 0x24B73B30B634B2103A34B2B9 PUSH1 0xA1 SHL PUSH1 0x44 DUP3 ADD MSTORE PUSH1 0x64 ADD PUSH2 0x5A2 JUMP JUMPDEST PUSH2 0x995 CALLER PUSH2 0x12E4 JUMP JUMPDEST PUSH1 0x0 PUSH1 0x3 DUP4 PUSH1 0x4 DUP2 LT PUSH2 0x9AA JUMPI PUSH2 0x9AA PUSH2 0x1936 JUMP JUMPDEST PUSH1 0x2 MUL ADD PUSH1 0x40 MLOAD DUP1 PUSH1 0x40 ADD PUSH1 0x40 MSTORE SWAP1 DUP2 PUSH1 0x0 DUP3 ADD SLOAD DUP2 MSTORE PUSH1 0x20 ADD PUSH1 0x1 DUP3 ADD SLOAD DUP2 MSTORE POP POP SWAP1 POP PUSH1 0x0 PUSH2 0x2710 DUP3 PUSH1 0x20 ADD MLOAD DUP7 PUSH2 0x9E4 SWAP2 SWAP1 PUSH2 0x197B JUMP JUMPDEST PUSH2 0x9EE SWAP2 SWAP1 PUSH2 0x1992 JUMP JUMPDEST CALLER PUSH1 0x0 SWAP1 DUP2 MSTORE PUSH1 0xD PUSH1 0x20 MSTORE PUSH1 0x40 DUP2 KECCAK256 DUP1 SLOAD SWAP6 POP SWAP2 SWAP3 POP DUP5 SWAP2 SWAP1 PUSH2 0xA10 DUP4 PUSH2 0x194C JUMP JUMPDEST SWAP2 SWAP1 POP SSTORE POP PUSH1 0x40 MLOAD DUP1 PUSH1 0xA0 ADD PUSH1 0x40 MSTORE DUP1 DUP7 DUP2 MSTORE PUSH1 0x20 ADD DUP3 DUP2 MSTORE PUSH1 0x20 ADD DUP6 DUP2 MSTORE PUSH1 0x20 ADD TIMESTAMP DUP2 MSTORE PUSH1 0x20 ADD DUP4 PUSH1 0x0 ADD MLOAD TIMESTAMP PUSH2 0xA48 SWAP2 SWAP1 PUSH2 0x19B4 JUMP JUMPDEST SWAP1 MSTORE CALLER PUSH1 0x0 DUP2 DUP2 MSTORE PUSH1 0xC PUSH1 0x20 SWAP1 DUP2 MSTORE PUSH1 0x40 DUP1 DUP4 KECCAK256 DUP9 DUP5 MSTORE DUP3 MSTORE DUP1 DUP4 KECCAK256 DUP6 MLOAD DUP2 SSTORE DUP6 DUP4 ADD MLOAD PUSH1 0x1 DUP3 ADD SSTORE DUP6 DUP3 ADD MLOAD PUSH1 0x2 DUP3 ADD SSTORE PUSH1 0x60 DUP7 ADD MLOAD PUSH1 0x3 DUP3 ADD SSTORE PUSH1 0x80 SWAP1 SWAP6 ADD MLOAD PUSH1 0x4 SWAP1 SWAP6 ADD SWAP5 SWAP1 SWAP5 SSTORE SWAP2 DUP2 MSTORE PUSH1 0xE SWAP1 SWAP2 MSTORE SWAP1 DUP2 KECCAK256 DUP1 SLOAD DUP4 SWAP3 SWAP1 PUSH2 0xAAE SWAP1 DUP5 SWAP1 PUSH2 0x19B4 JUMP JUMPDEST SWAP3 POP POP DUP2 SWAP1 SSTORE POP DUP1 PUSH1 0xB PUSH1 0x0 DUP3 DUP3 SLOAD PUSH2 0xAC7 SWAP2 SWAP1 PUSH2 0x19B4 JUMP JUMPDEST SWAP1 SWAP2 SSTORE POP PUSH2 0xB02 SWAP1 POP PUSH1 0x1 PUSH1 0x1 PUSH1 0xA0 SHL SUB PUSH32 0x0 AND CALLER ADDRESS DUP9 PUSH2 0x15D8 JUMP JUMPDEST DUP3 CALLER PUSH1 0x1 PUSH1 0x1 PUSH1 0xA0 SHL SUB AND PUSH32 0x9CFD25589D1EB8AD71E342A86A8524E83522E3936C0803048C08F6D9AD974F40 DUP8 DUP8 DUP7 PUSH1 0x0 ADD MLOAD TIMESTAMP PUSH2 0xB40 SWAP2 SWAP1 PUSH2 0x19B4 JUMP JUMPDEST PUSH1 0x40 DUP1 MLOAD SWAP4 DUP5 MSTORE PUSH1 0x20 DUP5 ADD SWAP3 SWAP1 SWAP3 MSTORE SWAP1 DUP3 ADD MSTORE PUSH1 0x60 ADD PUSH1 0x40 MLOAD DUP1 SWAP2 SUB SWAP1 LOG3 POP POP PUSH2 0xB6A PUSH1 0x1 PUSH1 0x0 SSTORE JUMP JUMPDEST SWAP3 SWAP2 POP POP JUMP JUMPDEST PUSH1 0xF DUP2 DUP2 SLOAD DUP2 LT PUSH2 0xB80 JUMPI PUSH1 0x0 DUP1 REVERT JUMPDEST PUSH1 0x0 SWAP2 DUP3 MSTORE PUSH1 0x20 SWAP1 SWAP2 KECCAK256 ADD SLOAD PUSH1 0x1 PUSH1 0x1 PUSH1 0xA0 SHL SUB AND SWAP1 POP DUP2 JUMP JUMPDEST PUSH1 0x1 PUSH1 0x1 PUSH1 0xA0 SHL SUB DUP3 AND PUSH1 0x0 SWAP1 DUP2 MSTORE PUSH1 0xE PUSH1 0x20 MSTORE PUSH1 0x40 DUP2 KECCAK256 SLOAD DUP1 DUP3 SUB PUSH2 0xBE7 JUMPI POP POP PUSH1 0x1 PUSH1 0x1 PUSH1 0xA0 SHL SUB DUP1 DUP4 AND PUSH1 0x0 SWAP1 DUP2 MSTORE PUSH1 0x13 PUSH1 0x20 SWAP1 DUP2 MSTORE PUSH1 0x40 DUP1 DUP4 KECCAK256 SWAP4 DUP6 AND DUP4 MSTORE SWAP3 SWAP1 MSTORE KECCAK256 SLOAD PUSH2 0xB6A JUMP JUMPDEST PUSH1 0x1 PUSH1 0x1 PUSH1 0xA0 SHL SUB DUP1 DUP5 AND PUSH1 0x0 DUP2 DUP2 MSTORE PUSH1 0x11 PUSH1 0x20 SWAP1 DUP2 MSTORE PUSH1 0x40 DUP1 DUP4 KECCAK256 SLOAD SWAP5 DUP10 AND DUP4 MSTORE PUSH1 0x12 DUP3 MSTORE DUP1 DUP4 KECCAK256 SWAP4 DUP4 MSTORE SWAP3 SWAP1 MSTORE KECCAK256 SLOAD PUSH8 0xDE0B6B3A7640000 PUSH2 0xC2B DUP3 DUP5 PUSH2 0x1923 JUMP JUMPDEST PUSH2 0xC35 SWAP1 DUP6 PUSH2 0x197B JUMP JUMPDEST PUSH2 0xC3F SWAP2 SWAP1 PUSH2 0x1992 JUMP JUMPDEST PUSH1 0x1 PUSH1 0x1 PUSH1 0xA0 SHL SUB DUP1 DUP9 AND PUSH1 0x0 SWAP1 DUP2 MSTORE PUSH1 0x13 PUSH1 0x20 SWAP1 DUP2 MSTORE PUSH1 0x40 DUP1 DUP4 KECCAK256 SWAP4 DUP11 AND DUP4 MSTORE SWAP3 SWAP1 MSTORE KECCAK256 SLOAD PUSH2 0xC6F SWAP2 SWAP1 PUSH2 0x19B4 JUMP JUMPDEST SWAP7 SWAP6 POP POP POP POP POP POP JUMP JUMPDEST PUSH2 0xC81 PUSH2 0x1516 JUMP JUMPDEST PUSH2 0x759 PUSH2 0x1617 JUMP JUMPDEST PUSH2 0xC91 PUSH2 0x12BA JUMP JUMPDEST PUSH1 0x0 DUP2 GT PUSH2 0xCD4 JUMPI PUSH1 0x40 MLOAD PUSH3 0x461BCD PUSH1 0xE5 SHL DUP2 MSTORE PUSH1 0x20 PUSH1 0x4 DUP3 ADD MSTORE PUSH1 0x10 PUSH1 0x24 DUP3 ADD MSTORE PUSH16 0x43616E6E6F74206465706F736974203 PUSH1 0x84 SHL PUSH1 0x44 DUP3 ADD MSTORE PUSH1 0x64 ADD PUSH2 0x5A2 JUMP JUMPDEST PUSH1 0x0 PUSH1 0xB SLOAD GT PUSH2 0xD13 JUMPI PUSH1 0x40 MLOAD PUSH3 0x461BCD PUSH1 0xE5 SHL DUP2 MSTORE PUSH1 0x20 PUSH1 0x4 DUP3 ADD MSTORE PUSH1 0xA PUSH1 0x24 DUP3 ADD MSTORE PUSH10 0x4E6F207374616B657273 PUSH1 0xB0 SHL PUSH1 0x44 DUP3 ADD MSTORE PUSH1 0x64 ADD PUSH2 0x5A2 JUMP JUMPDEST PUSH1 0x1 PUSH1 0x1 PUSH1 0xA0 SHL SUB DUP3 AND PUSH2 0xD59 JUMPI PUSH1 0x40 MLOAD PUSH3 0x461BCD PUSH1 0xE5 SHL DUP2 MSTORE PUSH1 0x20 PUSH1 0x4 DUP3 ADD MSTORE PUSH1 0xD PUSH1 0x24 DUP3 ADD MSTORE PUSH13 0x24B73B30B634B2103A37B5B2B7 PUSH1 0x99 SHL PUSH1 0x44 DUP3 ADD MSTORE PUSH1 0x64 ADD PUSH2 0x5A2 JUMP JUMPDEST PUSH1 0x1 PUSH1 0x1 PUSH1 0xA0 SHL SUB DUP3 AND PUSH1 0x0 SWAP1 DUP2 MSTORE PUSH1 0x10 PUSH1 0x20 MSTORE PUSH1 0x40 SWAP1 KECCAK256 SLOAD PUSH1 0xFF AND PUSH2 0xE31 JUMPI PUSH1 0xF SLOAD PUSH1 0xA GT PUSH2 0xDCB JUMPI PUSH1 0x40 MLOAD PUSH3 0x461BCD PUSH1 0xE5 SHL DUP2 MSTORE PUSH1 0x20 PUSH1 0x4 DUP3 ADD MSTORE PUSH1 0x19 PUSH1 0x24 DUP3 ADD MSTORE PUSH32 0x4D61782072657761726420746F6B656E73207265616368656400000000000000 PUSH1 0x44 DUP3 ADD MSTORE PUSH1 0x64 ADD PUSH2 0x5A2 JUMP JUMPDEST PUSH1 0x1 PUSH1 0x1 PUSH1 0xA0 SHL SUB DUP3 AND PUSH1 0x0 DUP2 DUP2 MSTORE PUSH1 0x10 PUSH1 0x20 MSTORE PUSH1 0x40 DUP2 KECCAK256 DUP1 SLOAD PUSH1 0xFF NOT AND PUSH1 0x1 SWAP1 DUP2 OR SWAP1 SWAP2 SSTORE PUSH1 0xF DUP1 SLOAD SWAP2 DUP3 ADD DUP2 SSTORE SWAP1 SWAP2 MSTORE PUSH32 0x8D1108E10BCB7C27DDDFC02ED9D693A074039D026CF4EA4240B40F7D581AC802 ADD DUP1 SLOAD PUSH1 0x1 PUSH1 0x1 PUSH1 0xA0 SHL SUB NOT AND SWAP1 SWAP2 OR SWAP1 SSTORE JUMPDEST PUSH1 0x40 MLOAD PUSH4 0x70A08231 PUSH1 0xE0 SHL DUP2 MSTORE ADDRESS PUSH1 0x4 DUP3 ADD MSTORE PUSH1 0x0 SWAP1 PUSH1 0x1 PUSH1 0x1 PUSH1 0xA0 SHL SUB DUP5 AND SWAP1 PUSH4 0x70A08231 SWAP1 PUSH1 0x24 ADD PUSH1 0x20 PUSH1 0x40 MLOAD DUP1 DUP4 SUB DUP2 DUP7 GAS STATICCALL ISZERO DUP1 ISZERO PUSH2 0xE78 JUMPI RETURNDATASIZE PUSH1 0x0 DUP1 RETURNDATACOPY RETURNDATASIZE PUSH1 0x0 REVERT JUMPDEST POP POP POP POP PUSH1 0x40 MLOAD RETURNDATASIZE PUSH1 0x1F NOT PUSH1 0x1F DUP3 ADD AND DUP3 ADD DUP1 PUSH1 0x40 MSTORE POP DUP2 ADD SWAP1 PUSH2 0xE9C SWAP2 SWAP1 PUSH2 0x19C7 JUMP JUMPDEST SWAP1 POP PUSH2 0xEB3 PUSH1 0x1 PUSH1 0x1 PUSH1 0xA0 SHL SUB DUP5 AND CALLER ADDRESS DUP6 PUSH2 0x15D8 JUMP JUMPDEST PUSH1 0x40 MLOAD PUSH4 0x70A08231 PUSH1 0xE0 SHL DUP2 MSTORE ADDRESS PUSH1 0x4 DUP3 ADD MSTORE PUSH1 0x0 SWAP1 DUP3 SWAP1 PUSH1 0x1 PUSH1 0x1 PUSH1 0xA0 SHL SUB DUP7 AND SWAP1 PUSH4 0x70A08231 SWAP1 PUSH1 0x24 ADD PUSH1 0x20 PUSH1 0x40 MLOAD DUP1 DUP4 SUB DUP2 DUP7 GAS STATICCALL ISZERO DUP1 ISZERO PUSH2 0xEFC JUMPI RETURNDATASIZE PUSH1 0x0 DUP1 RETURNDATACOPY RETURNDATASIZE PUSH1 0x0 REVERT JUMPDEST POP POP POP POP PUSH1 0x40 MLOAD RETURNDATASIZE PUSH1 0x1F NOT PUSH1 0x1F DUP3 ADD AND DUP3 ADD DUP1 PUSH1 0x40 MSTORE POP DUP2 ADD SWAP1 PUSH2 0xF20 SWAP2 SWAP1 PUSH2 0x19C7 JUMP JUMPDEST PUSH2 0xF2A SWAP2 SWAP1 PUSH2 0x1923 JUMP JUMPDEST SWAP1 POP PUSH1 0x0 DUP2 GT PUSH2 0xF71 JUMPI PUSH1 0x40 MLOAD PUSH3 0x461BCD PUSH1 0xE5 SHL DUP2 MSTORE PUSH1 0x20 PUSH1 0x4 DUP3 ADD MSTORE PUSH1 0x12 PUSH1 0x24 DUP3 ADD MSTORE PUSH18 0x139BC81D1BDAD95B9CC81C9958D95A5D9959 PUSH1 0x72 SHL PUSH1 0x44 DUP3 ADD MSTORE PUSH1 0x64 ADD PUSH2 0x5A2 JUMP JUMPDEST PUSH1 0xB SLOAD PUSH2 0xF86 DUP3 PUSH8 0xDE0B6B3A7640000 PUSH2 0x197B JUMP JUMPDEST PUSH2 0xF90 SWAP2 SWAP1 PUSH2 0x1992 JUMP JUMPDEST PUSH1 0x1 PUSH1 0x1 PUSH1 0xA0 SHL SUB DUP6 AND PUSH1 0x0 SWAP1 DUP2 MSTORE PUSH1 0x11 PUSH1 0x20 MSTORE PUSH1 0x40 DUP2 KECCAK256 DUP1 SLOAD SWAP1 SWAP2 SWAP1 PUSH2 0xFB8 SWAP1 DUP5 SWAP1 PUSH2 0x19B4 JUMP JUMPDEST SWAP1 SWAP2 SSTORE POP POP PUSH1 0x40 MLOAD DUP2 DUP2 MSTORE PUSH1 0x1 PUSH1 0x1 PUSH1 0xA0 SHL SUB DUP6 AND SWAP1 PUSH32 0xB8B27D0DB504FA5D914F1FD330347096E88D5FF94B6C612D32797E7C12A8F66F SWAP1 PUSH1 0x20 ADD PUSH1 0x40 MLOAD DUP1 SWAP2 SUB SWAP1 LOG2 POP POP PUSH2 0x1007 PUSH1 0x1 PUSH1 0x0 SSTORE JUMP JUMPDEST POP POP JUMP JUMPDEST PUSH1 0x40 DUP1 MLOAD DUP1 DUP3 ADD SWAP1 SWAP2 MSTORE PUSH1 0x0 DUP1 DUP3 MSTORE PUSH1 0x20 DUP3 ADD MSTORE PUSH1 0x4 DUP3 LT PUSH2 0x105E JUMPI PUSH1 0x40 MLOAD PUSH3 0x461BCD PUSH1 0xE5 SHL DUP2 MSTORE PUSH1 0x20 PUSH1 0x4 DUP3 ADD MSTORE PUSH1 0xC PUSH1 0x24 DUP3 ADD MSTORE PUSH12 0x24B73B30B634B2103A34B2B9 PUSH1 0xA1 SHL PUSH1 0x44 DUP3 ADD MSTORE PUSH1 0x64 ADD PUSH2 0x5A2 JUMP JUMPDEST PUSH1 0x3 DUP3 PUSH1 0x4 DUP2 LT PUSH2 0x1071 JUMPI PUSH2 0x1071 PUSH2 0x1936 JUMP JUMPDEST PUSH1 0x2 MUL ADD PUSH1 0x40 MLOAD DUP1 PUSH1 0x40 ADD PUSH1 0x40 MSTORE SWAP1 DUP2 PUSH1 0x0 DUP3 ADD SLOAD DUP2 MSTORE PUSH1 0x20 ADD PUSH1 0x1 DUP3 ADD SLOAD DUP2 MSTORE POP POP SWAP1 POP SWAP2 SWAP1 POP JUMP JUMPDEST PUSH1 0x3 DUP2 PUSH1 0x4 DUP2 LT PUSH2 0x10AB JUMPI PUSH1 0x0 DUP1 REVERT JUMPDEST PUSH1 0x2 MUL ADD DUP1 SLOAD PUSH1 0x1 SWAP1 SWAP2 ADD SLOAD SWAP1 SWAP2 POP DUP3 JUMP JUMPDEST PUSH1 0x60 PUSH1 0xF DUP1 SLOAD DUP1 PUSH1 0x20 MUL PUSH1 0x20 ADD PUSH1 0x40 MLOAD SWAP1 DUP2 ADD PUSH1 0x40 MSTORE DUP1 SWAP3 SWAP2 SWAP1 DUP2 DUP2 MSTORE PUSH1 0x20 ADD DUP3 DUP1 SLOAD DUP1 ISZERO PUSH2 0x1115 JUMPI PUSH1 0x20 MUL DUP3 ADD SWAP2 SWAP1 PUSH1 0x0 MSTORE PUSH1 0x20 PUSH1 0x0 KECCAK256 SWAP1 JUMPDEST DUP2 SLOAD PUSH1 0x1 PUSH1 0x1 PUSH1 0xA0 SHL SUB AND DUP2 MSTORE PUSH1 0x1 SWAP1 SWAP2 ADD SWAP1 PUSH1 0x20 ADD DUP1 DUP4 GT PUSH2 0x10F7 JUMPI JUMPDEST POP POP POP POP POP SWAP1 POP SWAP1 JUMP JUMPDEST PUSH2 0x1127 PUSH2 0x12BA JUMP JUMPDEST PUSH1 0x1 PUSH1 0x1 PUSH1 0xA0 SHL SUB DUP2 AND PUSH1 0x0 SWAP1 DUP2 MSTORE PUSH1 0x10 PUSH1 0x20 MSTORE PUSH1 0x40 SWAP1 KECCAK256 SLOAD PUSH1 0xFF AND PUSH2 0x1184 JUMPI PUSH1 0x40 MLOAD PUSH3 0x461BCD PUSH1 0xE5 SHL DUP2 MSTORE PUSH1 0x20 PUSH1 0x4 DUP3 ADD MSTORE PUSH1 0x12 PUSH1 0x24 DUP3 ADD MSTORE PUSH18 0x2737BA1030903932BBB0B932103A37B5B2B7 PUSH1 0x71 SHL PUSH1 0x44 DUP3 ADD MSTORE PUSH1 0x64 ADD PUSH2 0x5A2 JUMP JUMPDEST PUSH2 0x118D CALLER PUSH2 0x12E4 JUMP JUMPDEST PUSH2 0x1197 CALLER DUP3 PUSH2 0x1464 JUMP JUMPDEST PUSH2 0x6EA PUSH1 0x1 PUSH1 0x0 SSTORE JUMP JUMPDEST PUSH2 0x11A9 PUSH2 0x1516 JUMP JUMPDEST PUSH32 0x0 PUSH1 0x1 PUSH1 0x1 PUSH1 0xA0 SHL SUB AND DUP4 PUSH1 0x1 PUSH1 0x1 PUSH1 0xA0 SHL SUB AND SUB PUSH2 0x122A JUMPI PUSH1 0x40 MLOAD PUSH3 0x461BCD PUSH1 0xE5 SHL DUP2 MSTORE PUSH1 0x20 PUSH1 0x4 DUP3 ADD MSTORE PUSH1 0x1C PUSH1 0x24 DUP3 ADD MSTORE PUSH32 0x43616E6E6F74207769746864726177207374616B656420746F6B656E00000000 PUSH1 0x44 DUP3 ADD MSTORE PUSH1 0x64 ADD PUSH2 0x5A2 JUMP JUMPDEST PUSH2 0x123E PUSH1 0x1 PUSH1 0x1 PUSH1 0xA0 SHL SUB DUP5 AND DUP4 DUP4 PUSH2 0x1405 JUMP JUMPDEST POP POP POP JUMP JUMPDEST PUSH2 0x124B PUSH2 0x1516 JUMP JUMPDEST PUSH1 0x2 DUP1 SLOAD PUSH1 0x1 PUSH1 0x1 PUSH1 0xA0 SHL SUB DUP4 AND PUSH1 0x1 PUSH1 0x1 PUSH1 0xA0 SHL SUB NOT SWAP1 SWAP2 AND DUP2 OR SWAP1 SWAP2 SSTORE PUSH2 0x1282 PUSH1 0x1 SLOAD PUSH1 0x1 PUSH1 0x1 PUSH1 0xA0 SHL SUB PUSH2 0x100 SWAP1 SWAP2 DIV AND SWAP1 JUMP JUMPDEST PUSH1 0x1 PUSH1 0x1 PUSH1 0xA0 SHL SUB AND PUSH32 0x38D16B8CAC22D99FC7C124B9CD0DE2D3FA1FAEF420BFE791D8C362D765E22700 PUSH1 0x40 MLOAD PUSH1 0x40 MLOAD DUP1 SWAP2 SUB SWAP1 LOG3 POP JUMP JUMPDEST PUSH1 0x2 PUSH1 0x0 SLOAD SUB PUSH2 0x12DD JUMPI PUSH1 0x40 MLOAD PUSH4 0x3EE5AEB5 PUSH1 0xE0 SHL DUP2 MSTORE PUSH1 0x4 ADD PUSH1 0x40 MLOAD DUP1 SWAP2 SUB SWAP1 REVERT JUMPDEST PUSH1 0x2 PUSH1 0x0 SSTORE JUMP JUMPDEST PUSH1 0x1 PUSH1 0x1 PUSH1 0xA0 SHL SUB DUP2 AND PUSH1 0x0 SWAP1 DUP2 MSTORE PUSH1 0xE PUSH1 0x20 MSTORE PUSH1 0x40 DUP2 KECCAK256 SLOAD SWAP1 JUMPDEST PUSH1 0xF SLOAD DUP2 LT ISZERO PUSH2 0x123E JUMPI PUSH1 0x0 PUSH1 0xF DUP3 DUP2 SLOAD DUP2 LT PUSH2 0x131E JUMPI PUSH2 0x131E PUSH2 0x1936 JUMP JUMPDEST PUSH1 0x0 SWAP2 DUP3 MSTORE PUSH1 0x20 DUP1 DUP4 KECCAK256 SWAP1 SWAP2 ADD SLOAD PUSH1 0x1 PUSH1 0x1 PUSH1 0xA0 SHL SUB SWAP1 DUP2 AND DUP1 DUP5 MSTORE PUSH1 0x11 DUP4 MSTORE PUSH1 0x40 DUP1 DUP6 KECCAK256 SLOAD SWAP3 DUP10 AND DUP6 MSTORE PUSH1 0x12 DUP5 MSTORE DUP1 DUP6 KECCAK256 DUP3 DUP7 MSTORE SWAP1 SWAP4 MSTORE SWAP2 SWAP1 SWAP3 KECCAK256 SLOAD SWAP1 SWAP3 POP DUP5 ISZERO PUSH2 0x13C8 JUMPI PUSH8 0xDE0B6B3A7640000 PUSH2 0x1377 DUP3 DUP5 PUSH2 0x1923 JUMP JUMPDEST PUSH2 0x1381 SWAP1 DUP8 PUSH2 0x197B JUMP JUMPDEST PUSH2 0x138B SWAP2 SWAP1 PUSH2 0x1992 JUMP JUMPDEST PUSH1 0x1 PUSH1 0x1 PUSH1 0xA0 SHL SUB DUP1 DUP9 AND PUSH1 0x0 SWAP1 DUP2 MSTORE PUSH1 0x13 PUSH1 0x20 SWAP1 DUP2 MSTORE PUSH1 0x40 DUP1 DUP4 KECCAK256 SWAP4 DUP9 AND DUP4 MSTORE SWAP3 SWAP1 MSTORE SWAP1 DUP2 KECCAK256 DUP1 SLOAD SWAP1 SWAP2 SWAP1 PUSH2 0x13C2 SWAP1 DUP5 SWAP1 PUSH2 0x19B4 JUMP JUMPDEST SWAP1 SWAP2 SSTORE POP POP JUMPDEST POP PUSH1 0x1 PUSH1 0x1 PUSH1 0xA0 SHL SUB DUP1 DUP7 AND PUSH1 0x0 SWAP1 DUP2 MSTORE PUSH1 0x12 PUSH1 0x20 SWAP1 DUP2 MSTORE PUSH1 0x40 DUP1 DUP4 KECCAK256 SWAP6 SWAP1 SWAP4 AND DUP3 MSTORE SWAP4 SWAP1 SWAP4 MSTORE SWAP1 SWAP2 KECCAK256 SSTORE DUP1 PUSH2 0x13FD DUP2 PUSH2 0x194C JUMP JUMPDEST SWAP2 POP POP PUSH2 0x12FF JUMP JUMPDEST PUSH1 0x40 MLOAD PUSH1 0x1 PUSH1 0x1 PUSH1 0xA0 SHL SUB DUP4 DUP2 AND PUSH1 0x24 DUP4 ADD MSTORE PUSH1 0x44 DUP3 ADD DUP4 SWAP1 MSTORE PUSH2 0x123E SWAP2 DUP6 SWAP2 DUP3 AND SWAP1 PUSH4 0xA9059CBB SWAP1 PUSH1 0x64 ADD JUMPDEST PUSH1 0x40 MLOAD PUSH1 0x20 DUP2 DUP4 SUB SUB DUP2 MSTORE SWAP1 PUSH1 0x40 MSTORE SWAP2 POP PUSH1 0xE0 SHL PUSH1 0x20 DUP3 ADD DUP1 MLOAD PUSH1 0x1 PUSH1 0x1 PUSH1 0xE0 SHL SUB DUP4 DUP2 DUP4 AND OR DUP4 MSTORE POP POP POP POP PUSH2 0x1652 JUMP JUMPDEST PUSH1 0x1 PUSH1 0x1 PUSH1 0xA0 SHL SUB DUP1 DUP4 AND PUSH1 0x0 SWAP1 DUP2 MSTORE PUSH1 0x13 PUSH1 0x20 SWAP1 DUP2 MSTORE PUSH1 0x40 DUP1 DUP4 KECCAK256 SWAP4 DUP6 AND DUP4 MSTORE SWAP3 SWAP1 MSTORE KECCAK256 SLOAD DUP1 ISZERO PUSH2 0x123E JUMPI PUSH1 0x1 PUSH1 0x1 PUSH1 0xA0 SHL SUB DUP1 DUP5 AND PUSH1 0x0 SWAP1 DUP2 MSTORE PUSH1 0x13 PUSH1 0x20 SWAP1 DUP2 MSTORE PUSH1 0x40 DUP1 DUP4 KECCAK256 SWAP4 DUP7 AND DUP1 DUP5 MSTORE SWAP4 SWAP1 SWAP2 MSTORE DUP2 KECCAK256 SSTORE PUSH2 0x14C4 SWAP1 DUP5 DUP4 PUSH2 0x1405 JUMP JUMPDEST DUP2 PUSH1 0x1 PUSH1 0x1 PUSH1 0xA0 SHL SUB AND DUP4 PUSH1 0x1 PUSH1 0x1 PUSH1 0xA0 SHL SUB AND PUSH32 0x9310CCFCB8DE723F578A9E4282EA9F521F05AE40DC08F3068DFAD528A65EE3C7 DUP4 PUSH1 0x40 MLOAD PUSH2 0x1509 SWAP2 DUP2 MSTORE PUSH1 0x20 ADD SWAP1 JUMP JUMPDEST PUSH1 0x40 MLOAD DUP1 SWAP2 SUB SWAP1 LOG3 POP POP POP JUMP JUMPDEST PUSH1 0x1 SLOAD PUSH1 0x1 PUSH1 0x1 PUSH1 0xA0 SHL SUB PUSH2 0x100 SWAP1 SWAP2 DIV AND CALLER EQ PUSH2 0x759 JUMPI PUSH1 0x40 MLOAD PUSH4 0x118CDAA7 PUSH1 0xE0 SHL DUP2 MSTORE CALLER PUSH1 0x4 DUP3 ADD MSTORE PUSH1 0x24 ADD PUSH2 0x5A2 JUMP JUMPDEST PUSH2 0x1551 PUSH2 0x16C3 JUMP JUMPDEST PUSH1 0x1 DUP1 SLOAD PUSH1 0xFF NOT AND SWAP1 SSTORE PUSH32 0x5DB9EE0A495BF2E6FF9C91A7834C1BA4FDD244A5E8AA4E537BD38AEAE4B073AA CALLER JUMPDEST PUSH1 0x40 MLOAD PUSH1 0x1 PUSH1 0x1 PUSH1 0xA0 SHL SUB SWAP1 SWAP2 AND DUP2 MSTORE PUSH1 0x20 ADD PUSH1 0x40 MLOAD DUP1 SWAP2 SUB SWAP1 LOG1 JUMP JUMPDEST PUSH1 0x2 DUP1 SLOAD PUSH1 0x1 PUSH1 0x1 PUSH1 0xA0 SHL SUB NOT AND SWAP1 SSTORE PUSH2 0x6EA DUP2 PUSH2 0x16E6 JUMP JUMPDEST PUSH1 0x1 SLOAD PUSH1 0xFF AND ISZERO PUSH2 0x759 JUMPI PUSH1 0x40 MLOAD PUSH4 0xD93C0665 PUSH1 0xE0 SHL DUP2 MSTORE PUSH1 0x4 ADD PUSH1 0x40 MLOAD DUP1 SWAP2 SUB SWAP1 REVERT JUMPDEST PUSH1 0x40 MLOAD PUSH1 0x1 PUSH1 0x1 PUSH1 0xA0 SHL SUB DUP5 DUP2 AND PUSH1 0x24 DUP4 ADD MSTORE DUP4 DUP2 AND PUSH1 0x44 DUP4 ADD MSTORE PUSH1 0x64 DUP3 ADD DUP4 SWAP1 MSTORE PUSH2 0x1611 SWAP2 DUP7 SWAP2 DUP3 AND SWAP1 PUSH4 0x23B872DD SWAP1 PUSH1 0x84 ADD PUSH2 0x1432 JUMP JUMPDEST POP POP POP POP JUMP JUMPDEST PUSH2 0x161F PUSH2 0x15B4 JUMP JUMPDEST PUSH1 0x1 DUP1 SLOAD PUSH1 0xFF NOT AND DUP2 OR SWAP1 SSTORE PUSH32 0x62E78CEA01BEE320CD4E420270B5EA74000D11B0C9F74754EBDBFC544B05A258 CALLER PUSH2 0x157E JUMP JUMPDEST PUSH1 0x0 DUP1 PUSH1 0x20 PUSH1 0x0 DUP5 MLOAD PUSH1 0x20 DUP7 ADD PUSH1 0x0 DUP9 GAS CALL DUP1 PUSH2 0x1675 JUMPI PUSH1 0x40 MLOAD RETURNDATASIZE PUSH1 0x0 DUP3 RETURNDATACOPY RETURNDATASIZE DUP2 REVERT JUMPDEST POP POP PUSH1 0x0 MLOAD RETURNDATASIZE SWAP2 POP DUP2 ISZERO PUSH2 0x168D JUMPI DUP1 PUSH1 0x1 EQ ISZERO PUSH2 0x169A JUMP JUMPDEST PUSH1 0x1 PUSH1 0x1 PUSH1 0xA0 SHL SUB DUP5 AND EXTCODESIZE ISZERO JUMPDEST ISZERO PUSH2 0x1611 JUMPI PUSH1 0x40 MLOAD PUSH4 0x5274AFE7 PUSH1 0xE0 SHL DUP2 MSTORE PUSH1 0x1 PUSH1 0x1 PUSH1 0xA0 SHL SUB DUP6 AND PUSH1 0x4 DUP3 ADD MSTORE PUSH1 0x24 ADD PUSH2 0x5A2 JUMP JUMPDEST PUSH1 0x1 SLOAD PUSH1 0xFF AND PUSH2 0x759 JUMPI PUSH1 0x40 MLOAD PUSH4 0x8DFC202B PUSH1 0xE0 SHL DUP2 MSTORE PUSH1 0x4 ADD PUSH1 0x40 MLOAD DUP1 SWAP2 SUB SWAP1 REVERT JUMPDEST PUSH1 0x1 DUP1 SLOAD PUSH1 0x1 PUSH1 0x1 PUSH1 0xA0 SHL SUB DUP4 DUP2 AND PUSH2 0x100 DUP2 DUP2 MUL PUSH2 0x100 PUSH1 0x1 PUSH1 0xA8 SHL SUB NOT DUP6 AND OR SWAP1 SWAP5 SSTORE PUSH1 0x40 MLOAD SWAP4 SWAP1 SWAP3 DIV AND SWAP2 DUP3 SWAP1 PUSH32 0x8BE0079C531659141344CD1FD0A4F28419497F9722A3DAAFE3B4186F6B6457E0 SWAP1 PUSH1 0x0 SWAP1 LOG3 POP POP JUMP JUMPDEST PUSH1 0x0 PUSH1 0x20 DUP3 DUP5 SUB SLT ISZERO PUSH2 0x1752 JUMPI PUSH1 0x0 DUP1 REVERT JUMPDEST POP CALLDATALOAD SWAP2 SWAP1 POP JUMP JUMPDEST DUP1 CALLDATALOAD PUSH1 0x1 PUSH1 0x1 PUSH1 0xA0 SHL SUB DUP2 AND DUP2 EQ PUSH2 0x1770 JUMPI PUSH1 0x0 DUP1 REVERT JUMPDEST SWAP2 SWAP1 POP JUMP JUMPDEST PUSH1 0x0 PUSH1 0x20 DUP3 DUP5 SUB SLT ISZERO PUSH2 0x1787 JUMPI PUSH1 0x0 DUP1 REVERT JUMPDEST PUSH2 0x1790 DUP3 PUSH2 0x1759 JUMP JUMPDEST SWAP4 SWAP3 POP POP POP JUMP JUMPDEST PUSH1 0x20 DUP1 DUP3 MSTORE DUP3 MLOAD DUP3 DUP3 ADD DUP2 SWAP1 MSTORE PUSH1 0x0 SWAP2 SWAP1 PUSH1 0x40 SWAP1 DUP2 DUP6 ADD SWAP1 DUP7 DUP5 ADD DUP6 JUMPDEST DUP3 DUP2 LT ISZERO PUSH2 0x17F8 JUMPI DUP2 MLOAD DUP1 MLOAD DUP6 MSTORE DUP7 DUP2 ADD MLOAD DUP8 DUP7 ADD MSTORE DUP6 DUP2 ADD MLOAD DUP7 DUP7 ADD MSTORE PUSH1 0x60 DUP1 DUP3 ADD MLOAD SWAP1 DUP7 ADD MSTORE PUSH1 0x80 SWAP1 DUP2 ADD MLOAD SWAP1 DUP6 ADD MSTORE PUSH1 0xA0 SWAP1 SWAP4 ADD SWAP3 SWAP1 DUP6 ADD SWAP1 PUSH1 0x1 ADD PUSH2 0x17B4 JUMP JUMPDEST POP SWAP2 SWAP8 SWAP7 POP POP POP POP POP POP POP JUMP JUMPDEST PUSH1 0x0 DUP1 PUSH1 0x40 DUP4 DUP6 SUB SLT ISZERO PUSH2 0x1818 JUMPI PUSH1 0x0 DUP1 REVERT JUMPDEST PUSH2 0x1821 DUP4 PUSH2 0x1759 JUMP JUMPDEST SWAP2 POP PUSH2 0x182F PUSH1 0x20 DUP5 ADD PUSH2 0x1759 JUMP JUMPDEST SWAP1 POP SWAP3 POP SWAP3 SWAP1 POP JUMP JUMPDEST PUSH1 0x0 DUP1 PUSH1 0x40 DUP4 DUP6 SUB SLT ISZERO PUSH2 0x184B JUMPI PUSH1 0x0 DUP1 REVERT JUMPDEST POP POP DUP1 CALLDATALOAD SWAP3 PUSH1 0x20 SWAP1 SWAP2 ADD CALLDATALOAD SWAP2 POP JUMP JUMPDEST PUSH1 0x0 DUP1 PUSH1 0x40 DUP4 DUP6 SUB SLT ISZERO PUSH2 0x186D JUMPI PUSH1 0x0 DUP1 REVERT JUMPDEST PUSH2 0x1876 DUP4 PUSH2 0x1759 JUMP JUMPDEST SWAP5 PUSH1 0x20 SWAP4 SWAP1 SWAP4 ADD CALLDATALOAD SWAP4 POP POP POP JUMP JUMPDEST PUSH1 0x20 DUP1 DUP3 MSTORE DUP3 MLOAD DUP3 DUP3 ADD DUP2 SWAP1 MSTORE PUSH1 0x0 SWAP2 SWAP1 DUP5 DUP3 ADD SWAP1 PUSH1 0x40 DUP6 ADD SWAP1 DUP5 JUMPDEST DUP2 DUP2 LT ISZERO PUSH2 0x18C5 JUMPI DUP4 MLOAD PUSH1 0x1 PUSH1 0x1 PUSH1 0xA0 SHL SUB AND DUP4 MSTORE SWAP3 DUP5 ADD SWAP3 SWAP2 DUP5 ADD SWAP2 PUSH1 0x1 ADD PUSH2 0x18A0 JUMP JUMPDEST POP SWAP1 SWAP7 SWAP6 POP POP POP POP POP POP JUMP JUMPDEST PUSH1 0x0 DUP1 PUSH1 0x0 PUSH1 0x60 DUP5 DUP7 SUB SLT ISZERO PUSH2 0x18E6 JUMPI PUSH1 0x0 DUP1 REVERT JUMPDEST PUSH2 0x18EF DUP5 PUSH2 0x1759 JUMP JUMPDEST SWAP3 POP PUSH2 0x18FD PUSH1 0x20 DUP6 ADD PUSH2 0x1759 JUMP JUMPDEST SWAP2 POP PUSH1 0x40 DUP5 ADD CALLDATALOAD SWAP1 POP SWAP3 POP SWAP3 POP SWAP3 JUMP JUMPDEST PUSH4 0x4E487B71 PUSH1 0xE0 SHL PUSH1 0x0 MSTORE PUSH1 0x11 PUSH1 0x4 MSTORE PUSH1 0x24 PUSH1 0x0 REVERT JUMPDEST DUP2 DUP2 SUB DUP2 DUP2 GT ISZERO PUSH2 0xB6A JUMPI PUSH2 0xB6A PUSH2 0x190D JUMP JUMPDEST PUSH4 0x4E487B71 PUSH1 0xE0 SHL PUSH1 0x0 MSTORE PUSH1 0x32 PUSH1 0x4 MSTORE PUSH1 0x24 PUSH1 0x0 REVERT JUMPDEST PUSH1 0x0 PUSH1 0x1 DUP3 ADD PUSH2 0x195E JUMPI PUSH2 0x195E PUSH2 0x190D JUMP JUMPDEST POP PUSH1 0x1 ADD SWAP1 JUMP JUMPDEST PUSH4 0x4E487B71 PUSH1 0xE0 SHL PUSH1 0x0 MSTORE PUSH1 0x41 PUSH1 0x4 MSTORE PUSH1 0x24 PUSH1 0x0 REVERT JUMPDEST DUP1 DUP3 MUL DUP2 ISZERO DUP3 DUP3 DIV DUP5 EQ OR PUSH2 0xB6A JUMPI PUSH2 0xB6A PUSH2 0x190D JUMP JUMPDEST PUSH1 0x0 DUP3 PUSH2 0x19AF JUMPI PUSH4 0x4E487B71 PUSH1 0xE0 SHL PUSH1 0x0 MSTORE PUSH1 0x12 PUSH1 0x4 MSTORE PUSH1 0x24 PUSH1 0x0 REVERT JUMPDEST POP DIV SWAP1 JUMP JUMPDEST DUP1 DUP3 ADD DUP1 DUP3 GT ISZERO PUSH2 0xB6A JUMPI PUSH2 0xB6A PUSH2 0x190D JUMP JUMPDEST PUSH1 0x0 PUSH1 0x20 DUP3 DUP5 SUB SLT ISZERO PUSH2 0x19D9 JUMPI PUSH1 0x0 DUP1 REVERT JUMPDEST POP MLOAD SWAP2 SWAP1 POP JUMP INVALID LOG2 PUSH5 0x6970667358 0x22 SLT KECCAK256 0xBC 0xCE 0x2F STOP JUMPDEST 0xC3 BASEFEE 0x28 0xBD 0xBC DUP12 PUSH24 0xDF022F4D7349A4DC800BB2CDCF81982A2EE33DEF64736F6C PUSH4 0x43000814 STOP CALLER "},"methodIdentifiers":{"MAX_REWARD_TOKENS()":"5d0cde97","MULTIPLIER_BASE()":"f97136af","NUM_TIERS()":"648c9f40","acceptOwnership()":"79ba5097","claimRewardToken(address)":"ca37271b","claimRewards()":"372500ab","depositRewards(address,uint256)":"97ad1cce","emergencyWithdraw(address,address,uint256)":"e63ea408","fixrToken()":"7f1f9bca","getLockTier(uint256)":"aff9f95f","getPositions(address)":"3eeb530e","getRewardTokens()":"c4f59f9b","isRewardToken(address)":"b5fd73f8","lockTiers(uint256)":"b915a4fd","owner()":"8da5cb5b","pause()":"8456cb59","paused()":"5c975abb","pendingOwner()":"e30c3978","pendingRewards(address,address)":"80ac8228","positionCount(address)":"42fd3880","positions(address,uint256)":"c1be6677","renounceOwnership()":"715018a6","rewardPerTokenStored(address)":"9ce43f90","rewardTokens(uint256)":"7bb7bed1","rewards(address,address)":"e70b9e27","stake(uint256,uint256)":"7b0472f0","totalWeightedStake()":"eed9da1f","transferOwnership(address)":"f2fde38b","unpause()":"3f4ba83a","unstake(uint256)":"2e17de78","userRewardPerTokenPaid(address,address)":"7035ab98","userWeightedStake(address)":"7043c712"}}}}}