{"contracts/OracleFactory.sol":{"OracleFactory":{"abi":[{"inputs":[{"internalType":"address","name":"_registry","type":"address"}],"stateMutability":"nonpayable","type":"constructor"},{"anonymous":false,"inputs":[{"indexed":true,"internalType":"address","name":"oracleAddress","type":"address"},{"indexed":true,"internalType":"address","name":"creator","type":"address"},{"indexed":false,"internalType":"string","name":"name","type":"string"},{"indexed":false,"internalType":"string","name":"symbol","type":"string"}],"name":"OracleDeployed","type":"event"},{"inputs":[{"internalType":"string","name":"_name","type":"string"},{"internalType":"string","name":"_symbol","type":"string"},{"internalType":"string","name":"_targetToken","type":"string"},{"internalType":"uint8","name":"_consensusThreshold","type":"uint8"},{"internalType":"uint256","name":"_updateFrequency","type":"uint256"}],"name":"deployFarcasterOracle","outputs":[{"internalType":"address","name":"","type":"address"}],"stateMutability":"nonpayable","type":"function"},{"inputs":[{"internalType":"string","name":"_name","type":"string"},{"internalType":"string","name":"_symbol","type":"string"},{"internalType":"uint8","name":"_consensusThreshold","type":"uint8"},{"internalType":"uint256","name":"_updateFrequency","type":"uint256"}],"name":"deployPriceOracle","outputs":[{"internalType":"address","name":"","type":"address"}],"stateMutability":"nonpayable","type":"function"},{"inputs":[],"name":"getValidators","outputs":[{"internalType":"address[]","name":"","type":"address[]"}],"stateMutability":"view","type":"function"},{"inputs":[],"name":"registry","outputs":[{"internalType":"address","name":"","type":"address"}],"stateMutability":"view","type":"function"},{"inputs":[{"internalType":"address[]","name":"_validators","type":"address[]"}],"name":"setValidators","outputs":[],"stateMutability":"nonpayable","type":"function"},{"inputs":[{"internalType":"uint256","name":"","type":"uint256"}],"name":"validators","outputs":[{"internalType":"address","name":"","type":"address"}],"stateMutability":"view","type":"function"}],"evm":{"bytecode":{"linkReferences":{},"object":"608060405234801561001057600080fd5b5060405161440738038061440783398101604081905261002f91610054565b600080546001600160a01b0319166001600160a01b0392909216919091179055610084565b60006020828403121561006657600080fd5b81516001600160a01b038116811461007d57600080fd5b9392505050565b614374806100936000396000f3fe60806040523480156200001157600080fd5b50600436106200006a5760003560e01c8063258fb352146200006f57806335aa2e4414620000a35780637b10399914620000ba5780639300c92614620000ce578063b53e6afa14620000e7578063b7ab4db514620000fe575b600080fd5b620000866200008036600462000706565b62000117565b6040516001600160a01b0390911681526020015b60405180910390f35b62000086620000b43660046200078b565b62000287565b60005462000086906001600160a01b031681565b620000e5620000df366004620007a5565b620002b2565b005b62000086620000f836600462000870565b62000312565b620001086200050f565b6040516200009a91906200091d565b600154600090620001645760405162461bcd60e51b815260206004820152601260248201527115985b1a59185d1bdc9cc81b9bdd081cd95d60721b60448201526064015b60405180910390fd5b60008585858560008054906101000a90046001600160a01b031660016040516200018e9062000573565b6200019f96959493929190620009b4565b604051809103906000f080158015620001bc573d6000803e3d6000fd5b50600054604051633fa691ab60e01b815291925082916001600160a01b0390911690633fa691ab90620001fa9084908b9089908b9060040162000a4d565b600060405180830381600087803b1580156200021557600080fd5b505af11580156200022a573d6000803e3d6000fd5b50505050336001600160a01b0316816001600160a01b03167f0eff651cd2f0a3b5089cd3d999a0a7f814f6388a2195fe05cc3356f43b9201a289896040516200027592919062000aac565b60405180910390a39695505050505050565b600181815481106200029857600080fd5b6000918252602090912001546001600160a01b0316905081565b600581511115620002f95760405162461bcd60e51b815260206004820152601060248201526f4d617820352076616c696461746f727360801b60448201526064016200015b565b80516200030e90600190602084019062000581565b5050565b600154600090600514620003695760405162461bcd60e51b815260206004820152601e60248201527f4d75737420686176652065786163746c7920352076616c696461746f7273000060448201526064016200015b565b62000373620005eb565b60005b6005811015620003e8576001818154811062000396576200039662000ade565b6000918252602090912001546001600160a01b0316828260058110620003c057620003c062000ade565b6001600160a01b03909216602092909202015280620003df8162000af4565b91505062000376565b506000878787878760008054906101000a90046001600160a01b031687604051620004139062000609565b62000425979695949392919062000b1c565b604051809103906000f08015801562000442573d6000803e3d6000fd5b50600054604051633fa691ab60e01b815291925082916001600160a01b0390911690633fa691ab90620004809084908d908a908c9060040162000bbe565b600060405180830381600087803b1580156200049b57600080fd5b505af1158015620004b0573d6000803e3d6000fd5b50505050336001600160a01b0316816001600160a01b03167f0eff651cd2f0a3b5089cd3d999a0a7f814f6388a2195fe05cc3356f43b9201a28b8b604051620004fb92919062000aac565b60405180910390a398975050505050505050565b606060018054806020026020016040519081016040528092919081815260200182805480156200056957602002820191906000526020600020905b81546001600160a01b031681526001909101906020018083116200054a575b5050505050905090565b6117f78062000c2283390190565b828054828255906000526020600020908101928215620005d9579160200282015b82811115620005d957825182546001600160a01b0319166001600160a01b03909116178255602090920191600190910190620005a2565b50620005e792915062000617565b5090565b6040518060a001604052806005906020820280368337509192915050565b611f26806200241983390190565b5b80821115620005e7576000815560010162000618565b634e487b7160e01b600052604160045260246000fd5b604051601f8201601f1916810167ffffffffffffffff811182821017156200067057620006706200062e565b604052919050565b600082601f8301126200068a57600080fd5b813567ffffffffffffffff811115620006a757620006a76200062e565b620006bc601f8201601f191660200162000644565b818152846020838601011115620006d257600080fd5b816020850160208301376000918101602001919091529392505050565b803560ff811681146200070157600080fd5b919050565b600080600080608085870312156200071d57600080fd5b843567ffffffffffffffff808211156200073657600080fd5b620007448883890162000678565b955060208701359150808211156200075b57600080fd5b506200076a8782880162000678565b9350506200077b60408601620006ef565b9396929550929360600135925050565b6000602082840312156200079e57600080fd5b5035919050565b60006020808385031215620007b957600080fd5b823567ffffffffffffffff80821115620007d257600080fd5b818501915085601f830112620007e757600080fd5b813581811115620007fc57620007fc6200062e565b8060051b91506200080f84830162000644565b81815291830184019184810190888411156200082a57600080fd5b938501935b838510156200086457843592506001600160a01b0383168314620008535760008081fd5b82825293850193908501906200082f565b98975050505050505050565b600080600080600060a086880312156200088957600080fd5b853567ffffffffffffffff80821115620008a257600080fd5b620008b089838a0162000678565b96506020880135915080821115620008c757600080fd5b620008d589838a0162000678565b95506040880135915080821115620008ec57600080fd5b50620008fb8882890162000678565b9350506200090c60608701620006ef565b949793965091946080013592915050565b6020808252825182820181905260009190848201906040850190845b81811015620009605783516001600160a01b03168352928401929184019160010162000939565b50909695505050505050565b6000815180845260005b81811015620009945760208185018101518683018201520162000976565b506000602082860101526020601f19601f83011685010191505092915050565b60c081526000620009c960c08301896200096c565b602083820381850152620009de828a6200096c565b60ff89166040860152606085018890526001600160a01b03878116608087015285820360a087015286548083526000888152848120955091928401915b8181101562000a3b57855484168352600195860195928501920162000a1b565b50909c9b505050505050505050505050565b6001600160a01b038516815260a06020820181905260009062000a73908301866200096c565b82810360408401526005815264707269636560d81b60208201526040810191505083606083015260ff8316608083015295945050505050565b60408152600062000ac160408301856200096c565b828103602084015262000ad581856200096c565b95945050505050565b634e487b7160e01b600052603260045260246000fd5b60006001820162000b1557634e487b7160e01b600052601160045260246000fd5b5060010190565b600061016080835262000b328184018b6200096c565b905060208382038185015262000b49828b6200096c565b9150838203604085015262000b5f828a6200096c565b60ff89166060860152608085018890526001600160a01b0387811660a0870152909350915060c084018560005b600581101562000bad57815185168352918301919083019060010162000b8c565b505050505098975050505050505050565b6001600160a01b038516815260a06020820181905260009062000be4908301866200096c565b828103604084015260098152683330b931b0b9ba32b960b91b60208201526040810191505083606083015260ff831660808301529594505050505056fe60806040523480156200001157600080fd5b50604051620017f7380380620017f78339810160408190526200003491620003ed565b60018055603360ff85161080159062000051575060648460ff1611155b620000975760405162461bcd60e51b8152602060048201526011602482015270125b9d985b1a59081d1a1c995cda1bdb19607a1b60448201526064015b60405180910390fd5b6000815111620000dc5760405162461bcd60e51b815260206004820152600f60248201526e4e6565642076616c696461746f727360881b60448201526064016200008e565b6002620000ea878262000545565b506003620000f9868262000545565b506004805460ff191660ff86161790556005839055600680546001600160a01b0319166001600160a01b0384161790556001600c556200013b600033620001ba565b5060005b8151811015620001ad57620001977f21702c8af46127c7fa207f89d0b0a8441bb32959a0ac7df790e9ab1a25c9892683838151811062000183576200018362000611565b6020026020010151620001ba60201b60201c565b5080620001a48162000627565b9150506200013f565b505050505050506200064f565b6000828152602081815260408083206001600160a01b038516845290915281205460ff166200025f576000838152602081815260408083206001600160a01b03861684529091529020805460ff19166001179055620002163390565b6001600160a01b0316826001600160a01b0316847f2f8788117e7eff1d82e926ec794901d17c78024a50270940304540a733656f0d60405160405180910390a450600162000263565b5060005b92915050565b634e487b7160e01b600052604160045260246000fd5b604051601f8201601f191681016001600160401b0381118282101715620002aa57620002aa62000269565b604052919050565b600082601f830112620002c457600080fd5b81516001600160401b03811115620002e057620002e062000269565b6020620002f6601f8301601f191682016200027f565b82815285828487010111156200030b57600080fd5b60005b838110156200032b5785810183015182820184015282016200030e565b506000928101909101919091529392505050565b80516001600160a01b03811681146200035757600080fd5b919050565b600082601f8301126200036e57600080fd5b815160206001600160401b038211156200038c576200038c62000269565b8160051b6200039d8282016200027f565b9283528481018201928281019087851115620003b857600080fd5b83870192505b84831015620003e257620003d2836200033f565b82529183019190830190620003be565b979650505050505050565b60008060008060008060c087890312156200040757600080fd5b86516001600160401b03808211156200041f57600080fd5b6200042d8a838b01620002b2565b975060208901519150808211156200044457600080fd5b620004528a838b01620002b2565b96506040890151915060ff821682146200046b57600080fd5b819550606089015194506200048360808a016200033f565b935060a08901519150808211156200049a57600080fd5b50620004a989828a016200035c565b9150509295509295509295565b600181811c90821680620004cb57607f821691505b602082108103620004ec57634e487b7160e01b600052602260045260246000fd5b50919050565b601f8211156200054057600081815260208120601f850160051c810160208610156200051b5750805b601f850160051c820191505b818110156200053c5782815560010162000527565b5050505b505050565b81516001600160401b0381111562000561576200056162000269565b6200057981620005728454620004b6565b84620004f2565b602080601f831160018114620005b15760008415620005985750858301515b600019600386901b1c1916600185901b1785556200053c565b600085815260208120601f198616915b82811015620005e257888601518255948401946001909101908401620005c1565b5085821015620006015787850151600019600388901b60f8161c191681555b5050505050600190811b01905550565b634e487b7160e01b600052603260045260246000fd5b6000600182016200064857634e487b7160e01b600052601160045260246000fd5b5060010190565b611198806200065f6000396000f3fe608060405234801561001057600080fd5b50600436106101585760003560e01c80638a19c8bc116100c3578063a57d38061161007c578063a57d380614610306578063c49baebe14610334578063c8f33c9114610349578063d547741f14610352578063f9b0b5b914610365578063fe9bd8cc1461038457600080fd5b80638a19c8bc1461029f5780638e15f473146102a857806391d14854146102ce57806395d89b41146102e1578063a217fddf146102e9578063a3e6ba94146102f157600080fd5b806336568abe1161011557806336568abe1461021f57806340a141ff146102325780634d238c8e146102455780636306d87414610258578063673ea0861461026b5780637b1039991461027457600080fd5b806301ffc9a71461015d57806306fdde031461018557806321768fbe1461019a578063248a9ca3146101d15780632f2ff15d14610202578063346c940914610217575b600080fd5b61017061016b366004610e99565b610399565b60405190151581526020015b60405180910390f35b61018d6103d0565b60405161017c9190610eca565b6101ad6101a8366004610f18565b61045e565b6040805193845260208401929092526001600160a01b03169082015260600161017c565b6101f46101df366004610f3a565b60009081526020819052604090206001015490565b60405190815260200161017c565b610215610210366004610f6f565b6104a9565b005b6101706104d4565b61021561022d366004610f6f565b6104ee565b610215610240366004610f9b565b610526565b610215610253366004610f9b565b610549565b610215610266366004610fb6565b61056c565b6101f460055481565b600654610287906001600160a01b031681565b6040516001600160a01b03909116815260200161017c565b6101f4600c5481565b6102b0610710565b60408051938452602084019290925260ff169082015260600161017c565b6101706102dc366004610f6f565b610781565b61018d6107aa565b6101f4600081565b6007546008546009546102b092919060ff1683565b610170610314366004610f6f565b600b60209081526000928352604080842090915290825290205460ff1681565b6101f460008051602061114383398151915281565b6101f4600d5481565b610215610360366004610f6f565b6107b7565b6004546103729060ff1681565b60405160ff909116815260200161017c565b61038c6107dc565b60405161017c9190610fec565b60006001600160e01b03198216637965db0b60e01b14806103ca57506301ffc9a760e01b6001600160e01b03198316145b92915050565b600280546103dd9061104e565b80601f01602080910402602001604051908101604052809291908181526020018280546104099061104e565b80156104565780601f1061042b57610100808354040283529160200191610456565b820191906000526020600020905b81548152906001019060200180831161043957829003601f168201915b505050505081565b600a602052816000526040600020818154811061047a57600080fd5b60009182526020909120600390910201805460018201546002909201549093509091506001600160a01b031683565b6000828152602081905260409020600101546104c481610871565b6104ce838361087e565b50505050565b6000600554600d546104e6919061109e565b421015905090565b6001600160a01b03811633146105175760405163334bd91960e11b815260040160405180910390fd5b6105218282610910565b505050565b600061053181610871565b61052160008051602061114383398151915283610910565b600061055481610871565b6105216000805160206111438339815191528361087e565b60008051602061114383398151915261058481610871565b61058c61097b565b600083116105d15760405162461bcd60e51b815260206004820152600d60248201526c496e76616c696420707269636560981b60448201526064015b60405180910390fd5b600c546000908152600b6020908152604080832033845290915290205460ff16156106325760405162461bcd60e51b8152602060048201526011602482015270105b1c9958591e481cdd589b5a5d1d1959607a1b60448201526064016105c8565b6040805160608101825284815242602080830191825233838501818152600c80546000908152600a855287812080546001808201835591835286832089516003909202019081559651878201559251600290960180546001600160a01b0319166001600160a01b039097169690961790955580548552600b8452868520838652845293869020805460ff191690911790559154845188815291820152919290917fb856642cc40fb1a5399c4c63a6e055952edac364712907f58c00983449b398f7910160405180910390a2610706836109a5565b5061052160018055565b600080600080600760010154116107695760405162461bcd60e51b815260206004820152601760248201527f4e6f207072696365206461746120617661696c61626c6500000000000000000060448201526064016105c8565b5050600754600854600954919390925060ff90911690565b6000918252602082815260408084206001600160a01b0393909316845291905290205460ff1690565b600380546103dd9061104e565b6000828152602081905260409020600101546107d281610871565b6104ce8383610910565b6060600a6000600c548152602001908152602001600020805480602002602001604051908101604052809291908181526020016000905b82821015610868576000848152602090819020604080516060810182526003860290920180548352600180820154848601526002909101546001600160a01b0316918301919091529083529092019101610813565b50505050905090565b61087b8133610e5c565b50565b600061088a8383610781565b610908576000838152602081815260408083206001600160a01b03861684529091529020805460ff191660011790556108c03390565b6001600160a01b0316826001600160a01b0316847f2f8788117e7eff1d82e926ec794901d17c78024a50270940304540a733656f0d60405160405180910390a45060016103ca565b5060006103ca565b600061091c8383610781565b15610908576000838152602081815260408083206001600160a01b0386168085529252808320805460ff1916905551339286917ff6391f5c32d9c69d2a47ea670b442974b53935d1edc7fd64eb21e047a839171b9190a45060016103ca565b60026001540361099e57604051633ee5aeb560e01b815260040160405180910390fd5b6002600155565b6000600a6000600c548152602001908152602001600020805480602002602001604051908101604052809291908181526020016000905b82821015610a31576000848152602090819020604080516060810182526003860290920180548352600180820154848601526002909101546001600160a01b03169183019190915290835290920191016109dc565b5050825192935050506002811015610a4857505050565b60008167ffffffffffffffff811115610a6357610a636110b1565b604051908082528060200260200182016040528015610a8c578160200160208202803683370190505b50905060005b82811015610ae757838181518110610aac57610aac6110c7565b602002602001015160000151828281518110610aca57610aca6110c7565b602090810291909101015280610adf816110dd565b915050610a92565b5060005b8151811015610be3576000610b0182600161109e565b90505b8251811015610bd057828181518110610b1f57610b1f6110c7565b6020026020010151838381518110610b3957610b396110c7565b60200260200101511115610bbe576000838381518110610b5b57610b5b6110c7565b60200260200101519050838281518110610b7757610b776110c7565b6020026020010151848481518110610b9157610b916110c7565b60200260200101818152505080848381518110610bb057610bb06110c7565b602002602001018181525050505b80610bc8816110dd565b915050610b04565b5080610bdb816110dd565b915050610aeb565b5060008160028351610bf591906110f6565b81518110610c0557610c056110c7565b602002602001015190506000806064836005610c219190611118565b610c2b91906110f6565b905060005b8451811015610cb257610c43828561112f565b858281518110610c5557610c556110c7565b602002602001015110158015610c8d5750610c70828561109e565b858281518110610c8257610c826110c7565b602002602001015111155b15610ca05782610c9c816110dd565b9350505b80610caa816110dd565b915050610c30565b50600085610cc1846064611118565b610ccb91906110f6565b60045490915060ff90811690821610610dc45760408051606081018252858152426020820181905260ff8b16918301829052600787905560088190556009805460ff1916909217909155600d55600c5490517ff861a1fe3ca8b7bdb29e61b793d162ffaa8a33712b873d11e27654b7146bb0ec91610d609187908590928352602083019190915260ff16604082015260600190565b60405180910390a1600c546040805186815242602082015280820192909252517f15819dd2fd9f6418b142e798d08a18d0bf06ea368f4480b7b0d3f75bd966bc489181900360600190a1600c8054906000610dba836110dd565b9190505550610e52565b60058610610e52577fa00af7757ae2591f16ac195e556143da33aedda4804b4768561df0e5e0b61d86600c54604051610e34918152604060208201819052601b908201527f436f6e73656e737573207468726573686f6c64206e6f74206d65740000000000606082015260800190565b60405180910390a1600c8054906000610e4c836110dd565b91905055505b5050505050505050565b610e668282610781565b610e955760405163e2517d3f60e01b81526001600160a01b0382166004820152602481018390526044016105c8565b5050565b600060208284031215610eab57600080fd5b81356001600160e01b031981168114610ec357600080fd5b9392505050565b600060208083528351808285015260005b81811015610ef757858101830151858201604001528201610edb565b506000604082860101526040601f19601f8301168501019250505092915050565b60008060408385031215610f2b57600080fd5b50508035926020909101359150565b600060208284031215610f4c57600080fd5b5035919050565b80356001600160a01b0381168114610f6a57600080fd5b919050565b60008060408385031215610f8257600080fd5b82359150610f9260208401610f53565b90509250929050565b600060208284031215610fad57600080fd5b610ec382610f53565b60008060408385031215610fc957600080fd5b82359150602083013560ff81168114610fe157600080fd5b809150509250929050565b602080825282518282018190526000919060409081850190868401855b828110156110415781518051855286810151878601528501516001600160a01b03168585015260609093019290850190600101611009565b5091979650505050505050565b600181811c9082168061106257607f821691505b60208210810361108257634e487b7160e01b600052602260045260246000fd5b50919050565b634e487b7160e01b600052601160045260246000fd5b808201808211156103ca576103ca611088565b634e487b7160e01b600052604160045260246000fd5b634e487b7160e01b600052603260045260246000fd5b6000600182016110ef576110ef611088565b5060010190565b60008261111357634e487b7160e01b600052601260045260246000fd5b500490565b80820281158282048414176103ca576103ca611088565b818103818111156103ca576103ca61108856fe21702c8af46127c7fa207f89d0b0a8441bb32959a0ac7df790e9ab1a25c98926a2646970667358221220679912c295ffbc34ed3f240a4c3134aa1b48db1f8e606f73c18f564f596775a764736f6c6343000814003360806040523480156200001157600080fd5b5060405162001f2638038062001f268339810160408190526200003491620004a7565b33806200005c57604051631e4fbdf760e01b8152600060048201526024015b60405180910390fd5b6200006781620002e7565b5060018055603360ff85161080159062000085575060648460ff1611155b620000c75760405162461bcd60e51b8152602060048201526011602482015270125b9d985b1a59081d1a1c995cda1bdb19607a1b604482015260640162000053565b60008551116200011a5760405162461bcd60e51b815260206004820152601560248201527f54617267657420746f6b656e2072657175697265640000000000000000000000604482015260640162000053565b600262000128888262000613565b50600362000137878262000613565b50600462000146868262000613565b506005805460068590556001600160a81b031916600160a01b60ff8716026001600160a01b031916176001600160a01b03841617905560005b6005811015620002a0576000828260058110620001a057620001a0620006df565b60200201516001600160a01b031603620001f15760405162461bcd60e51b815260206004820152601160248201527024b73b30b634b2103b30b634b230ba37b960791b604482015260640162000053565b818160058110620002065762000206620006df565b602002015160088260058110620002215762000221620006df565b0180546001600160a01b0319166001600160a01b03929092169190911790556001600d60008484600581106200025b576200025b620006df565b602090810291909101516001600160a01b03168252810191909152604001600020805460ff1916911515919091179055806200029781620006f5565b9150506200017f565b507f0b97a76b184160ad9b56b3cd68a81377eec64b471b84ff87ba40304754c11b3a81604051620002d291906200071d565b60405180910390a15050505050505062000759565b600080546001600160a01b038381166001600160a01b0319831681178455604051919092169283917f8be0079c531659141344cd1fd0a4f28419497f9722a3daafe3b4186f6b6457e09190a35050565b634e487b7160e01b600052604160045260246000fd5b604051601f8201601f191681016001600160401b038111828210171562000378576200037862000337565b604052919050565b600082601f8301126200039257600080fd5b81516001600160401b03811115620003ae57620003ae62000337565b6020620003c4601f8301601f191682016200034d565b8281528582848701011115620003d957600080fd5b60005b83811015620003f9578581018301518282018401528201620003dc565b506000928101909101919091529392505050565b80516001600160a01b03811681146200042557600080fd5b919050565b600082601f8301126200043c57600080fd5b60405160a081016001600160401b038111828210171562000461576200046162000337565b6040528060a08401858111156200047757600080fd5b845b818110156200049c576200048d816200040d565b83526020928301920162000479565b509195945050505050565b6000806000806000806000610160888a031215620004c457600080fd5b87516001600160401b0380821115620004dc57600080fd5b620004ea8b838c0162000380565b985060208a01519150808211156200050157600080fd5b6200050f8b838c0162000380565b975060408a01519150808211156200052657600080fd5b50620005358a828b0162000380565b955050606088015160ff811681146200054d57600080fd5b608089015190945092506200056560a089016200040d565b9150620005768960c08a016200042a565b905092959891949750929550565b600181811c908216806200059957607f821691505b602082108103620005ba57634e487b7160e01b600052602260045260246000fd5b50919050565b601f8211156200060e57600081815260208120601f850160051c81016020861015620005e95750805b601f850160051c820191505b818110156200060a57828155600101620005f5565b5050505b505050565b81516001600160401b038111156200062f576200062f62000337565b620006478162000640845462000584565b84620005c0565b602080601f8311600181146200067f5760008415620006665750858301515b600019600386901b1c1916600185901b1785556200060a565b600085815260208120601f198616915b82811015620006b0578886015182559484019460019091019084016200068f565b5085821015620006cf5787850151600019600388901b60f8161c191681555b5050505050600190811b01905550565b634e487b7160e01b600052603260045260246000fd5b6000600182016200071657634e487b7160e01b600052601160045260246000fd5b5060010190565b60a08101818360005b6005811015620007505781516001600160a01b031683526020928301929091019060010162000726565b50505092915050565b6117bd80620007696000396000f3fe608060405234801561001057600080fd5b50600436106101415760003560e01c80638da5cb5b116100b8578063ee8132bd1161007c578063ee8132bd146102eb578063f2fde38b146102fe578063f7b92fcd14610311578063f9b0b5b914610333578063facd743b14610359578063fdce5e421461037c57600080fd5b80638da5cb5b1461029357806392ac27f9146102a457806395d89b41146102b7578063963398bd146102bf578063c0463711146102e257600080fd5b8063395924dc1161010a578063395924dc146101bd5780633e8686cc146102085780634d44b9e71461024d578063673ea0861461026d578063715018a6146102765780637b1039991461028057600080fd5b8062f1abf51461014657806306fdde031461015d578063327107f714610172578063346c94091461017a57806335aa2e4414610192575b600080fd5b6016545b6040519081526020015b60405180910390f35b610165610402565b604051610154919061150e565b610165610490565b61018261049d565b6040519015158152602001610154565b6101a56101a036600461155c565b6104b7565b6040516001600160a01b039091168152602001610154565b600f546010546011546012546013546014546015545b604080519788526020880196909652948601939093526060850191909152608084015260a083015260c082015260e001610154565b61021b61021636600461155c565b6104d7565b604080516001600160a01b0390961686526020860194909452928401919091526060830152608082015260a001610154565b61014a61025b366004611591565b600e6020526000908152604090205481565b61014a60065481565b61027e6105fb565b005b6005546101a5906001600160a01b031681565b6000546001600160a01b03166101a5565b61027e6102b23660046115c9565b61060f565b6101656107c6565b6101826102cd366004611591565b60176020526000908152604090205460ff1681565b61014a60075481565b61027e6102f936600461165c565b6107d3565b61027e61030c366004611591565b610c01565b600f546010546011546012546013546014546015546101d39695949392919087565b60055461034790600160a01b900460ff1681565b60405160ff9091168152602001610154565b610182610367366004611591565b600d6020526000908152604090205460ff1681565b61038f61038a36600461155c565b610c3f565b604080516001600160a01b03909516855283516020808701919091528401518582015283015160608086019190915283015160808086019190915283015160a08086019190915283015160c0808601919091529092015160e0840152610100830152151561012082015261014001610154565b6002805461040f9061169f565b80601f016020809104026020016040519081016040528092919081815260200182805461043b9061169f565b80156104885780601f1061045d57610100808354040283529160200191610488565b820191906000526020600020905b81548152906001019060200180831161046b57829003601f168201915b505050505081565b6004805461040f9061169f565b60006006546007546104af91906116ef565b421015905090565b600881600581106104c757600080fd5b01546001600160a01b0316905081565b600080600080600060168054905086106105285760405162461bcd60e51b815260206004820152600d60248201526c092dcecc2d8d2c840d2dcc8caf609b1b60448201526064015b60405180910390fd5b60006016878154811061053d5761053d611708565b60009182526020918290206040805160808082018352600a9490940290920180546001600160a01b03168352815160e08101835260018201548152600282015481870190815260038301548285019081526004840154606080850191909152600585015497840197909752600684015460a0840152600784015460c0840152968501829052600883015493850184905260099092015460ff161515948401949094529151925191519351929b919a5092985090965090945092505050565b610603610cce565b61060d6000610cfb565b565b610617610cce565b60005b6005811015610678576000600d60006008846005811061063c5761063c611708565b01546001600160a01b031681526020810191909152604001600020805460ff1916911515919091179055806106708161171e565b91505061061a565b5060005b600581101561078b57600082826005811061069957610699611708565b60200201516001600160a01b0316036106e85760405162461bcd60e51b815260206004820152601160248201527024b73b30b634b2103b30b634b230ba37b960791b604482015260640161051f565b8181600581106106fa576106fa611708565b60200201516008826005811061071257610712611708565b0180546001600160a01b0319166001600160a01b03929092169190911790556001600d600084846005811061074957610749611708565b602090810291909101516001600160a01b03168252810191909152604001600020805460ff1916911515919091179055806107838161171e565b91505061067c565b507f0b97a76b184160ad9b56b3cd68a81377eec64b471b84ff87ba40304754c11b3a816040516107bb9190611737565b60405180910390a150565b6003805461040f9061169f565b6107db610d4b565b336000908152600d602052604090205460ff1661082c5760405162461bcd60e51b815260206004820152600f60248201526e2737ba1030903b30b634b230ba37b960891b604482015260640161051f565b3360009081526017602052604090205460ff16156108805760405162461bcd60e51b8152602060048201526011602482015270105b1c9958591e481cdd589b5a5d1d1959607a1b604482015260640161051f565b61270f19851215801561089557506127108513155b6108d55760405162461bcd60e51b8152602060048201526011602482015270125b9d985b1a59081cd95b9d1a5b595b9d607a1b604482015260640161051f565b6127108411156109275760405162461bcd60e51b815260206004820152601760248201527f496e76616c696420656e676167656d656e742072617465000000000000000000604482015260640161051f565b6040805160e08101825287815260208082018890528183018790526060808301879052608080840187905260a08085018790524260c08087018290528751808501895233808252818801898152828b018581526000848a0181815260168054600180820183559184529651600a9097027fd833147d7dc355ba459fc788f669e58cfaf9dc25ddcd0702e87d69c7b5124289810180546001600160a01b039099166001600160a01b031990991698909817909755935180517fd833147d7dc355ba459fc788f669e58cfaf9dc25ddcd0702e87d69c7b512428a880155808d01517fd833147d7dc355ba459fc788f669e58cfaf9dc25ddcd0702e87d69c7b512428b880155808f01517fd833147d7dc355ba459fc788f669e58cfaf9dc25ddcd0702e87d69c7b512428c880155808c01517fd833147d7dc355ba459fc788f669e58cfaf9dc25ddcd0702e87d69c7b512428d880155998a01517fd833147d7dc355ba459fc788f669e58cfaf9dc25ddcd0702e87d69c7b512428e870155978901517fd833147d7dc355ba459fc788f669e58cfaf9dc25ddcd0702e87d69c7b512428f86015597909401517fd833147d7dc355ba459fc788f669e58cfaf9dc25ddcd0702e87d69c7b512429084015592517fd833147d7dc355ba459fc788f669e58cfaf9dc25ddcd0702e87d69c7b512429183015593517fd833147d7dc355ba459fc788f669e58cfaf9dc25ddcd0702e87d69c7b5124292909101805491151560ff1992831617905583855260178752888520805490911682179055600e865292879020805490930190925585518c81529384018b9052948301529192917fedfe439ddaf7fc9d12ba5b30d1ca8618f24fc50d6cfa8507ea429e40e07ee706910160405180910390a260006064600560149054906101000a900460ff1660050260ff1681610bd457610bd4611771565b0460ff1690508060168054905010610bee57610bee610d75565b5050610bf960018055565b505050505050565b610c09610cce565b6001600160a01b038116610c3357604051631e4fbdf760e01b81526000600482015260240161051f565b610c3c81610cfb565b50565b60168181548110610c4f57600080fd5b6000918252602091829020600a9091020180546040805160e081018252600184015481526002840154948101949094526003830154908401526004820154606084015260058201546080840152600682015460a0840152600782015460c084015260088201546009909201546001600160a01b03909116935060ff1684565b6000546001600160a01b0316331461060d5760405163118cdaa760e01b815233600482015260240161051f565b600080546001600160a01b038381166001600160a01b0319831681178455604051919092169283917f8be0079c531659141344cd1fd0a4f28419497f9722a3daafe3b4186f6b6457e09190a35050565b600260015403610d6e57604051633ee5aeb560e01b815260040160405180910390fd5b6002600155565b60165480610db65760405162461bcd60e51b815260206004820152600e60248201526d4e6f207375626d697373696f6e7360901b604482015260640161051f565b60008167ffffffffffffffff811115610dd157610dd16115b3565b604051908082528060200260200182016040528015610dfa578160200160208202803683370190505b50905060008267ffffffffffffffff811115610e1857610e186115b3565b604051908082528060200260200182016040528015610e41578160200160208202803683370190505b50905060008367ffffffffffffffff811115610e5f57610e5f6115b3565b604051908082528060200260200182016040528015610e88578160200160208202803683370190505b50905060008467ffffffffffffffff811115610ea657610ea66115b3565b604051908082528060200260200182016040528015610ecf578160200160208202803683370190505b50905060008567ffffffffffffffff811115610eed57610eed6115b3565b604051908082528060200260200182016040528015610f16578160200160208202803683370190505b50905060005b868110156110895760168181548110610f3757610f37611708565b90600052602060002090600a020160010160000154868281518110610f5e57610f5e611708565b60200260200101818152505060168181548110610f7d57610f7d611708565b90600052602060002090600a020160010160010154858281518110610fa457610fa4611708565b60200260200101818152505060168181548110610fc357610fc3611708565b90600052602060002090600a020160010160020154848281518110610fea57610fea611708565b6020026020010181815250506016818154811061100957611009611708565b90600052602060002090600a02016001016003015483828151811061103057611030611708565b6020026020010181815250506016818154811061104f5761104f611708565b90600052602060002090600a02016001016004015482828151811061107657611076611708565b6020908102919091010152600101610f1c565b5061109385611232565b61109c84611326565b6110a583611232565b6110ae82611232565b6110b781611232565b60006002870490506040518060e001604052808783815181106110dc576110dc611708565b602002602001015181526020018683815181106110fb576110fb611708565b6020026020010151815260200185838151811061111a5761111a611708565b6020026020010151815260200184838151811061113957611139611708565b6020026020010151815260200183838151811061115857611158611708565b60200260200101518152602001601660008154811061117957611179611708565b60009182526020918290206006600a9092020101548252429181018290528251600f81905590830151601081905560408085015160118190556060860151601255608086015160135560a086015160145560c0909501516015556007849055517f4a878493c5a0b8218095634b4c65c123c272527e6c6a94a92e4290fdd16fb5dd9461121c94909193845260208401929092526040830152606082015260800190565b60405180910390a1505050505050610c3c611415565b805160018111611240575050565b60005b600182038110156113215760005b6001828403038110156113185783816001018151811061127357611273611708565b602002602001015184828151811061128d5761128d611708565b60200260200101511115611310578381600101815181106112b0576112b0611708565b60200260200101518482815181106112ca576112ca611708565b60200260200101518583815181106112e4576112e4611708565b6020026020010186846001018151811061130057611300611708565b6020908102919091010191909152525b600101611251565b50600101611243565b505050565b805160018111611334575050565b60005b600182038110156113215760005b60018284030381101561140c5783816001018151811061136757611367611708565b602002602001015184828151811061138157611381611708565b60200260200101511315611404578381600101815181106113a4576113a4611708565b60200260200101518482815181106113be576113be611708565b60200260200101518583815181106113d8576113d8611708565b602002602001018684600101815181106113f4576113f4611708565b6020908102919091010191909152525b600101611345565b50600101611337565b60005b601654811015611486576000601760006016848154811061143b5761143b611708565b60009182526020808320600a92909202909101546001600160a01b031683528201929092526040019020805460ff19169115159190911790558061147e8161171e565b915050611418565b5061060d6016805460008255600a0290600052602060002090810190610c3c91905b8082111561150a5780546001600160a01b0319168155600060018201819055600282018190556003820181905560048201819055600582018190556006820181905560078201819055600882015560098101805460ff19169055600a016114a8565b5090565b600060208083528351808285015260005b8181101561153b5785810183015185820160400152820161151f565b506000604082860101526040601f19601f8301168501019250505092915050565b60006020828403121561156e57600080fd5b5035919050565b80356001600160a01b038116811461158c57600080fd5b919050565b6000602082840312156115a357600080fd5b6115ac82611575565b9392505050565b634e487b7160e01b600052604160045260246000fd5b600060a082840312156115db57600080fd5b82601f8301126115ea57600080fd5b60405160a0810181811067ffffffffffffffff8211171561161b57634e487b7160e01b600052604160045260246000fd5b6040528060a084018581111561163057600080fd5b845b818110156116515761164381611575565b835260209283019201611632565b509195945050505050565b60008060008060008060c0878903121561167557600080fd5b505084359660208601359650604086013595606081013595506080810135945060a0013592509050565b600181811c908216806116b357607f821691505b6020821081036116d357634e487b7160e01b600052602260045260246000fd5b50919050565b634e487b7160e01b600052601160045260246000fd5b80820180821115611702576117026116d9565b92915050565b634e487b7160e01b600052603260045260246000fd5b600060018201611730576117306116d9565b5060010190565b60a08101818360005b60058110156117685781516001600160a01b0316835260209283019290910190600101611740565b50505092915050565b634e487b7160e01b600052601260045260246000fdfea26469706673582212209ba07549572f16805ab30df0084e5eed17d4183faf6eeaf8918f436d7819088964736f6c63430008140033a264697066735822122016ab2039f2e4365a086569a2437ee815fa7b8fbdd782527daf363bea5cb9265c64736f6c63430008140033","opcodes":"PUSH1 0x80 PUSH1 0x40 MSTORE CALLVALUE DUP1 ISZERO PUSH2 0x10 JUMPI PUSH1 0x0 DUP1 REVERT JUMPDEST POP PUSH1 0x40 MLOAD PUSH2 0x4407 CODESIZE SUB DUP1 PUSH2 0x4407 DUP4 CODECOPY DUP2 ADD PUSH1 0x40 DUP2 SWAP1 MSTORE PUSH2 0x2F SWAP2 PUSH2 0x54 JUMP JUMPDEST PUSH1 0x0 DUP1 SLOAD PUSH1 0x1 PUSH1 0x1 PUSH1 0xA0 SHL SUB NOT AND PUSH1 0x1 PUSH1 0x1 PUSH1 0xA0 SHL SUB SWAP3 SWAP1 SWAP3 AND SWAP2 SWAP1 SWAP2 OR SWAP1 SSTORE PUSH2 0x84 JUMP JUMPDEST PUSH1 0x0 PUSH1 0x20 DUP3 DUP5 SUB SLT ISZERO PUSH2 0x66 JUMPI PUSH1 0x0 DUP1 REVERT JUMPDEST DUP2 MLOAD PUSH1 0x1 PUSH1 0x1 PUSH1 0xA0 SHL SUB DUP2 AND DUP2 EQ PUSH2 0x7D JUMPI PUSH1 0x0 DUP1 REVERT JUMPDEST SWAP4 SWAP3 POP POP POP JUMP JUMPDEST PUSH2 0x4374 DUP1 PUSH2 0x93 PUSH1 0x0 CODECOPY PUSH1 0x0 RETURN INVALID PUSH1 0x80 PUSH1 0x40 MSTORE CALLVALUE DUP1 ISZERO PUSH3 0x11 JUMPI PUSH1 0x0 DUP1 REVERT JUMPDEST POP PUSH1 0x4 CALLDATASIZE LT PUSH3 0x6A JUMPI PUSH1 0x0 CALLDATALOAD PUSH1 0xE0 SHR DUP1 PUSH4 0x258FB352 EQ PUSH3 0x6F JUMPI DUP1 PUSH4 0x35AA2E44 EQ PUSH3 0xA3 JUMPI DUP1 PUSH4 0x7B103999 EQ PUSH3 0xBA JUMPI DUP1 PUSH4 0x9300C926 EQ PUSH3 0xCE JUMPI DUP1 PUSH4 0xB53E6AFA EQ PUSH3 0xE7 JUMPI DUP1 PUSH4 0xB7AB4DB5 EQ PUSH3 0xFE JUMPI JUMPDEST PUSH1 0x0 DUP1 REVERT JUMPDEST PUSH3 0x86 PUSH3 0x80 CALLDATASIZE PUSH1 0x4 PUSH3 0x706 JUMP JUMPDEST PUSH3 0x117 JUMP JUMPDEST PUSH1 0x40 MLOAD PUSH1 0x1 PUSH1 0x1 PUSH1 0xA0 SHL SUB SWAP1 SWAP2 AND DUP2 MSTORE PUSH1 0x20 ADD JUMPDEST PUSH1 0x40 MLOAD DUP1 SWAP2 SUB SWAP1 RETURN JUMPDEST PUSH3 0x86 PUSH3 0xB4 CALLDATASIZE PUSH1 0x4 PUSH3 0x78B JUMP JUMPDEST PUSH3 0x287 JUMP JUMPDEST PUSH1 0x0 SLOAD PUSH3 0x86 SWAP1 PUSH1 0x1 PUSH1 0x1 PUSH1 0xA0 SHL SUB AND DUP2 JUMP JUMPDEST PUSH3 0xE5 PUSH3 0xDF CALLDATASIZE PUSH1 0x4 PUSH3 0x7A5 JUMP JUMPDEST PUSH3 0x2B2 JUMP JUMPDEST STOP JUMPDEST PUSH3 0x86 PUSH3 0xF8 CALLDATASIZE PUSH1 0x4 PUSH3 0x870 JUMP JUMPDEST PUSH3 0x312 JUMP JUMPDEST PUSH3 0x108 PUSH3 0x50F JUMP JUMPDEST PUSH1 0x40 MLOAD PUSH3 0x9A SWAP2 SWAP1 PUSH3 0x91D JUMP JUMPDEST PUSH1 0x1 SLOAD PUSH1 0x0 SWAP1 PUSH3 0x164 JUMPI PUSH1 0x40 MLOAD PUSH3 0x461BCD PUSH1 0xE5 SHL DUP2 MSTORE PUSH1 0x20 PUSH1 0x4 DUP3 ADD MSTORE PUSH1 0x12 PUSH1 0x24 DUP3 ADD MSTORE PUSH18 0x15985B1A59185D1BDC9CC81B9BDD081CD95D PUSH1 0x72 SHL PUSH1 0x44 DUP3 ADD MSTORE PUSH1 0x64 ADD JUMPDEST PUSH1 0x40 MLOAD DUP1 SWAP2 SUB SWAP1 REVERT JUMPDEST PUSH1 0x0 DUP6 DUP6 DUP6 DUP6 PUSH1 0x0 DUP1 SLOAD SWAP1 PUSH2 0x100 EXP SWAP1 DIV PUSH1 0x1 PUSH1 0x1 PUSH1 0xA0 SHL SUB AND PUSH1 0x1 PUSH1 0x40 MLOAD PUSH3 0x18E SWAP1 PUSH3 0x573 JUMP JUMPDEST PUSH3 0x19F SWAP7 SWAP6 SWAP5 SWAP4 SWAP3 SWAP2 SWAP1 PUSH3 0x9B4 JUMP JUMPDEST PUSH1 0x40 MLOAD DUP1 SWAP2 SUB SWAP1 PUSH1 0x0 CREATE DUP1 ISZERO DUP1 ISZERO PUSH3 0x1BC JUMPI RETURNDATASIZE PUSH1 0x0 DUP1 RETURNDATACOPY RETURNDATASIZE PUSH1 0x0 REVERT JUMPDEST POP PUSH1 0x0 SLOAD PUSH1 0x40 MLOAD PUSH4 0x3FA691AB PUSH1 0xE0 SHL DUP2 MSTORE SWAP2 SWAP3 POP DUP3 SWAP2 PUSH1 0x1 PUSH1 0x1 PUSH1 0xA0 SHL SUB SWAP1 SWAP2 AND SWAP1 PUSH4 0x3FA691AB SWAP1 PUSH3 0x1FA SWAP1 DUP5 SWAP1 DUP12 SWAP1 DUP10 SWAP1 DUP12 SWAP1 PUSH1 0x4 ADD PUSH3 0xA4D JUMP JUMPDEST PUSH1 0x0 PUSH1 0x40 MLOAD DUP1 DUP4 SUB DUP2 PUSH1 0x0 DUP8 DUP1 EXTCODESIZE ISZERO DUP1 ISZERO PUSH3 0x215 JUMPI PUSH1 0x0 DUP1 REVERT JUMPDEST POP GAS CALL ISZERO DUP1 ISZERO PUSH3 0x22A JUMPI RETURNDATASIZE PUSH1 0x0 DUP1 RETURNDATACOPY RETURNDATASIZE PUSH1 0x0 REVERT JUMPDEST POP POP POP POP CALLER PUSH1 0x1 PUSH1 0x1 PUSH1 0xA0 SHL SUB AND DUP2 PUSH1 0x1 PUSH1 0x1 PUSH1 0xA0 SHL SUB AND PUSH32 0xEFF651CD2F0A3B5089CD3D999A0A7F814F6388A2195FE05CC3356F43B9201A2 DUP10 DUP10 PUSH1 0x40 MLOAD PUSH3 0x275 SWAP3 SWAP2 SWAP1 PUSH3 0xAAC JUMP JUMPDEST PUSH1 0x40 MLOAD DUP1 SWAP2 SUB SWAP1 LOG3 SWAP7 SWAP6 POP POP POP POP POP POP JUMP JUMPDEST PUSH1 0x1 DUP2 DUP2 SLOAD DUP2 LT PUSH3 0x298 JUMPI PUSH1 0x0 DUP1 REVERT JUMPDEST PUSH1 0x0 SWAP2 DUP3 MSTORE PUSH1 0x20 SWAP1 SWAP2 KECCAK256 ADD SLOAD PUSH1 0x1 PUSH1 0x1 PUSH1 0xA0 SHL SUB AND SWAP1 POP DUP2 JUMP JUMPDEST PUSH1 0x5 DUP2 MLOAD GT ISZERO PUSH3 0x2F9 JUMPI PUSH1 0x40 MLOAD PUSH3 0x461BCD PUSH1 0xE5 SHL DUP2 MSTORE PUSH1 0x20 PUSH1 0x4 DUP3 ADD MSTORE PUSH1 0x10 PUSH1 0x24 DUP3 ADD MSTORE PUSH16 0x4D617820352076616C696461746F7273 PUSH1 0x80 SHL PUSH1 0x44 DUP3 ADD MSTORE PUSH1 0x64 ADD PUSH3 0x15B JUMP JUMPDEST DUP1 MLOAD PUSH3 0x30E SWAP1 PUSH1 0x1 SWAP1 PUSH1 0x20 DUP5 ADD SWAP1 PUSH3 0x581 JUMP JUMPDEST POP POP JUMP JUMPDEST PUSH1 0x1 SLOAD PUSH1 0x0 SWAP1 PUSH1 0x5 EQ PUSH3 0x369 JUMPI PUSH1 0x40 MLOAD PUSH3 0x461BCD PUSH1 0xE5 SHL DUP2 MSTORE PUSH1 0x20 PUSH1 0x4 DUP3 ADD MSTORE PUSH1 0x1E PUSH1 0x24 DUP3 ADD MSTORE PUSH32 0x4D75737420686176652065786163746C7920352076616C696461746F72730000 PUSH1 0x44 DUP3 ADD MSTORE PUSH1 0x64 ADD PUSH3 0x15B JUMP JUMPDEST PUSH3 0x373 PUSH3 0x5EB JUMP JUMPDEST PUSH1 0x0 JUMPDEST PUSH1 0x5 DUP2 LT ISZERO PUSH3 0x3E8 JUMPI PUSH1 0x1 DUP2 DUP2 SLOAD DUP2 LT PUSH3 0x396 JUMPI PUSH3 0x396 PUSH3 0xADE JUMP JUMPDEST PUSH1 0x0 SWAP2 DUP3 MSTORE PUSH1 0x20 SWAP1 SWAP2 KECCAK256 ADD SLOAD PUSH1 0x1 PUSH1 0x1 PUSH1 0xA0 SHL SUB AND DUP3 DUP3 PUSH1 0x5 DUP2 LT PUSH3 0x3C0 JUMPI PUSH3 0x3C0 PUSH3 0xADE JUMP JUMPDEST PUSH1 0x1 PUSH1 0x1 PUSH1 0xA0 SHL SUB SWAP1 SWAP3 AND PUSH1 0x20 SWAP3 SWAP1 SWAP3 MUL ADD MSTORE DUP1 PUSH3 0x3DF DUP2 PUSH3 0xAF4 JUMP JUMPDEST SWAP2 POP POP PUSH3 0x376 JUMP JUMPDEST POP PUSH1 0x0 DUP8 DUP8 DUP8 DUP8 DUP8 PUSH1 0x0 DUP1 SLOAD SWAP1 PUSH2 0x100 EXP SWAP1 DIV PUSH1 0x1 PUSH1 0x1 PUSH1 0xA0 SHL SUB AND DUP8 PUSH1 0x40 MLOAD PUSH3 0x413 SWAP1 PUSH3 0x609 JUMP JUMPDEST PUSH3 0x425 SWAP8 SWAP7 SWAP6 SWAP5 SWAP4 SWAP3 SWAP2 SWAP1 PUSH3 0xB1C JUMP JUMPDEST PUSH1 0x40 MLOAD DUP1 SWAP2 SUB SWAP1 PUSH1 0x0 CREATE DUP1 ISZERO DUP1 ISZERO PUSH3 0x442 JUMPI RETURNDATASIZE PUSH1 0x0 DUP1 RETURNDATACOPY RETURNDATASIZE PUSH1 0x0 REVERT JUMPDEST POP PUSH1 0x0 SLOAD PUSH1 0x40 MLOAD PUSH4 0x3FA691AB PUSH1 0xE0 SHL DUP2 MSTORE SWAP2 SWAP3 POP DUP3 SWAP2 PUSH1 0x1 PUSH1 0x1 PUSH1 0xA0 SHL SUB SWAP1 SWAP2 AND SWAP1 PUSH4 0x3FA691AB SWAP1 PUSH3 0x480 SWAP1 DUP5 SWAP1 DUP14 SWAP1 DUP11 SWAP1 DUP13 SWAP1 PUSH1 0x4 ADD PUSH3 0xBBE JUMP JUMPDEST PUSH1 0x0 PUSH1 0x40 MLOAD DUP1 DUP4 SUB DUP2 PUSH1 0x0 DUP8 DUP1 EXTCODESIZE ISZERO DUP1 ISZERO PUSH3 0x49B JUMPI PUSH1 0x0 DUP1 REVERT JUMPDEST POP GAS CALL ISZERO DUP1 ISZERO PUSH3 0x4B0 JUMPI RETURNDATASIZE PUSH1 0x0 DUP1 RETURNDATACOPY RETURNDATASIZE PUSH1 0x0 REVERT JUMPDEST POP POP POP POP CALLER PUSH1 0x1 PUSH1 0x1 PUSH1 0xA0 SHL SUB AND DUP2 PUSH1 0x1 PUSH1 0x1 PUSH1 0xA0 SHL SUB AND PUSH32 0xEFF651CD2F0A3B5089CD3D999A0A7F814F6388A2195FE05CC3356F43B9201A2 DUP12 DUP12 PUSH1 0x40 MLOAD PUSH3 0x4FB SWAP3 SWAP2 SWAP1 PUSH3 0xAAC JUMP JUMPDEST PUSH1 0x40 MLOAD DUP1 SWAP2 SUB SWAP1 LOG3 SWAP9 SWAP8 POP POP POP POP POP POP POP POP JUMP JUMPDEST PUSH1 0x60 PUSH1 0x1 DUP1 SLOAD DUP1 PUSH1 0x20 MUL PUSH1 0x20 ADD PUSH1 0x40 MLOAD SWAP1 DUP2 ADD PUSH1 0x40 MSTORE DUP1 SWAP3 SWAP2 SWAP1 DUP2 DUP2 MSTORE PUSH1 0x20 ADD DUP3 DUP1 SLOAD DUP1 ISZERO PUSH3 0x569 JUMPI PUSH1 0x20 MUL DUP3 ADD SWAP2 SWAP1 PUSH1 0x0 MSTORE PUSH1 0x20 PUSH1 0x0 KECCAK256 SWAP1 JUMPDEST DUP2 SLOAD PUSH1 0x1 PUSH1 0x1 PUSH1 0xA0 SHL SUB AND DUP2 MSTORE PUSH1 0x1 SWAP1 SWAP2 ADD SWAP1 PUSH1 0x20 ADD DUP1 DUP4 GT PUSH3 0x54A JUMPI JUMPDEST POP POP POP POP POP SWAP1 POP SWAP1 JUMP JUMPDEST PUSH2 0x17F7 DUP1 PUSH3 0xC22 DUP4 CODECOPY ADD SWAP1 JUMP JUMPDEST DUP3 DUP1 SLOAD DUP3 DUP3 SSTORE SWAP1 PUSH1 0x0 MSTORE PUSH1 0x20 PUSH1 0x0 KECCAK256 SWAP1 DUP2 ADD SWAP3 DUP3 ISZERO PUSH3 0x5D9 JUMPI SWAP2 PUSH1 0x20 MUL DUP3 ADD JUMPDEST DUP3 DUP2 GT ISZERO PUSH3 0x5D9 JUMPI DUP3 MLOAD DUP3 SLOAD PUSH1 0x1 PUSH1 0x1 PUSH1 0xA0 SHL SUB NOT AND PUSH1 0x1 PUSH1 0x1 PUSH1 0xA0 SHL SUB SWAP1 SWAP2 AND OR DUP3 SSTORE PUSH1 0x20 SWAP1 SWAP3 ADD SWAP2 PUSH1 0x1 SWAP1 SWAP2 ADD SWAP1 PUSH3 0x5A2 JUMP JUMPDEST POP PUSH3 0x5E7 SWAP3 SWAP2 POP PUSH3 0x617 JUMP JUMPDEST POP SWAP1 JUMP JUMPDEST PUSH1 0x40 MLOAD DUP1 PUSH1 0xA0 ADD PUSH1 0x40 MSTORE DUP1 PUSH1 0x5 SWAP1 PUSH1 0x20 DUP3 MUL DUP1 CALLDATASIZE DUP4 CALLDATACOPY POP SWAP2 SWAP3 SWAP2 POP POP JUMP JUMPDEST PUSH2 0x1F26 DUP1 PUSH3 0x2419 DUP4 CODECOPY ADD SWAP1 JUMP JUMPDEST JUMPDEST DUP1 DUP3 GT ISZERO PUSH3 0x5E7 JUMPI PUSH1 0x0 DUP2 SSTORE PUSH1 0x1 ADD PUSH3 0x618 JUMP JUMPDEST PUSH4 0x4E487B71 PUSH1 0xE0 SHL PUSH1 0x0 MSTORE PUSH1 0x41 PUSH1 0x4 MSTORE PUSH1 0x24 PUSH1 0x0 REVERT JUMPDEST PUSH1 0x40 MLOAD PUSH1 0x1F DUP3 ADD PUSH1 0x1F NOT AND DUP2 ADD PUSH8 0xFFFFFFFFFFFFFFFF DUP2 GT DUP3 DUP3 LT OR ISZERO PUSH3 0x670 JUMPI PUSH3 0x670 PUSH3 0x62E JUMP JUMPDEST PUSH1 0x40 MSTORE SWAP2 SWAP1 POP JUMP JUMPDEST PUSH1 0x0 DUP3 PUSH1 0x1F DUP4 ADD SLT PUSH3 0x68A JUMPI PUSH1 0x0 DUP1 REVERT JUMPDEST DUP2 CALLDATALOAD PUSH8 0xFFFFFFFFFFFFFFFF DUP2 GT ISZERO PUSH3 0x6A7 JUMPI PUSH3 0x6A7 PUSH3 0x62E JUMP JUMPDEST PUSH3 0x6BC PUSH1 0x1F DUP3 ADD PUSH1 0x1F NOT AND PUSH1 0x20 ADD PUSH3 0x644 JUMP JUMPDEST DUP2 DUP2 MSTORE DUP5 PUSH1 0x20 DUP4 DUP7 ADD ADD GT ISZERO PUSH3 0x6D2 JUMPI PUSH1 0x0 DUP1 REVERT JUMPDEST DUP2 PUSH1 0x20 DUP6 ADD PUSH1 0x20 DUP4 ADD CALLDATACOPY PUSH1 0x0 SWAP2 DUP2 ADD PUSH1 0x20 ADD SWAP2 SWAP1 SWAP2 MSTORE SWAP4 SWAP3 POP POP POP JUMP JUMPDEST DUP1 CALLDATALOAD PUSH1 0xFF DUP2 AND DUP2 EQ PUSH3 0x701 JUMPI PUSH1 0x0 DUP1 REVERT JUMPDEST SWAP2 SWAP1 POP JUMP JUMPDEST PUSH1 0x0 DUP1 PUSH1 0x0 DUP1 PUSH1 0x80 DUP6 DUP8 SUB SLT ISZERO PUSH3 0x71D JUMPI PUSH1 0x0 DUP1 REVERT JUMPDEST DUP5 CALLDATALOAD PUSH8 0xFFFFFFFFFFFFFFFF DUP1 DUP3 GT ISZERO PUSH3 0x736 JUMPI PUSH1 0x0 DUP1 REVERT JUMPDEST PUSH3 0x744 DUP9 DUP4 DUP10 ADD PUSH3 0x678 JUMP JUMPDEST SWAP6 POP PUSH1 0x20 DUP8 ADD CALLDATALOAD SWAP2 POP DUP1 DUP3 GT ISZERO PUSH3 0x75B JUMPI PUSH1 0x0 DUP1 REVERT JUMPDEST POP PUSH3 0x76A DUP8 DUP3 DUP9 ADD PUSH3 0x678 JUMP JUMPDEST SWAP4 POP POP PUSH3 0x77B PUSH1 0x40 DUP7 ADD PUSH3 0x6EF JUMP JUMPDEST SWAP4 SWAP7 SWAP3 SWAP6 POP SWAP3 SWAP4 PUSH1 0x60 ADD CALLDATALOAD SWAP3 POP POP JUMP JUMPDEST PUSH1 0x0 PUSH1 0x20 DUP3 DUP5 SUB SLT ISZERO PUSH3 0x79E JUMPI PUSH1 0x0 DUP1 REVERT JUMPDEST POP CALLDATALOAD SWAP2 SWAP1 POP JUMP JUMPDEST PUSH1 0x0 PUSH1 0x20 DUP1 DUP4 DUP6 SUB SLT ISZERO PUSH3 0x7B9 JUMPI PUSH1 0x0 DUP1 REVERT JUMPDEST DUP3 CALLDATALOAD PUSH8 0xFFFFFFFFFFFFFFFF DUP1 DUP3 GT ISZERO PUSH3 0x7D2 JUMPI PUSH1 0x0 DUP1 REVERT JUMPDEST DUP2 DUP6 ADD SWAP2 POP DUP6 PUSH1 0x1F DUP4 ADD SLT PUSH3 0x7E7 JUMPI PUSH1 0x0 DUP1 REVERT JUMPDEST DUP2 CALLDATALOAD DUP2 DUP2 GT ISZERO PUSH3 0x7FC JUMPI PUSH3 0x7FC PUSH3 0x62E JUMP JUMPDEST DUP1 PUSH1 0x5 SHL SWAP2 POP PUSH3 0x80F DUP5 DUP4 ADD PUSH3 0x644 JUMP JUMPDEST DUP2 DUP2 MSTORE SWAP2 DUP4 ADD DUP5 ADD SWAP2 DUP5 DUP2 ADD SWAP1 DUP9 DUP5 GT ISZERO PUSH3 0x82A JUMPI PUSH1 0x0 DUP1 REVERT JUMPDEST SWAP4 DUP6 ADD SWAP4 JUMPDEST DUP4 DUP6 LT ISZERO PUSH3 0x864 JUMPI DUP5 CALLDATALOAD SWAP3 POP PUSH1 0x1 PUSH1 0x1 PUSH1 0xA0 SHL SUB DUP4 AND DUP4 EQ PUSH3 0x853 JUMPI PUSH1 0x0 DUP1 DUP2 REVERT JUMPDEST DUP3 DUP3 MSTORE SWAP4 DUP6 ADD SWAP4 SWAP1 DUP6 ADD SWAP1 PUSH3 0x82F JUMP JUMPDEST SWAP9 SWAP8 POP POP POP POP POP POP POP POP JUMP JUMPDEST PUSH1 0x0 DUP1 PUSH1 0x0 DUP1 PUSH1 0x0 PUSH1 0xA0 DUP7 DUP9 SUB SLT ISZERO PUSH3 0x889 JUMPI PUSH1 0x0 DUP1 REVERT JUMPDEST DUP6 CALLDATALOAD PUSH8 0xFFFFFFFFFFFFFFFF DUP1 DUP3 GT ISZERO PUSH3 0x8A2 JUMPI PUSH1 0x0 DUP1 REVERT JUMPDEST PUSH3 0x8B0 DUP10 DUP4 DUP11 ADD PUSH3 0x678 JUMP JUMPDEST SWAP7 POP PUSH1 0x20 DUP9 ADD CALLDATALOAD SWAP2 POP DUP1 DUP3 GT ISZERO PUSH3 0x8C7 JUMPI PUSH1 0x0 DUP1 REVERT JUMPDEST PUSH3 0x8D5 DUP10 DUP4 DUP11 ADD PUSH3 0x678 JUMP JUMPDEST SWAP6 POP PUSH1 0x40 DUP9 ADD CALLDATALOAD SWAP2 POP DUP1 DUP3 GT ISZERO PUSH3 0x8EC JUMPI PUSH1 0x0 DUP1 REVERT JUMPDEST POP PUSH3 0x8FB DUP9 DUP3 DUP10 ADD PUSH3 0x678 JUMP JUMPDEST SWAP4 POP POP PUSH3 0x90C PUSH1 0x60 DUP8 ADD PUSH3 0x6EF JUMP JUMPDEST SWAP5 SWAP8 SWAP4 SWAP7 POP SWAP2 SWAP5 PUSH1 0x80 ADD CALLDATALOAD SWAP3 SWAP2 POP POP JUMP JUMPDEST PUSH1 0x20 DUP1 DUP3 MSTORE DUP3 MLOAD DUP3 DUP3 ADD DUP2 SWAP1 MSTORE PUSH1 0x0 SWAP2 SWAP1 DUP5 DUP3 ADD SWAP1 PUSH1 0x40 DUP6 ADD SWAP1 DUP5 JUMPDEST DUP2 DUP2 LT ISZERO PUSH3 0x960 JUMPI DUP4 MLOAD PUSH1 0x1 PUSH1 0x1 PUSH1 0xA0 SHL SUB AND DUP4 MSTORE SWAP3 DUP5 ADD SWAP3 SWAP2 DUP5 ADD SWAP2 PUSH1 0x1 ADD PUSH3 0x939 JUMP JUMPDEST POP SWAP1 SWAP7 SWAP6 POP POP POP POP POP POP JUMP JUMPDEST PUSH1 0x0 DUP2 MLOAD DUP1 DUP5 MSTORE PUSH1 0x0 JUMPDEST DUP2 DUP2 LT ISZERO PUSH3 0x994 JUMPI PUSH1 0x20 DUP2 DUP6 ADD DUP2 ADD MLOAD DUP7 DUP4 ADD DUP3 ADD MSTORE ADD PUSH3 0x976 JUMP JUMPDEST POP PUSH1 0x0 PUSH1 0x20 DUP3 DUP7 ADD ADD MSTORE PUSH1 0x20 PUSH1 0x1F NOT PUSH1 0x1F DUP4 ADD AND DUP6 ADD ADD SWAP2 POP POP SWAP3 SWAP2 POP POP JUMP JUMPDEST PUSH1 0xC0 DUP2 MSTORE PUSH1 0x0 PUSH3 0x9C9 PUSH1 0xC0 DUP4 ADD DUP10 PUSH3 0x96C JUMP JUMPDEST PUSH1 0x20 DUP4 DUP3 SUB DUP2 DUP6 ADD MSTORE PUSH3 0x9DE DUP3 DUP11 PUSH3 0x96C JUMP JUMPDEST PUSH1 0xFF DUP10 AND PUSH1 0x40 DUP7 ADD MSTORE PUSH1 0x60 DUP6 ADD DUP9 SWAP1 MSTORE PUSH1 0x1 PUSH1 0x1 PUSH1 0xA0 SHL SUB DUP8 DUP2 AND PUSH1 0x80 DUP8 ADD MSTORE DUP6 DUP3 SUB PUSH1 0xA0 DUP8 ADD MSTORE DUP7 SLOAD DUP1 DUP4 MSTORE PUSH1 0x0 DUP9 DUP2 MSTORE DUP5 DUP2 KECCAK256 SWAP6 POP SWAP2 SWAP3 DUP5 ADD SWAP2 JUMPDEST DUP2 DUP2 LT ISZERO PUSH3 0xA3B JUMPI DUP6 SLOAD DUP5 AND DUP4 MSTORE PUSH1 0x1 SWAP6 DUP7 ADD SWAP6 SWAP3 DUP6 ADD SWAP3 ADD PUSH3 0xA1B JUMP JUMPDEST POP SWAP1 SWAP13 SWAP12 POP POP POP POP POP POP POP POP POP POP POP POP JUMP JUMPDEST PUSH1 0x1 PUSH1 0x1 PUSH1 0xA0 SHL SUB DUP6 AND DUP2 MSTORE PUSH1 0xA0 PUSH1 0x20 DUP3 ADD DUP2 SWAP1 MSTORE PUSH1 0x0 SWAP1 PUSH3 0xA73 SWAP1 DUP4 ADD DUP7 PUSH3 0x96C JUMP JUMPDEST DUP3 DUP2 SUB PUSH1 0x40 DUP5 ADD MSTORE PUSH1 0x5 DUP2 MSTORE PUSH5 0x7072696365 PUSH1 0xD8 SHL PUSH1 0x20 DUP3 ADD MSTORE PUSH1 0x40 DUP2 ADD SWAP2 POP POP DUP4 PUSH1 0x60 DUP4 ADD MSTORE PUSH1 0xFF DUP4 AND PUSH1 0x80 DUP4 ADD MSTORE SWAP6 SWAP5 POP POP POP POP POP JUMP JUMPDEST PUSH1 0x40 DUP2 MSTORE PUSH1 0x0 PUSH3 0xAC1 PUSH1 0x40 DUP4 ADD DUP6 PUSH3 0x96C JUMP JUMPDEST DUP3 DUP2 SUB PUSH1 0x20 DUP5 ADD MSTORE PUSH3 0xAD5 DUP2 DUP6 PUSH3 0x96C JUMP JUMPDEST SWAP6 SWAP5 POP POP POP POP POP JUMP JUMPDEST PUSH4 0x4E487B71 PUSH1 0xE0 SHL PUSH1 0x0 MSTORE PUSH1 0x32 PUSH1 0x4 MSTORE PUSH1 0x24 PUSH1 0x0 REVERT JUMPDEST PUSH1 0x0 PUSH1 0x1 DUP3 ADD PUSH3 0xB15 JUMPI PUSH4 0x4E487B71 PUSH1 0xE0 SHL PUSH1 0x0 MSTORE PUSH1 0x11 PUSH1 0x4 MSTORE PUSH1 0x24 PUSH1 0x0 REVERT JUMPDEST POP PUSH1 0x1 ADD SWAP1 JUMP JUMPDEST PUSH1 0x0 PUSH2 0x160 DUP1 DUP4 MSTORE PUSH3 0xB32 DUP2 DUP5 ADD DUP12 PUSH3 0x96C JUMP JUMPDEST SWAP1 POP PUSH1 0x20 DUP4 DUP3 SUB DUP2 DUP6 ADD MSTORE PUSH3 0xB49 DUP3 DUP12 PUSH3 0x96C JUMP JUMPDEST SWAP2 POP DUP4 DUP3 SUB PUSH1 0x40 DUP6 ADD MSTORE PUSH3 0xB5F DUP3 DUP11 PUSH3 0x96C JUMP JUMPDEST PUSH1 0xFF DUP10 AND PUSH1 0x60 DUP7 ADD MSTORE PUSH1 0x80 DUP6 ADD DUP9 SWAP1 MSTORE PUSH1 0x1 PUSH1 0x1 PUSH1 0xA0 SHL SUB DUP8 DUP2 AND PUSH1 0xA0 DUP8 ADD MSTORE SWAP1 SWAP4 POP SWAP2 POP PUSH1 0xC0 DUP5 ADD DUP6 PUSH1 0x0 JUMPDEST PUSH1 0x5 DUP2 LT ISZERO PUSH3 0xBAD JUMPI DUP2 MLOAD DUP6 AND DUP4 MSTORE SWAP2 DUP4 ADD SWAP2 SWAP1 DUP4 ADD SWAP1 PUSH1 0x1 ADD PUSH3 0xB8C JUMP JUMPDEST POP POP POP POP POP SWAP9 SWAP8 POP POP POP POP POP POP POP POP JUMP JUMPDEST PUSH1 0x1 PUSH1 0x1 PUSH1 0xA0 SHL SUB DUP6 AND DUP2 MSTORE PUSH1 0xA0 PUSH1 0x20 DUP3 ADD DUP2 SWAP1 MSTORE PUSH1 0x0 SWAP1 PUSH3 0xBE4 SWAP1 DUP4 ADD DUP7 PUSH3 0x96C JUMP JUMPDEST DUP3 DUP2 SUB PUSH1 0x40 DUP5 ADD MSTORE PUSH1 0x9 DUP2 MSTORE PUSH9 0x3330B931B0B9BA32B9 PUSH1 0xB9 SHL PUSH1 0x20 DUP3 ADD MSTORE PUSH1 0x40 DUP2 ADD SWAP2 POP POP DUP4 PUSH1 0x60 DUP4 ADD MSTORE PUSH1 0xFF DUP4 AND PUSH1 0x80 DUP4 ADD MSTORE SWAP6 SWAP5 POP POP POP POP POP JUMP INVALID PUSH1 0x80 PUSH1 0x40 MSTORE CALLVALUE DUP1 ISZERO PUSH3 0x11 JUMPI PUSH1 0x0 DUP1 REVERT JUMPDEST POP PUSH1 0x40 MLOAD PUSH3 0x17F7 CODESIZE SUB DUP1 PUSH3 0x17F7 DUP4 CODECOPY DUP2 ADD PUSH1 0x40 DUP2 SWAP1 MSTORE PUSH3 0x34 SWAP2 PUSH3 0x3ED JUMP JUMPDEST PUSH1 0x1 DUP1 SSTORE PUSH1 0x33 PUSH1 0xFF DUP6 AND LT DUP1 ISZERO SWAP1 PUSH3 0x51 JUMPI POP PUSH1 0x64 DUP5 PUSH1 0xFF AND GT ISZERO JUMPDEST PUSH3 0x97 JUMPI PUSH1 0x40 MLOAD PUSH3 0x461BCD PUSH1 0xE5 SHL DUP2 MSTORE PUSH1 0x20 PUSH1 0x4 DUP3 ADD MSTORE PUSH1 0x11 PUSH1 0x24 DUP3 ADD MSTORE PUSH17 0x125B9D985B1A59081D1A1C995CDA1BDB19 PUSH1 0x7A SHL PUSH1 0x44 DUP3 ADD MSTORE PUSH1 0x64 ADD JUMPDEST PUSH1 0x40 MLOAD DUP1 SWAP2 SUB SWAP1 REVERT JUMPDEST PUSH1 0x0 DUP2 MLOAD GT PUSH3 0xDC JUMPI PUSH1 0x40 MLOAD PUSH3 0x461BCD PUSH1 0xE5 SHL DUP2 MSTORE PUSH1 0x20 PUSH1 0x4 DUP3 ADD MSTORE PUSH1 0xF PUSH1 0x24 DUP3 ADD MSTORE PUSH15 0x4E6565642076616C696461746F7273 PUSH1 0x88 SHL PUSH1 0x44 DUP3 ADD MSTORE PUSH1 0x64 ADD PUSH3 0x8E JUMP JUMPDEST PUSH1 0x2 PUSH3 0xEA DUP8 DUP3 PUSH3 0x545 JUMP JUMPDEST POP PUSH1 0x3 PUSH3 0xF9 DUP7 DUP3 PUSH3 0x545 JUMP JUMPDEST POP PUSH1 0x4 DUP1 SLOAD PUSH1 0xFF NOT AND PUSH1 0xFF DUP7 AND OR SWAP1 SSTORE PUSH1 0x5 DUP4 SWAP1 SSTORE PUSH1 0x6 DUP1 SLOAD PUSH1 0x1 PUSH1 0x1 PUSH1 0xA0 SHL SUB NOT AND PUSH1 0x1 PUSH1 0x1 PUSH1 0xA0 SHL SUB DUP5 AND OR SWAP1 SSTORE PUSH1 0x1 PUSH1 0xC SSTORE PUSH3 0x13B PUSH1 0x0 CALLER PUSH3 0x1BA JUMP JUMPDEST POP PUSH1 0x0 JUMPDEST DUP2 MLOAD DUP2 LT ISZERO PUSH3 0x1AD JUMPI PUSH3 0x197 PUSH32 0x21702C8AF46127C7FA207F89D0B0A8441BB32959A0AC7DF790E9AB1A25C98926 DUP4 DUP4 DUP2 MLOAD DUP2 LT PUSH3 0x183 JUMPI PUSH3 0x183 PUSH3 0x611 JUMP JUMPDEST PUSH1 0x20 MUL PUSH1 0x20 ADD ADD MLOAD PUSH3 0x1BA PUSH1 0x20 SHL PUSH1 0x20 SHR JUMP JUMPDEST POP DUP1 PUSH3 0x1A4 DUP2 PUSH3 0x627 JUMP JUMPDEST SWAP2 POP POP PUSH3 0x13F JUMP JUMPDEST POP POP POP POP POP POP POP PUSH3 0x64F JUMP JUMPDEST PUSH1 0x0 DUP3 DUP2 MSTORE PUSH1 0x20 DUP2 DUP2 MSTORE PUSH1 0x40 DUP1 DUP4 KECCAK256 PUSH1 0x1 PUSH1 0x1 PUSH1 0xA0 SHL SUB DUP6 AND DUP5 MSTORE SWAP1 SWAP2 MSTORE DUP2 KECCAK256 SLOAD PUSH1 0xFF AND PUSH3 0x25F JUMPI PUSH1 0x0 DUP4 DUP2 MSTORE PUSH1 0x20 DUP2 DUP2 MSTORE PUSH1 0x40 DUP1 DUP4 KECCAK256 PUSH1 0x1 PUSH1 0x1 PUSH1 0xA0 SHL SUB DUP7 AND DUP5 MSTORE SWAP1 SWAP2 MSTORE SWAP1 KECCAK256 DUP1 SLOAD PUSH1 0xFF NOT AND PUSH1 0x1 OR SWAP1 SSTORE PUSH3 0x216 CALLER SWAP1 JUMP JUMPDEST PUSH1 0x1 PUSH1 0x1 PUSH1 0xA0 SHL SUB AND DUP3 PUSH1 0x1 PUSH1 0x1 PUSH1 0xA0 SHL SUB AND DUP5 PUSH32 0x2F8788117E7EFF1D82E926EC794901D17C78024A50270940304540A733656F0D PUSH1 0x40 MLOAD PUSH1 0x40 MLOAD DUP1 SWAP2 SUB SWAP1 LOG4 POP PUSH1 0x1 PUSH3 0x263 JUMP JUMPDEST POP PUSH1 0x0 JUMPDEST SWAP3 SWAP2 POP POP JUMP JUMPDEST PUSH4 0x4E487B71 PUSH1 0xE0 SHL PUSH1 0x0 MSTORE PUSH1 0x41 PUSH1 0x4 MSTORE PUSH1 0x24 PUSH1 0x0 REVERT JUMPDEST PUSH1 0x40 MLOAD PUSH1 0x1F DUP3 ADD PUSH1 0x1F NOT AND DUP2 ADD PUSH1 0x1 PUSH1 0x1 PUSH1 0x40 SHL SUB DUP2 GT DUP3 DUP3 LT OR ISZERO PUSH3 0x2AA JUMPI PUSH3 0x2AA PUSH3 0x269 JUMP JUMPDEST PUSH1 0x40 MSTORE SWAP2 SWAP1 POP JUMP JUMPDEST PUSH1 0x0 DUP3 PUSH1 0x1F DUP4 ADD SLT PUSH3 0x2C4 JUMPI PUSH1 0x0 DUP1 REVERT JUMPDEST DUP2 MLOAD PUSH1 0x1 PUSH1 0x1 PUSH1 0x40 SHL SUB DUP2 GT ISZERO PUSH3 0x2E0 JUMPI PUSH3 0x2E0 PUSH3 0x269 JUMP JUMPDEST PUSH1 0x20 PUSH3 0x2F6 PUSH1 0x1F DUP4 ADD PUSH1 0x1F NOT AND DUP3 ADD PUSH3 0x27F JUMP JUMPDEST DUP3 DUP2 MSTORE DUP6 DUP3 DUP5 DUP8 ADD ADD GT ISZERO PUSH3 0x30B JUMPI PUSH1 0x0 DUP1 REVERT JUMPDEST PUSH1 0x0 JUMPDEST DUP4 DUP2 LT ISZERO PUSH3 0x32B JUMPI DUP6 DUP2 ADD DUP4 ADD MLOAD DUP3 DUP3 ADD DUP5 ADD MSTORE DUP3 ADD PUSH3 0x30E JUMP JUMPDEST POP PUSH1 0x0 SWAP3 DUP2 ADD SWAP1 SWAP2 ADD SWAP2 SWAP1 SWAP2 MSTORE SWAP4 SWAP3 POP POP POP JUMP JUMPDEST DUP1 MLOAD PUSH1 0x1 PUSH1 0x1 PUSH1 0xA0 SHL SUB DUP2 AND DUP2 EQ PUSH3 0x357 JUMPI PUSH1 0x0 DUP1 REVERT JUMPDEST SWAP2 SWAP1 POP JUMP JUMPDEST PUSH1 0x0 DUP3 PUSH1 0x1F DUP4 ADD SLT PUSH3 0x36E JUMPI PUSH1 0x0 DUP1 REVERT JUMPDEST DUP2 MLOAD PUSH1 0x20 PUSH1 0x1 PUSH1 0x1 PUSH1 0x40 SHL SUB DUP3 GT ISZERO PUSH3 0x38C JUMPI PUSH3 0x38C PUSH3 0x269 JUMP JUMPDEST DUP2 PUSH1 0x5 SHL PUSH3 0x39D DUP3 DUP3 ADD PUSH3 0x27F JUMP JUMPDEST SWAP3 DUP4 MSTORE DUP5 DUP2 ADD DUP3 ADD SWAP3 DUP3 DUP2 ADD SWAP1 DUP8 DUP6 GT ISZERO PUSH3 0x3B8 JUMPI PUSH1 0x0 DUP1 REVERT JUMPDEST DUP4 DUP8 ADD SWAP3 POP JUMPDEST DUP5 DUP4 LT ISZERO PUSH3 0x3E2 JUMPI PUSH3 0x3D2 DUP4 PUSH3 0x33F JUMP JUMPDEST DUP3 MSTORE SWAP2 DUP4 ADD SWAP2 SWAP1 DUP4 ADD SWAP1 PUSH3 0x3BE JUMP JUMPDEST SWAP8 SWAP7 POP POP POP POP POP POP POP JUMP JUMPDEST PUSH1 0x0 DUP1 PUSH1 0x0 DUP1 PUSH1 0x0 DUP1 PUSH1 0xC0 DUP8 DUP10 SUB SLT ISZERO PUSH3 0x407 JUMPI PUSH1 0x0 DUP1 REVERT JUMPDEST DUP7 MLOAD PUSH1 0x1 PUSH1 0x1 PUSH1 0x40 SHL SUB DUP1 DUP3 GT ISZERO PUSH3 0x41F JUMPI PUSH1 0x0 DUP1 REVERT JUMPDEST PUSH3 0x42D DUP11 DUP4 DUP12 ADD PUSH3 0x2B2 JUMP JUMPDEST SWAP8 POP PUSH1 0x20 DUP10 ADD MLOAD SWAP2 POP DUP1 DUP3 GT ISZERO PUSH3 0x444 JUMPI PUSH1 0x0 DUP1 REVERT JUMPDEST PUSH3 0x452 DUP11 DUP4 DUP12 ADD PUSH3 0x2B2 JUMP JUMPDEST SWAP7 POP PUSH1 0x40 DUP10 ADD MLOAD SWAP2 POP PUSH1 0xFF DUP3 AND DUP3 EQ PUSH3 0x46B JUMPI PUSH1 0x0 DUP1 REVERT JUMPDEST DUP2 SWAP6 POP PUSH1 0x60 DUP10 ADD MLOAD SWAP5 POP PUSH3 0x483 PUSH1 0x80 DUP11 ADD PUSH3 0x33F JUMP JUMPDEST SWAP4 POP PUSH1 0xA0 DUP10 ADD MLOAD SWAP2 POP DUP1 DUP3 GT ISZERO PUSH3 0x49A JUMPI PUSH1 0x0 DUP1 REVERT JUMPDEST POP PUSH3 0x4A9 DUP10 DUP3 DUP11 ADD PUSH3 0x35C JUMP JUMPDEST SWAP2 POP POP SWAP3 SWAP6 POP SWAP3 SWAP6 POP SWAP3 SWAP6 JUMP JUMPDEST PUSH1 0x1 DUP2 DUP2 SHR SWAP1 DUP3 AND DUP1 PUSH3 0x4CB JUMPI PUSH1 0x7F DUP3 AND SWAP2 POP JUMPDEST PUSH1 0x20 DUP3 LT DUP2 SUB PUSH3 0x4EC JUMPI PUSH4 0x4E487B71 PUSH1 0xE0 SHL PUSH1 0x0 MSTORE PUSH1 0x22 PUSH1 0x4 MSTORE PUSH1 0x24 PUSH1 0x0 REVERT JUMPDEST POP SWAP2 SWAP1 POP JUMP JUMPDEST PUSH1 0x1F DUP3 GT ISZERO PUSH3 0x540 JUMPI PUSH1 0x0 DUP2 DUP2 MSTORE PUSH1 0x20 DUP2 KECCAK256 PUSH1 0x1F DUP6 ADD PUSH1 0x5 SHR DUP2 ADD PUSH1 0x20 DUP7 LT ISZERO PUSH3 0x51B JUMPI POP DUP1 JUMPDEST PUSH1 0x1F DUP6 ADD PUSH1 0x5 SHR DUP3 ADD SWAP2 POP JUMPDEST DUP2 DUP2 LT ISZERO PUSH3 0x53C JUMPI DUP3 DUP2 SSTORE PUSH1 0x1 ADD PUSH3 0x527 JUMP JUMPDEST POP POP POP JUMPDEST POP POP POP JUMP JUMPDEST DUP2 MLOAD PUSH1 0x1 PUSH1 0x1 PUSH1 0x40 SHL SUB DUP2 GT ISZERO PUSH3 0x561 JUMPI PUSH3 0x561 PUSH3 0x269 JUMP JUMPDEST PUSH3 0x579 DUP2 PUSH3 0x572 DUP5 SLOAD PUSH3 0x4B6 JUMP JUMPDEST DUP5 PUSH3 0x4F2 JUMP JUMPDEST PUSH1 0x20 DUP1 PUSH1 0x1F DUP4 GT PUSH1 0x1 DUP2 EQ PUSH3 0x5B1 JUMPI PUSH1 0x0 DUP5 ISZERO PUSH3 0x598 JUMPI POP DUP6 DUP4 ADD MLOAD JUMPDEST PUSH1 0x0 NOT PUSH1 0x3 DUP7 SWAP1 SHL SHR NOT AND PUSH1 0x1 DUP6 SWAP1 SHL OR DUP6 SSTORE PUSH3 0x53C JUMP JUMPDEST PUSH1 0x0 DUP6 DUP2 MSTORE PUSH1 0x20 DUP2 KECCAK256 PUSH1 0x1F NOT DUP7 AND SWAP2 JUMPDEST DUP3 DUP2 LT ISZERO PUSH3 0x5E2 JUMPI DUP9 DUP7 ADD MLOAD DUP3 SSTORE SWAP5 DUP5 ADD SWAP5 PUSH1 0x1 SWAP1 SWAP2 ADD SWAP1 DUP5 ADD PUSH3 0x5C1 JUMP JUMPDEST POP DUP6 DUP3 LT ISZERO PUSH3 0x601 JUMPI DUP8 DUP6 ADD MLOAD PUSH1 0x0 NOT PUSH1 0x3 DUP9 SWAP1 SHL PUSH1 0xF8 AND SHR NOT AND DUP2 SSTORE JUMPDEST POP POP POP POP POP PUSH1 0x1 SWAP1 DUP2 SHL ADD SWAP1 SSTORE POP JUMP JUMPDEST PUSH4 0x4E487B71 PUSH1 0xE0 SHL PUSH1 0x0 MSTORE PUSH1 0x32 PUSH1 0x4 MSTORE PUSH1 0x24 PUSH1 0x0 REVERT JUMPDEST PUSH1 0x0 PUSH1 0x1 DUP3 ADD PUSH3 0x648 JUMPI PUSH4 0x4E487B71 PUSH1 0xE0 SHL PUSH1 0x0 MSTORE PUSH1 0x11 PUSH1 0x4 MSTORE PUSH1 0x24 PUSH1 0x0 REVERT JUMPDEST POP PUSH1 0x1 ADD SWAP1 JUMP JUMPDEST PUSH2 0x1198 DUP1 PUSH3 0x65F PUSH1 0x0 CODECOPY PUSH1 0x0 RETURN INVALID PUSH1 0x80 PUSH1 0x40 MSTORE CALLVALUE DUP1 ISZERO PUSH2 0x10 JUMPI PUSH1 0x0 DUP1 REVERT JUMPDEST POP PUSH1 0x4 CALLDATASIZE LT PUSH2 0x158 JUMPI PUSH1 0x0 CALLDATALOAD PUSH1 0xE0 SHR DUP1 PUSH4 0x8A19C8BC GT PUSH2 0xC3 JUMPI DUP1 PUSH4 0xA57D3806 GT PUSH2 0x7C JUMPI DUP1 PUSH4 0xA57D3806 EQ PUSH2 0x306 JUMPI DUP1 PUSH4 0xC49BAEBE EQ PUSH2 0x334 JUMPI DUP1 PUSH4 0xC8F33C91 EQ PUSH2 0x349 JUMPI DUP1 PUSH4 0xD547741F EQ PUSH2 0x352 JUMPI DUP1 PUSH4 0xF9B0B5B9 EQ PUSH2 0x365 JUMPI DUP1 PUSH4 0xFE9BD8CC EQ PUSH2 0x384 JUMPI PUSH1 0x0 DUP1 REVERT JUMPDEST DUP1 PUSH4 0x8A19C8BC EQ PUSH2 0x29F JUMPI DUP1 PUSH4 0x8E15F473 EQ PUSH2 0x2A8 JUMPI DUP1 PUSH4 0x91D14854 EQ PUSH2 0x2CE JUMPI DUP1 PUSH4 0x95D89B41 EQ PUSH2 0x2E1 JUMPI DUP1 PUSH4 0xA217FDDF EQ PUSH2 0x2E9 JUMPI DUP1 PUSH4 0xA3E6BA94 EQ PUSH2 0x2F1 JUMPI PUSH1 0x0 DUP1 REVERT JUMPDEST DUP1 PUSH4 0x36568ABE GT PUSH2 0x115 JUMPI DUP1 PUSH4 0x36568ABE EQ PUSH2 0x21F JUMPI DUP1 PUSH4 0x40A141FF EQ PUSH2 0x232 JUMPI DUP1 PUSH4 0x4D238C8E EQ PUSH2 0x245 JUMPI DUP1 PUSH4 0x6306D874 EQ PUSH2 0x258 JUMPI DUP1 PUSH4 0x673EA086 EQ PUSH2 0x26B JUMPI DUP1 PUSH4 0x7B103999 EQ PUSH2 0x274 JUMPI PUSH1 0x0 DUP1 REVERT JUMPDEST DUP1 PUSH4 0x1FFC9A7 EQ PUSH2 0x15D JUMPI DUP1 PUSH4 0x6FDDE03 EQ PUSH2 0x185 JUMPI DUP1 PUSH4 0x21768FBE EQ PUSH2 0x19A JUMPI DUP1 PUSH4 0x248A9CA3 EQ PUSH2 0x1D1 JUMPI DUP1 PUSH4 0x2F2FF15D EQ PUSH2 0x202 JUMPI DUP1 PUSH4 0x346C9409 EQ PUSH2 0x217 JUMPI JUMPDEST PUSH1 0x0 DUP1 REVERT JUMPDEST PUSH2 0x170 PUSH2 0x16B CALLDATASIZE PUSH1 0x4 PUSH2 0xE99 JUMP JUMPDEST PUSH2 0x399 JUMP JUMPDEST PUSH1 0x40 MLOAD SWAP1 ISZERO ISZERO DUP2 MSTORE PUSH1 0x20 ADD JUMPDEST PUSH1 0x40 MLOAD DUP1 SWAP2 SUB SWAP1 RETURN JUMPDEST PUSH2 0x18D PUSH2 0x3D0 JUMP JUMPDEST PUSH1 0x40 MLOAD PUSH2 0x17C SWAP2 SWAP1 PUSH2 0xECA JUMP JUMPDEST PUSH2 0x1AD PUSH2 0x1A8 CALLDATASIZE PUSH1 0x4 PUSH2 0xF18 JUMP JUMPDEST PUSH2 0x45E JUMP JUMPDEST PUSH1 0x40 DUP1 MLOAD SWAP4 DUP5 MSTORE PUSH1 0x20 DUP5 ADD SWAP3 SWAP1 SWAP3 MSTORE PUSH1 0x1 PUSH1 0x1 PUSH1 0xA0 SHL SUB AND SWAP1 DUP3 ADD MSTORE PUSH1 0x60 ADD PUSH2 0x17C JUMP JUMPDEST PUSH2 0x1F4 PUSH2 0x1DF CALLDATASIZE PUSH1 0x4 PUSH2 0xF3A JUMP JUMPDEST PUSH1 0x0 SWAP1 DUP2 MSTORE PUSH1 0x20 DUP2 SWAP1 MSTORE PUSH1 0x40 SWAP1 KECCAK256 PUSH1 0x1 ADD SLOAD SWAP1 JUMP JUMPDEST PUSH1 0x40 MLOAD SWAP1 DUP2 MSTORE PUSH1 0x20 ADD PUSH2 0x17C JUMP JUMPDEST PUSH2 0x215 PUSH2 0x210 CALLDATASIZE PUSH1 0x4 PUSH2 0xF6F JUMP JUMPDEST PUSH2 0x4A9 JUMP JUMPDEST STOP JUMPDEST PUSH2 0x170 PUSH2 0x4D4 JUMP JUMPDEST PUSH2 0x215 PUSH2 0x22D CALLDATASIZE PUSH1 0x4 PUSH2 0xF6F JUMP JUMPDEST PUSH2 0x4EE JUMP JUMPDEST PUSH2 0x215 PUSH2 0x240 CALLDATASIZE PUSH1 0x4 PUSH2 0xF9B JUMP JUMPDEST PUSH2 0x526 JUMP JUMPDEST PUSH2 0x215 PUSH2 0x253 CALLDATASIZE PUSH1 0x4 PUSH2 0xF9B JUMP JUMPDEST PUSH2 0x549 JUMP JUMPDEST PUSH2 0x215 PUSH2 0x266 CALLDATASIZE PUSH1 0x4 PUSH2 0xFB6 JUMP JUMPDEST PUSH2 0x56C JUMP JUMPDEST PUSH2 0x1F4 PUSH1 0x5 SLOAD DUP2 JUMP JUMPDEST PUSH1 0x6 SLOAD PUSH2 0x287 SWAP1 PUSH1 0x1 PUSH1 0x1 PUSH1 0xA0 SHL SUB AND DUP2 JUMP JUMPDEST PUSH1 0x40 MLOAD PUSH1 0x1 PUSH1 0x1 PUSH1 0xA0 SHL SUB SWAP1 SWAP2 AND DUP2 MSTORE PUSH1 0x20 ADD PUSH2 0x17C JUMP JUMPDEST PUSH2 0x1F4 PUSH1 0xC SLOAD DUP2 JUMP JUMPDEST PUSH2 0x2B0 PUSH2 0x710 JUMP JUMPDEST PUSH1 0x40 DUP1 MLOAD SWAP4 DUP5 MSTORE PUSH1 0x20 DUP5 ADD SWAP3 SWAP1 SWAP3 MSTORE PUSH1 0xFF AND SWAP1 DUP3 ADD MSTORE PUSH1 0x60 ADD PUSH2 0x17C JUMP JUMPDEST PUSH2 0x170 PUSH2 0x2DC CALLDATASIZE PUSH1 0x4 PUSH2 0xF6F JUMP JUMPDEST PUSH2 0x781 JUMP JUMPDEST PUSH2 0x18D PUSH2 0x7AA JUMP JUMPDEST PUSH2 0x1F4 PUSH1 0x0 DUP2 JUMP JUMPDEST PUSH1 0x7 SLOAD PUSH1 0x8 SLOAD PUSH1 0x9 SLOAD PUSH2 0x2B0 SWAP3 SWAP2 SWAP1 PUSH1 0xFF AND DUP4 JUMP JUMPDEST PUSH2 0x170 PUSH2 0x314 CALLDATASIZE PUSH1 0x4 PUSH2 0xF6F JUMP JUMPDEST PUSH1 0xB PUSH1 0x20 SWAP1 DUP2 MSTORE PUSH1 0x0 SWAP3 DUP4 MSTORE PUSH1 0x40 DUP1 DUP5 KECCAK256 SWAP1 SWAP2 MSTORE SWAP1 DUP3 MSTORE SWAP1 KECCAK256 SLOAD PUSH1 0xFF AND DUP2 JUMP JUMPDEST PUSH2 0x1F4 PUSH1 0x0 DUP1 MLOAD PUSH1 0x20 PUSH2 0x1143 DUP4 CODECOPY DUP2 MLOAD SWAP2 MSTORE DUP2 JUMP JUMPDEST PUSH2 0x1F4 PUSH1 0xD SLOAD DUP2 JUMP JUMPDEST PUSH2 0x215 PUSH2 0x360 CALLDATASIZE PUSH1 0x4 PUSH2 0xF6F JUMP JUMPDEST PUSH2 0x7B7 JUMP JUMPDEST PUSH1 0x4 SLOAD PUSH2 0x372 SWAP1 PUSH1 0xFF AND DUP2 JUMP JUMPDEST PUSH1 0x40 MLOAD PUSH1 0xFF SWAP1 SWAP2 AND DUP2 MSTORE PUSH1 0x20 ADD PUSH2 0x17C JUMP JUMPDEST PUSH2 0x38C PUSH2 0x7DC JUMP JUMPDEST PUSH1 0x40 MLOAD PUSH2 0x17C SWAP2 SWAP1 PUSH2 0xFEC JUMP JUMPDEST PUSH1 0x0 PUSH1 0x1 PUSH1 0x1 PUSH1 0xE0 SHL SUB NOT DUP3 AND PUSH4 0x7965DB0B PUSH1 0xE0 SHL EQ DUP1 PUSH2 0x3CA JUMPI POP PUSH4 0x1FFC9A7 PUSH1 0xE0 SHL PUSH1 0x1 PUSH1 0x1 PUSH1 0xE0 SHL SUB NOT DUP4 AND EQ JUMPDEST SWAP3 SWAP2 POP POP JUMP JUMPDEST PUSH1 0x2 DUP1 SLOAD PUSH2 0x3DD SWAP1 PUSH2 0x104E JUMP JUMPDEST DUP1 PUSH1 0x1F ADD PUSH1 0x20 DUP1 SWAP2 DIV MUL PUSH1 0x20 ADD PUSH1 0x40 MLOAD SWAP1 DUP2 ADD PUSH1 0x40 MSTORE DUP1 SWAP3 SWAP2 SWAP1 DUP2 DUP2 MSTORE PUSH1 0x20 ADD DUP3 DUP1 SLOAD PUSH2 0x409 SWAP1 PUSH2 0x104E JUMP JUMPDEST DUP1 ISZERO PUSH2 0x456 JUMPI DUP1 PUSH1 0x1F LT PUSH2 0x42B JUMPI PUSH2 0x100 DUP1 DUP4 SLOAD DIV MUL DUP4 MSTORE SWAP2 PUSH1 0x20 ADD SWAP2 PUSH2 0x456 JUMP JUMPDEST DUP3 ADD SWAP2 SWAP1 PUSH1 0x0 MSTORE PUSH1 0x20 PUSH1 0x0 KECCAK256 SWAP1 JUMPDEST DUP2 SLOAD DUP2 MSTORE SWAP1 PUSH1 0x1 ADD SWAP1 PUSH1 0x20 ADD DUP1 DUP4 GT PUSH2 0x439 JUMPI DUP3 SWAP1 SUB PUSH1 0x1F AND DUP3 ADD SWAP2 JUMPDEST POP POP POP POP POP DUP2 JUMP JUMPDEST PUSH1 0xA PUSH1 0x20 MSTORE DUP2 PUSH1 0x0 MSTORE PUSH1 0x40 PUSH1 0x0 KECCAK256 DUP2 DUP2 SLOAD DUP2 LT PUSH2 0x47A JUMPI PUSH1 0x0 DUP1 REVERT JUMPDEST PUSH1 0x0 SWAP2 DUP3 MSTORE PUSH1 0x20 SWAP1 SWAP2 KECCAK256 PUSH1 0x3 SWAP1 SWAP2 MUL ADD DUP1 SLOAD PUSH1 0x1 DUP3 ADD SLOAD PUSH1 0x2 SWAP1 SWAP3 ADD SLOAD SWAP1 SWAP4 POP SWAP1 SWAP2 POP PUSH1 0x1 PUSH1 0x1 PUSH1 0xA0 SHL SUB AND DUP4 JUMP JUMPDEST PUSH1 0x0 DUP3 DUP2 MSTORE PUSH1 0x20 DUP2 SWAP1 MSTORE PUSH1 0x40 SWAP1 KECCAK256 PUSH1 0x1 ADD SLOAD PUSH2 0x4C4 DUP2 PUSH2 0x871 JUMP JUMPDEST PUSH2 0x4CE DUP4 DUP4 PUSH2 0x87E JUMP JUMPDEST POP POP POP POP JUMP JUMPDEST PUSH1 0x0 PUSH1 0x5 SLOAD PUSH1 0xD SLOAD PUSH2 0x4E6 SWAP2 SWAP1 PUSH2 0x109E JUMP JUMPDEST TIMESTAMP LT ISZERO SWAP1 POP SWAP1 JUMP JUMPDEST PUSH1 0x1 PUSH1 0x1 PUSH1 0xA0 SHL SUB DUP2 AND CALLER EQ PUSH2 0x517 JUMPI PUSH1 0x40 MLOAD PUSH4 0x334BD919 PUSH1 0xE1 SHL DUP2 MSTORE PUSH1 0x4 ADD PUSH1 0x40 MLOAD DUP1 SWAP2 SUB SWAP1 REVERT JUMPDEST PUSH2 0x521 DUP3 DUP3 PUSH2 0x910 JUMP JUMPDEST POP POP POP JUMP JUMPDEST PUSH1 0x0 PUSH2 0x531 DUP2 PUSH2 0x871 JUMP JUMPDEST PUSH2 0x521 PUSH1 0x0 DUP1 MLOAD PUSH1 0x20 PUSH2 0x1143 DUP4 CODECOPY DUP2 MLOAD SWAP2 MSTORE DUP4 PUSH2 0x910 JUMP JUMPDEST PUSH1 0x0 PUSH2 0x554 DUP2 PUSH2 0x871 JUMP JUMPDEST PUSH2 0x521 PUSH1 0x0 DUP1 MLOAD PUSH1 0x20 PUSH2 0x1143 DUP4 CODECOPY DUP2 MLOAD SWAP2 MSTORE DUP4 PUSH2 0x87E JUMP JUMPDEST PUSH1 0x0 DUP1 MLOAD PUSH1 0x20 PUSH2 0x1143 DUP4 CODECOPY DUP2 MLOAD SWAP2 MSTORE PUSH2 0x584 DUP2 PUSH2 0x871 JUMP JUMPDEST PUSH2 0x58C PUSH2 0x97B JUMP JUMPDEST PUSH1 0x0 DUP4 GT PUSH2 0x5D1 JUMPI PUSH1 0x40 MLOAD PUSH3 0x461BCD PUSH1 0xE5 SHL DUP2 MSTORE PUSH1 0x20 PUSH1 0x4 DUP3 ADD MSTORE PUSH1 0xD PUSH1 0x24 DUP3 ADD MSTORE PUSH13 0x496E76616C6964207072696365 PUSH1 0x98 SHL PUSH1 0x44 DUP3 ADD MSTORE PUSH1 0x64 ADD JUMPDEST PUSH1 0x40 MLOAD DUP1 SWAP2 SUB SWAP1 REVERT JUMPDEST PUSH1 0xC SLOAD PUSH1 0x0 SWAP1 DUP2 MSTORE PUSH1 0xB PUSH1 0x20 SWAP1 DUP2 MSTORE PUSH1 0x40 DUP1 DUP4 KECCAK256 CALLER DUP5 MSTORE SWAP1 SWAP2 MSTORE SWAP1 KECCAK256 SLOAD PUSH1 0xFF AND ISZERO PUSH2 0x632 JUMPI PUSH1 0x40 MLOAD PUSH3 0x461BCD PUSH1 0xE5 SHL DUP2 MSTORE PUSH1 0x20 PUSH1 0x4 DUP3 ADD MSTORE PUSH1 0x11 PUSH1 0x24 DUP3 ADD MSTORE PUSH17 0x105B1C9958591E481CDD589B5A5D1D1959 PUSH1 0x7A SHL PUSH1 0x44 DUP3 ADD MSTORE PUSH1 0x64 ADD PUSH2 0x5C8 JUMP JUMPDEST PUSH1 0x40 DUP1 MLOAD PUSH1 0x60 DUP2 ADD DUP3 MSTORE DUP5 DUP2 MSTORE TIMESTAMP PUSH1 0x20 DUP1 DUP4 ADD SWAP2 DUP3 MSTORE CALLER DUP4 DUP6 ADD DUP2 DUP2 MSTORE PUSH1 0xC DUP1 SLOAD PUSH1 0x0 SWAP1 DUP2 MSTORE PUSH1 0xA DUP6 MSTORE DUP8 DUP2 KECCAK256 DUP1 SLOAD PUSH1 0x1 DUP1 DUP3 ADD DUP4 SSTORE SWAP2 DUP4 MSTORE DUP7 DUP4 KECCAK256 DUP10 MLOAD PUSH1 0x3 SWAP1 SWAP3 MUL ADD SWAP1 DUP2 SSTORE SWAP7 MLOAD DUP8 DUP3 ADD SSTORE SWAP3 MLOAD PUSH1 0x2 SWAP1 SWAP7 ADD DUP1 SLOAD PUSH1 0x1 PUSH1 0x1 PUSH1 0xA0 SHL SUB NOT AND PUSH1 0x1 PUSH1 0x1 PUSH1 0xA0 SHL SUB SWAP1 SWAP8 AND SWAP7 SWAP1 SWAP7 OR SWAP1 SWAP6 SSTORE DUP1 SLOAD DUP6 MSTORE PUSH1 0xB DUP5 MSTORE DUP7 DUP6 KECCAK256 DUP4 DUP7 MSTORE DUP5 MSTORE SWAP4 DUP7 SWAP1 KECCAK256 DUP1 SLOAD PUSH1 0xFF NOT AND SWAP1 SWAP2 OR SWAP1 SSTORE SWAP2 SLOAD DUP5 MLOAD DUP9 DUP2 MSTORE SWAP2 DUP3 ADD MSTORE SWAP2 SWAP3 SWAP1 SWAP2 PUSH32 0xB856642CC40FB1A5399C4C63A6E055952EDAC364712907F58C00983449B398F7 SWAP2 ADD PUSH1 0x40 MLOAD DUP1 SWAP2 SUB SWAP1 LOG2 PUSH2 0x706 DUP4 PUSH2 0x9A5 JUMP JUMPDEST POP PUSH2 0x521 PUSH1 0x1 DUP1 SSTORE JUMP JUMPDEST PUSH1 0x0 DUP1 PUSH1 0x0 DUP1 PUSH1 0x7 PUSH1 0x1 ADD SLOAD GT PUSH2 0x769 JUMPI PUSH1 0x40 MLOAD PUSH3 0x461BCD PUSH1 0xE5 SHL DUP2 MSTORE PUSH1 0x20 PUSH1 0x4 DUP3 ADD MSTORE PUSH1 0x17 PUSH1 0x24 DUP3 ADD MSTORE PUSH32 0x4E6F207072696365206461746120617661696C61626C65000000000000000000 PUSH1 0x44 DUP3 ADD MSTORE PUSH1 0x64 ADD PUSH2 0x5C8 JUMP JUMPDEST POP POP PUSH1 0x7 SLOAD PUSH1 0x8 SLOAD PUSH1 0x9 SLOAD SWAP2 SWAP4 SWAP1 SWAP3 POP PUSH1 0xFF SWAP1 SWAP2 AND SWAP1 JUMP JUMPDEST PUSH1 0x0 SWAP2 DUP3 MSTORE PUSH1 0x20 DUP3 DUP2 MSTORE PUSH1 0x40 DUP1 DUP5 KECCAK256 PUSH1 0x1 PUSH1 0x1 PUSH1 0xA0 SHL SUB SWAP4 SWAP1 SWAP4 AND DUP5 MSTORE SWAP2 SWAP1 MSTORE SWAP1 KECCAK256 SLOAD PUSH1 0xFF AND SWAP1 JUMP JUMPDEST PUSH1 0x3 DUP1 SLOAD PUSH2 0x3DD SWAP1 PUSH2 0x104E JUMP JUMPDEST PUSH1 0x0 DUP3 DUP2 MSTORE PUSH1 0x20 DUP2 SWAP1 MSTORE PUSH1 0x40 SWAP1 KECCAK256 PUSH1 0x1 ADD SLOAD PUSH2 0x7D2 DUP2 PUSH2 0x871 JUMP JUMPDEST PUSH2 0x4CE DUP4 DUP4 PUSH2 0x910 JUMP JUMPDEST PUSH1 0x60 PUSH1 0xA PUSH1 0x0 PUSH1 0xC SLOAD DUP2 MSTORE PUSH1 0x20 ADD SWAP1 DUP2 MSTORE PUSH1 0x20 ADD PUSH1 0x0 KECCAK256 DUP1 SLOAD DUP1 PUSH1 0x20 MUL PUSH1 0x20 ADD PUSH1 0x40 MLOAD SWAP1 DUP2 ADD PUSH1 0x40 MSTORE DUP1 SWAP3 SWAP2 SWAP1 DUP2 DUP2 MSTORE PUSH1 0x20 ADD PUSH1 0x0 SWAP1 JUMPDEST DUP3 DUP3 LT ISZERO PUSH2 0x868 JUMPI PUSH1 0x0 DUP5 DUP2 MSTORE PUSH1 0x20 SWAP1 DUP2 SWAP1 KECCAK256 PUSH1 0x40 DUP1 MLOAD PUSH1 0x60 DUP2 ADD DUP3 MSTORE PUSH1 0x3 DUP7 MUL SWAP1 SWAP3 ADD DUP1 SLOAD DUP4 MSTORE PUSH1 0x1 DUP1 DUP3 ADD SLOAD DUP5 DUP7 ADD MSTORE PUSH1 0x2 SWAP1 SWAP2 ADD SLOAD PUSH1 0x1 PUSH1 0x1 PUSH1 0xA0 SHL SUB AND SWAP2 DUP4 ADD SWAP2 SWAP1 SWAP2 MSTORE SWAP1 DUP4 MSTORE SWAP1 SWAP3 ADD SWAP2 ADD PUSH2 0x813 JUMP JUMPDEST POP POP POP POP SWAP1 POP SWAP1 JUMP JUMPDEST PUSH2 0x87B DUP2 CALLER PUSH2 0xE5C JUMP JUMPDEST POP JUMP JUMPDEST PUSH1 0x0 PUSH2 0x88A DUP4 DUP4 PUSH2 0x781 JUMP JUMPDEST PUSH2 0x908 JUMPI PUSH1 0x0 DUP4 DUP2 MSTORE PUSH1 0x20 DUP2 DUP2 MSTORE PUSH1 0x40 DUP1 DUP4 KECCAK256 PUSH1 0x1 PUSH1 0x1 PUSH1 0xA0 SHL SUB DUP7 AND DUP5 MSTORE SWAP1 SWAP2 MSTORE SWAP1 KECCAK256 DUP1 SLOAD PUSH1 0xFF NOT AND PUSH1 0x1 OR SWAP1 SSTORE PUSH2 0x8C0 CALLER SWAP1 JUMP JUMPDEST PUSH1 0x1 PUSH1 0x1 PUSH1 0xA0 SHL SUB AND DUP3 PUSH1 0x1 PUSH1 0x1 PUSH1 0xA0 SHL SUB AND DUP5 PUSH32 0x2F8788117E7EFF1D82E926EC794901D17C78024A50270940304540A733656F0D PUSH1 0x40 MLOAD PUSH1 0x40 MLOAD DUP1 SWAP2 SUB SWAP1 LOG4 POP PUSH1 0x1 PUSH2 0x3CA JUMP JUMPDEST POP PUSH1 0x0 PUSH2 0x3CA JUMP JUMPDEST PUSH1 0x0 PUSH2 0x91C DUP4 DUP4 PUSH2 0x781 JUMP JUMPDEST ISZERO PUSH2 0x908 JUMPI PUSH1 0x0 DUP4 DUP2 MSTORE PUSH1 0x20 DUP2 DUP2 MSTORE PUSH1 0x40 DUP1 DUP4 KECCAK256 PUSH1 0x1 PUSH1 0x1 PUSH1 0xA0 SHL SUB DUP7 AND DUP1 DUP6 MSTORE SWAP3 MSTORE DUP1 DUP4 KECCAK256 DUP1 SLOAD PUSH1 0xFF NOT AND SWAP1 SSTORE MLOAD CALLER SWAP3 DUP7 SWAP2 PUSH32 0xF6391F5C32D9C69D2A47EA670B442974B53935D1EDC7FD64EB21E047A839171B SWAP2 SWAP1 LOG4 POP PUSH1 0x1 PUSH2 0x3CA JUMP JUMPDEST PUSH1 0x2 PUSH1 0x1 SLOAD SUB PUSH2 0x99E JUMPI PUSH1 0x40 MLOAD PUSH4 0x3EE5AEB5 PUSH1 0xE0 SHL DUP2 MSTORE PUSH1 0x4 ADD PUSH1 0x40 MLOAD DUP1 SWAP2 SUB SWAP1 REVERT JUMPDEST PUSH1 0x2 PUSH1 0x1 SSTORE JUMP JUMPDEST PUSH1 0x0 PUSH1 0xA PUSH1 0x0 PUSH1 0xC SLOAD DUP2 MSTORE PUSH1 0x20 ADD SWAP1 DUP2 MSTORE PUSH1 0x20 ADD PUSH1 0x0 KECCAK256 DUP1 SLOAD DUP1 PUSH1 0x20 MUL PUSH1 0x20 ADD PUSH1 0x40 MLOAD SWAP1 DUP2 ADD PUSH1 0x40 MSTORE DUP1 SWAP3 SWAP2 SWAP1 DUP2 DUP2 MSTORE PUSH1 0x20 ADD PUSH1 0x0 SWAP1 JUMPDEST DUP3 DUP3 LT ISZERO PUSH2 0xA31 JUMPI PUSH1 0x0 DUP5 DUP2 MSTORE PUSH1 0x20 SWAP1 DUP2 SWAP1 KECCAK256 PUSH1 0x40 DUP1 MLOAD PUSH1 0x60 DUP2 ADD DUP3 MSTORE PUSH1 0x3 DUP7 MUL SWAP1 SWAP3 ADD DUP1 SLOAD DUP4 MSTORE PUSH1 0x1 DUP1 DUP3 ADD SLOAD DUP5 DUP7 ADD MSTORE PUSH1 0x2 SWAP1 SWAP2 ADD SLOAD PUSH1 0x1 PUSH1 0x1 PUSH1 0xA0 SHL SUB AND SWAP2 DUP4 ADD SWAP2 SWAP1 SWAP2 MSTORE SWAP1 DUP4 MSTORE SWAP1 SWAP3 ADD SWAP2 ADD PUSH2 0x9DC JUMP JUMPDEST POP POP DUP3 MLOAD SWAP3 SWAP4 POP POP POP PUSH1 0x2 DUP2 LT ISZERO PUSH2 0xA48 JUMPI POP POP POP JUMP JUMPDEST PUSH1 0x0 DUP2 PUSH8 0xFFFFFFFFFFFFFFFF DUP2 GT ISZERO PUSH2 0xA63 JUMPI PUSH2 0xA63 PUSH2 0x10B1 JUMP JUMPDEST PUSH1 0x40 MLOAD SWAP1 DUP1 DUP3 MSTORE DUP1 PUSH1 0x20 MUL PUSH1 0x20 ADD DUP3 ADD PUSH1 0x40 MSTORE DUP1 ISZERO PUSH2 0xA8C JUMPI DUP2 PUSH1 0x20 ADD PUSH1 0x20 DUP3 MUL DUP1 CALLDATASIZE DUP4 CALLDATACOPY ADD SWAP1 POP JUMPDEST POP SWAP1 POP PUSH1 0x0 JUMPDEST DUP3 DUP2 LT ISZERO PUSH2 0xAE7 JUMPI DUP4 DUP2 DUP2 MLOAD DUP2 LT PUSH2 0xAAC JUMPI PUSH2 0xAAC PUSH2 0x10C7 JUMP JUMPDEST PUSH1 0x20 MUL PUSH1 0x20 ADD ADD MLOAD PUSH1 0x0 ADD MLOAD DUP3 DUP3 DUP2 MLOAD DUP2 LT PUSH2 0xACA JUMPI PUSH2 0xACA PUSH2 0x10C7 JUMP JUMPDEST PUSH1 0x20 SWAP1 DUP2 MUL SWAP2 SWAP1 SWAP2 ADD ADD MSTORE DUP1 PUSH2 0xADF DUP2 PUSH2 0x10DD JUMP JUMPDEST SWAP2 POP POP PUSH2 0xA92 JUMP JUMPDEST POP PUSH1 0x0 JUMPDEST DUP2 MLOAD DUP2 LT ISZERO PUSH2 0xBE3 JUMPI PUSH1 0x0 PUSH2 0xB01 DUP3 PUSH1 0x1 PUSH2 0x109E JUMP JUMPDEST SWAP1 POP JUMPDEST DUP3 MLOAD DUP2 LT ISZERO PUSH2 0xBD0 JUMPI DUP3 DUP2 DUP2 MLOAD DUP2 LT PUSH2 0xB1F JUMPI PUSH2 0xB1F PUSH2 0x10C7 JUMP JUMPDEST PUSH1 0x20 MUL PUSH1 0x20 ADD ADD MLOAD DUP4 DUP4 DUP2 MLOAD DUP2 LT PUSH2 0xB39 JUMPI PUSH2 0xB39 PUSH2 0x10C7 JUMP JUMPDEST PUSH1 0x20 MUL PUSH1 0x20 ADD ADD MLOAD GT ISZERO PUSH2 0xBBE JUMPI PUSH1 0x0 DUP4 DUP4 DUP2 MLOAD DUP2 LT PUSH2 0xB5B JUMPI PUSH2 0xB5B PUSH2 0x10C7 JUMP JUMPDEST PUSH1 0x20 MUL PUSH1 0x20 ADD ADD MLOAD SWAP1 POP DUP4 DUP3 DUP2 MLOAD DUP2 LT PUSH2 0xB77 JUMPI PUSH2 0xB77 PUSH2 0x10C7 JUMP JUMPDEST PUSH1 0x20 MUL PUSH1 0x20 ADD ADD MLOAD DUP5 DUP5 DUP2 MLOAD DUP2 LT PUSH2 0xB91 JUMPI PUSH2 0xB91 PUSH2 0x10C7 JUMP JUMPDEST PUSH1 0x20 MUL PUSH1 0x20 ADD ADD DUP2 DUP2 MSTORE POP POP DUP1 DUP5 DUP4 DUP2 MLOAD DUP2 LT PUSH2 0xBB0 JUMPI PUSH2 0xBB0 PUSH2 0x10C7 JUMP JUMPDEST PUSH1 0x20 MUL PUSH1 0x20 ADD ADD DUP2 DUP2 MSTORE POP POP POP JUMPDEST DUP1 PUSH2 0xBC8 DUP2 PUSH2 0x10DD JUMP JUMPDEST SWAP2 POP POP PUSH2 0xB04 JUMP JUMPDEST POP DUP1 PUSH2 0xBDB DUP2 PUSH2 0x10DD JUMP JUMPDEST SWAP2 POP POP PUSH2 0xAEB JUMP JUMPDEST POP PUSH1 0x0 DUP2 PUSH1 0x2 DUP4 MLOAD PUSH2 0xBF5 SWAP2 SWAP1 PUSH2 0x10F6 JUMP JUMPDEST DUP2 MLOAD DUP2 LT PUSH2 0xC05 JUMPI PUSH2 0xC05 PUSH2 0x10C7 JUMP JUMPDEST PUSH1 0x20 MUL PUSH1 0x20 ADD ADD MLOAD SWAP1 POP PUSH1 0x0 DUP1 PUSH1 0x64 DUP4 PUSH1 0x5 PUSH2 0xC21 SWAP2 SWAP1 PUSH2 0x1118 JUMP JUMPDEST PUSH2 0xC2B SWAP2 SWAP1 PUSH2 0x10F6 JUMP JUMPDEST SWAP1 POP PUSH1 0x0 JUMPDEST DUP5 MLOAD DUP2 LT ISZERO PUSH2 0xCB2 JUMPI PUSH2 0xC43 DUP3 DUP6 PUSH2 0x112F JUMP JUMPDEST DUP6 DUP3 DUP2 MLOAD DUP2 LT PUSH2 0xC55 JUMPI PUSH2 0xC55 PUSH2 0x10C7 JUMP JUMPDEST PUSH1 0x20 MUL PUSH1 0x20 ADD ADD MLOAD LT ISZERO DUP1 ISZERO PUSH2 0xC8D JUMPI POP PUSH2 0xC70 DUP3 DUP6 PUSH2 0x109E JUMP JUMPDEST DUP6 DUP3 DUP2 MLOAD DUP2 LT PUSH2 0xC82 JUMPI PUSH2 0xC82 PUSH2 0x10C7 JUMP JUMPDEST PUSH1 0x20 MUL PUSH1 0x20 ADD ADD MLOAD GT ISZERO JUMPDEST ISZERO PUSH2 0xCA0 JUMPI DUP3 PUSH2 0xC9C DUP2 PUSH2 0x10DD JUMP JUMPDEST SWAP4 POP POP JUMPDEST DUP1 PUSH2 0xCAA DUP2 PUSH2 0x10DD JUMP JUMPDEST SWAP2 POP POP PUSH2 0xC30 JUMP JUMPDEST POP PUSH1 0x0 DUP6 PUSH2 0xCC1 DUP5 PUSH1 0x64 PUSH2 0x1118 JUMP JUMPDEST PUSH2 0xCCB SWAP2 SWAP1 PUSH2 0x10F6 JUMP JUMPDEST PUSH1 0x4 SLOAD SWAP1 SWAP2 POP PUSH1 0xFF SWAP1 DUP2 AND SWAP1 DUP3 AND LT PUSH2 0xDC4 JUMPI PUSH1 0x40 DUP1 MLOAD PUSH1 0x60 DUP2 ADD DUP3 MSTORE DUP6 DUP2 MSTORE TIMESTAMP PUSH1 0x20 DUP3 ADD DUP2 SWAP1 MSTORE PUSH1 0xFF DUP12 AND SWAP2 DUP4 ADD DUP3 SWAP1 MSTORE PUSH1 0x7 DUP8 SWAP1 SSTORE PUSH1 0x8 DUP2 SWAP1 SSTORE PUSH1 0x9 DUP1 SLOAD PUSH1 0xFF NOT AND SWAP1 SWAP3 OR SWAP1 SWAP2 SSTORE PUSH1 0xD SSTORE PUSH1 0xC SLOAD SWAP1 MLOAD PUSH32 0xF861A1FE3CA8B7BDB29E61B793D162FFAA8A33712B873D11E27654B7146BB0EC SWAP2 PUSH2 0xD60 SWAP2 DUP8 SWAP1 DUP6 SWAP1 SWAP3 DUP4 MSTORE PUSH1 0x20 DUP4 ADD SWAP2 SWAP1 SWAP2 MSTORE PUSH1 0xFF AND PUSH1 0x40 DUP3 ADD MSTORE PUSH1 0x60 ADD SWAP1 JUMP JUMPDEST PUSH1 0x40 MLOAD DUP1 SWAP2 SUB SWAP1 LOG1 PUSH1 0xC SLOAD PUSH1 0x40 DUP1 MLOAD DUP7 DUP2 MSTORE TIMESTAMP PUSH1 0x20 DUP3 ADD MSTORE DUP1 DUP3 ADD SWAP3 SWAP1 SWAP3 MSTORE MLOAD PUSH32 0x15819DD2FD9F6418B142E798D08A18D0BF06EA368F4480B7B0D3F75BD966BC48 SWAP2 DUP2 SWAP1 SUB PUSH1 0x60 ADD SWAP1 LOG1 PUSH1 0xC DUP1 SLOAD SWAP1 PUSH1 0x0 PUSH2 0xDBA DUP4 PUSH2 0x10DD JUMP JUMPDEST SWAP2 SWAP1 POP SSTORE POP PUSH2 0xE52 JUMP JUMPDEST PUSH1 0x5 DUP7 LT PUSH2 0xE52 JUMPI PUSH32 0xA00AF7757AE2591F16AC195E556143DA33AEDDA4804B4768561DF0E5E0B61D86 PUSH1 0xC SLOAD PUSH1 0x40 MLOAD PUSH2 0xE34 SWAP2 DUP2 MSTORE PUSH1 0x40 PUSH1 0x20 DUP3 ADD DUP2 SWAP1 MSTORE PUSH1 0x1B SWAP1 DUP3 ADD MSTORE PUSH32 0x436F6E73656E737573207468726573686F6C64206E6F74206D65740000000000 PUSH1 0x60 DUP3 ADD MSTORE PUSH1 0x80 ADD SWAP1 JUMP JUMPDEST PUSH1 0x40 MLOAD DUP1 SWAP2 SUB SWAP1 LOG1 PUSH1 0xC DUP1 SLOAD SWAP1 PUSH1 0x0 PUSH2 0xE4C DUP4 PUSH2 0x10DD JUMP JUMPDEST SWAP2 SWAP1 POP SSTORE POP JUMPDEST POP POP POP POP POP POP POP POP JUMP JUMPDEST PUSH2 0xE66 DUP3 DUP3 PUSH2 0x781 JUMP JUMPDEST PUSH2 0xE95 JUMPI PUSH1 0x40 MLOAD PUSH4 0xE2517D3F PUSH1 0xE0 SHL DUP2 MSTORE PUSH1 0x1 PUSH1 0x1 PUSH1 0xA0 SHL SUB DUP3 AND PUSH1 0x4 DUP3 ADD MSTORE PUSH1 0x24 DUP2 ADD DUP4 SWAP1 MSTORE PUSH1 0x44 ADD PUSH2 0x5C8 JUMP JUMPDEST POP POP JUMP JUMPDEST PUSH1 0x0 PUSH1 0x20 DUP3 DUP5 SUB SLT ISZERO PUSH2 0xEAB JUMPI PUSH1 0x0 DUP1 REVERT JUMPDEST DUP2 CALLDATALOAD PUSH1 0x1 PUSH1 0x1 PUSH1 0xE0 SHL SUB NOT DUP2 AND DUP2 EQ PUSH2 0xEC3 JUMPI PUSH1 0x0 DUP1 REVERT JUMPDEST SWAP4 SWAP3 POP POP POP JUMP JUMPDEST PUSH1 0x0 PUSH1 0x20 DUP1 DUP4 MSTORE DUP4 MLOAD DUP1 DUP3 DUP6 ADD MSTORE PUSH1 0x0 JUMPDEST DUP2 DUP2 LT ISZERO PUSH2 0xEF7 JUMPI DUP6 DUP2 ADD DUP4 ADD MLOAD DUP6 DUP3 ADD PUSH1 0x40 ADD MSTORE DUP3 ADD PUSH2 0xEDB JUMP JUMPDEST POP PUSH1 0x0 PUSH1 0x40 DUP3 DUP7 ADD ADD MSTORE PUSH1 0x40 PUSH1 0x1F NOT PUSH1 0x1F DUP4 ADD AND DUP6 ADD ADD SWAP3 POP POP POP SWAP3 SWAP2 POP POP JUMP JUMPDEST PUSH1 0x0 DUP1 PUSH1 0x40 DUP4 DUP6 SUB SLT ISZERO PUSH2 0xF2B JUMPI PUSH1 0x0 DUP1 REVERT JUMPDEST POP POP DUP1 CALLDATALOAD SWAP3 PUSH1 0x20 SWAP1 SWAP2 ADD CALLDATALOAD SWAP2 POP JUMP JUMPDEST PUSH1 0x0 PUSH1 0x20 DUP3 DUP5 SUB SLT ISZERO PUSH2 0xF4C JUMPI PUSH1 0x0 DUP1 REVERT JUMPDEST POP CALLDATALOAD SWAP2 SWAP1 POP JUMP JUMPDEST DUP1 CALLDATALOAD PUSH1 0x1 PUSH1 0x1 PUSH1 0xA0 SHL SUB DUP2 AND DUP2 EQ PUSH2 0xF6A JUMPI PUSH1 0x0 DUP1 REVERT JUMPDEST SWAP2 SWAP1 POP JUMP JUMPDEST PUSH1 0x0 DUP1 PUSH1 0x40 DUP4 DUP6 SUB SLT ISZERO PUSH2 0xF82 JUMPI PUSH1 0x0 DUP1 REVERT JUMPDEST DUP3 CALLDATALOAD SWAP2 POP PUSH2 0xF92 PUSH1 0x20 DUP5 ADD PUSH2 0xF53 JUMP JUMPDEST SWAP1 POP SWAP3 POP SWAP3 SWAP1 POP JUMP JUMPDEST PUSH1 0x0 PUSH1 0x20 DUP3 DUP5 SUB SLT ISZERO PUSH2 0xFAD JUMPI PUSH1 0x0 DUP1 REVERT JUMPDEST PUSH2 0xEC3 DUP3 PUSH2 0xF53 JUMP JUMPDEST PUSH1 0x0 DUP1 PUSH1 0x40 DUP4 DUP6 SUB SLT ISZERO PUSH2 0xFC9 JUMPI PUSH1 0x0 DUP1 REVERT JUMPDEST DUP3 CALLDATALOAD SWAP2 POP PUSH1 0x20 DUP4 ADD CALLDATALOAD PUSH1 0xFF DUP2 AND DUP2 EQ PUSH2 0xFE1 JUMPI PUSH1 0x0 DUP1 REVERT JUMPDEST DUP1 SWAP2 POP POP SWAP3 POP SWAP3 SWAP1 POP JUMP JUMPDEST PUSH1 0x20 DUP1 DUP3 MSTORE DUP3 MLOAD DUP3 DUP3 ADD DUP2 SWAP1 MSTORE PUSH1 0x0 SWAP2 SWAP1 PUSH1 0x40 SWAP1 DUP2 DUP6 ADD SWAP1 DUP7 DUP5 ADD DUP6 JUMPDEST DUP3 DUP2 LT ISZERO PUSH2 0x1041 JUMPI DUP2 MLOAD DUP1 MLOAD DUP6 MSTORE DUP7 DUP2 ADD MLOAD DUP8 DUP7 ADD MSTORE DUP6 ADD MLOAD PUSH1 0x1 PUSH1 0x1 PUSH1 0xA0 SHL SUB AND DUP6 DUP6 ADD MSTORE PUSH1 0x60 SWAP1 SWAP4 ADD SWAP3 SWAP1 DUP6 ADD SWAP1 PUSH1 0x1 ADD PUSH2 0x1009 JUMP JUMPDEST POP SWAP2 SWAP8 SWAP7 POP POP POP POP POP POP POP JUMP JUMPDEST PUSH1 0x1 DUP2 DUP2 SHR SWAP1 DUP3 AND DUP1 PUSH2 0x1062 JUMPI PUSH1 0x7F DUP3 AND SWAP2 POP JUMPDEST PUSH1 0x20 DUP3 LT DUP2 SUB PUSH2 0x1082 JUMPI PUSH4 0x4E487B71 PUSH1 0xE0 SHL PUSH1 0x0 MSTORE PUSH1 0x22 PUSH1 0x4 MSTORE PUSH1 0x24 PUSH1 0x0 REVERT JUMPDEST POP SWAP2 SWAP1 POP JUMP JUMPDEST PUSH4 0x4E487B71 PUSH1 0xE0 SHL PUSH1 0x0 MSTORE PUSH1 0x11 PUSH1 0x4 MSTORE PUSH1 0x24 PUSH1 0x0 REVERT JUMPDEST DUP1 DUP3 ADD DUP1 DUP3 GT ISZERO PUSH2 0x3CA JUMPI PUSH2 0x3CA PUSH2 0x1088 JUMP JUMPDEST PUSH4 0x4E487B71 PUSH1 0xE0 SHL PUSH1 0x0 MSTORE PUSH1 0x41 PUSH1 0x4 MSTORE PUSH1 0x24 PUSH1 0x0 REVERT JUMPDEST PUSH4 0x4E487B71 PUSH1 0xE0 SHL PUSH1 0x0 MSTORE PUSH1 0x32 PUSH1 0x4 MSTORE PUSH1 0x24 PUSH1 0x0 REVERT JUMPDEST PUSH1 0x0 PUSH1 0x1 DUP3 ADD PUSH2 0x10EF JUMPI PUSH2 0x10EF PUSH2 0x1088 JUMP JUMPDEST POP PUSH1 0x1 ADD SWAP1 JUMP JUMPDEST PUSH1 0x0 DUP3 PUSH2 0x1113 JUMPI PUSH4 0x4E487B71 PUSH1 0xE0 SHL PUSH1 0x0 MSTORE PUSH1 0x12 PUSH1 0x4 MSTORE PUSH1 0x24 PUSH1 0x0 REVERT JUMPDEST POP DIV SWAP1 JUMP JUMPDEST DUP1 DUP3 MUL DUP2 ISZERO DUP3 DUP3 DIV DUP5 EQ OR PUSH2 0x3CA JUMPI PUSH2 0x3CA PUSH2 0x1088 JUMP JUMPDEST DUP2 DUP2 SUB DUP2 DUP2 GT ISZERO PUSH2 0x3CA JUMPI PUSH2 0x3CA PUSH2 0x1088 JUMP INVALID 0x21 PUSH17 0x2C8AF46127C7FA207F89D0B0A8441BB329 MSIZE LOG0 0xAC PUSH30 0xF790E9AB1A25C98926A2646970667358221220679912C295FFBC34ED3F24 EXP 0x4C BALANCE CALLVALUE 0xAA SHL BASEFEE 0xDB 0x1F DUP15 PUSH1 0x6F PUSH20 0xC18F564F596775A764736F6C6343000814003360 DUP1 PUSH1 0x40 MSTORE CALLVALUE DUP1 ISZERO PUSH3 0x11 JUMPI PUSH1 0x0 DUP1 REVERT JUMPDEST POP PUSH1 0x40 MLOAD PUSH3 0x1F26 CODESIZE SUB DUP1 PUSH3 0x1F26 DUP4 CODECOPY DUP2 ADD PUSH1 0x40 DUP2 SWAP1 MSTORE PUSH3 0x34 SWAP2 PUSH3 0x4A7 JUMP JUMPDEST CALLER DUP1 PUSH3 0x5C JUMPI PUSH1 0x40 MLOAD PUSH4 0x1E4FBDF7 PUSH1 0xE0 SHL DUP2 MSTORE PUSH1 0x0 PUSH1 0x4 DUP3 ADD MSTORE PUSH1 0x24 ADD JUMPDEST PUSH1 0x40 MLOAD DUP1 SWAP2 SUB SWAP1 REVERT JUMPDEST PUSH3 0x67 DUP2 PUSH3 0x2E7 JUMP JUMPDEST POP PUSH1 0x1 DUP1 SSTORE PUSH1 0x33 PUSH1 0xFF DUP6 AND LT DUP1 ISZERO SWAP1 PUSH3 0x85 JUMPI POP PUSH1 0x64 DUP5 PUSH1 0xFF AND GT ISZERO JUMPDEST PUSH3 0xC7 JUMPI PUSH1 0x40 MLOAD PUSH3 0x461BCD PUSH1 0xE5 SHL DUP2 MSTORE PUSH1 0x20 PUSH1 0x4 DUP3 ADD MSTORE PUSH1 0x11 PUSH1 0x24 DUP3 ADD MSTORE PUSH17 0x125B9D985B1A59081D1A1C995CDA1BDB19 PUSH1 0x7A SHL PUSH1 0x44 DUP3 ADD MSTORE PUSH1 0x64 ADD PUSH3 0x53 JUMP JUMPDEST PUSH1 0x0 DUP6 MLOAD GT PUSH3 0x11A JUMPI PUSH1 0x40 MLOAD PUSH3 0x461BCD PUSH1 0xE5 SHL DUP2 MSTORE PUSH1 0x20 PUSH1 0x4 DUP3 ADD MSTORE PUSH1 0x15 PUSH1 0x24 DUP3 ADD MSTORE PUSH32 0x54617267657420746F6B656E2072657175697265640000000000000000000000 PUSH1 0x44 DUP3 ADD MSTORE PUSH1 0x64 ADD PUSH3 0x53 JUMP JUMPDEST PUSH1 0x2 PUSH3 0x128 DUP9 DUP3 PUSH3 0x613 JUMP JUMPDEST POP PUSH1 0x3 PUSH3 0x137 DUP8 DUP3 PUSH3 0x613 JUMP JUMPDEST POP PUSH1 0x4 PUSH3 0x146 DUP7 DUP3 PUSH3 0x613 JUMP JUMPDEST POP PUSH1 0x5 DUP1 SLOAD PUSH1 0x6 DUP6 SWAP1 SSTORE PUSH1 0x1 PUSH1 0x1 PUSH1 0xA8 SHL SUB NOT AND PUSH1 0x1 PUSH1 0xA0 SHL PUSH1 0xFF DUP8 AND MUL PUSH1 0x1 PUSH1 0x1 PUSH1 0xA0 SHL SUB NOT AND OR PUSH1 0x1 PUSH1 0x1 PUSH1 0xA0 SHL SUB DUP5 AND OR SWAP1 SSTORE PUSH1 0x0 JUMPDEST PUSH1 0x5 DUP2 LT ISZERO PUSH3 0x2A0 JUMPI PUSH1 0x0 DUP3 DUP3 PUSH1 0x5 DUP2 LT PUSH3 0x1A0 JUMPI PUSH3 0x1A0 PUSH3 0x6DF JUMP JUMPDEST PUSH1 0x20 MUL ADD MLOAD PUSH1 0x1 PUSH1 0x1 PUSH1 0xA0 SHL SUB AND SUB PUSH3 0x1F1 JUMPI PUSH1 0x40 MLOAD PUSH3 0x461BCD PUSH1 0xE5 SHL DUP2 MSTORE PUSH1 0x20 PUSH1 0x4 DUP3 ADD MSTORE PUSH1 0x11 PUSH1 0x24 DUP3 ADD MSTORE PUSH17 0x24B73B30B634B2103B30B634B230BA37B9 PUSH1 0x79 SHL PUSH1 0x44 DUP3 ADD MSTORE PUSH1 0x64 ADD PUSH3 0x53 JUMP JUMPDEST DUP2 DUP2 PUSH1 0x5 DUP2 LT PUSH3 0x206 JUMPI PUSH3 0x206 PUSH3 0x6DF JUMP JUMPDEST PUSH1 0x20 MUL ADD MLOAD PUSH1 0x8 DUP3 PUSH1 0x5 DUP2 LT PUSH3 0x221 JUMPI PUSH3 0x221 PUSH3 0x6DF JUMP JUMPDEST ADD DUP1 SLOAD PUSH1 0x1 PUSH1 0x1 PUSH1 0xA0 SHL SUB NOT AND PUSH1 0x1 PUSH1 0x1 PUSH1 0xA0 SHL SUB SWAP3 SWAP1 SWAP3 AND SWAP2 SWAP1 SWAP2 OR SWAP1 SSTORE PUSH1 0x1 PUSH1 0xD PUSH1 0x0 DUP5 DUP5 PUSH1 0x5 DUP2 LT PUSH3 0x25B JUMPI PUSH3 0x25B PUSH3 0x6DF JUMP JUMPDEST PUSH1 0x20 SWAP1 DUP2 MUL SWAP2 SWAP1 SWAP2 ADD MLOAD PUSH1 0x1 PUSH1 0x1 PUSH1 0xA0 SHL SUB AND DUP3 MSTORE DUP2 ADD SWAP2 SWAP1 SWAP2 MSTORE PUSH1 0x40 ADD PUSH1 0x0 KECCAK256 DUP1 SLOAD PUSH1 0xFF NOT AND SWAP2 ISZERO ISZERO SWAP2 SWAP1 SWAP2 OR SWAP1 SSTORE DUP1 PUSH3 0x297 DUP2 PUSH3 0x6F5 JUMP JUMPDEST SWAP2 POP POP PUSH3 0x17F JUMP JUMPDEST POP PUSH32 0xB97A76B184160AD9B56B3CD68A81377EEC64B471B84FF87BA40304754C11B3A DUP2 PUSH1 0x40 MLOAD PUSH3 0x2D2 SWAP2 SWAP1 PUSH3 0x71D JUMP JUMPDEST PUSH1 0x40 MLOAD DUP1 SWAP2 SUB SWAP1 LOG1 POP POP POP POP POP POP POP PUSH3 0x759 JUMP JUMPDEST PUSH1 0x0 DUP1 SLOAD PUSH1 0x1 PUSH1 0x1 PUSH1 0xA0 SHL SUB DUP4 DUP2 AND PUSH1 0x1 PUSH1 0x1 PUSH1 0xA0 SHL SUB NOT DUP4 AND DUP2 OR DUP5 SSTORE PUSH1 0x40 MLOAD SWAP2 SWAP1 SWAP3 AND SWAP3 DUP4 SWAP2 PUSH32 0x8BE0079C531659141344CD1FD0A4F28419497F9722A3DAAFE3B4186F6B6457E0 SWAP2 SWAP1 LOG3 POP POP JUMP JUMPDEST PUSH4 0x4E487B71 PUSH1 0xE0 SHL PUSH1 0x0 MSTORE PUSH1 0x41 PUSH1 0x4 MSTORE PUSH1 0x24 PUSH1 0x0 REVERT JUMPDEST PUSH1 0x40 MLOAD PUSH1 0x1F DUP3 ADD PUSH1 0x1F NOT AND DUP2 ADD PUSH1 0x1 PUSH1 0x1 PUSH1 0x40 SHL SUB DUP2 GT DUP3 DUP3 LT OR ISZERO PUSH3 0x378 JUMPI PUSH3 0x378 PUSH3 0x337 JUMP JUMPDEST PUSH1 0x40 MSTORE SWAP2 SWAP1 POP JUMP JUMPDEST PUSH1 0x0 DUP3 PUSH1 0x1F DUP4 ADD SLT PUSH3 0x392 JUMPI PUSH1 0x0 DUP1 REVERT JUMPDEST DUP2 MLOAD PUSH1 0x1 PUSH1 0x1 PUSH1 0x40 SHL SUB DUP2 GT ISZERO PUSH3 0x3AE JUMPI PUSH3 0x3AE PUSH3 0x337 JUMP JUMPDEST PUSH1 0x20 PUSH3 0x3C4 PUSH1 0x1F DUP4 ADD PUSH1 0x1F NOT AND DUP3 ADD PUSH3 0x34D JUMP JUMPDEST DUP3 DUP2 MSTORE DUP6 DUP3 DUP5 DUP8 ADD ADD GT ISZERO PUSH3 0x3D9 JUMPI PUSH1 0x0 DUP1 REVERT JUMPDEST PUSH1 0x0 JUMPDEST DUP4 DUP2 LT ISZERO PUSH3 0x3F9 JUMPI DUP6 DUP2 ADD DUP4 ADD MLOAD DUP3 DUP3 ADD DUP5 ADD MSTORE DUP3 ADD PUSH3 0x3DC JUMP JUMPDEST POP PUSH1 0x0 SWAP3 DUP2 ADD SWAP1 SWAP2 ADD SWAP2 SWAP1 SWAP2 MSTORE SWAP4 SWAP3 POP POP POP JUMP JUMPDEST DUP1 MLOAD PUSH1 0x1 PUSH1 0x1 PUSH1 0xA0 SHL SUB DUP2 AND DUP2 EQ PUSH3 0x425 JUMPI PUSH1 0x0 DUP1 REVERT JUMPDEST SWAP2 SWAP1 POP JUMP JUMPDEST PUSH1 0x0 DUP3 PUSH1 0x1F DUP4 ADD SLT PUSH3 0x43C JUMPI PUSH1 0x0 DUP1 REVERT JUMPDEST PUSH1 0x40 MLOAD PUSH1 0xA0 DUP2 ADD PUSH1 0x1 PUSH1 0x1 PUSH1 0x40 SHL SUB DUP2 GT DUP3 DUP3 LT OR ISZERO PUSH3 0x461 JUMPI PUSH3 0x461 PUSH3 0x337 JUMP JUMPDEST PUSH1 0x40 MSTORE DUP1 PUSH1 0xA0 DUP5 ADD DUP6 DUP2 GT ISZERO PUSH3 0x477 JUMPI PUSH1 0x0 DUP1 REVERT JUMPDEST DUP5 JUMPDEST DUP2 DUP2 LT ISZERO PUSH3 0x49C JUMPI PUSH3 0x48D DUP2 PUSH3 0x40D JUMP JUMPDEST DUP4 MSTORE PUSH1 0x20 SWAP3 DUP4 ADD SWAP3 ADD PUSH3 0x479 JUMP JUMPDEST POP SWAP2 SWAP6 SWAP5 POP POP POP POP POP JUMP JUMPDEST PUSH1 0x0 DUP1 PUSH1 0x0 DUP1 PUSH1 0x0 DUP1 PUSH1 0x0 PUSH2 0x160 DUP9 DUP11 SUB SLT ISZERO PUSH3 0x4C4 JUMPI PUSH1 0x0 DUP1 REVERT JUMPDEST DUP8 MLOAD PUSH1 0x1 PUSH1 0x1 PUSH1 0x40 SHL SUB DUP1 DUP3 GT ISZERO PUSH3 0x4DC JUMPI PUSH1 0x0 DUP1 REVERT JUMPDEST PUSH3 0x4EA DUP12 DUP4 DUP13 ADD PUSH3 0x380 JUMP JUMPDEST SWAP9 POP PUSH1 0x20 DUP11 ADD MLOAD SWAP2 POP DUP1 DUP3 GT ISZERO PUSH3 0x501 JUMPI PUSH1 0x0 DUP1 REVERT JUMPDEST PUSH3 0x50F DUP12 DUP4 DUP13 ADD PUSH3 0x380 JUMP JUMPDEST SWAP8 POP PUSH1 0x40 DUP11 ADD MLOAD SWAP2 POP DUP1 DUP3 GT ISZERO PUSH3 0x526 JUMPI PUSH1 0x0 DUP1 REVERT JUMPDEST POP PUSH3 0x535 DUP11 DUP3 DUP12 ADD PUSH3 0x380 JUMP JUMPDEST SWAP6 POP POP PUSH1 0x60 DUP9 ADD MLOAD PUSH1 0xFF DUP2 AND DUP2 EQ PUSH3 0x54D JUMPI PUSH1 0x0 DUP1 REVERT JUMPDEST PUSH1 0x80 DUP10 ADD MLOAD SWAP1 SWAP5 POP SWAP3 POP PUSH3 0x565 PUSH1 0xA0 DUP10 ADD PUSH3 0x40D JUMP JUMPDEST SWAP2 POP PUSH3 0x576 DUP10 PUSH1 0xC0 DUP11 ADD PUSH3 0x42A JUMP JUMPDEST SWAP1 POP SWAP3 SWAP6 SWAP9 SWAP2 SWAP5 SWAP8 POP SWAP3 SWAP6 POP JUMP JUMPDEST PUSH1 0x1 DUP2 DUP2 SHR SWAP1 DUP3 AND DUP1 PUSH3 0x599 JUMPI PUSH1 0x7F DUP3 AND SWAP2 POP JUMPDEST PUSH1 0x20 DUP3 LT DUP2 SUB PUSH3 0x5BA JUMPI PUSH4 0x4E487B71 PUSH1 0xE0 SHL PUSH1 0x0 MSTORE PUSH1 0x22 PUSH1 0x4 MSTORE PUSH1 0x24 PUSH1 0x0 REVERT JUMPDEST POP SWAP2 SWAP1 POP JUMP JUMPDEST PUSH1 0x1F DUP3 GT ISZERO PUSH3 0x60E JUMPI PUSH1 0x0 DUP2 DUP2 MSTORE PUSH1 0x20 DUP2 KECCAK256 PUSH1 0x1F DUP6 ADD PUSH1 0x5 SHR DUP2 ADD PUSH1 0x20 DUP7 LT ISZERO PUSH3 0x5E9 JUMPI POP DUP1 JUMPDEST PUSH1 0x1F DUP6 ADD PUSH1 0x5 SHR DUP3 ADD SWAP2 POP JUMPDEST DUP2 DUP2 LT ISZERO PUSH3 0x60A JUMPI DUP3 DUP2 SSTORE PUSH1 0x1 ADD PUSH3 0x5F5 JUMP JUMPDEST POP POP POP JUMPDEST POP POP POP JUMP JUMPDEST DUP2 MLOAD PUSH1 0x1 PUSH1 0x1 PUSH1 0x40 SHL SUB DUP2 GT ISZERO PUSH3 0x62F JUMPI PUSH3 0x62F PUSH3 0x337 JUMP JUMPDEST PUSH3 0x647 DUP2 PUSH3 0x640 DUP5 SLOAD PUSH3 0x584 JUMP JUMPDEST DUP5 PUSH3 0x5C0 JUMP JUMPDEST PUSH1 0x20 DUP1 PUSH1 0x1F DUP4 GT PUSH1 0x1 DUP2 EQ PUSH3 0x67F JUMPI PUSH1 0x0 DUP5 ISZERO PUSH3 0x666 JUMPI POP DUP6 DUP4 ADD MLOAD JUMPDEST PUSH1 0x0 NOT PUSH1 0x3 DUP7 SWAP1 SHL SHR NOT AND PUSH1 0x1 DUP6 SWAP1 SHL OR DUP6 SSTORE PUSH3 0x60A JUMP JUMPDEST PUSH1 0x0 DUP6 DUP2 MSTORE PUSH1 0x20 DUP2 KECCAK256 PUSH1 0x1F NOT DUP7 AND SWAP2 JUMPDEST DUP3 DUP2 LT ISZERO PUSH3 0x6B0 JUMPI DUP9 DUP7 ADD MLOAD DUP3 SSTORE SWAP5 DUP5 ADD SWAP5 PUSH1 0x1 SWAP1 SWAP2 ADD SWAP1 DUP5 ADD PUSH3 0x68F JUMP JUMPDEST POP DUP6 DUP3 LT ISZERO PUSH3 0x6CF JUMPI DUP8 DUP6 ADD MLOAD PUSH1 0x0 NOT PUSH1 0x3 DUP9 SWAP1 SHL PUSH1 0xF8 AND SHR NOT AND DUP2 SSTORE JUMPDEST POP POP POP POP POP PUSH1 0x1 SWAP1 DUP2 SHL ADD SWAP1 SSTORE POP JUMP JUMPDEST PUSH4 0x4E487B71 PUSH1 0xE0 SHL PUSH1 0x0 MSTORE PUSH1 0x32 PUSH1 0x4 MSTORE PUSH1 0x24 PUSH1 0x0 REVERT JUMPDEST PUSH1 0x0 PUSH1 0x1 DUP3 ADD PUSH3 0x716 JUMPI PUSH4 0x4E487B71 PUSH1 0xE0 SHL PUSH1 0x0 MSTORE PUSH1 0x11 PUSH1 0x4 MSTORE PUSH1 0x24 PUSH1 0x0 REVERT JUMPDEST POP PUSH1 0x1 ADD SWAP1 JUMP JUMPDEST PUSH1 0xA0 DUP2 ADD DUP2 DUP4 PUSH1 0x0 JUMPDEST PUSH1 0x5 DUP2 LT ISZERO PUSH3 0x750 JUMPI DUP2 MLOAD PUSH1 0x1 PUSH1 0x1 PUSH1 0xA0 SHL SUB AND DUP4 MSTORE PUSH1 0x20 SWAP3 DUP4 ADD SWAP3 SWAP1 SWAP2 ADD SWAP1 PUSH1 0x1 ADD PUSH3 0x726 JUMP JUMPDEST POP POP POP SWAP3 SWAP2 POP POP JUMP JUMPDEST PUSH2 0x17BD DUP1 PUSH3 0x769 PUSH1 0x0 CODECOPY PUSH1 0x0 RETURN INVALID PUSH1 0x80 PUSH1 0x40 MSTORE CALLVALUE DUP1 ISZERO PUSH2 0x10 JUMPI PUSH1 0x0 DUP1 REVERT JUMPDEST POP PUSH1 0x4 CALLDATASIZE LT PUSH2 0x141 JUMPI PUSH1 0x0 CALLDATALOAD PUSH1 0xE0 SHR DUP1 PUSH4 0x8DA5CB5B GT PUSH2 0xB8 JUMPI DUP1 PUSH4 0xEE8132BD GT PUSH2 0x7C JUMPI DUP1 PUSH4 0xEE8132BD EQ PUSH2 0x2EB JUMPI DUP1 PUSH4 0xF2FDE38B EQ PUSH2 0x2FE JUMPI DUP1 PUSH4 0xF7B92FCD EQ PUSH2 0x311 JUMPI DUP1 PUSH4 0xF9B0B5B9 EQ PUSH2 0x333 JUMPI DUP1 PUSH4 0xFACD743B EQ PUSH2 0x359 JUMPI DUP1 PUSH4 0xFDCE5E42 EQ PUSH2 0x37C JUMPI PUSH1 0x0 DUP1 REVERT JUMPDEST DUP1 PUSH4 0x8DA5CB5B EQ PUSH2 0x293 JUMPI DUP1 PUSH4 0x92AC27F9 EQ PUSH2 0x2A4 JUMPI DUP1 PUSH4 0x95D89B41 EQ PUSH2 0x2B7 JUMPI DUP1 PUSH4 0x963398BD EQ PUSH2 0x2BF JUMPI DUP1 PUSH4 0xC0463711 EQ PUSH2 0x2E2 JUMPI PUSH1 0x0 DUP1 REVERT JUMPDEST DUP1 PUSH4 0x395924DC GT PUSH2 0x10A JUMPI DUP1 PUSH4 0x395924DC EQ PUSH2 0x1BD JUMPI DUP1 PUSH4 0x3E8686CC EQ PUSH2 0x208 JUMPI DUP1 PUSH4 0x4D44B9E7 EQ PUSH2 0x24D JUMPI DUP1 PUSH4 0x673EA086 EQ PUSH2 0x26D JUMPI DUP1 PUSH4 0x715018A6 EQ PUSH2 0x276 JUMPI DUP1 PUSH4 0x7B103999 EQ PUSH2 0x280 JUMPI PUSH1 0x0 DUP1 REVERT JUMPDEST DUP1 PUSH3 0xF1ABF5 EQ PUSH2 0x146 JUMPI DUP1 PUSH4 0x6FDDE03 EQ PUSH2 0x15D JUMPI DUP1 PUSH4 0x327107F7 EQ PUSH2 0x172 JUMPI DUP1 PUSH4 0x346C9409 EQ PUSH2 0x17A JUMPI DUP1 PUSH4 0x35AA2E44 EQ PUSH2 0x192 JUMPI JUMPDEST PUSH1 0x0 DUP1 REVERT JUMPDEST PUSH1 0x16 SLOAD JUMPDEST PUSH1 0x40 MLOAD SWAP1 DUP2 MSTORE PUSH1 0x20 ADD JUMPDEST PUSH1 0x40 MLOAD DUP1 SWAP2 SUB SWAP1 RETURN JUMPDEST PUSH2 0x165 PUSH2 0x402 JUMP JUMPDEST PUSH1 0x40 MLOAD PUSH2 0x154 SWAP2 SWAP1 PUSH2 0x150E JUMP JUMPDEST PUSH2 0x165 PUSH2 0x490 JUMP JUMPDEST PUSH2 0x182 PUSH2 0x49D JUMP JUMPDEST PUSH1 0x40 MLOAD SWAP1 ISZERO ISZERO DUP2 MSTORE PUSH1 0x20 ADD PUSH2 0x154 JUMP JUMPDEST PUSH2 0x1A5 PUSH2 0x1A0 CALLDATASIZE PUSH1 0x4 PUSH2 0x155C JUMP JUMPDEST PUSH2 0x4B7 JUMP JUMPDEST PUSH1 0x40 MLOAD PUSH1 0x1 PUSH1 0x1 PUSH1 0xA0 SHL SUB SWAP1 SWAP2 AND DUP2 MSTORE PUSH1 0x20 ADD PUSH2 0x154 JUMP JUMPDEST PUSH1 0xF SLOAD PUSH1 0x10 SLOAD PUSH1 0x11 SLOAD PUSH1 0x12 SLOAD PUSH1 0x13 SLOAD PUSH1 0x14 SLOAD PUSH1 0x15 SLOAD JUMPDEST PUSH1 0x40 DUP1 MLOAD SWAP8 DUP9 MSTORE PUSH1 0x20 DUP9 ADD SWAP7 SWAP1 SWAP7 MSTORE SWAP5 DUP7 ADD SWAP4 SWAP1 SWAP4 MSTORE PUSH1 0x60 DUP6 ADD SWAP2 SWAP1 SWAP2 MSTORE PUSH1 0x80 DUP5 ADD MSTORE PUSH1 0xA0 DUP4 ADD MSTORE PUSH1 0xC0 DUP3 ADD MSTORE PUSH1 0xE0 ADD PUSH2 0x154 JUMP JUMPDEST PUSH2 0x21B PUSH2 0x216 CALLDATASIZE PUSH1 0x4 PUSH2 0x155C JUMP JUMPDEST PUSH2 0x4D7 JUMP JUMPDEST PUSH1 0x40 DUP1 MLOAD PUSH1 0x1 PUSH1 0x1 PUSH1 0xA0 SHL SUB SWAP1 SWAP7 AND DUP7 MSTORE PUSH1 0x20 DUP7 ADD SWAP5 SWAP1 SWAP5 MSTORE SWAP3 DUP5 ADD SWAP2 SWAP1 SWAP2 MSTORE PUSH1 0x60 DUP4 ADD MSTORE PUSH1 0x80 DUP3 ADD MSTORE PUSH1 0xA0 ADD PUSH2 0x154 JUMP JUMPDEST PUSH2 0x14A PUSH2 0x25B CALLDATASIZE PUSH1 0x4 PUSH2 0x1591 JUMP JUMPDEST PUSH1 0xE PUSH1 0x20 MSTORE PUSH1 0x0 SWAP1 DUP2 MSTORE PUSH1 0x40 SWAP1 KECCAK256 SLOAD DUP2 JUMP JUMPDEST PUSH2 0x14A PUSH1 0x6 SLOAD DUP2 JUMP JUMPDEST PUSH2 0x27E PUSH2 0x5FB JUMP JUMPDEST STOP JUMPDEST PUSH1 0x5 SLOAD PUSH2 0x1A5 SWAP1 PUSH1 0x1 PUSH1 0x1 PUSH1 0xA0 SHL SUB AND DUP2 JUMP JUMPDEST PUSH1 0x0 SLOAD PUSH1 0x1 PUSH1 0x1 PUSH1 0xA0 SHL SUB AND PUSH2 0x1A5 JUMP JUMPDEST PUSH2 0x27E PUSH2 0x2B2 CALLDATASIZE PUSH1 0x4 PUSH2 0x15C9 JUMP JUMPDEST PUSH2 0x60F JUMP JUMPDEST PUSH2 0x165 PUSH2 0x7C6 JUMP JUMPDEST PUSH2 0x182 PUSH2 0x2CD CALLDATASIZE PUSH1 0x4 PUSH2 0x1591 JUMP JUMPDEST PUSH1 0x17 PUSH1 0x20 MSTORE PUSH1 0x0 SWAP1 DUP2 MSTORE PUSH1 0x40 SWAP1 KECCAK256 SLOAD PUSH1 0xFF AND DUP2 JUMP JUMPDEST PUSH2 0x14A PUSH1 0x7 SLOAD DUP2 JUMP JUMPDEST PUSH2 0x27E PUSH2 0x2F9 CALLDATASIZE PUSH1 0x4 PUSH2 0x165C JUMP JUMPDEST PUSH2 0x7D3 JUMP JUMPDEST PUSH2 0x27E PUSH2 0x30C CALLDATASIZE PUSH1 0x4 PUSH2 0x1591 JUMP JUMPDEST PUSH2 0xC01 JUMP JUMPDEST PUSH1 0xF SLOAD PUSH1 0x10 SLOAD PUSH1 0x11 SLOAD PUSH1 0x12 SLOAD PUSH1 0x13 SLOAD PUSH1 0x14 SLOAD PUSH1 0x15 SLOAD PUSH2 0x1D3 SWAP7 SWAP6 SWAP5 SWAP4 SWAP3 SWAP2 SWAP1 DUP8 JUMP JUMPDEST PUSH1 0x5 SLOAD PUSH2 0x347 SWAP1 PUSH1 0x1 PUSH1 0xA0 SHL SWAP1 DIV PUSH1 0xFF AND DUP2 JUMP JUMPDEST PUSH1 0x40 MLOAD PUSH1 0xFF SWAP1 SWAP2 AND DUP2 MSTORE PUSH1 0x20 ADD PUSH2 0x154 JUMP JUMPDEST PUSH2 0x182 PUSH2 0x367 CALLDATASIZE PUSH1 0x4 PUSH2 0x1591 JUMP JUMPDEST PUSH1 0xD PUSH1 0x20 MSTORE PUSH1 0x0 SWAP1 DUP2 MSTORE PUSH1 0x40 SWAP1 KECCAK256 SLOAD PUSH1 0xFF AND DUP2 JUMP JUMPDEST PUSH2 0x38F PUSH2 0x38A CALLDATASIZE PUSH1 0x4 PUSH2 0x155C JUMP JUMPDEST PUSH2 0xC3F JUMP JUMPDEST PUSH1 0x40 DUP1 MLOAD PUSH1 0x1 PUSH1 0x1 PUSH1 0xA0 SHL SUB SWAP1 SWAP6 AND DUP6 MSTORE DUP4 MLOAD PUSH1 0x20 DUP1 DUP8 ADD SWAP2 SWAP1 SWAP2 MSTORE DUP5 ADD MLOAD DUP6 DUP3 ADD MSTORE DUP4 ADD MLOAD PUSH1 0x60 DUP1 DUP7 ADD SWAP2 SWAP1 SWAP2 MSTORE DUP4 ADD MLOAD PUSH1 0x80 DUP1 DUP7 ADD SWAP2 SWAP1 SWAP2 MSTORE DUP4 ADD MLOAD PUSH1 0xA0 DUP1 DUP7 ADD SWAP2 SWAP1 SWAP2 MSTORE DUP4 ADD MLOAD PUSH1 0xC0 DUP1 DUP7 ADD SWAP2 SWAP1 SWAP2 MSTORE SWAP1 SWAP3 ADD MLOAD PUSH1 0xE0 DUP5 ADD MSTORE PUSH2 0x100 DUP4 ADD MSTORE ISZERO ISZERO PUSH2 0x120 DUP3 ADD MSTORE PUSH2 0x140 ADD PUSH2 0x154 JUMP JUMPDEST PUSH1 0x2 DUP1 SLOAD PUSH2 0x40F SWAP1 PUSH2 0x169F JUMP JUMPDEST DUP1 PUSH1 0x1F ADD PUSH1 0x20 DUP1 SWAP2 DIV MUL PUSH1 0x20 ADD PUSH1 0x40 MLOAD SWAP1 DUP2 ADD PUSH1 0x40 MSTORE DUP1 SWAP3 SWAP2 SWAP1 DUP2 DUP2 MSTORE PUSH1 0x20 ADD DUP3 DUP1 SLOAD PUSH2 0x43B SWAP1 PUSH2 0x169F JUMP JUMPDEST DUP1 ISZERO PUSH2 0x488 JUMPI DUP1 PUSH1 0x1F LT PUSH2 0x45D JUMPI PUSH2 0x100 DUP1 DUP4 SLOAD DIV MUL DUP4 MSTORE SWAP2 PUSH1 0x20 ADD SWAP2 PUSH2 0x488 JUMP JUMPDEST DUP3 ADD SWAP2 SWAP1 PUSH1 0x0 MSTORE PUSH1 0x20 PUSH1 0x0 KECCAK256 SWAP1 JUMPDEST DUP2 SLOAD DUP2 MSTORE SWAP1 PUSH1 0x1 ADD SWAP1 PUSH1 0x20 ADD DUP1 DUP4 GT PUSH2 0x46B JUMPI DUP3 SWAP1 SUB PUSH1 0x1F AND DUP3 ADD SWAP2 JUMPDEST POP POP POP POP POP DUP2 JUMP JUMPDEST PUSH1 0x4 DUP1 SLOAD PUSH2 0x40F SWAP1 PUSH2 0x169F JUMP JUMPDEST PUSH1 0x0 PUSH1 0x6 SLOAD PUSH1 0x7 SLOAD PUSH2 0x4AF SWAP2 SWAP1 PUSH2 0x16EF JUMP JUMPDEST TIMESTAMP LT ISZERO SWAP1 POP SWAP1 JUMP JUMPDEST PUSH1 0x8 DUP2 PUSH1 0x5 DUP2 LT PUSH2 0x4C7 JUMPI PUSH1 0x0 DUP1 REVERT JUMPDEST ADD SLOAD PUSH1 0x1 PUSH1 0x1 PUSH1 0xA0 SHL SUB AND SWAP1 POP DUP2 JUMP JUMPDEST PUSH1 0x0 DUP1 PUSH1 0x0 DUP1 PUSH1 0x0 PUSH1 0x16 DUP1 SLOAD SWAP1 POP DUP7 LT PUSH2 0x528 JUMPI PUSH1 0x40 MLOAD PUSH3 0x461BCD PUSH1 0xE5 SHL DUP2 MSTORE PUSH1 0x20 PUSH1 0x4 DUP3 ADD MSTORE PUSH1 0xD PUSH1 0x24 DUP3 ADD MSTORE PUSH13 0x92DCECC2D8D2C840D2DCC8CAF PUSH1 0x9B SHL PUSH1 0x44 DUP3 ADD MSTORE PUSH1 0x64 ADD JUMPDEST PUSH1 0x40 MLOAD DUP1 SWAP2 SUB SWAP1 REVERT JUMPDEST PUSH1 0x0 PUSH1 0x16 DUP8 DUP2 SLOAD DUP2 LT PUSH2 0x53D JUMPI PUSH2 0x53D PUSH2 0x1708 JUMP JUMPDEST PUSH1 0x0 SWAP2 DUP3 MSTORE PUSH1 0x20 SWAP2 DUP3 SWAP1 KECCAK256 PUSH1 0x40 DUP1 MLOAD PUSH1 0x80 DUP1 DUP3 ADD DUP4 MSTORE PUSH1 0xA SWAP5 SWAP1 SWAP5 MUL SWAP1 SWAP3 ADD DUP1 SLOAD PUSH1 0x1 PUSH1 0x1 PUSH1 0xA0 SHL SUB AND DUP4 MSTORE DUP2 MLOAD PUSH1 0xE0 DUP2 ADD DUP4 MSTORE PUSH1 0x1 DUP3 ADD SLOAD DUP2 MSTORE PUSH1 0x2 DUP3 ADD SLOAD DUP2 DUP8 ADD SWAP1 DUP2 MSTORE PUSH1 0x3 DUP4 ADD SLOAD DUP3 DUP6 ADD SWAP1 DUP2 MSTORE PUSH1 0x4 DUP5 ADD SLOAD PUSH1 0x60 DUP1 DUP6 ADD SWAP2 SWAP1 SWAP2 MSTORE PUSH1 0x5 DUP6 ADD SLOAD SWAP8 DUP5 ADD SWAP8 SWAP1 SWAP8 MSTORE PUSH1 0x6 DUP5 ADD SLOAD PUSH1 0xA0 DUP5 ADD MSTORE PUSH1 0x7 DUP5 ADD SLOAD PUSH1 0xC0 DUP5 ADD MSTORE SWAP7 DUP6 ADD DUP3 SWAP1 MSTORE PUSH1 0x8 DUP4 ADD SLOAD SWAP4 DUP6 ADD DUP5 SWAP1 MSTORE PUSH1 0x9 SWAP1 SWAP3 ADD SLOAD PUSH1 0xFF AND ISZERO ISZERO SWAP5 DUP5 ADD SWAP5 SWAP1 SWAP5 MSTORE SWAP2 MLOAD SWAP3 MLOAD SWAP2 MLOAD SWAP4 MLOAD SWAP3 SWAP12 SWAP2 SWAP11 POP SWAP3 SWAP9 POP SWAP1 SWAP7 POP SWAP1 SWAP5 POP SWAP3 POP POP POP JUMP JUMPDEST PUSH2 0x603 PUSH2 0xCCE JUMP JUMPDEST PUSH2 0x60D PUSH1 0x0 PUSH2 0xCFB JUMP JUMPDEST JUMP JUMPDEST PUSH2 0x617 PUSH2 0xCCE JUMP JUMPDEST PUSH1 0x0 JUMPDEST PUSH1 0x5 DUP2 LT ISZERO PUSH2 0x678 JUMPI PUSH1 0x0 PUSH1 0xD PUSH1 0x0 PUSH1 0x8 DUP5 PUSH1 0x5 DUP2 LT PUSH2 0x63C JUMPI PUSH2 0x63C PUSH2 0x1708 JUMP JUMPDEST ADD SLOAD PUSH1 0x1 PUSH1 0x1 PUSH1 0xA0 SHL SUB AND DUP2 MSTORE PUSH1 0x20 DUP2 ADD SWAP2 SWAP1 SWAP2 MSTORE PUSH1 0x40 ADD PUSH1 0x0 KECCAK256 DUP1 SLOAD PUSH1 0xFF NOT AND SWAP2 ISZERO ISZERO SWAP2 SWAP1 SWAP2 OR SWAP1 SSTORE DUP1 PUSH2 0x670 DUP2 PUSH2 0x171E JUMP JUMPDEST SWAP2 POP POP PUSH2 0x61A JUMP JUMPDEST POP PUSH1 0x0 JUMPDEST PUSH1 0x5 DUP2 LT ISZERO PUSH2 0x78B JUMPI PUSH1 0x0 DUP3 DUP3 PUSH1 0x5 DUP2 LT PUSH2 0x699 JUMPI PUSH2 0x699 PUSH2 0x1708 JUMP JUMPDEST PUSH1 0x20 MUL ADD MLOAD PUSH1 0x1 PUSH1 0x1 PUSH1 0xA0 SHL SUB AND SUB PUSH2 0x6E8 JUMPI PUSH1 0x40 MLOAD PUSH3 0x461BCD PUSH1 0xE5 SHL DUP2 MSTORE PUSH1 0x20 PUSH1 0x4 DUP3 ADD MSTORE PUSH1 0x11 PUSH1 0x24 DUP3 ADD MSTORE PUSH17 0x24B73B30B634B2103B30B634B230BA37B9 PUSH1 0x79 SHL PUSH1 0x44 DUP3 ADD MSTORE PUSH1 0x64 ADD PUSH2 0x51F JUMP JUMPDEST DUP2 DUP2 PUSH1 0x5 DUP2 LT PUSH2 0x6FA JUMPI PUSH2 0x6FA PUSH2 0x1708 JUMP JUMPDEST PUSH1 0x20 MUL ADD MLOAD PUSH1 0x8 DUP3 PUSH1 0x5 DUP2 LT PUSH2 0x712 JUMPI PUSH2 0x712 PUSH2 0x1708 JUMP JUMPDEST ADD DUP1 SLOAD PUSH1 0x1 PUSH1 0x1 PUSH1 0xA0 SHL SUB NOT AND PUSH1 0x1 PUSH1 0x1 PUSH1 0xA0 SHL SUB SWAP3 SWAP1 SWAP3 AND SWAP2 SWAP1 SWAP2 OR SWAP1 SSTORE PUSH1 0x1 PUSH1 0xD PUSH1 0x0 DUP5 DUP5 PUSH1 0x5 DUP2 LT PUSH2 0x749 JUMPI PUSH2 0x749 PUSH2 0x1708 JUMP JUMPDEST PUSH1 0x20 SWAP1 DUP2 MUL SWAP2 SWAP1 SWAP2 ADD MLOAD PUSH1 0x1 PUSH1 0x1 PUSH1 0xA0 SHL SUB AND DUP3 MSTORE DUP2 ADD SWAP2 SWAP1 SWAP2 MSTORE PUSH1 0x40 ADD PUSH1 0x0 KECCAK256 DUP1 SLOAD PUSH1 0xFF NOT AND SWAP2 ISZERO ISZERO SWAP2 SWAP1 SWAP2 OR SWAP1 SSTORE DUP1 PUSH2 0x783 DUP2 PUSH2 0x171E JUMP JUMPDEST SWAP2 POP POP PUSH2 0x67C JUMP JUMPDEST POP PUSH32 0xB97A76B184160AD9B56B3CD68A81377EEC64B471B84FF87BA40304754C11B3A DUP2 PUSH1 0x40 MLOAD PUSH2 0x7BB SWAP2 SWAP1 PUSH2 0x1737 JUMP JUMPDEST PUSH1 0x40 MLOAD DUP1 SWAP2 SUB SWAP1 LOG1 POP JUMP JUMPDEST PUSH1 0x3 DUP1 SLOAD PUSH2 0x40F SWAP1 PUSH2 0x169F JUMP JUMPDEST PUSH2 0x7DB PUSH2 0xD4B JUMP JUMPDEST CALLER PUSH1 0x0 SWAP1 DUP2 MSTORE PUSH1 0xD PUSH1 0x20 MSTORE PUSH1 0x40 SWAP1 KECCAK256 SLOAD PUSH1 0xFF AND PUSH2 0x82C JUMPI PUSH1 0x40 MLOAD PUSH3 0x461BCD PUSH1 0xE5 SHL DUP2 MSTORE PUSH1 0x20 PUSH1 0x4 DUP3 ADD MSTORE PUSH1 0xF PUSH1 0x24 DUP3 ADD MSTORE PUSH15 0x2737BA1030903B30B634B230BA37B9 PUSH1 0x89 SHL PUSH1 0x44 DUP3 ADD MSTORE PUSH1 0x64 ADD PUSH2 0x51F JUMP JUMPDEST CALLER PUSH1 0x0 SWAP1 DUP2 MSTORE PUSH1 0x17 PUSH1 0x20 MSTORE PUSH1 0x40 SWAP1 KECCAK256 SLOAD PUSH1 0xFF AND ISZERO PUSH2 0x880 JUMPI PUSH1 0x40 MLOAD PUSH3 0x461BCD PUSH1 0xE5 SHL DUP2 MSTORE PUSH1 0x20 PUSH1 0x4 DUP3 ADD MSTORE PUSH1 0x11 PUSH1 0x24 DUP3 ADD MSTORE PUSH17 0x105B1C9958591E481CDD589B5A5D1D1959 PUSH1 0x7A SHL PUSH1 0x44 DUP3 ADD MSTORE PUSH1 0x64 ADD PUSH2 0x51F JUMP JUMPDEST PUSH2 0x270F NOT DUP6 SLT ISZERO DUP1 ISZERO PUSH2 0x895 JUMPI POP PUSH2 0x2710 DUP6 SGT ISZERO JUMPDEST PUSH2 0x8D5 JUMPI PUSH1 0x40 MLOAD PUSH3 0x461BCD PUSH1 0xE5 SHL DUP2 MSTORE PUSH1 0x20 PUSH1 0x4 DUP3 ADD MSTORE PUSH1 0x11 PUSH1 0x24 DUP3 ADD MSTORE PUSH17 0x125B9D985B1A59081CD95B9D1A5B595B9D PUSH1 0x7A SHL PUSH1 0x44 DUP3 ADD MSTORE PUSH1 0x64 ADD PUSH2 0x51F JUMP JUMPDEST PUSH2 0x2710 DUP5 GT ISZERO PUSH2 0x927 JUMPI PUSH1 0x40 MLOAD PUSH3 0x461BCD PUSH1 0xE5 SHL DUP2 MSTORE PUSH1 0x20 PUSH1 0x4 DUP3 ADD MSTORE PUSH1 0x17 PUSH1 0x24 DUP3 ADD MSTORE PUSH32 0x496E76616C696420656E676167656D656E742072617465000000000000000000 PUSH1 0x44 DUP3 ADD MSTORE PUSH1 0x64 ADD PUSH2 0x51F JUMP JUMPDEST PUSH1 0x40 DUP1 MLOAD PUSH1 0xE0 DUP2 ADD DUP3 MSTORE DUP8 DUP2 MSTORE PUSH1 0x20 DUP1 DUP3 ADD DUP9 SWAP1 MSTORE DUP2 DUP4 ADD DUP8 SWAP1 MSTORE PUSH1 0x60 DUP1 DUP4 ADD DUP8 SWAP1 MSTORE PUSH1 0x80 DUP1 DUP5 ADD DUP8 SWAP1 MSTORE PUSH1 0xA0 DUP1 DUP6 ADD DUP8 SWAP1 MSTORE TIMESTAMP PUSH1 0xC0 DUP1 DUP8 ADD DUP3 SWAP1 MSTORE DUP8 MLOAD DUP1 DUP6 ADD DUP10 MSTORE CALLER DUP1 DUP3 MSTORE DUP2 DUP9 ADD DUP10 DUP2 MSTORE DUP3 DUP12 ADD DUP6 DUP2 MSTORE PUSH1 0x0 DUP5 DUP11 ADD DUP2 DUP2 MSTORE PUSH1 0x16 DUP1 SLOAD PUSH1 0x1 DUP1 DUP3 ADD DUP4 SSTORE SWAP2 DUP5 MSTORE SWAP7 MLOAD PUSH1 0xA SWAP1 SWAP8 MUL PUSH32 0xD833147D7DC355BA459FC788F669E58CFAF9DC25DDCD0702E87D69C7B5124289 DUP2 ADD DUP1 SLOAD PUSH1 0x1 PUSH1 0x1 PUSH1 0xA0 SHL SUB SWAP1 SWAP10 AND PUSH1 0x1 PUSH1 0x1 PUSH1 0xA0 SHL SUB NOT SWAP1 SWAP10 AND SWAP9 SWAP1 SWAP9 OR SWAP1 SWAP8 SSTORE SWAP4 MLOAD DUP1 MLOAD PUSH32 0xD833147D7DC355BA459FC788F669E58CFAF9DC25DDCD0702E87D69C7B512428A DUP9 ADD SSTORE DUP1 DUP14 ADD MLOAD PUSH32 0xD833147D7DC355BA459FC788F669E58CFAF9DC25DDCD0702E87D69C7B512428B DUP9 ADD SSTORE DUP1 DUP16 ADD MLOAD PUSH32 0xD833147D7DC355BA459FC788F669E58CFAF9DC25DDCD0702E87D69C7B512428C DUP9 ADD SSTORE DUP1 DUP13 ADD MLOAD PUSH32 0xD833147D7DC355BA459FC788F669E58CFAF9DC25DDCD0702E87D69C7B512428D DUP9 ADD SSTORE SWAP10 DUP11 ADD MLOAD PUSH32 0xD833147D7DC355BA459FC788F669E58CFAF9DC25DDCD0702E87D69C7B512428E DUP8 ADD SSTORE SWAP8 DUP10 ADD MLOAD PUSH32 0xD833147D7DC355BA459FC788F669E58CFAF9DC25DDCD0702E87D69C7B512428F DUP7 ADD SSTORE SWAP8 SWAP1 SWAP5 ADD MLOAD PUSH32 0xD833147D7DC355BA459FC788F669E58CFAF9DC25DDCD0702E87D69C7B5124290 DUP5 ADD SSTORE SWAP3 MLOAD PUSH32 0xD833147D7DC355BA459FC788F669E58CFAF9DC25DDCD0702E87D69C7B5124291 DUP4 ADD SSTORE SWAP4 MLOAD PUSH32 0xD833147D7DC355BA459FC788F669E58CFAF9DC25DDCD0702E87D69C7B5124292 SWAP1 SWAP2 ADD DUP1 SLOAD SWAP2 ISZERO ISZERO PUSH1 0xFF NOT SWAP3 DUP4 AND OR SWAP1 SSTORE DUP4 DUP6 MSTORE PUSH1 0x17 DUP8 MSTORE DUP9 DUP6 KECCAK256 DUP1 SLOAD SWAP1 SWAP2 AND DUP3 OR SWAP1 SSTORE PUSH1 0xE DUP7 MSTORE SWAP3 DUP8 SWAP1 KECCAK256 DUP1 SLOAD SWAP1 SWAP4 ADD SWAP1 SWAP3 SSTORE DUP6 MLOAD DUP13 DUP2 MSTORE SWAP4 DUP5 ADD DUP12 SWAP1 MSTORE SWAP5 DUP4 ADD MSTORE SWAP2 SWAP3 SWAP2 PUSH32 0xEDFE439DDAF7FC9D12BA5B30D1CA8618F24FC50D6CFA8507EA429E40E07EE706 SWAP2 ADD PUSH1 0x40 MLOAD DUP1 SWAP2 SUB SWAP1 LOG2 PUSH1 0x0 PUSH1 0x64 PUSH1 0x5 PUSH1 0x14 SWAP1 SLOAD SWAP1 PUSH2 0x100 EXP SWAP1 DIV PUSH1 0xFF AND PUSH1 0x5 MUL PUSH1 0xFF AND DUP2 PUSH2 0xBD4 JUMPI PUSH2 0xBD4 PUSH2 0x1771 JUMP JUMPDEST DIV PUSH1 0xFF AND SWAP1 POP DUP1 PUSH1 0x16 DUP1 SLOAD SWAP1 POP LT PUSH2 0xBEE JUMPI PUSH2 0xBEE PUSH2 0xD75 JUMP JUMPDEST POP POP PUSH2 0xBF9 PUSH1 0x1 DUP1 SSTORE JUMP JUMPDEST POP POP POP POP POP POP JUMP JUMPDEST PUSH2 0xC09 PUSH2 0xCCE JUMP JUMPDEST PUSH1 0x1 PUSH1 0x1 PUSH1 0xA0 SHL SUB DUP2 AND PUSH2 0xC33 JUMPI PUSH1 0x40 MLOAD PUSH4 0x1E4FBDF7 PUSH1 0xE0 SHL DUP2 MSTORE PUSH1 0x0 PUSH1 0x4 DUP3 ADD MSTORE PUSH1 0x24 ADD PUSH2 0x51F JUMP JUMPDEST PUSH2 0xC3C DUP2 PUSH2 0xCFB JUMP JUMPDEST POP JUMP JUMPDEST PUSH1 0x16 DUP2 DUP2 SLOAD DUP2 LT PUSH2 0xC4F JUMPI PUSH1 0x0 DUP1 REVERT JUMPDEST PUSH1 0x0 SWAP2 DUP3 MSTORE PUSH1 0x20 SWAP2 DUP3 SWAP1 KECCAK256 PUSH1 0xA SWAP1 SWAP2 MUL ADD DUP1 SLOAD PUSH1 0x40 DUP1 MLOAD PUSH1 0xE0 DUP2 ADD DUP3 MSTORE PUSH1 0x1 DUP5 ADD SLOAD DUP2 MSTORE PUSH1 0x2 DUP5 ADD SLOAD SWAP5 DUP2 ADD SWAP5 SWAP1 SWAP5 MSTORE PUSH1 0x3 DUP4 ADD SLOAD SWAP1 DUP5 ADD MSTORE PUSH1 0x4 DUP3 ADD SLOAD PUSH1 0x60 DUP5 ADD MSTORE PUSH1 0x5 DUP3 ADD SLOAD PUSH1 0x80 DUP5 ADD MSTORE PUSH1 0x6 DUP3 ADD SLOAD PUSH1 0xA0 DUP5 ADD MSTORE PUSH1 0x7 DUP3 ADD SLOAD PUSH1 0xC0 DUP5 ADD MSTORE PUSH1 0x8 DUP3 ADD SLOAD PUSH1 0x9 SWAP1 SWAP3 ADD SLOAD PUSH1 0x1 PUSH1 0x1 PUSH1 0xA0 SHL SUB SWAP1 SWAP2 AND SWAP4 POP PUSH1 0xFF AND DUP5 JUMP JUMPDEST PUSH1 0x0 SLOAD PUSH1 0x1 PUSH1 0x1 PUSH1 0xA0 SHL SUB AND CALLER EQ PUSH2 0x60D JUMPI PUSH1 0x40 MLOAD PUSH4 0x118CDAA7 PUSH1 0xE0 SHL DUP2 MSTORE CALLER PUSH1 0x4 DUP3 ADD MSTORE PUSH1 0x24 ADD PUSH2 0x51F JUMP JUMPDEST PUSH1 0x0 DUP1 SLOAD PUSH1 0x1 PUSH1 0x1 PUSH1 0xA0 SHL SUB DUP4 DUP2 AND PUSH1 0x1 PUSH1 0x1 PUSH1 0xA0 SHL SUB NOT DUP4 AND DUP2 OR DUP5 SSTORE PUSH1 0x40 MLOAD SWAP2 SWAP1 SWAP3 AND SWAP3 DUP4 SWAP2 PUSH32 0x8BE0079C531659141344CD1FD0A4F28419497F9722A3DAAFE3B4186F6B6457E0 SWAP2 SWAP1 LOG3 POP POP JUMP JUMPDEST PUSH1 0x2 PUSH1 0x1 SLOAD SUB PUSH2 0xD6E JUMPI PUSH1 0x40 MLOAD PUSH4 0x3EE5AEB5 PUSH1 0xE0 SHL DUP2 MSTORE PUSH1 0x4 ADD PUSH1 0x40 MLOAD DUP1 SWAP2 SUB SWAP1 REVERT JUMPDEST PUSH1 0x2 PUSH1 0x1 SSTORE JUMP JUMPDEST PUSH1 0x16 SLOAD DUP1 PUSH2 0xDB6 JUMPI PUSH1 0x40 MLOAD PUSH3 0x461BCD PUSH1 0xE5 SHL DUP2 MSTORE PUSH1 0x20 PUSH1 0x4 DUP3 ADD MSTORE PUSH1 0xE PUSH1 0x24 DUP3 ADD MSTORE PUSH14 0x4E6F207375626D697373696F6E73 PUSH1 0x90 SHL PUSH1 0x44 DUP3 ADD MSTORE PUSH1 0x64 ADD PUSH2 0x51F JUMP JUMPDEST PUSH1 0x0 DUP2 PUSH8 0xFFFFFFFFFFFFFFFF DUP2 GT ISZERO PUSH2 0xDD1 JUMPI PUSH2 0xDD1 PUSH2 0x15B3 JUMP JUMPDEST PUSH1 0x40 MLOAD SWAP1 DUP1 DUP3 MSTORE DUP1 PUSH1 0x20 MUL PUSH1 0x20 ADD DUP3 ADD PUSH1 0x40 MSTORE DUP1 ISZERO PUSH2 0xDFA JUMPI DUP2 PUSH1 0x20 ADD PUSH1 0x20 DUP3 MUL DUP1 CALLDATASIZE DUP4 CALLDATACOPY ADD SWAP1 POP JUMPDEST POP SWAP1 POP PUSH1 0x0 DUP3 PUSH8 0xFFFFFFFFFFFFFFFF DUP2 GT ISZERO PUSH2 0xE18 JUMPI PUSH2 0xE18 PUSH2 0x15B3 JUMP JUMPDEST PUSH1 0x40 MLOAD SWAP1 DUP1 DUP3 MSTORE DUP1 PUSH1 0x20 MUL PUSH1 0x20 ADD DUP3 ADD PUSH1 0x40 MSTORE DUP1 ISZERO PUSH2 0xE41 JUMPI DUP2 PUSH1 0x20 ADD PUSH1 0x20 DUP3 MUL DUP1 CALLDATASIZE DUP4 CALLDATACOPY ADD SWAP1 POP JUMPDEST POP SWAP1 POP PUSH1 0x0 DUP4 PUSH8 0xFFFFFFFFFFFFFFFF DUP2 GT ISZERO PUSH2 0xE5F JUMPI PUSH2 0xE5F PUSH2 0x15B3 JUMP JUMPDEST PUSH1 0x40 MLOAD SWAP1 DUP1 DUP3 MSTORE DUP1 PUSH1 0x20 MUL PUSH1 0x20 ADD DUP3 ADD PUSH1 0x40 MSTORE DUP1 ISZERO PUSH2 0xE88 JUMPI DUP2 PUSH1 0x20 ADD PUSH1 0x20 DUP3 MUL DUP1 CALLDATASIZE DUP4 CALLDATACOPY ADD SWAP1 POP JUMPDEST POP SWAP1 POP PUSH1 0x0 DUP5 PUSH8 0xFFFFFFFFFFFFFFFF DUP2 GT ISZERO PUSH2 0xEA6 JUMPI PUSH2 0xEA6 PUSH2 0x15B3 JUMP JUMPDEST PUSH1 0x40 MLOAD SWAP1 DUP1 DUP3 MSTORE DUP1 PUSH1 0x20 MUL PUSH1 0x20 ADD DUP3 ADD PUSH1 0x40 MSTORE DUP1 ISZERO PUSH2 0xECF JUMPI DUP2 PUSH1 0x20 ADD PUSH1 0x20 DUP3 MUL DUP1 CALLDATASIZE DUP4 CALLDATACOPY ADD SWAP1 POP JUMPDEST POP SWAP1 POP PUSH1 0x0 DUP6 PUSH8 0xFFFFFFFFFFFFFFFF DUP2 GT ISZERO PUSH2 0xEED JUMPI PUSH2 0xEED PUSH2 0x15B3 JUMP JUMPDEST PUSH1 0x40 MLOAD SWAP1 DUP1 DUP3 MSTORE DUP1 PUSH1 0x20 MUL PUSH1 0x20 ADD DUP3 ADD PUSH1 0x40 MSTORE DUP1 ISZERO PUSH2 0xF16 JUMPI DUP2 PUSH1 0x20 ADD PUSH1 0x20 DUP3 MUL DUP1 CALLDATASIZE DUP4 CALLDATACOPY ADD SWAP1 POP JUMPDEST POP SWAP1 POP PUSH1 0x0 JUMPDEST DUP7 DUP2 LT ISZERO PUSH2 0x1089 JUMPI PUSH1 0x16 DUP2 DUP2 SLOAD DUP2 LT PUSH2 0xF37 JUMPI PUSH2 0xF37 PUSH2 0x1708 JUMP JUMPDEST SWAP1 PUSH1 0x0 MSTORE PUSH1 0x20 PUSH1 0x0 KECCAK256 SWAP1 PUSH1 0xA MUL ADD PUSH1 0x1 ADD PUSH1 0x0 ADD SLOAD DUP7 DUP3 DUP2 MLOAD DUP2 LT PUSH2 0xF5E JUMPI PUSH2 0xF5E PUSH2 0x1708 JUMP JUMPDEST PUSH1 0x20 MUL PUSH1 0x20 ADD ADD DUP2 DUP2 MSTORE POP POP PUSH1 0x16 DUP2 DUP2 SLOAD DUP2 LT PUSH2 0xF7D JUMPI PUSH2 0xF7D PUSH2 0x1708 JUMP JUMPDEST SWAP1 PUSH1 0x0 MSTORE PUSH1 0x20 PUSH1 0x0 KECCAK256 SWAP1 PUSH1 0xA MUL ADD PUSH1 0x1 ADD PUSH1 0x1 ADD SLOAD DUP6 DUP3 DUP2 MLOAD DUP2 LT PUSH2 0xFA4 JUMPI PUSH2 0xFA4 PUSH2 0x1708 JUMP JUMPDEST PUSH1 0x20 MUL PUSH1 0x20 ADD ADD DUP2 DUP2 MSTORE POP POP PUSH1 0x16 DUP2 DUP2 SLOAD DUP2 LT PUSH2 0xFC3 JUMPI PUSH2 0xFC3 PUSH2 0x1708 JUMP JUMPDEST SWAP1 PUSH1 0x0 MSTORE PUSH1 0x20 PUSH1 0x0 KECCAK256 SWAP1 PUSH1 0xA MUL ADD PUSH1 0x1 ADD PUSH1 0x2 ADD SLOAD DUP5 DUP3 DUP2 MLOAD DUP2 LT PUSH2 0xFEA JUMPI PUSH2 0xFEA PUSH2 0x1708 JUMP JUMPDEST PUSH1 0x20 MUL PUSH1 0x20 ADD ADD DUP2 DUP2 MSTORE POP POP PUSH1 0x16 DUP2 DUP2 SLOAD DUP2 LT PUSH2 0x1009 JUMPI PUSH2 0x1009 PUSH2 0x1708 JUMP JUMPDEST SWAP1 PUSH1 0x0 MSTORE PUSH1 0x20 PUSH1 0x0 KECCAK256 SWAP1 PUSH1 0xA MUL ADD PUSH1 0x1 ADD PUSH1 0x3 ADD SLOAD DUP4 DUP3 DUP2 MLOAD DUP2 LT PUSH2 0x1030 JUMPI PUSH2 0x1030 PUSH2 0x1708 JUMP JUMPDEST PUSH1 0x20 MUL PUSH1 0x20 ADD ADD DUP2 DUP2 MSTORE POP POP PUSH1 0x16 DUP2 DUP2 SLOAD DUP2 LT PUSH2 0x104F JUMPI PUSH2 0x104F PUSH2 0x1708 JUMP JUMPDEST SWAP1 PUSH1 0x0 MSTORE PUSH1 0x20 PUSH1 0x0 KECCAK256 SWAP1 PUSH1 0xA MUL ADD PUSH1 0x1 ADD PUSH1 0x4 ADD SLOAD DUP3 DUP3 DUP2 MLOAD DUP2 LT PUSH2 0x1076 JUMPI PUSH2 0x1076 PUSH2 0x1708 JUMP JUMPDEST PUSH1 0x20 SWAP1 DUP2 MUL SWAP2 SWAP1 SWAP2 ADD ADD MSTORE PUSH1 0x1 ADD PUSH2 0xF1C JUMP JUMPDEST POP PUSH2 0x1093 DUP6 PUSH2 0x1232 JUMP JUMPDEST PUSH2 0x109C DUP5 PUSH2 0x1326 JUMP JUMPDEST PUSH2 0x10A5 DUP4 PUSH2 0x1232 JUMP JUMPDEST PUSH2 0x10AE DUP3 PUSH2 0x1232 JUMP JUMPDEST PUSH2 0x10B7 DUP2 PUSH2 0x1232 JUMP JUMPDEST PUSH1 0x0 PUSH1 0x2 DUP8 DIV SWAP1 POP PUSH1 0x40 MLOAD DUP1 PUSH1 0xE0 ADD PUSH1 0x40 MSTORE DUP1 DUP8 DUP4 DUP2 MLOAD DUP2 LT PUSH2 0x10DC JUMPI PUSH2 0x10DC PUSH2 0x1708 JUMP JUMPDEST PUSH1 0x20 MUL PUSH1 0x20 ADD ADD MLOAD DUP2 MSTORE PUSH1 0x20 ADD DUP7 DUP4 DUP2 MLOAD DUP2 LT PUSH2 0x10FB JUMPI PUSH2 0x10FB PUSH2 0x1708 JUMP JUMPDEST PUSH1 0x20 MUL PUSH1 0x20 ADD ADD MLOAD DUP2 MSTORE PUSH1 0x20 ADD DUP6 DUP4 DUP2 MLOAD DUP2 LT PUSH2 0x111A JUMPI PUSH2 0x111A PUSH2 0x1708 JUMP JUMPDEST PUSH1 0x20 MUL PUSH1 0x20 ADD ADD MLOAD DUP2 MSTORE PUSH1 0x20 ADD DUP5 DUP4 DUP2 MLOAD DUP2 LT PUSH2 0x1139 JUMPI PUSH2 0x1139 PUSH2 0x1708 JUMP JUMPDEST PUSH1 0x20 MUL PUSH1 0x20 ADD ADD MLOAD DUP2 MSTORE PUSH1 0x20 ADD DUP4 DUP4 DUP2 MLOAD DUP2 LT PUSH2 0x1158 JUMPI PUSH2 0x1158 PUSH2 0x1708 JUMP JUMPDEST PUSH1 0x20 MUL PUSH1 0x20 ADD ADD MLOAD DUP2 MSTORE PUSH1 0x20 ADD PUSH1 0x16 PUSH1 0x0 DUP2 SLOAD DUP2 LT PUSH2 0x1179 JUMPI PUSH2 0x1179 PUSH2 0x1708 JUMP JUMPDEST PUSH1 0x0 SWAP2 DUP3 MSTORE PUSH1 0x20 SWAP2 DUP3 SWAP1 KECCAK256 PUSH1 0x6 PUSH1 0xA SWAP1 SWAP3 MUL ADD ADD SLOAD DUP3 MSTORE TIMESTAMP SWAP2 DUP2 ADD DUP3 SWAP1 MSTORE DUP3 MLOAD PUSH1 0xF DUP2 SWAP1 SSTORE SWAP1 DUP4 ADD MLOAD PUSH1 0x10 DUP2 SWAP1 SSTORE PUSH1 0x40 DUP1 DUP6 ADD MLOAD PUSH1 0x11 DUP2 SWAP1 SSTORE PUSH1 0x60 DUP7 ADD MLOAD PUSH1 0x12 SSTORE PUSH1 0x80 DUP7 ADD MLOAD PUSH1 0x13 SSTORE PUSH1 0xA0 DUP7 ADD MLOAD PUSH1 0x14 SSTORE PUSH1 0xC0 SWAP1 SWAP6 ADD MLOAD PUSH1 0x15 SSTORE PUSH1 0x7 DUP5 SWAP1 SSTORE MLOAD PUSH32 0x4A878493C5A0B8218095634B4C65C123C272527E6C6A94A92E4290FDD16FB5DD SWAP5 PUSH2 0x121C SWAP5 SWAP1 SWAP2 SWAP4 DUP5 MSTORE PUSH1 0x20 DUP5 ADD SWAP3 SWAP1 SWAP3 MSTORE PUSH1 0x40 DUP4 ADD MSTORE PUSH1 0x60 DUP3 ADD MSTORE PUSH1 0x80 ADD SWAP1 JUMP JUMPDEST PUSH1 0x40 MLOAD DUP1 SWAP2 SUB SWAP1 LOG1 POP POP POP POP POP POP PUSH2 0xC3C PUSH2 0x1415 JUMP JUMPDEST DUP1 MLOAD PUSH1 0x1 DUP2 GT PUSH2 0x1240 JUMPI POP POP JUMP JUMPDEST PUSH1 0x0 JUMPDEST PUSH1 0x1 DUP3 SUB DUP2 LT ISZERO PUSH2 0x1321 JUMPI PUSH1 0x0 JUMPDEST PUSH1 0x1 DUP3 DUP5 SUB SUB DUP2 LT ISZERO PUSH2 0x1318 JUMPI DUP4 DUP2 PUSH1 0x1 ADD DUP2 MLOAD DUP2 LT PUSH2 0x1273 JUMPI PUSH2 0x1273 PUSH2 0x1708 JUMP JUMPDEST PUSH1 0x20 MUL PUSH1 0x20 ADD ADD MLOAD DUP5 DUP3 DUP2 MLOAD DUP2 LT PUSH2 0x128D JUMPI PUSH2 0x128D PUSH2 0x1708 JUMP JUMPDEST PUSH1 0x20 MUL PUSH1 0x20 ADD ADD MLOAD GT ISZERO PUSH2 0x1310 JUMPI DUP4 DUP2 PUSH1 0x1 ADD DUP2 MLOAD DUP2 LT PUSH2 0x12B0 JUMPI PUSH2 0x12B0 PUSH2 0x1708 JUMP JUMPDEST PUSH1 0x20 MUL PUSH1 0x20 ADD ADD MLOAD DUP5 DUP3 DUP2 MLOAD DUP2 LT PUSH2 0x12CA JUMPI PUSH2 0x12CA PUSH2 0x1708 JUMP JUMPDEST PUSH1 0x20 MUL PUSH1 0x20 ADD ADD MLOAD DUP6 DUP4 DUP2 MLOAD DUP2 LT PUSH2 0x12E4 JUMPI PUSH2 0x12E4 PUSH2 0x1708 JUMP JUMPDEST PUSH1 0x20 MUL PUSH1 0x20 ADD ADD DUP7 DUP5 PUSH1 0x1 ADD DUP2 MLOAD DUP2 LT PUSH2 0x1300 JUMPI PUSH2 0x1300 PUSH2 0x1708 JUMP JUMPDEST PUSH1 0x20 SWAP1 DUP2 MUL SWAP2 SWAP1 SWAP2 ADD ADD SWAP2 SWAP1 SWAP2 MSTORE MSTORE JUMPDEST PUSH1 0x1 ADD PUSH2 0x1251 JUMP JUMPDEST POP PUSH1 0x1 ADD PUSH2 0x1243 JUMP JUMPDEST POP POP POP JUMP JUMPDEST DUP1 MLOAD PUSH1 0x1 DUP2 GT PUSH2 0x1334 JUMPI POP POP JUMP JUMPDEST PUSH1 0x0 JUMPDEST PUSH1 0x1 DUP3 SUB DUP2 LT ISZERO PUSH2 0x1321 JUMPI PUSH1 0x0 JUMPDEST PUSH1 0x1 DUP3 DUP5 SUB SUB DUP2 LT ISZERO PUSH2 0x140C JUMPI DUP4 DUP2 PUSH1 0x1 ADD DUP2 MLOAD DUP2 LT PUSH2 0x1367 JUMPI PUSH2 0x1367 PUSH2 0x1708 JUMP JUMPDEST PUSH1 0x20 MUL PUSH1 0x20 ADD ADD MLOAD DUP5 DUP3 DUP2 MLOAD DUP2 LT PUSH2 0x1381 JUMPI PUSH2 0x1381 PUSH2 0x1708 JUMP JUMPDEST PUSH1 0x20 MUL PUSH1 0x20 ADD ADD MLOAD SGT ISZERO PUSH2 0x1404 JUMPI DUP4 DUP2 PUSH1 0x1 ADD DUP2 MLOAD DUP2 LT PUSH2 0x13A4 JUMPI PUSH2 0x13A4 PUSH2 0x1708 JUMP JUMPDEST PUSH1 0x20 MUL PUSH1 0x20 ADD ADD MLOAD DUP5 DUP3 DUP2 MLOAD DUP2 LT PUSH2 0x13BE JUMPI PUSH2 0x13BE PUSH2 0x1708 JUMP JUMPDEST PUSH1 0x20 MUL PUSH1 0x20 ADD ADD MLOAD DUP6 DUP4 DUP2 MLOAD DUP2 LT PUSH2 0x13D8 JUMPI PUSH2 0x13D8 PUSH2 0x1708 JUMP JUMPDEST PUSH1 0x20 MUL PUSH1 0x20 ADD ADD DUP7 DUP5 PUSH1 0x1 ADD DUP2 MLOAD DUP2 LT PUSH2 0x13F4 JUMPI PUSH2 0x13F4 PUSH2 0x1708 JUMP JUMPDEST PUSH1 0x20 SWAP1 DUP2 MUL SWAP2 SWAP1 SWAP2 ADD ADD SWAP2 SWAP1 SWAP2 MSTORE MSTORE JUMPDEST PUSH1 0x1 ADD PUSH2 0x1345 JUMP JUMPDEST POP PUSH1 0x1 ADD PUSH2 0x1337 JUMP JUMPDEST PUSH1 0x0 JUMPDEST PUSH1 0x16 SLOAD DUP2 LT ISZERO PUSH2 0x1486 JUMPI PUSH1 0x0 PUSH1 0x17 PUSH1 0x0 PUSH1 0x16 DUP5 DUP2 SLOAD DUP2 LT PUSH2 0x143B JUMPI PUSH2 0x143B PUSH2 0x1708 JUMP JUMPDEST PUSH1 0x0 SWAP2 DUP3 MSTORE PUSH1 0x20 DUP1 DUP4 KECCAK256 PUSH1 0xA SWAP3 SWAP1 SWAP3 MUL SWAP1 SWAP2 ADD SLOAD PUSH1 0x1 PUSH1 0x1 PUSH1 0xA0 SHL SUB AND DUP4 MSTORE DUP3 ADD SWAP3 SWAP1 SWAP3 MSTORE PUSH1 0x40 ADD SWAP1 KECCAK256 DUP1 SLOAD PUSH1 0xFF NOT AND SWAP2 ISZERO ISZERO SWAP2 SWAP1 SWAP2 OR SWAP1 SSTORE DUP1 PUSH2 0x147E DUP2 PUSH2 0x171E JUMP JUMPDEST SWAP2 POP POP PUSH2 0x1418 JUMP JUMPDEST POP PUSH2 0x60D PUSH1 0x16 DUP1 SLOAD PUSH1 0x0 DUP3 SSTORE PUSH1 0xA MUL SWAP1 PUSH1 0x0 MSTORE PUSH1 0x20 PUSH1 0x0 KECCAK256 SWAP1 DUP2 ADD SWAP1 PUSH2 0xC3C SWAP2 SWAP1 JUMPDEST DUP1 DUP3 GT ISZERO PUSH2 0x150A JUMPI DUP1 SLOAD PUSH1 0x1 PUSH1 0x1 PUSH1 0xA0 SHL SUB NOT AND DUP2 SSTORE PUSH1 0x0 PUSH1 0x1 DUP3 ADD DUP2 SWAP1 SSTORE PUSH1 0x2 DUP3 ADD DUP2 SWAP1 SSTORE PUSH1 0x3 DUP3 ADD DUP2 SWAP1 SSTORE PUSH1 0x4 DUP3 ADD DUP2 SWAP1 SSTORE PUSH1 0x5 DUP3 ADD DUP2 SWAP1 SSTORE PUSH1 0x6 DUP3 ADD DUP2 SWAP1 SSTORE PUSH1 0x7 DUP3 ADD DUP2 SWAP1 SSTORE PUSH1 0x8 DUP3 ADD SSTORE PUSH1 0x9 DUP2 ADD DUP1 SLOAD PUSH1 0xFF NOT AND SWAP1 SSTORE PUSH1 0xA ADD PUSH2 0x14A8 JUMP JUMPDEST POP SWAP1 JUMP JUMPDEST PUSH1 0x0 PUSH1 0x20 DUP1 DUP4 MSTORE DUP4 MLOAD DUP1 DUP3 DUP6 ADD MSTORE PUSH1 0x0 JUMPDEST DUP2 DUP2 LT ISZERO PUSH2 0x153B JUMPI DUP6 DUP2 ADD DUP4 ADD MLOAD DUP6 DUP3 ADD PUSH1 0x40 ADD MSTORE DUP3 ADD PUSH2 0x151F JUMP JUMPDEST POP PUSH1 0x0 PUSH1 0x40 DUP3 DUP7 ADD ADD MSTORE PUSH1 0x40 PUSH1 0x1F NOT PUSH1 0x1F DUP4 ADD AND DUP6 ADD ADD SWAP3 POP POP POP SWAP3 SWAP2 POP POP JUMP JUMPDEST PUSH1 0x0 PUSH1 0x20 DUP3 DUP5 SUB SLT ISZERO PUSH2 0x156E JUMPI PUSH1 0x0 DUP1 REVERT JUMPDEST POP CALLDATALOAD SWAP2 SWAP1 POP JUMP JUMPDEST DUP1 CALLDATALOAD PUSH1 0x1 PUSH1 0x1 PUSH1 0xA0 SHL SUB DUP2 AND DUP2 EQ PUSH2 0x158C JUMPI PUSH1 0x0 DUP1 REVERT JUMPDEST SWAP2 SWAP1 POP JUMP JUMPDEST PUSH1 0x0 PUSH1 0x20 DUP3 DUP5 SUB SLT ISZERO PUSH2 0x15A3 JUMPI PUSH1 0x0 DUP1 REVERT JUMPDEST PUSH2 0x15AC DUP3 PUSH2 0x1575 JUMP JUMPDEST SWAP4 SWAP3 POP POP POP JUMP JUMPDEST PUSH4 0x4E487B71 PUSH1 0xE0 SHL PUSH1 0x0 MSTORE PUSH1 0x41 PUSH1 0x4 MSTORE PUSH1 0x24 PUSH1 0x0 REVERT JUMPDEST PUSH1 0x0 PUSH1 0xA0 DUP3 DUP5 SUB SLT ISZERO PUSH2 0x15DB JUMPI PUSH1 0x0 DUP1 REVERT JUMPDEST DUP3 PUSH1 0x1F DUP4 ADD SLT PUSH2 0x15EA JUMPI PUSH1 0x0 DUP1 REVERT JUMPDEST PUSH1 0x40 MLOAD PUSH1 0xA0 DUP2 ADD DUP2 DUP2 LT PUSH8 0xFFFFFFFFFFFFFFFF DUP3 GT OR ISZERO PUSH2 0x161B JUMPI PUSH4 0x4E487B71 PUSH1 0xE0 SHL PUSH1 0x0 MSTORE PUSH1 0x41 PUSH1 0x4 MSTORE PUSH1 0x24 PUSH1 0x0 REVERT JUMPDEST PUSH1 0x40 MSTORE DUP1 PUSH1 0xA0 DUP5 ADD DUP6 DUP2 GT ISZERO PUSH2 0x1630 JUMPI PUSH1 0x0 DUP1 REVERT JUMPDEST DUP5 JUMPDEST DUP2 DUP2 LT ISZERO PUSH2 0x1651 JUMPI PUSH2 0x1643 DUP2 PUSH2 0x1575 JUMP JUMPDEST DUP4 MSTORE PUSH1 0x20 SWAP3 DUP4 ADD SWAP3 ADD PUSH2 0x1632 JUMP JUMPDEST POP SWAP2 SWAP6 SWAP5 POP POP POP POP POP JUMP JUMPDEST PUSH1 0x0 DUP1 PUSH1 0x0 DUP1 PUSH1 0x0 DUP1 PUSH1 0xC0 DUP8 DUP10 SUB SLT ISZERO PUSH2 0x1675 JUMPI PUSH1 0x0 DUP1 REVERT JUMPDEST POP POP DUP5 CALLDATALOAD SWAP7 PUSH1 0x20 DUP7 ADD CALLDATALOAD SWAP7 POP PUSH1 0x40 DUP7 ADD CALLDATALOAD SWAP6 PUSH1 0x60 DUP2 ADD CALLDATALOAD SWAP6 POP PUSH1 0x80 DUP2 ADD CALLDATALOAD SWAP5 POP PUSH1 0xA0 ADD CALLDATALOAD SWAP3 POP SWAP1 POP JUMP JUMPDEST PUSH1 0x1 DUP2 DUP2 SHR SWAP1 DUP3 AND DUP1 PUSH2 0x16B3 JUMPI PUSH1 0x7F DUP3 AND SWAP2 POP JUMPDEST PUSH1 0x20 DUP3 LT DUP2 SUB PUSH2 0x16D3 JUMPI PUSH4 0x4E487B71 PUSH1 0xE0 SHL PUSH1 0x0 MSTORE PUSH1 0x22 PUSH1 0x4 MSTORE PUSH1 0x24 PUSH1 0x0 REVERT JUMPDEST POP SWAP2 SWAP1 POP JUMP JUMPDEST PUSH4 0x4E487B71 PUSH1 0xE0 SHL PUSH1 0x0 MSTORE PUSH1 0x11 PUSH1 0x4 MSTORE PUSH1 0x24 PUSH1 0x0 REVERT JUMPDEST DUP1 DUP3 ADD DUP1 DUP3 GT ISZERO PUSH2 0x1702 JUMPI PUSH2 0x1702 PUSH2 0x16D9 JUMP JUMPDEST SWAP3 SWAP2 POP POP JUMP JUMPDEST PUSH4 0x4E487B71 PUSH1 0xE0 SHL PUSH1 0x0 MSTORE PUSH1 0x32 PUSH1 0x4 MSTORE PUSH1 0x24 PUSH1 0x0 REVERT JUMPDEST PUSH1 0x0 PUSH1 0x1 DUP3 ADD PUSH2 0x1730 JUMPI PUSH2 0x1730 PUSH2 0x16D9 JUMP JUMPDEST POP PUSH1 0x1 ADD SWAP1 JUMP JUMPDEST PUSH1 0xA0 DUP2 ADD DUP2 DUP4 PUSH1 0x0 JUMPDEST PUSH1 0x5 DUP2 LT ISZERO PUSH2 0x1768 JUMPI DUP2 MLOAD PUSH1 0x1 PUSH1 0x1 PUSH1 0xA0 SHL SUB AND DUP4 MSTORE PUSH1 0x20 SWAP3 DUP4 ADD SWAP3 SWAP1 SWAP2 ADD SWAP1 PUSH1 0x1 ADD PUSH2 0x1740 JUMP JUMPDEST POP POP POP SWAP3 SWAP2 POP POP JUMP JUMPDEST PUSH4 0x4E487B71 PUSH1 0xE0 SHL PUSH1 0x0 MSTORE PUSH1 0x12 PUSH1 0x4 MSTORE PUSH1 0x24 PUSH1 0x0 REVERT INVALID LOG2 PUSH5 0x6970667358 0x22 SLT KECCAK256 SWAP12 LOG0 PUSH22 0x49572F16805AB30DF0084E5EED17D4183FAF6EEAF891 DUP16 NUMBER PUSH14 0x7819088964736F6C634300081400 CALLER LOG2 PUSH5 0x6970667358 0x22 SLT KECCAK256 AND 0xAB KECCAK256 CODECOPY CALLCODE 0xE4 CALLDATASIZE GAS ADDMOD PUSH6 0x69A2437EE815 STATICCALL PUSH28 0x8FBDD782527DAF363BEA5CB9265C64736F6C63430008140033000000 "},"methodIdentifiers":{"deployFarcasterOracle(string,string,string,uint8,uint256)":"b53e6afa","deployPriceOracle(string,string,uint8,uint256)":"258fb352","getValidators()":"b7ab4db5","registry()":"7b103999","setValidators(address[])":"9300c926","validators(uint256)":"35aa2e44"}}}}}