{"contracts/FarcasterOracle.sol":{"FarcasterOracle":{"abi":[{"inputs":[{"internalType":"string","name":"_name","type":"string"},{"internalType":"string","name":"_symbol","type":"string"},{"internalType":"string","name":"_targetToken","type":"string"},{"internalType":"uint8","name":"_consensusThreshold","type":"uint8"},{"internalType":"uint256","name":"_updateFrequency","type":"uint256"},{"internalType":"address","name":"_registry","type":"address"},{"internalType":"address[5]","name":"_validators","type":"address[5]"}],"stateMutability":"nonpayable","type":"constructor"},{"inputs":[{"internalType":"address","name":"owner","type":"address"}],"name":"OwnableInvalidOwner","type":"error"},{"inputs":[{"internalType":"address","name":"account","type":"address"}],"name":"OwnableUnauthorizedAccount","type":"error"},{"inputs":[],"name":"ReentrancyGuardReentrantCall","type":"error"},{"anonymous":false,"inputs":[{"indexed":false,"internalType":"uint256","name":"mentions24h","type":"uint256"},{"indexed":false,"internalType":"int256","name":"sentimentScore","type":"int256"},{"indexed":false,"internalType":"uint256","name":"engagementRate","type":"uint256"},{"indexed":false,"internalType":"uint256","name":"timestamp","type":"uint256"}],"name":"ConsensusReached","type":"event"},{"anonymous":false,"inputs":[{"indexed":true,"internalType":"address","name":"validator","type":"address"},{"indexed":false,"internalType":"uint256","name":"mentions24h","type":"uint256"},{"indexed":false,"internalType":"int256","name":"sentimentScore","type":"int256"},{"indexed":false,"internalType":"uint256","name":"timestamp","type":"uint256"}],"name":"MetricsSubmitted","type":"event"},{"anonymous":false,"inputs":[{"indexed":true,"internalType":"address","name":"previousOwner","type":"address"},{"indexed":true,"internalType":"address","name":"newOwner","type":"address"}],"name":"OwnershipTransferred","type":"event"},{"anonymous":false,"inputs":[{"indexed":false,"internalType":"address[5]","name":"validators","type":"address[5]"}],"name":"ValidatorsUpdated","type":"event"},{"inputs":[],"name":"consensusThreshold","outputs":[{"internalType":"uint8","name":"","type":"uint8"}],"stateMutability":"view","type":"function"},{"inputs":[{"internalType":"uint256","name":"","type":"uint256"}],"name":"currentSubmissions","outputs":[{"internalType":"address","name":"validator","type":"address"},{"components":[{"internalType":"uint256","name":"mentions24h","type":"uint256"},{"internalType":"int256","name":"sentimentScore","type":"int256"},{"internalType":"uint256","name":"engagementRate","type":"uint256"},{"internalType":"uint256","name":"uniqueUsers","type":"uint256"},{"internalType":"uint256","name":"totalEngagement","type":"uint256"},{"internalType":"uint256","name":"topCastFid","type":"uint256"},{"internalType":"uint256","name":"timestamp","type":"uint256"}],"internalType":"struct FarcasterOracle.SocialMetrics","name":"metrics","type":"tuple"},{"internalType":"uint256","name":"timestamp","type":"uint256"},{"internalType":"bool","name":"processed","type":"bool"}],"stateMutability":"view","type":"function"},{"inputs":[],"name":"getCurrentSubmissionCount","outputs":[{"internalType":"uint256","name":"","type":"uint256"}],"stateMutability":"view","type":"function"},{"inputs":[],"name":"getLatestMetrics","outputs":[{"internalType":"uint256","name":"mentions24h","type":"uint256"},{"internalType":"int256","name":"sentimentScore","type":"int256"},{"internalType":"uint256","name":"engagementRate","type":"uint256"},{"internalType":"uint256","name":"uniqueUsers","type":"uint256"},{"internalType":"uint256","name":"totalEngagement","type":"uint256"},{"internalType":"uint256","name":"topCastFid","type":"uint256"},{"internalType":"uint256","name":"timestamp","type":"uint256"}],"stateMutability":"view","type":"function"},{"inputs":[{"internalType":"uint256","name":"index","type":"uint256"}],"name":"getSubmission","outputs":[{"internalType":"address","name":"validator","type":"address"},{"internalType":"uint256","name":"mentions24h","type":"uint256"},{"internalType":"int256","name":"sentimentScore","type":"int256"},{"internalType":"uint256","name":"engagementRate","type":"uint256"},{"internalType":"uint256","name":"timestamp","type":"uint256"}],"stateMutability":"view","type":"function"},{"inputs":[{"internalType":"address","name":"","type":"address"}],"name":"hasSubmittedThisRound","outputs":[{"internalType":"bool","name":"","type":"bool"}],"stateMutability":"view","type":"function"},{"inputs":[{"internalType":"address","name":"","type":"address"}],"name":"isValidator","outputs":[{"internalType":"bool","name":"","type":"bool"}],"stateMutability":"view","type":"function"},{"inputs":[],"name":"lastUpdate","outputs":[{"internalType":"uint256","name":"","type":"uint256"}],"stateMutability":"view","type":"function"},{"inputs":[],"name":"latestMetrics","outputs":[{"internalType":"uint256","name":"mentions24h","type":"uint256"},{"internalType":"int256","name":"sentimentScore","type":"int256"},{"internalType":"uint256","name":"engagementRate","type":"uint256"},{"internalType":"uint256","name":"uniqueUsers","type":"uint256"},{"internalType":"uint256","name":"totalEngagement","type":"uint256"},{"internalType":"uint256","name":"topCastFid","type":"uint256"},{"internalType":"uint256","name":"timestamp","type":"uint256"}],"stateMutability":"view","type":"function"},{"inputs":[],"name":"name","outputs":[{"internalType":"string","name":"","type":"string"}],"stateMutability":"view","type":"function"},{"inputs":[],"name":"needsUpdate","outputs":[{"internalType":"bool","name":"","type":"bool"}],"stateMutability":"view","type":"function"},{"inputs":[],"name":"owner","outputs":[{"internalType":"address","name":"","type":"address"}],"stateMutability":"view","type":"function"},{"inputs":[],"name":"registry","outputs":[{"internalType":"address","name":"","type":"address"}],"stateMutability":"view","type":"function"},{"inputs":[],"name":"renounceOwnership","outputs":[],"stateMutability":"nonpayable","type":"function"},{"inputs":[{"internalType":"uint256","name":"_mentions24h","type":"uint256"},{"internalType":"int256","name":"_sentimentScore","type":"int256"},{"internalType":"uint256","name":"_engagementRate","type":"uint256"},{"internalType":"uint256","name":"_uniqueUsers","type":"uint256"},{"internalType":"uint256","name":"_totalEngagement","type":"uint256"},{"internalType":"uint256","name":"_topCastFid","type":"uint256"}],"name":"submitMetrics","outputs":[],"stateMutability":"nonpayable","type":"function"},{"inputs":[],"name":"symbol","outputs":[{"internalType":"string","name":"","type":"string"}],"stateMutability":"view","type":"function"},{"inputs":[],"name":"targetToken","outputs":[{"internalType":"string","name":"","type":"string"}],"stateMutability":"view","type":"function"},{"inputs":[{"internalType":"address","name":"newOwner","type":"address"}],"name":"transferOwnership","outputs":[],"stateMutability":"nonpayable","type":"function"},{"inputs":[],"name":"updateFrequency","outputs":[{"internalType":"uint256","name":"","type":"uint256"}],"stateMutability":"view","type":"function"},{"inputs":[{"internalType":"address[5]","name":"_validators","type":"address[5]"}],"name":"updateValidators","outputs":[],"stateMutability":"nonpayable","type":"function"},{"inputs":[{"internalType":"address","name":"","type":"address"}],"name":"validatorSubmissionCount","outputs":[{"internalType":"uint256","name":"","type":"uint256"}],"stateMutability":"view","type":"function"},{"inputs":[{"internalType":"uint256","name":"","type":"uint256"}],"name":"validators","outputs":[{"internalType":"address","name":"","type":"address"}],"stateMutability":"view","type":"function"}],"evm":{"bytecode":{"linkReferences":{},"object":"60806040523480156200001157600080fd5b5060405162001f2638038062001f268339810160408190526200003491620004a7565b33806200005c57604051631e4fbdf760e01b8152600060048201526024015b60405180910390fd5b6200006781620002e7565b5060018055603360ff85161080159062000085575060648460ff1611155b620000c75760405162461bcd60e51b8152602060048201526011602482015270125b9d985b1a59081d1a1c995cda1bdb19607a1b604482015260640162000053565b60008551116200011a5760405162461bcd60e51b815260206004820152601560248201527f54617267657420746f6b656e2072657175697265640000000000000000000000604482015260640162000053565b600262000128888262000613565b50600362000137878262000613565b50600462000146868262000613565b506005805460068590556001600160a81b031916600160a01b60ff8716026001600160a01b031916176001600160a01b03841617905560005b6005811015620002a0576000828260058110620001a057620001a0620006df565b60200201516001600160a01b031603620001f15760405162461bcd60e51b815260206004820152601160248201527024b73b30b634b2103b30b634b230ba37b960791b604482015260640162000053565b818160058110620002065762000206620006df565b602002015160088260058110620002215762000221620006df565b0180546001600160a01b0319166001600160a01b03929092169190911790556001600d60008484600581106200025b576200025b620006df565b602090810291909101516001600160a01b03168252810191909152604001600020805460ff1916911515919091179055806200029781620006f5565b9150506200017f565b507f0b97a76b184160ad9b56b3cd68a81377eec64b471b84ff87ba40304754c11b3a81604051620002d291906200071d565b60405180910390a15050505050505062000759565b600080546001600160a01b038381166001600160a01b0319831681178455604051919092169283917f8be0079c531659141344cd1fd0a4f28419497f9722a3daafe3b4186f6b6457e09190a35050565b634e487b7160e01b600052604160045260246000fd5b604051601f8201601f191681016001600160401b038111828210171562000378576200037862000337565b604052919050565b600082601f8301126200039257600080fd5b81516001600160401b03811115620003ae57620003ae62000337565b6020620003c4601f8301601f191682016200034d565b8281528582848701011115620003d957600080fd5b60005b83811015620003f9578581018301518282018401528201620003dc565b506000928101909101919091529392505050565b80516001600160a01b03811681146200042557600080fd5b919050565b600082601f8301126200043c57600080fd5b60405160a081016001600160401b038111828210171562000461576200046162000337565b6040528060a08401858111156200047757600080fd5b845b818110156200049c576200048d816200040d565b83526020928301920162000479565b509195945050505050565b6000806000806000806000610160888a031215620004c457600080fd5b87516001600160401b0380821115620004dc57600080fd5b620004ea8b838c0162000380565b985060208a01519150808211156200050157600080fd5b6200050f8b838c0162000380565b975060408a01519150808211156200052657600080fd5b50620005358a828b0162000380565b955050606088015160ff811681146200054d57600080fd5b608089015190945092506200056560a089016200040d565b9150620005768960c08a016200042a565b905092959891949750929550565b600181811c908216806200059957607f821691505b602082108103620005ba57634e487b7160e01b600052602260045260246000fd5b50919050565b601f8211156200060e57600081815260208120601f850160051c81016020861015620005e95750805b601f850160051c820191505b818110156200060a57828155600101620005f5565b5050505b505050565b81516001600160401b038111156200062f576200062f62000337565b620006478162000640845462000584565b84620005c0565b602080601f8311600181146200067f5760008415620006665750858301515b600019600386901b1c1916600185901b1785556200060a565b600085815260208120601f198616915b82811015620006b0578886015182559484019460019091019084016200068f565b5085821015620006cf5787850151600019600388901b60f8161c191681555b5050505050600190811b01905550565b634e487b7160e01b600052603260045260246000fd5b6000600182016200071657634e487b7160e01b600052601160045260246000fd5b5060010190565b60a08101818360005b6005811015620007505781516001600160a01b031683526020928301929091019060010162000726565b50505092915050565b6117bd80620007696000396000f3fe608060405234801561001057600080fd5b50600436106101415760003560e01c80638da5cb5b116100b8578063ee8132bd1161007c578063ee8132bd146102eb578063f2fde38b146102fe578063f7b92fcd14610311578063f9b0b5b914610333578063facd743b14610359578063fdce5e421461037c57600080fd5b80638da5cb5b1461029357806392ac27f9146102a457806395d89b41146102b7578063963398bd146102bf578063c0463711146102e257600080fd5b8063395924dc1161010a578063395924dc146101bd5780633e8686cc146102085780634d44b9e71461024d578063673ea0861461026d578063715018a6146102765780637b1039991461028057600080fd5b8062f1abf51461014657806306fdde031461015d578063327107f714610172578063346c94091461017a57806335aa2e4414610192575b600080fd5b6016545b6040519081526020015b60405180910390f35b610165610402565b604051610154919061150e565b610165610490565b61018261049d565b6040519015158152602001610154565b6101a56101a036600461155c565b6104b7565b6040516001600160a01b039091168152602001610154565b600f546010546011546012546013546014546015545b604080519788526020880196909652948601939093526060850191909152608084015260a083015260c082015260e001610154565b61021b61021636600461155c565b6104d7565b604080516001600160a01b0390961686526020860194909452928401919091526060830152608082015260a001610154565b61014a61025b366004611591565b600e6020526000908152604090205481565b61014a60065481565b61027e6105fb565b005b6005546101a5906001600160a01b031681565b6000546001600160a01b03166101a5565b61027e6102b23660046115c9565b61060f565b6101656107c6565b6101826102cd366004611591565b60176020526000908152604090205460ff1681565b61014a60075481565b61027e6102f936600461165c565b6107d3565b61027e61030c366004611591565b610c01565b600f546010546011546012546013546014546015546101d39695949392919087565b60055461034790600160a01b900460ff1681565b60405160ff9091168152602001610154565b610182610367366004611591565b600d6020526000908152604090205460ff1681565b61038f61038a36600461155c565b610c3f565b604080516001600160a01b03909516855283516020808701919091528401518582015283015160608086019190915283015160808086019190915283015160a08086019190915283015160c0808601919091529092015160e0840152610100830152151561012082015261014001610154565b6002805461040f9061169f565b80601f016020809104026020016040519081016040528092919081815260200182805461043b9061169f565b80156104885780601f1061045d57610100808354040283529160200191610488565b820191906000526020600020905b81548152906001019060200180831161046b57829003601f168201915b505050505081565b6004805461040f9061169f565b60006006546007546104af91906116ef565b421015905090565b600881600581106104c757600080fd5b01546001600160a01b0316905081565b600080600080600060168054905086106105285760405162461bcd60e51b815260206004820152600d60248201526c092dcecc2d8d2c840d2dcc8caf609b1b60448201526064015b60405180910390fd5b60006016878154811061053d5761053d611708565b60009182526020918290206040805160808082018352600a9490940290920180546001600160a01b03168352815160e08101835260018201548152600282015481870190815260038301548285019081526004840154606080850191909152600585015497840197909752600684015460a0840152600784015460c0840152968501829052600883015493850184905260099092015460ff161515948401949094529151925191519351929b919a5092985090965090945092505050565b610603610cce565b61060d6000610cfb565b565b610617610cce565b60005b6005811015610678576000600d60006008846005811061063c5761063c611708565b01546001600160a01b031681526020810191909152604001600020805460ff1916911515919091179055806106708161171e565b91505061061a565b5060005b600581101561078b57600082826005811061069957610699611708565b60200201516001600160a01b0316036106e85760405162461bcd60e51b815260206004820152601160248201527024b73b30b634b2103b30b634b230ba37b960791b604482015260640161051f565b8181600581106106fa576106fa611708565b60200201516008826005811061071257610712611708565b0180546001600160a01b0319166001600160a01b03929092169190911790556001600d600084846005811061074957610749611708565b602090810291909101516001600160a01b03168252810191909152604001600020805460ff1916911515919091179055806107838161171e565b91505061067c565b507f0b97a76b184160ad9b56b3cd68a81377eec64b471b84ff87ba40304754c11b3a816040516107bb9190611737565b60405180910390a150565b6003805461040f9061169f565b6107db610d4b565b336000908152600d602052604090205460ff1661082c5760405162461bcd60e51b815260206004820152600f60248201526e2737ba1030903b30b634b230ba37b960891b604482015260640161051f565b3360009081526017602052604090205460ff16156108805760405162461bcd60e51b8152602060048201526011602482015270105b1c9958591e481cdd589b5a5d1d1959607a1b604482015260640161051f565b61270f19851215801561089557506127108513155b6108d55760405162461bcd60e51b8152602060048201526011602482015270125b9d985b1a59081cd95b9d1a5b595b9d607a1b604482015260640161051f565b6127108411156109275760405162461bcd60e51b815260206004820152601760248201527f496e76616c696420656e676167656d656e742072617465000000000000000000604482015260640161051f565b6040805160e08101825287815260208082018890528183018790526060808301879052608080840187905260a08085018790524260c08087018290528751808501895233808252818801898152828b018581526000848a0181815260168054600180820183559184529651600a9097027fd833147d7dc355ba459fc788f669e58cfaf9dc25ddcd0702e87d69c7b5124289810180546001600160a01b039099166001600160a01b031990991698909817909755935180517fd833147d7dc355ba459fc788f669e58cfaf9dc25ddcd0702e87d69c7b512428a880155808d01517fd833147d7dc355ba459fc788f669e58cfaf9dc25ddcd0702e87d69c7b512428b880155808f01517fd833147d7dc355ba459fc788f669e58cfaf9dc25ddcd0702e87d69c7b512428c880155808c01517fd833147d7dc355ba459fc788f669e58cfaf9dc25ddcd0702e87d69c7b512428d880155998a01517fd833147d7dc355ba459fc788f669e58cfaf9dc25ddcd0702e87d69c7b512428e870155978901517fd833147d7dc355ba459fc788f669e58cfaf9dc25ddcd0702e87d69c7b512428f86015597909401517fd833147d7dc355ba459fc788f669e58cfaf9dc25ddcd0702e87d69c7b512429084015592517fd833147d7dc355ba459fc788f669e58cfaf9dc25ddcd0702e87d69c7b512429183015593517fd833147d7dc355ba459fc788f669e58cfaf9dc25ddcd0702e87d69c7b5124292909101805491151560ff1992831617905583855260178752888520805490911682179055600e865292879020805490930190925585518c81529384018b9052948301529192917fedfe439ddaf7fc9d12ba5b30d1ca8618f24fc50d6cfa8507ea429e40e07ee706910160405180910390a260006064600560149054906101000a900460ff1660050260ff1681610bd457610bd4611771565b0460ff1690508060168054905010610bee57610bee610d75565b5050610bf960018055565b505050505050565b610c09610cce565b6001600160a01b038116610c3357604051631e4fbdf760e01b81526000600482015260240161051f565b610c3c81610cfb565b50565b60168181548110610c4f57600080fd5b6000918252602091829020600a9091020180546040805160e081018252600184015481526002840154948101949094526003830154908401526004820154606084015260058201546080840152600682015460a0840152600782015460c084015260088201546009909201546001600160a01b03909116935060ff1684565b6000546001600160a01b0316331461060d5760405163118cdaa760e01b815233600482015260240161051f565b600080546001600160a01b038381166001600160a01b0319831681178455604051919092169283917f8be0079c531659141344cd1fd0a4f28419497f9722a3daafe3b4186f6b6457e09190a35050565b600260015403610d6e57604051633ee5aeb560e01b815260040160405180910390fd5b6002600155565b60165480610db65760405162461bcd60e51b815260206004820152600e60248201526d4e6f207375626d697373696f6e7360901b604482015260640161051f565b60008167ffffffffffffffff811115610dd157610dd16115b3565b604051908082528060200260200182016040528015610dfa578160200160208202803683370190505b50905060008267ffffffffffffffff811115610e1857610e186115b3565b604051908082528060200260200182016040528015610e41578160200160208202803683370190505b50905060008367ffffffffffffffff811115610e5f57610e5f6115b3565b604051908082528060200260200182016040528015610e88578160200160208202803683370190505b50905060008467ffffffffffffffff811115610ea657610ea66115b3565b604051908082528060200260200182016040528015610ecf578160200160208202803683370190505b50905060008567ffffffffffffffff811115610eed57610eed6115b3565b604051908082528060200260200182016040528015610f16578160200160208202803683370190505b50905060005b868110156110895760168181548110610f3757610f37611708565b90600052602060002090600a020160010160000154868281518110610f5e57610f5e611708565b60200260200101818152505060168181548110610f7d57610f7d611708565b90600052602060002090600a020160010160010154858281518110610fa457610fa4611708565b60200260200101818152505060168181548110610fc357610fc3611708565b90600052602060002090600a020160010160020154848281518110610fea57610fea611708565b6020026020010181815250506016818154811061100957611009611708565b90600052602060002090600a02016001016003015483828151811061103057611030611708565b6020026020010181815250506016818154811061104f5761104f611708565b90600052602060002090600a02016001016004015482828151811061107657611076611708565b6020908102919091010152600101610f1c565b5061109385611232565b61109c84611326565b6110a583611232565b6110ae82611232565b6110b781611232565b60006002870490506040518060e001604052808783815181106110dc576110dc611708565b602002602001015181526020018683815181106110fb576110fb611708565b6020026020010151815260200185838151811061111a5761111a611708565b6020026020010151815260200184838151811061113957611139611708565b6020026020010151815260200183838151811061115857611158611708565b60200260200101518152602001601660008154811061117957611179611708565b60009182526020918290206006600a9092020101548252429181018290528251600f81905590830151601081905560408085015160118190556060860151601255608086015160135560a086015160145560c0909501516015556007849055517f4a878493c5a0b8218095634b4c65c123c272527e6c6a94a92e4290fdd16fb5dd9461121c94909193845260208401929092526040830152606082015260800190565b60405180910390a1505050505050610c3c611415565b805160018111611240575050565b60005b600182038110156113215760005b6001828403038110156113185783816001018151811061127357611273611708565b602002602001015184828151811061128d5761128d611708565b60200260200101511115611310578381600101815181106112b0576112b0611708565b60200260200101518482815181106112ca576112ca611708565b60200260200101518583815181106112e4576112e4611708565b6020026020010186846001018151811061130057611300611708565b6020908102919091010191909152525b600101611251565b50600101611243565b505050565b805160018111611334575050565b60005b600182038110156113215760005b60018284030381101561140c5783816001018151811061136757611367611708565b602002602001015184828151811061138157611381611708565b60200260200101511315611404578381600101815181106113a4576113a4611708565b60200260200101518482815181106113be576113be611708565b60200260200101518583815181106113d8576113d8611708565b602002602001018684600101815181106113f4576113f4611708565b6020908102919091010191909152525b600101611345565b50600101611337565b60005b601654811015611486576000601760006016848154811061143b5761143b611708565b60009182526020808320600a92909202909101546001600160a01b031683528201929092526040019020805460ff19169115159190911790558061147e8161171e565b915050611418565b5061060d6016805460008255600a0290600052602060002090810190610c3c91905b8082111561150a5780546001600160a01b0319168155600060018201819055600282018190556003820181905560048201819055600582018190556006820181905560078201819055600882015560098101805460ff19169055600a016114a8565b5090565b600060208083528351808285015260005b8181101561153b5785810183015185820160400152820161151f565b506000604082860101526040601f19601f8301168501019250505092915050565b60006020828403121561156e57600080fd5b5035919050565b80356001600160a01b038116811461158c57600080fd5b919050565b6000602082840312156115a357600080fd5b6115ac82611575565b9392505050565b634e487b7160e01b600052604160045260246000fd5b600060a082840312156115db57600080fd5b82601f8301126115ea57600080fd5b60405160a0810181811067ffffffffffffffff8211171561161b57634e487b7160e01b600052604160045260246000fd5b6040528060a084018581111561163057600080fd5b845b818110156116515761164381611575565b835260209283019201611632565b509195945050505050565b60008060008060008060c0878903121561167557600080fd5b505084359660208601359650604086013595606081013595506080810135945060a0013592509050565b600181811c908216806116b357607f821691505b6020821081036116d357634e487b7160e01b600052602260045260246000fd5b50919050565b634e487b7160e01b600052601160045260246000fd5b80820180821115611702576117026116d9565b92915050565b634e487b7160e01b600052603260045260246000fd5b600060018201611730576117306116d9565b5060010190565b60a08101818360005b60058110156117685781516001600160a01b0316835260209283019290910190600101611740565b50505092915050565b634e487b7160e01b600052601260045260246000fdfea26469706673582212209ba07549572f16805ab30df0084e5eed17d4183faf6eeaf8918f436d7819088964736f6c63430008140033","opcodes":"PUSH1 0x80 PUSH1 0x40 MSTORE CALLVALUE DUP1 ISZERO PUSH3 0x11 JUMPI PUSH1 0x0 DUP1 REVERT JUMPDEST POP PUSH1 0x40 MLOAD PUSH3 0x1F26 CODESIZE SUB DUP1 PUSH3 0x1F26 DUP4 CODECOPY DUP2 ADD PUSH1 0x40 DUP2 SWAP1 MSTORE PUSH3 0x34 SWAP2 PUSH3 0x4A7 JUMP JUMPDEST CALLER DUP1 PUSH3 0x5C JUMPI PUSH1 0x40 MLOAD PUSH4 0x1E4FBDF7 PUSH1 0xE0 SHL DUP2 MSTORE PUSH1 0x0 PUSH1 0x4 DUP3 ADD MSTORE PUSH1 0x24 ADD JUMPDEST PUSH1 0x40 MLOAD DUP1 SWAP2 SUB SWAP1 REVERT JUMPDEST PUSH3 0x67 DUP2 PUSH3 0x2E7 JUMP JUMPDEST POP PUSH1 0x1 DUP1 SSTORE PUSH1 0x33 PUSH1 0xFF DUP6 AND LT DUP1 ISZERO SWAP1 PUSH3 0x85 JUMPI POP PUSH1 0x64 DUP5 PUSH1 0xFF AND GT ISZERO JUMPDEST PUSH3 0xC7 JUMPI PUSH1 0x40 MLOAD PUSH3 0x461BCD PUSH1 0xE5 SHL DUP2 MSTORE PUSH1 0x20 PUSH1 0x4 DUP3 ADD MSTORE PUSH1 0x11 PUSH1 0x24 DUP3 ADD MSTORE PUSH17 0x125B9D985B1A59081D1A1C995CDA1BDB19 PUSH1 0x7A SHL PUSH1 0x44 DUP3 ADD MSTORE PUSH1 0x64 ADD PUSH3 0x53 JUMP JUMPDEST PUSH1 0x0 DUP6 MLOAD GT PUSH3 0x11A JUMPI PUSH1 0x40 MLOAD PUSH3 0x461BCD PUSH1 0xE5 SHL DUP2 MSTORE PUSH1 0x20 PUSH1 0x4 DUP3 ADD MSTORE PUSH1 0x15 PUSH1 0x24 DUP3 ADD MSTORE PUSH32 0x54617267657420746F6B656E2072657175697265640000000000000000000000 PUSH1 0x44 DUP3 ADD MSTORE PUSH1 0x64 ADD PUSH3 0x53 JUMP JUMPDEST PUSH1 0x2 PUSH3 0x128 DUP9 DUP3 PUSH3 0x613 JUMP JUMPDEST POP PUSH1 0x3 PUSH3 0x137 DUP8 DUP3 PUSH3 0x613 JUMP JUMPDEST POP PUSH1 0x4 PUSH3 0x146 DUP7 DUP3 PUSH3 0x613 JUMP JUMPDEST POP PUSH1 0x5 DUP1 SLOAD PUSH1 0x6 DUP6 SWAP1 SSTORE PUSH1 0x1 PUSH1 0x1 PUSH1 0xA8 SHL SUB NOT AND PUSH1 0x1 PUSH1 0xA0 SHL PUSH1 0xFF DUP8 AND MUL PUSH1 0x1 PUSH1 0x1 PUSH1 0xA0 SHL SUB NOT AND OR PUSH1 0x1 PUSH1 0x1 PUSH1 0xA0 SHL SUB DUP5 AND OR SWAP1 SSTORE PUSH1 0x0 JUMPDEST PUSH1 0x5 DUP2 LT ISZERO PUSH3 0x2A0 JUMPI PUSH1 0x0 DUP3 DUP3 PUSH1 0x5 DUP2 LT PUSH3 0x1A0 JUMPI PUSH3 0x1A0 PUSH3 0x6DF JUMP JUMPDEST PUSH1 0x20 MUL ADD MLOAD PUSH1 0x1 PUSH1 0x1 PUSH1 0xA0 SHL SUB AND SUB PUSH3 0x1F1 JUMPI PUSH1 0x40 MLOAD PUSH3 0x461BCD PUSH1 0xE5 SHL DUP2 MSTORE PUSH1 0x20 PUSH1 0x4 DUP3 ADD MSTORE PUSH1 0x11 PUSH1 0x24 DUP3 ADD MSTORE PUSH17 0x24B73B30B634B2103B30B634B230BA37B9 PUSH1 0x79 SHL PUSH1 0x44 DUP3 ADD MSTORE PUSH1 0x64 ADD PUSH3 0x53 JUMP JUMPDEST DUP2 DUP2 PUSH1 0x5 DUP2 LT PUSH3 0x206 JUMPI PUSH3 0x206 PUSH3 0x6DF JUMP JUMPDEST PUSH1 0x20 MUL ADD MLOAD PUSH1 0x8 DUP3 PUSH1 0x5 DUP2 LT PUSH3 0x221 JUMPI PUSH3 0x221 PUSH3 0x6DF JUMP JUMPDEST ADD DUP1 SLOAD PUSH1 0x1 PUSH1 0x1 PUSH1 0xA0 SHL SUB NOT AND PUSH1 0x1 PUSH1 0x1 PUSH1 0xA0 SHL SUB SWAP3 SWAP1 SWAP3 AND SWAP2 SWAP1 SWAP2 OR SWAP1 SSTORE PUSH1 0x1 PUSH1 0xD PUSH1 0x0 DUP5 DUP5 PUSH1 0x5 DUP2 LT PUSH3 0x25B JUMPI PUSH3 0x25B PUSH3 0x6DF JUMP JUMPDEST PUSH1 0x20 SWAP1 DUP2 MUL SWAP2 SWAP1 SWAP2 ADD MLOAD PUSH1 0x1 PUSH1 0x1 PUSH1 0xA0 SHL SUB AND DUP3 MSTORE DUP2 ADD SWAP2 SWAP1 SWAP2 MSTORE PUSH1 0x40 ADD PUSH1 0x0 KECCAK256 DUP1 SLOAD PUSH1 0xFF NOT AND SWAP2 ISZERO ISZERO SWAP2 SWAP1 SWAP2 OR SWAP1 SSTORE DUP1 PUSH3 0x297 DUP2 PUSH3 0x6F5 JUMP JUMPDEST SWAP2 POP POP PUSH3 0x17F JUMP JUMPDEST POP PUSH32 0xB97A76B184160AD9B56B3CD68A81377EEC64B471B84FF87BA40304754C11B3A DUP2 PUSH1 0x40 MLOAD PUSH3 0x2D2 SWAP2 SWAP1 PUSH3 0x71D JUMP JUMPDEST PUSH1 0x40 MLOAD DUP1 SWAP2 SUB SWAP1 LOG1 POP POP POP POP POP POP POP PUSH3 0x759 JUMP JUMPDEST PUSH1 0x0 DUP1 SLOAD PUSH1 0x1 PUSH1 0x1 PUSH1 0xA0 SHL SUB DUP4 DUP2 AND PUSH1 0x1 PUSH1 0x1 PUSH1 0xA0 SHL SUB NOT DUP4 AND DUP2 OR DUP5 SSTORE PUSH1 0x40 MLOAD SWAP2 SWAP1 SWAP3 AND SWAP3 DUP4 SWAP2 PUSH32 0x8BE0079C531659141344CD1FD0A4F28419497F9722A3DAAFE3B4186F6B6457E0 SWAP2 SWAP1 LOG3 POP POP JUMP JUMPDEST PUSH4 0x4E487B71 PUSH1 0xE0 SHL PUSH1 0x0 MSTORE PUSH1 0x41 PUSH1 0x4 MSTORE PUSH1 0x24 PUSH1 0x0 REVERT JUMPDEST PUSH1 0x40 MLOAD PUSH1 0x1F DUP3 ADD PUSH1 0x1F NOT AND DUP2 ADD PUSH1 0x1 PUSH1 0x1 PUSH1 0x40 SHL SUB DUP2 GT DUP3 DUP3 LT OR ISZERO PUSH3 0x378 JUMPI PUSH3 0x378 PUSH3 0x337 JUMP JUMPDEST PUSH1 0x40 MSTORE SWAP2 SWAP1 POP JUMP JUMPDEST PUSH1 0x0 DUP3 PUSH1 0x1F DUP4 ADD SLT PUSH3 0x392 JUMPI PUSH1 0x0 DUP1 REVERT JUMPDEST DUP2 MLOAD PUSH1 0x1 PUSH1 0x1 PUSH1 0x40 SHL SUB DUP2 GT ISZERO PUSH3 0x3AE JUMPI PUSH3 0x3AE PUSH3 0x337 JUMP JUMPDEST PUSH1 0x20 PUSH3 0x3C4 PUSH1 0x1F DUP4 ADD PUSH1 0x1F NOT AND DUP3 ADD PUSH3 0x34D JUMP JUMPDEST DUP3 DUP2 MSTORE DUP6 DUP3 DUP5 DUP8 ADD ADD GT ISZERO PUSH3 0x3D9 JUMPI PUSH1 0x0 DUP1 REVERT JUMPDEST PUSH1 0x0 JUMPDEST DUP4 DUP2 LT ISZERO PUSH3 0x3F9 JUMPI DUP6 DUP2 ADD DUP4 ADD MLOAD DUP3 DUP3 ADD DUP5 ADD MSTORE DUP3 ADD PUSH3 0x3DC JUMP JUMPDEST POP PUSH1 0x0 SWAP3 DUP2 ADD SWAP1 SWAP2 ADD SWAP2 SWAP1 SWAP2 MSTORE SWAP4 SWAP3 POP POP POP JUMP JUMPDEST DUP1 MLOAD PUSH1 0x1 PUSH1 0x1 PUSH1 0xA0 SHL SUB DUP2 AND DUP2 EQ PUSH3 0x425 JUMPI PUSH1 0x0 DUP1 REVERT JUMPDEST SWAP2 SWAP1 POP JUMP JUMPDEST PUSH1 0x0 DUP3 PUSH1 0x1F DUP4 ADD SLT PUSH3 0x43C JUMPI PUSH1 0x0 DUP1 REVERT JUMPDEST PUSH1 0x40 MLOAD PUSH1 0xA0 DUP2 ADD PUSH1 0x1 PUSH1 0x1 PUSH1 0x40 SHL SUB DUP2 GT DUP3 DUP3 LT OR ISZERO PUSH3 0x461 JUMPI PUSH3 0x461 PUSH3 0x337 JUMP JUMPDEST PUSH1 0x40 MSTORE DUP1 PUSH1 0xA0 DUP5 ADD DUP6 DUP2 GT ISZERO PUSH3 0x477 JUMPI PUSH1 0x0 DUP1 REVERT JUMPDEST DUP5 JUMPDEST DUP2 DUP2 LT ISZERO PUSH3 0x49C JUMPI PUSH3 0x48D DUP2 PUSH3 0x40D JUMP JUMPDEST DUP4 MSTORE PUSH1 0x20 SWAP3 DUP4 ADD SWAP3 ADD PUSH3 0x479 JUMP JUMPDEST POP SWAP2 SWAP6 SWAP5 POP POP POP POP POP JUMP JUMPDEST PUSH1 0x0 DUP1 PUSH1 0x0 DUP1 PUSH1 0x0 DUP1 PUSH1 0x0 PUSH2 0x160 DUP9 DUP11 SUB SLT ISZERO PUSH3 0x4C4 JUMPI PUSH1 0x0 DUP1 REVERT JUMPDEST DUP8 MLOAD PUSH1 0x1 PUSH1 0x1 PUSH1 0x40 SHL SUB DUP1 DUP3 GT ISZERO PUSH3 0x4DC JUMPI PUSH1 0x0 DUP1 REVERT JUMPDEST PUSH3 0x4EA DUP12 DUP4 DUP13 ADD PUSH3 0x380 JUMP JUMPDEST SWAP9 POP PUSH1 0x20 DUP11 ADD MLOAD SWAP2 POP DUP1 DUP3 GT ISZERO PUSH3 0x501 JUMPI PUSH1 0x0 DUP1 REVERT JUMPDEST PUSH3 0x50F DUP12 DUP4 DUP13 ADD PUSH3 0x380 JUMP JUMPDEST SWAP8 POP PUSH1 0x40 DUP11 ADD MLOAD SWAP2 POP DUP1 DUP3 GT ISZERO PUSH3 0x526 JUMPI PUSH1 0x0 DUP1 REVERT JUMPDEST POP PUSH3 0x535 DUP11 DUP3 DUP12 ADD PUSH3 0x380 JUMP JUMPDEST SWAP6 POP POP PUSH1 0x60 DUP9 ADD MLOAD PUSH1 0xFF DUP2 AND DUP2 EQ PUSH3 0x54D JUMPI PUSH1 0x0 DUP1 REVERT JUMPDEST PUSH1 0x80 DUP10 ADD MLOAD SWAP1 SWAP5 POP SWAP3 POP PUSH3 0x565 PUSH1 0xA0 DUP10 ADD PUSH3 0x40D JUMP JUMPDEST SWAP2 POP PUSH3 0x576 DUP10 PUSH1 0xC0 DUP11 ADD PUSH3 0x42A JUMP JUMPDEST SWAP1 POP SWAP3 SWAP6 SWAP9 SWAP2 SWAP5 SWAP8 POP SWAP3 SWAP6 POP JUMP JUMPDEST PUSH1 0x1 DUP2 DUP2 SHR SWAP1 DUP3 AND DUP1 PUSH3 0x599 JUMPI PUSH1 0x7F DUP3 AND SWAP2 POP JUMPDEST PUSH1 0x20 DUP3 LT DUP2 SUB PUSH3 0x5BA JUMPI PUSH4 0x4E487B71 PUSH1 0xE0 SHL PUSH1 0x0 MSTORE PUSH1 0x22 PUSH1 0x4 MSTORE PUSH1 0x24 PUSH1 0x0 REVERT JUMPDEST POP SWAP2 SWAP1 POP JUMP JUMPDEST PUSH1 0x1F DUP3 GT ISZERO PUSH3 0x60E JUMPI PUSH1 0x0 DUP2 DUP2 MSTORE PUSH1 0x20 DUP2 KECCAK256 PUSH1 0x1F DUP6 ADD PUSH1 0x5 SHR DUP2 ADD PUSH1 0x20 DUP7 LT ISZERO PUSH3 0x5E9 JUMPI POP DUP1 JUMPDEST PUSH1 0x1F DUP6 ADD PUSH1 0x5 SHR DUP3 ADD SWAP2 POP JUMPDEST DUP2 DUP2 LT ISZERO PUSH3 0x60A JUMPI DUP3 DUP2 SSTORE PUSH1 0x1 ADD PUSH3 0x5F5 JUMP JUMPDEST POP POP POP JUMPDEST POP POP POP JUMP JUMPDEST DUP2 MLOAD PUSH1 0x1 PUSH1 0x1 PUSH1 0x40 SHL SUB DUP2 GT ISZERO PUSH3 0x62F JUMPI PUSH3 0x62F PUSH3 0x337 JUMP JUMPDEST PUSH3 0x647 DUP2 PUSH3 0x640 DUP5 SLOAD PUSH3 0x584 JUMP JUMPDEST DUP5 PUSH3 0x5C0 JUMP JUMPDEST PUSH1 0x20 DUP1 PUSH1 0x1F DUP4 GT PUSH1 0x1 DUP2 EQ PUSH3 0x67F JUMPI PUSH1 0x0 DUP5 ISZERO PUSH3 0x666 JUMPI POP DUP6 DUP4 ADD MLOAD JUMPDEST PUSH1 0x0 NOT PUSH1 0x3 DUP7 SWAP1 SHL SHR NOT AND PUSH1 0x1 DUP6 SWAP1 SHL OR DUP6 SSTORE PUSH3 0x60A JUMP JUMPDEST PUSH1 0x0 DUP6 DUP2 MSTORE PUSH1 0x20 DUP2 KECCAK256 PUSH1 0x1F NOT DUP7 AND SWAP2 JUMPDEST DUP3 DUP2 LT ISZERO PUSH3 0x6B0 JUMPI DUP9 DUP7 ADD MLOAD DUP3 SSTORE SWAP5 DUP5 ADD SWAP5 PUSH1 0x1 SWAP1 SWAP2 ADD SWAP1 DUP5 ADD PUSH3 0x68F JUMP JUMPDEST POP DUP6 DUP3 LT ISZERO PUSH3 0x6CF JUMPI DUP8 DUP6 ADD MLOAD PUSH1 0x0 NOT PUSH1 0x3 DUP9 SWAP1 SHL PUSH1 0xF8 AND SHR NOT AND DUP2 SSTORE JUMPDEST POP POP POP POP POP PUSH1 0x1 SWAP1 DUP2 SHL ADD SWAP1 SSTORE POP JUMP JUMPDEST PUSH4 0x4E487B71 PUSH1 0xE0 SHL PUSH1 0x0 MSTORE PUSH1 0x32 PUSH1 0x4 MSTORE PUSH1 0x24 PUSH1 0x0 REVERT JUMPDEST PUSH1 0x0 PUSH1 0x1 DUP3 ADD PUSH3 0x716 JUMPI PUSH4 0x4E487B71 PUSH1 0xE0 SHL PUSH1 0x0 MSTORE PUSH1 0x11 PUSH1 0x4 MSTORE PUSH1 0x24 PUSH1 0x0 REVERT JUMPDEST POP PUSH1 0x1 ADD SWAP1 JUMP JUMPDEST PUSH1 0xA0 DUP2 ADD DUP2 DUP4 PUSH1 0x0 JUMPDEST PUSH1 0x5 DUP2 LT ISZERO PUSH3 0x750 JUMPI DUP2 MLOAD PUSH1 0x1 PUSH1 0x1 PUSH1 0xA0 SHL SUB AND DUP4 MSTORE PUSH1 0x20 SWAP3 DUP4 ADD SWAP3 SWAP1 SWAP2 ADD SWAP1 PUSH1 0x1 ADD PUSH3 0x726 JUMP JUMPDEST POP POP POP SWAP3 SWAP2 POP POP JUMP JUMPDEST PUSH2 0x17BD DUP1 PUSH3 0x769 PUSH1 0x0 CODECOPY PUSH1 0x0 RETURN INVALID PUSH1 0x80 PUSH1 0x40 MSTORE CALLVALUE DUP1 ISZERO PUSH2 0x10 JUMPI PUSH1 0x0 DUP1 REVERT JUMPDEST POP PUSH1 0x4 CALLDATASIZE LT PUSH2 0x141 JUMPI PUSH1 0x0 CALLDATALOAD PUSH1 0xE0 SHR DUP1 PUSH4 0x8DA5CB5B GT PUSH2 0xB8 JUMPI DUP1 PUSH4 0xEE8132BD GT PUSH2 0x7C JUMPI DUP1 PUSH4 0xEE8132BD EQ PUSH2 0x2EB JUMPI DUP1 PUSH4 0xF2FDE38B EQ PUSH2 0x2FE JUMPI DUP1 PUSH4 0xF7B92FCD EQ PUSH2 0x311 JUMPI DUP1 PUSH4 0xF9B0B5B9 EQ PUSH2 0x333 JUMPI DUP1 PUSH4 0xFACD743B EQ PUSH2 0x359 JUMPI DUP1 PUSH4 0xFDCE5E42 EQ PUSH2 0x37C JUMPI PUSH1 0x0 DUP1 REVERT JUMPDEST DUP1 PUSH4 0x8DA5CB5B EQ PUSH2 0x293 JUMPI DUP1 PUSH4 0x92AC27F9 EQ PUSH2 0x2A4 JUMPI DUP1 PUSH4 0x95D89B41 EQ PUSH2 0x2B7 JUMPI DUP1 PUSH4 0x963398BD EQ PUSH2 0x2BF JUMPI DUP1 PUSH4 0xC0463711 EQ PUSH2 0x2E2 JUMPI PUSH1 0x0 DUP1 REVERT JUMPDEST DUP1 PUSH4 0x395924DC GT PUSH2 0x10A JUMPI DUP1 PUSH4 0x395924DC EQ PUSH2 0x1BD JUMPI DUP1 PUSH4 0x3E8686CC EQ PUSH2 0x208 JUMPI DUP1 PUSH4 0x4D44B9E7 EQ PUSH2 0x24D JUMPI DUP1 PUSH4 0x673EA086 EQ PUSH2 0x26D JUMPI DUP1 PUSH4 0x715018A6 EQ PUSH2 0x276 JUMPI DUP1 PUSH4 0x7B103999 EQ PUSH2 0x280 JUMPI PUSH1 0x0 DUP1 REVERT JUMPDEST DUP1 PUSH3 0xF1ABF5 EQ PUSH2 0x146 JUMPI DUP1 PUSH4 0x6FDDE03 EQ PUSH2 0x15D JUMPI DUP1 PUSH4 0x327107F7 EQ PUSH2 0x172 JUMPI DUP1 PUSH4 0x346C9409 EQ PUSH2 0x17A JUMPI DUP1 PUSH4 0x35AA2E44 EQ PUSH2 0x192 JUMPI JUMPDEST PUSH1 0x0 DUP1 REVERT JUMPDEST PUSH1 0x16 SLOAD JUMPDEST PUSH1 0x40 MLOAD SWAP1 DUP2 MSTORE PUSH1 0x20 ADD JUMPDEST PUSH1 0x40 MLOAD DUP1 SWAP2 SUB SWAP1 RETURN JUMPDEST PUSH2 0x165 PUSH2 0x402 JUMP JUMPDEST PUSH1 0x40 MLOAD PUSH2 0x154 SWAP2 SWAP1 PUSH2 0x150E JUMP JUMPDEST PUSH2 0x165 PUSH2 0x490 JUMP JUMPDEST PUSH2 0x182 PUSH2 0x49D JUMP JUMPDEST PUSH1 0x40 MLOAD SWAP1 ISZERO ISZERO DUP2 MSTORE PUSH1 0x20 ADD PUSH2 0x154 JUMP JUMPDEST PUSH2 0x1A5 PUSH2 0x1A0 CALLDATASIZE PUSH1 0x4 PUSH2 0x155C JUMP JUMPDEST PUSH2 0x4B7 JUMP JUMPDEST PUSH1 0x40 MLOAD PUSH1 0x1 PUSH1 0x1 PUSH1 0xA0 SHL SUB SWAP1 SWAP2 AND DUP2 MSTORE PUSH1 0x20 ADD PUSH2 0x154 JUMP JUMPDEST PUSH1 0xF SLOAD PUSH1 0x10 SLOAD PUSH1 0x11 SLOAD PUSH1 0x12 SLOAD PUSH1 0x13 SLOAD PUSH1 0x14 SLOAD PUSH1 0x15 SLOAD JUMPDEST PUSH1 0x40 DUP1 MLOAD SWAP8 DUP9 MSTORE PUSH1 0x20 DUP9 ADD SWAP7 SWAP1 SWAP7 MSTORE SWAP5 DUP7 ADD SWAP4 SWAP1 SWAP4 MSTORE PUSH1 0x60 DUP6 ADD SWAP2 SWAP1 SWAP2 MSTORE PUSH1 0x80 DUP5 ADD MSTORE PUSH1 0xA0 DUP4 ADD MSTORE PUSH1 0xC0 DUP3 ADD MSTORE PUSH1 0xE0 ADD PUSH2 0x154 JUMP JUMPDEST PUSH2 0x21B PUSH2 0x216 CALLDATASIZE PUSH1 0x4 PUSH2 0x155C JUMP JUMPDEST PUSH2 0x4D7 JUMP JUMPDEST PUSH1 0x40 DUP1 MLOAD PUSH1 0x1 PUSH1 0x1 PUSH1 0xA0 SHL SUB SWAP1 SWAP7 AND DUP7 MSTORE PUSH1 0x20 DUP7 ADD SWAP5 SWAP1 SWAP5 MSTORE SWAP3 DUP5 ADD SWAP2 SWAP1 SWAP2 MSTORE PUSH1 0x60 DUP4 ADD MSTORE PUSH1 0x80 DUP3 ADD MSTORE PUSH1 0xA0 ADD PUSH2 0x154 JUMP JUMPDEST PUSH2 0x14A PUSH2 0x25B CALLDATASIZE PUSH1 0x4 PUSH2 0x1591 JUMP JUMPDEST PUSH1 0xE PUSH1 0x20 MSTORE PUSH1 0x0 SWAP1 DUP2 MSTORE PUSH1 0x40 SWAP1 KECCAK256 SLOAD DUP2 JUMP JUMPDEST PUSH2 0x14A PUSH1 0x6 SLOAD DUP2 JUMP JUMPDEST PUSH2 0x27E PUSH2 0x5FB JUMP JUMPDEST STOP JUMPDEST PUSH1 0x5 SLOAD PUSH2 0x1A5 SWAP1 PUSH1 0x1 PUSH1 0x1 PUSH1 0xA0 SHL SUB AND DUP2 JUMP JUMPDEST PUSH1 0x0 SLOAD PUSH1 0x1 PUSH1 0x1 PUSH1 0xA0 SHL SUB AND PUSH2 0x1A5 JUMP JUMPDEST PUSH2 0x27E PUSH2 0x2B2 CALLDATASIZE PUSH1 0x4 PUSH2 0x15C9 JUMP JUMPDEST PUSH2 0x60F JUMP JUMPDEST PUSH2 0x165 PUSH2 0x7C6 JUMP JUMPDEST PUSH2 0x182 PUSH2 0x2CD CALLDATASIZE PUSH1 0x4 PUSH2 0x1591 JUMP JUMPDEST PUSH1 0x17 PUSH1 0x20 MSTORE PUSH1 0x0 SWAP1 DUP2 MSTORE PUSH1 0x40 SWAP1 KECCAK256 SLOAD PUSH1 0xFF AND DUP2 JUMP JUMPDEST PUSH2 0x14A PUSH1 0x7 SLOAD DUP2 JUMP JUMPDEST PUSH2 0x27E PUSH2 0x2F9 CALLDATASIZE PUSH1 0x4 PUSH2 0x165C JUMP JUMPDEST PUSH2 0x7D3 JUMP JUMPDEST PUSH2 0x27E PUSH2 0x30C CALLDATASIZE PUSH1 0x4 PUSH2 0x1591 JUMP JUMPDEST PUSH2 0xC01 JUMP JUMPDEST PUSH1 0xF SLOAD PUSH1 0x10 SLOAD PUSH1 0x11 SLOAD PUSH1 0x12 SLOAD PUSH1 0x13 SLOAD PUSH1 0x14 SLOAD PUSH1 0x15 SLOAD PUSH2 0x1D3 SWAP7 SWAP6 SWAP5 SWAP4 SWAP3 SWAP2 SWAP1 DUP8 JUMP JUMPDEST PUSH1 0x5 SLOAD PUSH2 0x347 SWAP1 PUSH1 0x1 PUSH1 0xA0 SHL SWAP1 DIV PUSH1 0xFF AND DUP2 JUMP JUMPDEST PUSH1 0x40 MLOAD PUSH1 0xFF SWAP1 SWAP2 AND DUP2 MSTORE PUSH1 0x20 ADD PUSH2 0x154 JUMP JUMPDEST PUSH2 0x182 PUSH2 0x367 CALLDATASIZE PUSH1 0x4 PUSH2 0x1591 JUMP JUMPDEST PUSH1 0xD PUSH1 0x20 MSTORE PUSH1 0x0 SWAP1 DUP2 MSTORE PUSH1 0x40 SWAP1 KECCAK256 SLOAD PUSH1 0xFF AND DUP2 JUMP JUMPDEST PUSH2 0x38F PUSH2 0x38A CALLDATASIZE PUSH1 0x4 PUSH2 0x155C JUMP JUMPDEST PUSH2 0xC3F JUMP JUMPDEST PUSH1 0x40 DUP1 MLOAD PUSH1 0x1 PUSH1 0x1 PUSH1 0xA0 SHL SUB SWAP1 SWAP6 AND DUP6 MSTORE DUP4 MLOAD PUSH1 0x20 DUP1 DUP8 ADD SWAP2 SWAP1 SWAP2 MSTORE DUP5 ADD MLOAD DUP6 DUP3 ADD MSTORE DUP4 ADD MLOAD PUSH1 0x60 DUP1 DUP7 ADD SWAP2 SWAP1 SWAP2 MSTORE DUP4 ADD MLOAD PUSH1 0x80 DUP1 DUP7 ADD SWAP2 SWAP1 SWAP2 MSTORE DUP4 ADD MLOAD PUSH1 0xA0 DUP1 DUP7 ADD SWAP2 SWAP1 SWAP2 MSTORE DUP4 ADD MLOAD PUSH1 0xC0 DUP1 DUP7 ADD SWAP2 SWAP1 SWAP2 MSTORE SWAP1 SWAP3 ADD MLOAD PUSH1 0xE0 DUP5 ADD MSTORE PUSH2 0x100 DUP4 ADD MSTORE ISZERO ISZERO PUSH2 0x120 DUP3 ADD MSTORE PUSH2 0x140 ADD PUSH2 0x154 JUMP JUMPDEST PUSH1 0x2 DUP1 SLOAD PUSH2 0x40F SWAP1 PUSH2 0x169F JUMP JUMPDEST DUP1 PUSH1 0x1F ADD PUSH1 0x20 DUP1 SWAP2 DIV MUL PUSH1 0x20 ADD PUSH1 0x40 MLOAD SWAP1 DUP2 ADD PUSH1 0x40 MSTORE DUP1 SWAP3 SWAP2 SWAP1 DUP2 DUP2 MSTORE PUSH1 0x20 ADD DUP3 DUP1 SLOAD PUSH2 0x43B SWAP1 PUSH2 0x169F JUMP JUMPDEST DUP1 ISZERO PUSH2 0x488 JUMPI DUP1 PUSH1 0x1F LT PUSH2 0x45D JUMPI PUSH2 0x100 DUP1 DUP4 SLOAD DIV MUL DUP4 MSTORE SWAP2 PUSH1 0x20 ADD SWAP2 PUSH2 0x488 JUMP JUMPDEST DUP3 ADD SWAP2 SWAP1 PUSH1 0x0 MSTORE PUSH1 0x20 PUSH1 0x0 KECCAK256 SWAP1 JUMPDEST DUP2 SLOAD DUP2 MSTORE SWAP1 PUSH1 0x1 ADD SWAP1 PUSH1 0x20 ADD DUP1 DUP4 GT PUSH2 0x46B JUMPI DUP3 SWAP1 SUB PUSH1 0x1F AND DUP3 ADD SWAP2 JUMPDEST POP POP POP POP POP DUP2 JUMP JUMPDEST PUSH1 0x4 DUP1 SLOAD PUSH2 0x40F SWAP1 PUSH2 0x169F JUMP JUMPDEST PUSH1 0x0 PUSH1 0x6 SLOAD PUSH1 0x7 SLOAD PUSH2 0x4AF SWAP2 SWAP1 PUSH2 0x16EF JUMP JUMPDEST TIMESTAMP LT ISZERO SWAP1 POP SWAP1 JUMP JUMPDEST PUSH1 0x8 DUP2 PUSH1 0x5 DUP2 LT PUSH2 0x4C7 JUMPI PUSH1 0x0 DUP1 REVERT JUMPDEST ADD SLOAD PUSH1 0x1 PUSH1 0x1 PUSH1 0xA0 SHL SUB AND SWAP1 POP DUP2 JUMP JUMPDEST PUSH1 0x0 DUP1 PUSH1 0x0 DUP1 PUSH1 0x0 PUSH1 0x16 DUP1 SLOAD SWAP1 POP DUP7 LT PUSH2 0x528 JUMPI PUSH1 0x40 MLOAD PUSH3 0x461BCD PUSH1 0xE5 SHL DUP2 MSTORE PUSH1 0x20 PUSH1 0x4 DUP3 ADD MSTORE PUSH1 0xD PUSH1 0x24 DUP3 ADD MSTORE PUSH13 0x92DCECC2D8D2C840D2DCC8CAF PUSH1 0x9B SHL PUSH1 0x44 DUP3 ADD MSTORE PUSH1 0x64 ADD JUMPDEST PUSH1 0x40 MLOAD DUP1 SWAP2 SUB SWAP1 REVERT JUMPDEST PUSH1 0x0 PUSH1 0x16 DUP8 DUP2 SLOAD DUP2 LT PUSH2 0x53D JUMPI PUSH2 0x53D PUSH2 0x1708 JUMP JUMPDEST PUSH1 0x0 SWAP2 DUP3 MSTORE PUSH1 0x20 SWAP2 DUP3 SWAP1 KECCAK256 PUSH1 0x40 DUP1 MLOAD PUSH1 0x80 DUP1 DUP3 ADD DUP4 MSTORE PUSH1 0xA SWAP5 SWAP1 SWAP5 MUL SWAP1 SWAP3 ADD DUP1 SLOAD PUSH1 0x1 PUSH1 0x1 PUSH1 0xA0 SHL SUB AND DUP4 MSTORE DUP2 MLOAD PUSH1 0xE0 DUP2 ADD DUP4 MSTORE PUSH1 0x1 DUP3 ADD SLOAD DUP2 MSTORE PUSH1 0x2 DUP3 ADD SLOAD DUP2 DUP8 ADD SWAP1 DUP2 MSTORE PUSH1 0x3 DUP4 ADD SLOAD DUP3 DUP6 ADD SWAP1 DUP2 MSTORE PUSH1 0x4 DUP5 ADD SLOAD PUSH1 0x60 DUP1 DUP6 ADD SWAP2 SWAP1 SWAP2 MSTORE PUSH1 0x5 DUP6 ADD SLOAD SWAP8 DUP5 ADD SWAP8 SWAP1 SWAP8 MSTORE PUSH1 0x6 DUP5 ADD SLOAD PUSH1 0xA0 DUP5 ADD MSTORE PUSH1 0x7 DUP5 ADD SLOAD PUSH1 0xC0 DUP5 ADD MSTORE SWAP7 DUP6 ADD DUP3 SWAP1 MSTORE PUSH1 0x8 DUP4 ADD SLOAD SWAP4 DUP6 ADD DUP5 SWAP1 MSTORE PUSH1 0x9 SWAP1 SWAP3 ADD SLOAD PUSH1 0xFF AND ISZERO ISZERO SWAP5 DUP5 ADD SWAP5 SWAP1 SWAP5 MSTORE SWAP2 MLOAD SWAP3 MLOAD SWAP2 MLOAD SWAP4 MLOAD SWAP3 SWAP12 SWAP2 SWAP11 POP SWAP3 SWAP9 POP SWAP1 SWAP7 POP SWAP1 SWAP5 POP SWAP3 POP POP POP JUMP JUMPDEST PUSH2 0x603 PUSH2 0xCCE JUMP JUMPDEST PUSH2 0x60D PUSH1 0x0 PUSH2 0xCFB JUMP JUMPDEST JUMP JUMPDEST PUSH2 0x617 PUSH2 0xCCE JUMP JUMPDEST PUSH1 0x0 JUMPDEST PUSH1 0x5 DUP2 LT ISZERO PUSH2 0x678 JUMPI PUSH1 0x0 PUSH1 0xD PUSH1 0x0 PUSH1 0x8 DUP5 PUSH1 0x5 DUP2 LT PUSH2 0x63C JUMPI PUSH2 0x63C PUSH2 0x1708 JUMP JUMPDEST ADD SLOAD PUSH1 0x1 PUSH1 0x1 PUSH1 0xA0 SHL SUB AND DUP2 MSTORE PUSH1 0x20 DUP2 ADD SWAP2 SWAP1 SWAP2 MSTORE PUSH1 0x40 ADD PUSH1 0x0 KECCAK256 DUP1 SLOAD PUSH1 0xFF NOT AND SWAP2 ISZERO ISZERO SWAP2 SWAP1 SWAP2 OR SWAP1 SSTORE DUP1 PUSH2 0x670 DUP2 PUSH2 0x171E JUMP JUMPDEST SWAP2 POP POP PUSH2 0x61A JUMP JUMPDEST POP PUSH1 0x0 JUMPDEST PUSH1 0x5 DUP2 LT ISZERO PUSH2 0x78B JUMPI PUSH1 0x0 DUP3 DUP3 PUSH1 0x5 DUP2 LT PUSH2 0x699 JUMPI PUSH2 0x699 PUSH2 0x1708 JUMP JUMPDEST PUSH1 0x20 MUL ADD MLOAD PUSH1 0x1 PUSH1 0x1 PUSH1 0xA0 SHL SUB AND SUB PUSH2 0x6E8 JUMPI PUSH1 0x40 MLOAD PUSH3 0x461BCD PUSH1 0xE5 SHL DUP2 MSTORE PUSH1 0x20 PUSH1 0x4 DUP3 ADD MSTORE PUSH1 0x11 PUSH1 0x24 DUP3 ADD MSTORE PUSH17 0x24B73B30B634B2103B30B634B230BA37B9 PUSH1 0x79 SHL PUSH1 0x44 DUP3 ADD MSTORE PUSH1 0x64 ADD PUSH2 0x51F JUMP JUMPDEST DUP2 DUP2 PUSH1 0x5 DUP2 LT PUSH2 0x6FA JUMPI PUSH2 0x6FA PUSH2 0x1708 JUMP JUMPDEST PUSH1 0x20 MUL ADD MLOAD PUSH1 0x8 DUP3 PUSH1 0x5 DUP2 LT PUSH2 0x712 JUMPI PUSH2 0x712 PUSH2 0x1708 JUMP JUMPDEST ADD DUP1 SLOAD PUSH1 0x1 PUSH1 0x1 PUSH1 0xA0 SHL SUB NOT AND PUSH1 0x1 PUSH1 0x1 PUSH1 0xA0 SHL SUB SWAP3 SWAP1 SWAP3 AND SWAP2 SWAP1 SWAP2 OR SWAP1 SSTORE PUSH1 0x1 PUSH1 0xD PUSH1 0x0 DUP5 DUP5 PUSH1 0x5 DUP2 LT PUSH2 0x749 JUMPI PUSH2 0x749 PUSH2 0x1708 JUMP JUMPDEST PUSH1 0x20 SWAP1 DUP2 MUL SWAP2 SWAP1 SWAP2 ADD MLOAD PUSH1 0x1 PUSH1 0x1 PUSH1 0xA0 SHL SUB AND DUP3 MSTORE DUP2 ADD SWAP2 SWAP1 SWAP2 MSTORE PUSH1 0x40 ADD PUSH1 0x0 KECCAK256 DUP1 SLOAD PUSH1 0xFF NOT AND SWAP2 ISZERO ISZERO SWAP2 SWAP1 SWAP2 OR SWAP1 SSTORE DUP1 PUSH2 0x783 DUP2 PUSH2 0x171E JUMP JUMPDEST SWAP2 POP POP PUSH2 0x67C JUMP JUMPDEST POP PUSH32 0xB97A76B184160AD9B56B3CD68A81377EEC64B471B84FF87BA40304754C11B3A DUP2 PUSH1 0x40 MLOAD PUSH2 0x7BB SWAP2 SWAP1 PUSH2 0x1737 JUMP JUMPDEST PUSH1 0x40 MLOAD DUP1 SWAP2 SUB SWAP1 LOG1 POP JUMP JUMPDEST PUSH1 0x3 DUP1 SLOAD PUSH2 0x40F SWAP1 PUSH2 0x169F JUMP JUMPDEST PUSH2 0x7DB PUSH2 0xD4B JUMP JUMPDEST CALLER PUSH1 0x0 SWAP1 DUP2 MSTORE PUSH1 0xD PUSH1 0x20 MSTORE PUSH1 0x40 SWAP1 KECCAK256 SLOAD PUSH1 0xFF AND PUSH2 0x82C JUMPI PUSH1 0x40 MLOAD PUSH3 0x461BCD PUSH1 0xE5 SHL DUP2 MSTORE PUSH1 0x20 PUSH1 0x4 DUP3 ADD MSTORE PUSH1 0xF PUSH1 0x24 DUP3 ADD MSTORE PUSH15 0x2737BA1030903B30B634B230BA37B9 PUSH1 0x89 SHL PUSH1 0x44 DUP3 ADD MSTORE PUSH1 0x64 ADD PUSH2 0x51F JUMP JUMPDEST CALLER PUSH1 0x0 SWAP1 DUP2 MSTORE PUSH1 0x17 PUSH1 0x20 MSTORE PUSH1 0x40 SWAP1 KECCAK256 SLOAD PUSH1 0xFF AND ISZERO PUSH2 0x880 JUMPI PUSH1 0x40 MLOAD PUSH3 0x461BCD PUSH1 0xE5 SHL DUP2 MSTORE PUSH1 0x20 PUSH1 0x4 DUP3 ADD MSTORE PUSH1 0x11 PUSH1 0x24 DUP3 ADD MSTORE PUSH17 0x105B1C9958591E481CDD589B5A5D1D1959 PUSH1 0x7A SHL PUSH1 0x44 DUP3 ADD MSTORE PUSH1 0x64 ADD PUSH2 0x51F JUMP JUMPDEST PUSH2 0x270F NOT DUP6 SLT ISZERO DUP1 ISZERO PUSH2 0x895 JUMPI POP PUSH2 0x2710 DUP6 SGT ISZERO JUMPDEST PUSH2 0x8D5 JUMPI PUSH1 0x40 MLOAD PUSH3 0x461BCD PUSH1 0xE5 SHL DUP2 MSTORE PUSH1 0x20 PUSH1 0x4 DUP3 ADD MSTORE PUSH1 0x11 PUSH1 0x24 DUP3 ADD MSTORE PUSH17 0x125B9D985B1A59081CD95B9D1A5B595B9D PUSH1 0x7A SHL PUSH1 0x44 DUP3 ADD MSTORE PUSH1 0x64 ADD PUSH2 0x51F JUMP JUMPDEST PUSH2 0x2710 DUP5 GT ISZERO PUSH2 0x927 JUMPI PUSH1 0x40 MLOAD PUSH3 0x461BCD PUSH1 0xE5 SHL DUP2 MSTORE PUSH1 0x20 PUSH1 0x4 DUP3 ADD MSTORE PUSH1 0x17 PUSH1 0x24 DUP3 ADD MSTORE PUSH32 0x496E76616C696420656E676167656D656E742072617465000000000000000000 PUSH1 0x44 DUP3 ADD MSTORE PUSH1 0x64 ADD PUSH2 0x51F JUMP JUMPDEST PUSH1 0x40 DUP1 MLOAD PUSH1 0xE0 DUP2 ADD DUP3 MSTORE DUP8 DUP2 MSTORE PUSH1 0x20 DUP1 DUP3 ADD DUP9 SWAP1 MSTORE DUP2 DUP4 ADD DUP8 SWAP1 MSTORE PUSH1 0x60 DUP1 DUP4 ADD DUP8 SWAP1 MSTORE PUSH1 0x80 DUP1 DUP5 ADD DUP8 SWAP1 MSTORE PUSH1 0xA0 DUP1 DUP6 ADD DUP8 SWAP1 MSTORE TIMESTAMP PUSH1 0xC0 DUP1 DUP8 ADD DUP3 SWAP1 MSTORE DUP8 MLOAD DUP1 DUP6 ADD DUP10 MSTORE CALLER DUP1 DUP3 MSTORE DUP2 DUP9 ADD DUP10 DUP2 MSTORE DUP3 DUP12 ADD DUP6 DUP2 MSTORE PUSH1 0x0 DUP5 DUP11 ADD DUP2 DUP2 MSTORE PUSH1 0x16 DUP1 SLOAD PUSH1 0x1 DUP1 DUP3 ADD DUP4 SSTORE SWAP2 DUP5 MSTORE SWAP7 MLOAD PUSH1 0xA SWAP1 SWAP8 MUL PUSH32 0xD833147D7DC355BA459FC788F669E58CFAF9DC25DDCD0702E87D69C7B5124289 DUP2 ADD DUP1 SLOAD PUSH1 0x1 PUSH1 0x1 PUSH1 0xA0 SHL SUB SWAP1 SWAP10 AND PUSH1 0x1 PUSH1 0x1 PUSH1 0xA0 SHL SUB NOT SWAP1 SWAP10 AND SWAP9 SWAP1 SWAP9 OR SWAP1 SWAP8 SSTORE SWAP4 MLOAD DUP1 MLOAD PUSH32 0xD833147D7DC355BA459FC788F669E58CFAF9DC25DDCD0702E87D69C7B512428A DUP9 ADD SSTORE DUP1 DUP14 ADD MLOAD PUSH32 0xD833147D7DC355BA459FC788F669E58CFAF9DC25DDCD0702E87D69C7B512428B DUP9 ADD SSTORE DUP1 DUP16 ADD MLOAD PUSH32 0xD833147D7DC355BA459FC788F669E58CFAF9DC25DDCD0702E87D69C7B512428C DUP9 ADD SSTORE DUP1 DUP13 ADD MLOAD PUSH32 0xD833147D7DC355BA459FC788F669E58CFAF9DC25DDCD0702E87D69C7B512428D DUP9 ADD SSTORE SWAP10 DUP11 ADD MLOAD PUSH32 0xD833147D7DC355BA459FC788F669E58CFAF9DC25DDCD0702E87D69C7B512428E DUP8 ADD SSTORE SWAP8 DUP10 ADD MLOAD PUSH32 0xD833147D7DC355BA459FC788F669E58CFAF9DC25DDCD0702E87D69C7B512428F DUP7 ADD SSTORE SWAP8 SWAP1 SWAP5 ADD MLOAD PUSH32 0xD833147D7DC355BA459FC788F669E58CFAF9DC25DDCD0702E87D69C7B5124290 DUP5 ADD SSTORE SWAP3 MLOAD PUSH32 0xD833147D7DC355BA459FC788F669E58CFAF9DC25DDCD0702E87D69C7B5124291 DUP4 ADD SSTORE SWAP4 MLOAD PUSH32 0xD833147D7DC355BA459FC788F669E58CFAF9DC25DDCD0702E87D69C7B5124292 SWAP1 SWAP2 ADD DUP1 SLOAD SWAP2 ISZERO ISZERO PUSH1 0xFF NOT SWAP3 DUP4 AND OR SWAP1 SSTORE DUP4 DUP6 MSTORE PUSH1 0x17 DUP8 MSTORE DUP9 DUP6 KECCAK256 DUP1 SLOAD SWAP1 SWAP2 AND DUP3 OR SWAP1 SSTORE PUSH1 0xE DUP7 MSTORE SWAP3 DUP8 SWAP1 KECCAK256 DUP1 SLOAD SWAP1 SWAP4 ADD SWAP1 SWAP3 SSTORE DUP6 MLOAD DUP13 DUP2 MSTORE SWAP4 DUP5 ADD DUP12 SWAP1 MSTORE SWAP5 DUP4 ADD MSTORE SWAP2 SWAP3 SWAP2 PUSH32 0xEDFE439DDAF7FC9D12BA5B30D1CA8618F24FC50D6CFA8507EA429E40E07EE706 SWAP2 ADD PUSH1 0x40 MLOAD DUP1 SWAP2 SUB SWAP1 LOG2 PUSH1 0x0 PUSH1 0x64 PUSH1 0x5 PUSH1 0x14 SWAP1 SLOAD SWAP1 PUSH2 0x100 EXP SWAP1 DIV PUSH1 0xFF AND PUSH1 0x5 MUL PUSH1 0xFF AND DUP2 PUSH2 0xBD4 JUMPI PUSH2 0xBD4 PUSH2 0x1771 JUMP JUMPDEST DIV PUSH1 0xFF AND SWAP1 POP DUP1 PUSH1 0x16 DUP1 SLOAD SWAP1 POP LT PUSH2 0xBEE JUMPI PUSH2 0xBEE PUSH2 0xD75 JUMP JUMPDEST POP POP PUSH2 0xBF9 PUSH1 0x1 DUP1 SSTORE JUMP JUMPDEST POP POP POP POP POP POP JUMP JUMPDEST PUSH2 0xC09 PUSH2 0xCCE JUMP JUMPDEST PUSH1 0x1 PUSH1 0x1 PUSH1 0xA0 SHL SUB DUP2 AND PUSH2 0xC33 JUMPI PUSH1 0x40 MLOAD PUSH4 0x1E4FBDF7 PUSH1 0xE0 SHL DUP2 MSTORE PUSH1 0x0 PUSH1 0x4 DUP3 ADD MSTORE PUSH1 0x24 ADD PUSH2 0x51F JUMP JUMPDEST PUSH2 0xC3C DUP2 PUSH2 0xCFB JUMP JUMPDEST POP JUMP JUMPDEST PUSH1 0x16 DUP2 DUP2 SLOAD DUP2 LT PUSH2 0xC4F JUMPI PUSH1 0x0 DUP1 REVERT JUMPDEST PUSH1 0x0 SWAP2 DUP3 MSTORE PUSH1 0x20 SWAP2 DUP3 SWAP1 KECCAK256 PUSH1 0xA SWAP1 SWAP2 MUL ADD DUP1 SLOAD PUSH1 0x40 DUP1 MLOAD PUSH1 0xE0 DUP2 ADD DUP3 MSTORE PUSH1 0x1 DUP5 ADD SLOAD DUP2 MSTORE PUSH1 0x2 DUP5 ADD SLOAD SWAP5 DUP2 ADD SWAP5 SWAP1 SWAP5 MSTORE PUSH1 0x3 DUP4 ADD SLOAD SWAP1 DUP5 ADD MSTORE PUSH1 0x4 DUP3 ADD SLOAD PUSH1 0x60 DUP5 ADD MSTORE PUSH1 0x5 DUP3 ADD SLOAD PUSH1 0x80 DUP5 ADD MSTORE PUSH1 0x6 DUP3 ADD SLOAD PUSH1 0xA0 DUP5 ADD MSTORE PUSH1 0x7 DUP3 ADD SLOAD PUSH1 0xC0 DUP5 ADD MSTORE PUSH1 0x8 DUP3 ADD SLOAD PUSH1 0x9 SWAP1 SWAP3 ADD SLOAD PUSH1 0x1 PUSH1 0x1 PUSH1 0xA0 SHL SUB SWAP1 SWAP2 AND SWAP4 POP PUSH1 0xFF AND DUP5 JUMP JUMPDEST PUSH1 0x0 SLOAD PUSH1 0x1 PUSH1 0x1 PUSH1 0xA0 SHL SUB AND CALLER EQ PUSH2 0x60D JUMPI PUSH1 0x40 MLOAD PUSH4 0x118CDAA7 PUSH1 0xE0 SHL DUP2 MSTORE CALLER PUSH1 0x4 DUP3 ADD MSTORE PUSH1 0x24 ADD PUSH2 0x51F JUMP JUMPDEST PUSH1 0x0 DUP1 SLOAD PUSH1 0x1 PUSH1 0x1 PUSH1 0xA0 SHL SUB DUP4 DUP2 AND PUSH1 0x1 PUSH1 0x1 PUSH1 0xA0 SHL SUB NOT DUP4 AND DUP2 OR DUP5 SSTORE PUSH1 0x40 MLOAD SWAP2 SWAP1 SWAP3 AND SWAP3 DUP4 SWAP2 PUSH32 0x8BE0079C531659141344CD1FD0A4F28419497F9722A3DAAFE3B4186F6B6457E0 SWAP2 SWAP1 LOG3 POP POP JUMP JUMPDEST PUSH1 0x2 PUSH1 0x1 SLOAD SUB PUSH2 0xD6E JUMPI PUSH1 0x40 MLOAD PUSH4 0x3EE5AEB5 PUSH1 0xE0 SHL DUP2 MSTORE PUSH1 0x4 ADD PUSH1 0x40 MLOAD DUP1 SWAP2 SUB SWAP1 REVERT JUMPDEST PUSH1 0x2 PUSH1 0x1 SSTORE JUMP JUMPDEST PUSH1 0x16 SLOAD DUP1 PUSH2 0xDB6 JUMPI PUSH1 0x40 MLOAD PUSH3 0x461BCD PUSH1 0xE5 SHL DUP2 MSTORE PUSH1 0x20 PUSH1 0x4 DUP3 ADD MSTORE PUSH1 0xE PUSH1 0x24 DUP3 ADD MSTORE PUSH14 0x4E6F207375626D697373696F6E73 PUSH1 0x90 SHL PUSH1 0x44 DUP3 ADD MSTORE PUSH1 0x64 ADD PUSH2 0x51F JUMP JUMPDEST PUSH1 0x0 DUP2 PUSH8 0xFFFFFFFFFFFFFFFF DUP2 GT ISZERO PUSH2 0xDD1 JUMPI PUSH2 0xDD1 PUSH2 0x15B3 JUMP JUMPDEST PUSH1 0x40 MLOAD SWAP1 DUP1 DUP3 MSTORE DUP1 PUSH1 0x20 MUL PUSH1 0x20 ADD DUP3 ADD PUSH1 0x40 MSTORE DUP1 ISZERO PUSH2 0xDFA JUMPI DUP2 PUSH1 0x20 ADD PUSH1 0x20 DUP3 MUL DUP1 CALLDATASIZE DUP4 CALLDATACOPY ADD SWAP1 POP JUMPDEST POP SWAP1 POP PUSH1 0x0 DUP3 PUSH8 0xFFFFFFFFFFFFFFFF DUP2 GT ISZERO PUSH2 0xE18 JUMPI PUSH2 0xE18 PUSH2 0x15B3 JUMP JUMPDEST PUSH1 0x40 MLOAD SWAP1 DUP1 DUP3 MSTORE DUP1 PUSH1 0x20 MUL PUSH1 0x20 ADD DUP3 ADD PUSH1 0x40 MSTORE DUP1 ISZERO PUSH2 0xE41 JUMPI DUP2 PUSH1 0x20 ADD PUSH1 0x20 DUP3 MUL DUP1 CALLDATASIZE DUP4 CALLDATACOPY ADD SWAP1 POP JUMPDEST POP SWAP1 POP PUSH1 0x0 DUP4 PUSH8 0xFFFFFFFFFFFFFFFF DUP2 GT ISZERO PUSH2 0xE5F JUMPI PUSH2 0xE5F PUSH2 0x15B3 JUMP JUMPDEST PUSH1 0x40 MLOAD SWAP1 DUP1 DUP3 MSTORE DUP1 PUSH1 0x20 MUL PUSH1 0x20 ADD DUP3 ADD PUSH1 0x40 MSTORE DUP1 ISZERO PUSH2 0xE88 JUMPI DUP2 PUSH1 0x20 ADD PUSH1 0x20 DUP3 MUL DUP1 CALLDATASIZE DUP4 CALLDATACOPY ADD SWAP1 POP JUMPDEST POP SWAP1 POP PUSH1 0x0 DUP5 PUSH8 0xFFFFFFFFFFFFFFFF DUP2 GT ISZERO PUSH2 0xEA6 JUMPI PUSH2 0xEA6 PUSH2 0x15B3 JUMP JUMPDEST PUSH1 0x40 MLOAD SWAP1 DUP1 DUP3 MSTORE DUP1 PUSH1 0x20 MUL PUSH1 0x20 ADD DUP3 ADD PUSH1 0x40 MSTORE DUP1 ISZERO PUSH2 0xECF JUMPI DUP2 PUSH1 0x20 ADD PUSH1 0x20 DUP3 MUL DUP1 CALLDATASIZE DUP4 CALLDATACOPY ADD SWAP1 POP JUMPDEST POP SWAP1 POP PUSH1 0x0 DUP6 PUSH8 0xFFFFFFFFFFFFFFFF DUP2 GT ISZERO PUSH2 0xEED JUMPI PUSH2 0xEED PUSH2 0x15B3 JUMP JUMPDEST PUSH1 0x40 MLOAD SWAP1 DUP1 DUP3 MSTORE DUP1 PUSH1 0x20 MUL PUSH1 0x20 ADD DUP3 ADD PUSH1 0x40 MSTORE DUP1 ISZERO PUSH2 0xF16 JUMPI DUP2 PUSH1 0x20 ADD PUSH1 0x20 DUP3 MUL DUP1 CALLDATASIZE DUP4 CALLDATACOPY ADD SWAP1 POP JUMPDEST POP SWAP1 POP PUSH1 0x0 JUMPDEST DUP7 DUP2 LT ISZERO PUSH2 0x1089 JUMPI PUSH1 0x16 DUP2 DUP2 SLOAD DUP2 LT PUSH2 0xF37 JUMPI PUSH2 0xF37 PUSH2 0x1708 JUMP JUMPDEST SWAP1 PUSH1 0x0 MSTORE PUSH1 0x20 PUSH1 0x0 KECCAK256 SWAP1 PUSH1 0xA MUL ADD PUSH1 0x1 ADD PUSH1 0x0 ADD SLOAD DUP7 DUP3 DUP2 MLOAD DUP2 LT PUSH2 0xF5E JUMPI PUSH2 0xF5E PUSH2 0x1708 JUMP JUMPDEST PUSH1 0x20 MUL PUSH1 0x20 ADD ADD DUP2 DUP2 MSTORE POP POP PUSH1 0x16 DUP2 DUP2 SLOAD DUP2 LT PUSH2 0xF7D JUMPI PUSH2 0xF7D PUSH2 0x1708 JUMP JUMPDEST SWAP1 PUSH1 0x0 MSTORE PUSH1 0x20 PUSH1 0x0 KECCAK256 SWAP1 PUSH1 0xA MUL ADD PUSH1 0x1 ADD PUSH1 0x1 ADD SLOAD DUP6 DUP3 DUP2 MLOAD DUP2 LT PUSH2 0xFA4 JUMPI PUSH2 0xFA4 PUSH2 0x1708 JUMP JUMPDEST PUSH1 0x20 MUL PUSH1 0x20 ADD ADD DUP2 DUP2 MSTORE POP POP PUSH1 0x16 DUP2 DUP2 SLOAD DUP2 LT PUSH2 0xFC3 JUMPI PUSH2 0xFC3 PUSH2 0x1708 JUMP JUMPDEST SWAP1 PUSH1 0x0 MSTORE PUSH1 0x20 PUSH1 0x0 KECCAK256 SWAP1 PUSH1 0xA MUL ADD PUSH1 0x1 ADD PUSH1 0x2 ADD SLOAD DUP5 DUP3 DUP2 MLOAD DUP2 LT PUSH2 0xFEA JUMPI PUSH2 0xFEA PUSH2 0x1708 JUMP JUMPDEST PUSH1 0x20 MUL PUSH1 0x20 ADD ADD DUP2 DUP2 MSTORE POP POP PUSH1 0x16 DUP2 DUP2 SLOAD DUP2 LT PUSH2 0x1009 JUMPI PUSH2 0x1009 PUSH2 0x1708 JUMP JUMPDEST SWAP1 PUSH1 0x0 MSTORE PUSH1 0x20 PUSH1 0x0 KECCAK256 SWAP1 PUSH1 0xA MUL ADD PUSH1 0x1 ADD PUSH1 0x3 ADD SLOAD DUP4 DUP3 DUP2 MLOAD DUP2 LT PUSH2 0x1030 JUMPI PUSH2 0x1030 PUSH2 0x1708 JUMP JUMPDEST PUSH1 0x20 MUL PUSH1 0x20 ADD ADD DUP2 DUP2 MSTORE POP POP PUSH1 0x16 DUP2 DUP2 SLOAD DUP2 LT PUSH2 0x104F JUMPI PUSH2 0x104F PUSH2 0x1708 JUMP JUMPDEST SWAP1 PUSH1 0x0 MSTORE PUSH1 0x20 PUSH1 0x0 KECCAK256 SWAP1 PUSH1 0xA MUL ADD PUSH1 0x1 ADD PUSH1 0x4 ADD SLOAD DUP3 DUP3 DUP2 MLOAD DUP2 LT PUSH2 0x1076 JUMPI PUSH2 0x1076 PUSH2 0x1708 JUMP JUMPDEST PUSH1 0x20 SWAP1 DUP2 MUL SWAP2 SWAP1 SWAP2 ADD ADD MSTORE PUSH1 0x1 ADD PUSH2 0xF1C JUMP JUMPDEST POP PUSH2 0x1093 DUP6 PUSH2 0x1232 JUMP JUMPDEST PUSH2 0x109C DUP5 PUSH2 0x1326 JUMP JUMPDEST PUSH2 0x10A5 DUP4 PUSH2 0x1232 JUMP JUMPDEST PUSH2 0x10AE DUP3 PUSH2 0x1232 JUMP JUMPDEST PUSH2 0x10B7 DUP2 PUSH2 0x1232 JUMP JUMPDEST PUSH1 0x0 PUSH1 0x2 DUP8 DIV SWAP1 POP PUSH1 0x40 MLOAD DUP1 PUSH1 0xE0 ADD PUSH1 0x40 MSTORE DUP1 DUP8 DUP4 DUP2 MLOAD DUP2 LT PUSH2 0x10DC JUMPI PUSH2 0x10DC PUSH2 0x1708 JUMP JUMPDEST PUSH1 0x20 MUL PUSH1 0x20 ADD ADD MLOAD DUP2 MSTORE PUSH1 0x20 ADD DUP7 DUP4 DUP2 MLOAD DUP2 LT PUSH2 0x10FB JUMPI PUSH2 0x10FB PUSH2 0x1708 JUMP JUMPDEST PUSH1 0x20 MUL PUSH1 0x20 ADD ADD MLOAD DUP2 MSTORE PUSH1 0x20 ADD DUP6 DUP4 DUP2 MLOAD DUP2 LT PUSH2 0x111A JUMPI PUSH2 0x111A PUSH2 0x1708 JUMP JUMPDEST PUSH1 0x20 MUL PUSH1 0x20 ADD ADD MLOAD DUP2 MSTORE PUSH1 0x20 ADD DUP5 DUP4 DUP2 MLOAD DUP2 LT PUSH2 0x1139 JUMPI PUSH2 0x1139 PUSH2 0x1708 JUMP JUMPDEST PUSH1 0x20 MUL PUSH1 0x20 ADD ADD MLOAD DUP2 MSTORE PUSH1 0x20 ADD DUP4 DUP4 DUP2 MLOAD DUP2 LT PUSH2 0x1158 JUMPI PUSH2 0x1158 PUSH2 0x1708 JUMP JUMPDEST PUSH1 0x20 MUL PUSH1 0x20 ADD ADD MLOAD DUP2 MSTORE PUSH1 0x20 ADD PUSH1 0x16 PUSH1 0x0 DUP2 SLOAD DUP2 LT PUSH2 0x1179 JUMPI PUSH2 0x1179 PUSH2 0x1708 JUMP JUMPDEST PUSH1 0x0 SWAP2 DUP3 MSTORE PUSH1 0x20 SWAP2 DUP3 SWAP1 KECCAK256 PUSH1 0x6 PUSH1 0xA SWAP1 SWAP3 MUL ADD ADD SLOAD DUP3 MSTORE TIMESTAMP SWAP2 DUP2 ADD DUP3 SWAP1 MSTORE DUP3 MLOAD PUSH1 0xF DUP2 SWAP1 SSTORE SWAP1 DUP4 ADD MLOAD PUSH1 0x10 DUP2 SWAP1 SSTORE PUSH1 0x40 DUP1 DUP6 ADD MLOAD PUSH1 0x11 DUP2 SWAP1 SSTORE PUSH1 0x60 DUP7 ADD MLOAD PUSH1 0x12 SSTORE PUSH1 0x80 DUP7 ADD MLOAD PUSH1 0x13 SSTORE PUSH1 0xA0 DUP7 ADD MLOAD PUSH1 0x14 SSTORE PUSH1 0xC0 SWAP1 SWAP6 ADD MLOAD PUSH1 0x15 SSTORE PUSH1 0x7 DUP5 SWAP1 SSTORE MLOAD PUSH32 0x4A878493C5A0B8218095634B4C65C123C272527E6C6A94A92E4290FDD16FB5DD SWAP5 PUSH2 0x121C SWAP5 SWAP1 SWAP2 SWAP4 DUP5 MSTORE PUSH1 0x20 DUP5 ADD SWAP3 SWAP1 SWAP3 MSTORE PUSH1 0x40 DUP4 ADD MSTORE PUSH1 0x60 DUP3 ADD MSTORE PUSH1 0x80 ADD SWAP1 JUMP JUMPDEST PUSH1 0x40 MLOAD DUP1 SWAP2 SUB SWAP1 LOG1 POP POP POP POP POP POP PUSH2 0xC3C PUSH2 0x1415 JUMP JUMPDEST DUP1 MLOAD PUSH1 0x1 DUP2 GT PUSH2 0x1240 JUMPI POP POP JUMP JUMPDEST PUSH1 0x0 JUMPDEST PUSH1 0x1 DUP3 SUB DUP2 LT ISZERO PUSH2 0x1321 JUMPI PUSH1 0x0 JUMPDEST PUSH1 0x1 DUP3 DUP5 SUB SUB DUP2 LT ISZERO PUSH2 0x1318 JUMPI DUP4 DUP2 PUSH1 0x1 ADD DUP2 MLOAD DUP2 LT PUSH2 0x1273 JUMPI PUSH2 0x1273 PUSH2 0x1708 JUMP JUMPDEST PUSH1 0x20 MUL PUSH1 0x20 ADD ADD MLOAD DUP5 DUP3 DUP2 MLOAD DUP2 LT PUSH2 0x128D JUMPI PUSH2 0x128D PUSH2 0x1708 JUMP JUMPDEST PUSH1 0x20 MUL PUSH1 0x20 ADD ADD MLOAD GT ISZERO PUSH2 0x1310 JUMPI DUP4 DUP2 PUSH1 0x1 ADD DUP2 MLOAD DUP2 LT PUSH2 0x12B0 JUMPI PUSH2 0x12B0 PUSH2 0x1708 JUMP JUMPDEST PUSH1 0x20 MUL PUSH1 0x20 ADD ADD MLOAD DUP5 DUP3 DUP2 MLOAD DUP2 LT PUSH2 0x12CA JUMPI PUSH2 0x12CA PUSH2 0x1708 JUMP JUMPDEST PUSH1 0x20 MUL PUSH1 0x20 ADD ADD MLOAD DUP6 DUP4 DUP2 MLOAD DUP2 LT PUSH2 0x12E4 JUMPI PUSH2 0x12E4 PUSH2 0x1708 JUMP JUMPDEST PUSH1 0x20 MUL PUSH1 0x20 ADD ADD DUP7 DUP5 PUSH1 0x1 ADD DUP2 MLOAD DUP2 LT PUSH2 0x1300 JUMPI PUSH2 0x1300 PUSH2 0x1708 JUMP JUMPDEST PUSH1 0x20 SWAP1 DUP2 MUL SWAP2 SWAP1 SWAP2 ADD ADD SWAP2 SWAP1 SWAP2 MSTORE MSTORE JUMPDEST PUSH1 0x1 ADD PUSH2 0x1251 JUMP JUMPDEST POP PUSH1 0x1 ADD PUSH2 0x1243 JUMP JUMPDEST POP POP POP JUMP JUMPDEST DUP1 MLOAD PUSH1 0x1 DUP2 GT PUSH2 0x1334 JUMPI POP POP JUMP JUMPDEST PUSH1 0x0 JUMPDEST PUSH1 0x1 DUP3 SUB DUP2 LT ISZERO PUSH2 0x1321 JUMPI PUSH1 0x0 JUMPDEST PUSH1 0x1 DUP3 DUP5 SUB SUB DUP2 LT ISZERO PUSH2 0x140C JUMPI DUP4 DUP2 PUSH1 0x1 ADD DUP2 MLOAD DUP2 LT PUSH2 0x1367 JUMPI PUSH2 0x1367 PUSH2 0x1708 JUMP JUMPDEST PUSH1 0x20 MUL PUSH1 0x20 ADD ADD MLOAD DUP5 DUP3 DUP2 MLOAD DUP2 LT PUSH2 0x1381 JUMPI PUSH2 0x1381 PUSH2 0x1708 JUMP JUMPDEST PUSH1 0x20 MUL PUSH1 0x20 ADD ADD MLOAD SGT ISZERO PUSH2 0x1404 JUMPI DUP4 DUP2 PUSH1 0x1 ADD DUP2 MLOAD DUP2 LT PUSH2 0x13A4 JUMPI PUSH2 0x13A4 PUSH2 0x1708 JUMP JUMPDEST PUSH1 0x20 MUL PUSH1 0x20 ADD ADD MLOAD DUP5 DUP3 DUP2 MLOAD DUP2 LT PUSH2 0x13BE JUMPI PUSH2 0x13BE PUSH2 0x1708 JUMP JUMPDEST PUSH1 0x20 MUL PUSH1 0x20 ADD ADD MLOAD DUP6 DUP4 DUP2 MLOAD DUP2 LT PUSH2 0x13D8 JUMPI PUSH2 0x13D8 PUSH2 0x1708 JUMP JUMPDEST PUSH1 0x20 MUL PUSH1 0x20 ADD ADD DUP7 DUP5 PUSH1 0x1 ADD DUP2 MLOAD DUP2 LT PUSH2 0x13F4 JUMPI PUSH2 0x13F4 PUSH2 0x1708 JUMP JUMPDEST PUSH1 0x20 SWAP1 DUP2 MUL SWAP2 SWAP1 SWAP2 ADD ADD SWAP2 SWAP1 SWAP2 MSTORE MSTORE JUMPDEST PUSH1 0x1 ADD PUSH2 0x1345 JUMP JUMPDEST POP PUSH1 0x1 ADD PUSH2 0x1337 JUMP JUMPDEST PUSH1 0x0 JUMPDEST PUSH1 0x16 SLOAD DUP2 LT ISZERO PUSH2 0x1486 JUMPI PUSH1 0x0 PUSH1 0x17 PUSH1 0x0 PUSH1 0x16 DUP5 DUP2 SLOAD DUP2 LT PUSH2 0x143B JUMPI PUSH2 0x143B PUSH2 0x1708 JUMP JUMPDEST PUSH1 0x0 SWAP2 DUP3 MSTORE PUSH1 0x20 DUP1 DUP4 KECCAK256 PUSH1 0xA SWAP3 SWAP1 SWAP3 MUL SWAP1 SWAP2 ADD SLOAD PUSH1 0x1 PUSH1 0x1 PUSH1 0xA0 SHL SUB AND DUP4 MSTORE DUP3 ADD SWAP3 SWAP1 SWAP3 MSTORE PUSH1 0x40 ADD SWAP1 KECCAK256 DUP1 SLOAD PUSH1 0xFF NOT AND SWAP2 ISZERO ISZERO SWAP2 SWAP1 SWAP2 OR SWAP1 SSTORE DUP1 PUSH2 0x147E DUP2 PUSH2 0x171E JUMP JUMPDEST SWAP2 POP POP PUSH2 0x1418 JUMP JUMPDEST POP PUSH2 0x60D PUSH1 0x16 DUP1 SLOAD PUSH1 0x0 DUP3 SSTORE PUSH1 0xA MUL SWAP1 PUSH1 0x0 MSTORE PUSH1 0x20 PUSH1 0x0 KECCAK256 SWAP1 DUP2 ADD SWAP1 PUSH2 0xC3C SWAP2 SWAP1 JUMPDEST DUP1 DUP3 GT ISZERO PUSH2 0x150A JUMPI DUP1 SLOAD PUSH1 0x1 PUSH1 0x1 PUSH1 0xA0 SHL SUB NOT AND DUP2 SSTORE PUSH1 0x0 PUSH1 0x1 DUP3 ADD DUP2 SWAP1 SSTORE PUSH1 0x2 DUP3 ADD DUP2 SWAP1 SSTORE PUSH1 0x3 DUP3 ADD DUP2 SWAP1 SSTORE PUSH1 0x4 DUP3 ADD DUP2 SWAP1 SSTORE PUSH1 0x5 DUP3 ADD DUP2 SWAP1 SSTORE PUSH1 0x6 DUP3 ADD DUP2 SWAP1 SSTORE PUSH1 0x7 DUP3 ADD DUP2 SWAP1 SSTORE PUSH1 0x8 DUP3 ADD SSTORE PUSH1 0x9 DUP2 ADD DUP1 SLOAD PUSH1 0xFF NOT AND SWAP1 SSTORE PUSH1 0xA ADD PUSH2 0x14A8 JUMP JUMPDEST POP SWAP1 JUMP JUMPDEST PUSH1 0x0 PUSH1 0x20 DUP1 DUP4 MSTORE DUP4 MLOAD DUP1 DUP3 DUP6 ADD MSTORE PUSH1 0x0 JUMPDEST DUP2 DUP2 LT ISZERO PUSH2 0x153B JUMPI DUP6 DUP2 ADD DUP4 ADD MLOAD DUP6 DUP3 ADD PUSH1 0x40 ADD MSTORE DUP3 ADD PUSH2 0x151F JUMP JUMPDEST POP PUSH1 0x0 PUSH1 0x40 DUP3 DUP7 ADD ADD MSTORE PUSH1 0x40 PUSH1 0x1F NOT PUSH1 0x1F DUP4 ADD AND DUP6 ADD ADD SWAP3 POP POP POP SWAP3 SWAP2 POP POP JUMP JUMPDEST PUSH1 0x0 PUSH1 0x20 DUP3 DUP5 SUB SLT ISZERO PUSH2 0x156E JUMPI PUSH1 0x0 DUP1 REVERT JUMPDEST POP CALLDATALOAD SWAP2 SWAP1 POP JUMP JUMPDEST DUP1 CALLDATALOAD PUSH1 0x1 PUSH1 0x1 PUSH1 0xA0 SHL SUB DUP2 AND DUP2 EQ PUSH2 0x158C JUMPI PUSH1 0x0 DUP1 REVERT JUMPDEST SWAP2 SWAP1 POP JUMP JUMPDEST PUSH1 0x0 PUSH1 0x20 DUP3 DUP5 SUB SLT ISZERO PUSH2 0x15A3 JUMPI PUSH1 0x0 DUP1 REVERT JUMPDEST PUSH2 0x15AC DUP3 PUSH2 0x1575 JUMP JUMPDEST SWAP4 SWAP3 POP POP POP JUMP JUMPDEST PUSH4 0x4E487B71 PUSH1 0xE0 SHL PUSH1 0x0 MSTORE PUSH1 0x41 PUSH1 0x4 MSTORE PUSH1 0x24 PUSH1 0x0 REVERT JUMPDEST PUSH1 0x0 PUSH1 0xA0 DUP3 DUP5 SUB SLT ISZERO PUSH2 0x15DB JUMPI PUSH1 0x0 DUP1 REVERT JUMPDEST DUP3 PUSH1 0x1F DUP4 ADD SLT PUSH2 0x15EA JUMPI PUSH1 0x0 DUP1 REVERT JUMPDEST PUSH1 0x40 MLOAD PUSH1 0xA0 DUP2 ADD DUP2 DUP2 LT PUSH8 0xFFFFFFFFFFFFFFFF DUP3 GT OR ISZERO PUSH2 0x161B JUMPI PUSH4 0x4E487B71 PUSH1 0xE0 SHL PUSH1 0x0 MSTORE PUSH1 0x41 PUSH1 0x4 MSTORE PUSH1 0x24 PUSH1 0x0 REVERT JUMPDEST PUSH1 0x40 MSTORE DUP1 PUSH1 0xA0 DUP5 ADD DUP6 DUP2 GT ISZERO PUSH2 0x1630 JUMPI PUSH1 0x0 DUP1 REVERT JUMPDEST DUP5 JUMPDEST DUP2 DUP2 LT ISZERO PUSH2 0x1651 JUMPI PUSH2 0x1643 DUP2 PUSH2 0x1575 JUMP JUMPDEST DUP4 MSTORE PUSH1 0x20 SWAP3 DUP4 ADD SWAP3 ADD PUSH2 0x1632 JUMP JUMPDEST POP SWAP2 SWAP6 SWAP5 POP POP POP POP POP JUMP JUMPDEST PUSH1 0x0 DUP1 PUSH1 0x0 DUP1 PUSH1 0x0 DUP1 PUSH1 0xC0 DUP8 DUP10 SUB SLT ISZERO PUSH2 0x1675 JUMPI PUSH1 0x0 DUP1 REVERT JUMPDEST POP POP DUP5 CALLDATALOAD SWAP7 PUSH1 0x20 DUP7 ADD CALLDATALOAD SWAP7 POP PUSH1 0x40 DUP7 ADD CALLDATALOAD SWAP6 PUSH1 0x60 DUP2 ADD CALLDATALOAD SWAP6 POP PUSH1 0x80 DUP2 ADD CALLDATALOAD SWAP5 POP PUSH1 0xA0 ADD CALLDATALOAD SWAP3 POP SWAP1 POP JUMP JUMPDEST PUSH1 0x1 DUP2 DUP2 SHR SWAP1 DUP3 AND DUP1 PUSH2 0x16B3 JUMPI PUSH1 0x7F DUP3 AND SWAP2 POP JUMPDEST PUSH1 0x20 DUP3 LT DUP2 SUB PUSH2 0x16D3 JUMPI PUSH4 0x4E487B71 PUSH1 0xE0 SHL PUSH1 0x0 MSTORE PUSH1 0x22 PUSH1 0x4 MSTORE PUSH1 0x24 PUSH1 0x0 REVERT JUMPDEST POP SWAP2 SWAP1 POP JUMP JUMPDEST PUSH4 0x4E487B71 PUSH1 0xE0 SHL PUSH1 0x0 MSTORE PUSH1 0x11 PUSH1 0x4 MSTORE PUSH1 0x24 PUSH1 0x0 REVERT JUMPDEST DUP1 DUP3 ADD DUP1 DUP3 GT ISZERO PUSH2 0x1702 JUMPI PUSH2 0x1702 PUSH2 0x16D9 JUMP JUMPDEST SWAP3 SWAP2 POP POP JUMP JUMPDEST PUSH4 0x4E487B71 PUSH1 0xE0 SHL PUSH1 0x0 MSTORE PUSH1 0x32 PUSH1 0x4 MSTORE PUSH1 0x24 PUSH1 0x0 REVERT JUMPDEST PUSH1 0x0 PUSH1 0x1 DUP3 ADD PUSH2 0x1730 JUMPI PUSH2 0x1730 PUSH2 0x16D9 JUMP JUMPDEST POP PUSH1 0x1 ADD SWAP1 JUMP JUMPDEST PUSH1 0xA0 DUP2 ADD DUP2 DUP4 PUSH1 0x0 JUMPDEST PUSH1 0x5 DUP2 LT ISZERO PUSH2 0x1768 JUMPI DUP2 MLOAD PUSH1 0x1 PUSH1 0x1 PUSH1 0xA0 SHL SUB AND DUP4 MSTORE PUSH1 0x20 SWAP3 DUP4 ADD SWAP3 SWAP1 SWAP2 ADD SWAP1 PUSH1 0x1 ADD PUSH2 0x1740 JUMP JUMPDEST POP POP POP SWAP3 SWAP2 POP POP JUMP JUMPDEST PUSH4 0x4E487B71 PUSH1 0xE0 SHL PUSH1 0x0 MSTORE PUSH1 0x12 PUSH1 0x4 MSTORE PUSH1 0x24 PUSH1 0x0 REVERT INVALID LOG2 PUSH5 0x6970667358 0x22 SLT KECCAK256 SWAP12 LOG0 PUSH22 0x49572F16805AB30DF0084E5EED17D4183FAF6EEAF891 DUP16 NUMBER PUSH14 0x7819088964736F6C634300081400 CALLER "},"methodIdentifiers":{"consensusThreshold()":"f9b0b5b9","currentSubmissions(uint256)":"fdce5e42","getCurrentSubmissionCount()":"00f1abf5","getLatestMetrics()":"395924dc","getSubmission(uint256)":"3e8686cc","hasSubmittedThisRound(address)":"963398bd","isValidator(address)":"facd743b","lastUpdate()":"c0463711","latestMetrics()":"f7b92fcd","name()":"06fdde03","needsUpdate()":"346c9409","owner()":"8da5cb5b","registry()":"7b103999","renounceOwnership()":"715018a6","submitMetrics(uint256,int256,uint256,uint256,uint256,uint256)":"ee8132bd","symbol()":"95d89b41","targetToken()":"327107f7","transferOwnership(address)":"f2fde38b","updateFrequency()":"673ea086","updateValidators(address[5])":"92ac27f9","validatorSubmissionCount(address)":"4d44b9e7","validators(uint256)":"35aa2e44"}}}}}