{"contracts/SubscriptionManager.sol":{"SubscriptionManager":{"abi":[{"inputs":[{"internalType":"address","name":"_usdc","type":"address"},{"internalType":"address","name":"_treasury","type":"address"},{"internalType":"address","name":"_initialOwner","type":"address"}],"stateMutability":"nonpayable","type":"constructor"},{"inputs":[{"internalType":"address","name":"owner","type":"address"}],"name":"OwnableInvalidOwner","type":"error"},{"inputs":[{"internalType":"address","name":"account","type":"address"}],"name":"OwnableUnauthorizedAccount","type":"error"},{"inputs":[],"name":"ReentrancyGuardReentrantCall","type":"error"},{"anonymous":false,"inputs":[{"indexed":true,"internalType":"address","name":"user","type":"address"},{"indexed":true,"internalType":"address","name":"oracle","type":"address"},{"indexed":false,"internalType":"uint256","name":"cost","type":"uint256"}],"name":"APICallRecorded","type":"event"},{"anonymous":false,"inputs":[{"indexed":true,"internalType":"address","name":"user","type":"address"},{"indexed":false,"internalType":"uint256","name":"amount","type":"uint256"}],"name":"BillPaid","type":"event"},{"anonymous":false,"inputs":[{"indexed":true,"internalType":"address","name":"user","type":"address"},{"indexed":false,"internalType":"uint256","name":"amount","type":"uint256"}],"name":"CreditsAdded","type":"event"},{"anonymous":false,"inputs":[{"indexed":true,"internalType":"address","name":"previousOwner","type":"address"},{"indexed":true,"internalType":"address","name":"newOwner","type":"address"}],"name":"OwnershipTransferred","type":"event"},{"anonymous":false,"inputs":[{"indexed":true,"internalType":"address","name":"user","type":"address"},{"indexed":false,"internalType":"enum SubscriptionManager.Tier","name":"tier","type":"uint8"},{"indexed":false,"internalType":"uint256","name":"expiresAt","type":"uint256"}],"name":"Subscribed","type":"event"},{"anonymous":false,"inputs":[{"indexed":true,"internalType":"address","name":"user","type":"address"},{"indexed":false,"internalType":"enum SubscriptionManager.Tier","name":"tier","type":"uint8"},{"indexed":false,"internalType":"uint256","name":"expiresAt","type":"uint256"}],"name":"SubscriptionRenewed","type":"event"},{"inputs":[],"name":"COST_PER_CALL","outputs":[{"internalType":"uint256","name":"","type":"uint256"}],"stateMutability":"view","type":"function"},{"inputs":[],"name":"FEEDS_DISCOUNT","outputs":[{"internalType":"uint256","name":"","type":"uint256"}],"stateMutability":"view","type":"function"},{"inputs":[],"name":"USDC_DECIMALS","outputs":[{"internalType":"uint256","name":"","type":"uint256"}],"stateMutability":"view","type":"function"},{"inputs":[{"internalType":"uint256","name":"amountUSDC","type":"uint256"}],"name":"addCredits","outputs":[],"stateMutability":"nonpayable","type":"function"},{"inputs":[{"internalType":"address","name":"user","type":"address"}],"name":"canMakeCall","outputs":[{"internalType":"bool","name":"","type":"bool"}],"stateMutability":"view","type":"function"},{"inputs":[{"internalType":"address","name":"","type":"address"}],"name":"credits","outputs":[{"internalType":"uint256","name":"","type":"uint256"}],"stateMutability":"view","type":"function"},{"inputs":[],"name":"feedsToken","outputs":[{"internalType":"contract IERC20","name":"","type":"address"}],"stateMutability":"view","type":"function"},{"inputs":[{"internalType":"uint256","name":"usdcAmount","type":"uint256"}],"name":"getETHPrice","outputs":[{"internalType":"uint256","name":"","type":"uint256"}],"stateMutability":"view","type":"function"},{"inputs":[{"internalType":"uint256","name":"usdcAmount","type":"uint256"}],"name":"getFeedsPrice","outputs":[{"internalType":"uint256","name":"","type":"uint256"}],"stateMutability":"view","type":"function"},{"inputs":[{"internalType":"address","name":"user","type":"address"}],"name":"getSubscription","outputs":[{"internalType":"enum SubscriptionManager.Tier","name":"tier","type":"uint8"},{"internalType":"uint256","name":"expiresAt","type":"uint256"},{"internalType":"uint256","name":"monthlyLimit","type":"uint256"},{"internalType":"uint256","name":"usedThisMonth","type":"uint256"},{"internalType":"uint256","name":"remainingCalls","type":"uint256"},{"internalType":"uint256","name":"creditBalance","type":"uint256"},{"internalType":"uint256","name":"outstandingBill","type":"uint256"}],"stateMutability":"view","type":"function"},{"inputs":[{"internalType":"address","name":"user","type":"address"},{"internalType":"uint256","name":"callLimit","type":"uint256"},{"internalType":"uint256","name":"updateFrequency","type":"uint256"},{"internalType":"uint256","name":"durationDays","type":"uint256"}],"name":"grantEnterpriseSubscription","outputs":[],"stateMutability":"nonpayable","type":"function"},{"inputs":[{"internalType":"address","name":"","type":"address"}],"name":"monthlyBills","outputs":[{"internalType":"uint256","name":"","type":"uint256"}],"stateMutability":"view","type":"function"},{"inputs":[],"name":"owner","outputs":[{"internalType":"address","name":"","type":"address"}],"stateMutability":"view","type":"function"},{"inputs":[],"name":"payBill","outputs":[],"stateMutability":"nonpayable","type":"function"},{"inputs":[{"internalType":"enum SubscriptionManager.Tier","name":"","type":"uint8"}],"name":"plans","outputs":[{"internalType":"uint256","name":"priceUSDC","type":"uint256"},{"internalType":"uint256","name":"callLimit","type":"uint256"},{"internalType":"uint256","name":"updateFrequency","type":"uint256"},{"internalType":"bool","name":"active","type":"bool"}],"stateMutability":"view","type":"function"},{"inputs":[],"name":"priceOracle","outputs":[{"internalType":"address","name":"","type":"address"}],"stateMutability":"view","type":"function"},{"inputs":[{"internalType":"address","name":"user","type":"address"},{"internalType":"address","name":"oracle","type":"address"}],"name":"recordAPICall","outputs":[],"stateMutability":"nonpayable","type":"function"},{"inputs":[],"name":"renounceOwnership","outputs":[],"stateMutability":"nonpayable","type":"function"},{"inputs":[{"internalType":"address","name":"_feedsToken","type":"address"}],"name":"setFeedsToken","outputs":[],"stateMutability":"nonpayable","type":"function"},{"inputs":[{"internalType":"enum SubscriptionManager.Tier","name":"tier","type":"uint8"}],"name":"subscribeWithETH","outputs":[],"stateMutability":"payable","type":"function"},{"inputs":[{"internalType":"enum SubscriptionManager.Tier","name":"tier","type":"uint8"}],"name":"subscribeWithFEEDS","outputs":[],"stateMutability":"nonpayable","type":"function"},{"inputs":[{"internalType":"enum SubscriptionManager.Tier","name":"tier","type":"uint8"}],"name":"subscribeWithUSDC","outputs":[],"stateMutability":"nonpayable","type":"function"},{"inputs":[{"internalType":"address","name":"","type":"address"}],"name":"subscriptions","outputs":[{"internalType":"enum SubscriptionManager.Tier","name":"tier","type":"uint8"},{"internalType":"uint256","name":"expiresAt","type":"uint256"},{"internalType":"uint256","name":"monthlyLimit","type":"uint256"},{"internalType":"uint256","name":"usedThisMonth","type":"uint256"},{"internalType":"uint256","name":"periodStart","type":"uint256"}],"stateMutability":"view","type":"function"},{"inputs":[{"internalType":"address","name":"newOwner","type":"address"}],"name":"transferOwnership","outputs":[],"stateMutability":"nonpayable","type":"function"},{"inputs":[],"name":"treasury","outputs":[{"internalType":"address","name":"","type":"address"}],"stateMutability":"view","type":"function"},{"inputs":[{"internalType":"enum SubscriptionManager.Tier","name":"tier","type":"uint8"},{"internalType":"uint256","name":"priceUSDC","type":"uint256"},{"internalType":"uint256","name":"callLimit","type":"uint256"},{"internalType":"uint256","name":"updateFrequency","type":"uint256"},{"internalType":"bool","name":"active","type":"bool"}],"name":"updatePlan","outputs":[],"stateMutability":"nonpayable","type":"function"},{"inputs":[{"internalType":"address","name":"newTreasury","type":"address"}],"name":"updateTreasury","outputs":[],"stateMutability":"nonpayable","type":"function"},{"inputs":[],"name":"usdc","outputs":[{"internalType":"contract IERC20","name":"","type":"address"}],"stateMutability":"view","type":"function"}],"evm":{"bytecode":{"linkReferences":{},"object":"60a06040523480156200001157600080fd5b50604051620024a0380380620024a0833981016040819052620000349162000531565b806001600160a01b0381166200006557604051631e4fbdf760e01b8152600060048201526024015b60405180910390fd5b6200007081620004c4565b50600180556001600160a01b038316620000cd5760405162461bcd60e51b815260206004820152601460248201527f496e76616c69642055534443206164647265737300000000000000000000000060448201526064016200005c565b6001600160a01b038216620001185760405162461bcd60e51b815260206004820152601060248201526f496e76616c696420747265617375727960801b60448201526064016200005c565b6001600160a01b038381166080908152600380546001600160a01b031916928516929092179091556040805180830182526000808252612710602080840191825261012c848601908152600160608601908152938052600590915292517f05b8ccbb9d4d8fb16ea74ce3c29a41f1b461fbdaff4714a0d9a8eb05499746bc55517f05b8ccbb9d4d8fb16ea74ce3c29a41f1b461fbdaff4714a0d9a8eb05499746bd5590517f05b8ccbb9d4d8fb16ea74ce3c29a41f1b461fbdaff4714a0d9a8eb05499746be55517f05b8ccbb9d4d8fb16ea74ce3c29a41f1b461fbdaff4714a0d9a8eb05499746bf805460ff19169115159190911790558051918201905280620002256006600a62000690565b6200023290601d620006a5565b8152620186a0602080830191909152603c604080840191909152600160609384018190526000526005825283517f1471eb6eb2c5e789fc3de43f8ce62938c7d1836ec861730447e2ada8fd81017b55908301517f1471eb6eb2c5e789fc3de43f8ce62938c7d1836ec861730447e2ada8fd81017c55828101517f1471eb6eb2c5e789fc3de43f8ce62938c7d1836ec861730447e2ada8fd81017d559101517f1471eb6eb2c5e789fc3de43f8ce62938c7d1836ec861730447e2ada8fd81017e805460ff191691151591909117905580516080810190915280620003186006600a62000690565b62000325906063620006a5565b8152620f4240602080830191909152601e6040808401919091526001606093840181905260026000908152600580855286517f89832631fb3c3307a103ba2c84ab569c64d6182a18893dcd163f0f1c2090733a55868501517f89832631fb3c3307a103ba2c84ab569c64d6182a18893dcd163f0f1c2090733b55868401517f89832631fb3c3307a103ba2c84ab569c64d6182a18893dcd163f0f1c2090733c55958501517f89832631fb3c3307a103ba2c84ab569c64d6182a18893dcd163f0f1c2090733d805491151560ff19928316179055835160808101855282815260001981870190815294810184815296810193845260039092529590935291517fa9bc9a3a348c357ba16b37005d7e6b3236198c0e939f4af8c5f19b8deeb8ebc055517fa9bc9a3a348c357ba16b37005d7e6b3236198c0e939f4af8c5f19b8deeb8ebc15590517fa9bc9a3a348c357ba16b37005d7e6b3236198c0e939f4af8c5f19b8deeb8ebc255517fa9bc9a3a348c357ba16b37005d7e6b3236198c0e939f4af8c5f19b8deeb8ebc380549115159190921617905550620006bf915050565b600080546001600160a01b038381166001600160a01b0319831681178455604051919092169283917f8be0079c531659141344cd1fd0a4f28419497f9722a3daafe3b4186f6b6457e09190a35050565b80516001600160a01b03811681146200052c57600080fd5b919050565b6000806000606084860312156200054757600080fd5b620005528462000514565b9250620005626020850162000514565b9150620005726040850162000514565b90509250925092565b634e487b7160e01b600052601160045260246000fd5b600181815b80851115620005d2578160001904821115620005b657620005b66200057b565b80851615620005c457918102915b93841c939080029062000596565b509250929050565b600082620005eb575060016200068a565b81620005fa575060006200068a565b81600181146200061357600281146200061e576200063e565b60019150506200068a565b60ff8411156200063257620006326200057b565b50506001821b6200068a565b5060208310610133831016604e8410600b841016171562000663575081810a6200068a565b6200066f838362000591565b80600019048211156200068657620006866200057b565b0290505b92915050565b60006200069e8383620005da565b9392505050565b80820281158282048414176200068a576200068a6200057b565b608051611db0620006f0600039600081816102c50152818161070a01528181610c180152610f840152611db06000f3fe6080604052600436106101b75760003560e01c80637f51bb1f116100ec578063d4ec0fc21161008a578063ec3e2ff411610064578063ec3e2ff414610543578063f046395a14610558578063f2fde38b146105b7578063fe5ff468146105d757600080fd5b8063d4ec0fc2146104e8578063dcc1e64314610503578063e8f412331461052357600080fd5b8063958d6ca0116100c6578063958d6ca014610466578063c1419def14610486578063c609138b1461049b578063caf601e1146104c857600080fd5b80637f51bb1f146103f85780638da5cb5b146104185780639091d2c31461043657600080fd5b8063474ff1781161015957806360c2099d1161013357806360c2099d1461038e57806361d027b3146103ae578063715018a6146103ce5780637a781658146103e357600080fd5b8063474ff178146102e75780635dc8bb401461030757806360a31a881461032757600080fd5b80632630c12f116101955780632630c12f1461024857806327d5fd92146102805780632aea58b2146102935780633e413bee146102b357600080fd5b806309c36aa7146101bc5780630cbebc24146101de5780631a753fed1461021a575b600080fd5b3480156101c857600080fd5b506101dc6101d736600461191f565b610604565b005b3480156101ea57600080fd5b506101fe6101f9366004611951565b6107e3565b60405161021197969594939291906119a4565b60405180910390f35b34801561022657600080fd5b5061023a6102353660046119e2565b6108da565b604051908152602001610211565b34801561025457600080fd5b50600454610268906001600160a01b031681565b6040516001600160a01b039091168152602001610211565b6101dc61028e36600461191f565b61091b565b34801561029f57600080fd5b506101dc6102ae3660046119e2565b610bb1565b3480156102bf57600080fd5b506102687f000000000000000000000000000000000000000000000000000000000000000081565b3480156102f357600080fd5b506101dc610302366004611951565b610d63565b34801561031357600080fd5b5061023a6103223660046119e2565b610dd5565b34801561033357600080fd5b5061036c61034236600461191f565b60056020526000908152604090208054600182015460028301546003909301549192909160ff1684565b6040805194855260208501939093529183015215156060820152608001610211565b34801561039a57600080fd5b506101dc6103a9366004611a09565b610dfa565b3480156103ba57600080fd5b50600354610268906001600160a01b031681565b3480156103da57600080fd5b506101dc610e95565b3480156103ef57600080fd5b506101dc610ea9565b34801561040457600080fd5b506101dc610413366004611951565b611095565b34801561042457600080fd5b506000546001600160a01b0316610268565b34801561044257600080fd5b50610456610451366004611951565b611107565b6040519015158152602001610211565b34801561047257600080fd5b506101dc610481366004611a5d565b6111f9565b34801561049257600080fd5b5061023a600681565b3480156104a757600080fd5b5061023a6104b6366004611951565b60086020526000908152604090205481565b3480156104d457600080fd5b50600254610268906001600160a01b031681565b3480156104f457600080fd5b5061023a6601c6bf5263400081565b34801561050f57600080fd5b506101dc61051e366004611a96565b61132d565b34801561052f57600080fd5b506101dc61053e36600461191f565b6114e1565b34801561054f57600080fd5b5061023a601981565b34801561056457600080fd5b506105a6610573366004611951565b6006602052600090815260409020805460018201546002830154600384015460049094015460ff90931693919290919085565b604051610211959493929190611ac9565b3480156105c357600080fd5b506101dc6105d2366004611951565b611727565b3480156105e357600080fd5b5061023a6105f2366004611951565b60076020526000908152604090205481565b61060c611762565b60038160038111156106205761062061196c565b036106465760405162461bcd60e51b815260040161063d90611af9565b60405180910390fd5b60006005600083600381111561065e5761065e61196c565b600381111561066f5761066f61196c565b815260208082019290925260409081016000208151608081018352815481526001820154938101939093526002810154918301919091526003015460ff161515606082018190529091506106d55760405162461bcd60e51b815260040161063d90611b30565b60008260038111156106e9576106e961196c565b146107cb5760035481516040516323b872dd60e01b81526001600160a01b037f00000000000000000000000000000000000000000000000000000000000000008116936323b872dd936107459333939290921691600401611b59565b6020604051808303816000875af1158015610764573d6000803e3d6000fd5b505050506040513d601f19601f820116820180604052508101906107889190611b7d565b6107cb5760405162461bcd60e51b81526020600482015260146024820152731554d110c81d1c985b9cd9995c8819985a5b195960621b604482015260640161063d565b6107d633838361178c565b506107e060018055565b50565b6001600160a01b038116600090815260066020526040808220815160a08101909252805483928392839283928392839283929190829060ff16600381111561082d5761082d61196c565b600381111561083e5761083e61196c565b81526020016001820154815260200160028201548152602001600382015481526020016004820154815250509050806000015197508060200151965080604001519550806060015194508585101561089f5761089a8587611bb0565b6108a2565b60005b6001600160a01b03909916600090815260076020908152604080832054600890925290912054989a9799969895979095945092505050565b6000806108e96006600a611cad565b6108f590610bb8611cb9565b90508061090a84670de0b6b3a7640000611cb9565b6109149190611cd0565b9392505050565b610923611762565b60038160038111156109375761093761196c565b036109545760405162461bcd60e51b815260040161063d90611af9565b60008160038111156109685761096861196c565b036109855760405162461bcd60e51b815260040161063d90611cf2565b60006005600083600381111561099d5761099d61196c565b60038111156109ae576109ae61196c565b815260208082019290925260409081016000208151608081018352815481526001820154938101939093526002810154918301919091526003015460ff16151560608201819052909150610a145760405162461bcd60e51b815260040161063d90611b30565b6000610a2382600001516108da565b905080341015610a685760405162461bcd60e51b815260206004820152601060248201526f092dce6eaccccd2c6d2cadce8408aa8960831b604482015260640161063d565b6003546040516000916001600160a01b03169034908381818185875af1925050503d8060008114610ab5576040519150601f19603f3d011682016040523d82523d6000602084013e610aba565b606091505b5050905080610b015760405162461bcd60e51b8152602060048201526013602482015272115512081d1c985b9cd9995c8819985a5b1959606a1b604482015260640161063d565b610b0c33858561178c565b81341115610ba557600033610b218434611bb0565b604051600081818185875af1925050503d8060008114610b5d576040519150601f19603f3d011682016040523d82523d6000602084013e610b62565b606091505b5050905080610ba35760405162461bcd60e51b815260206004820152600d60248201526c1499599d5b990819985a5b1959609a1b604482015260640161063d565b505b5050506107e060018055565b610bb9611762565b60008111610bfe5760405162461bcd60e51b81526020600482015260126024820152710416d6f756e74206d757374206265203e20360741b604482015260640161063d565b6003546040516323b872dd60e01b81526001600160a01b037f00000000000000000000000000000000000000000000000000000000000000008116926323b872dd92610c5292339216908690600401611b59565b6020604051808303816000875af1158015610c71573d6000803e3d6000fd5b505050506040513d601f19601f82011682018060405250810190610c959190611b7d565b610cd85760405162461bcd60e51b81526020600482015260146024820152731554d110c81d1c985b9cd9995c8819985a5b195960621b604482015260640161063d565b6000610ce660066012611bb0565b610cf190600a611cad565b610cfb9083611cb9565b33600090815260076020526040812080549293508392909190610d1f908490611d33565b909155505060405181815233907fed46984c46e11f42ec323727ba7d99dc16be2d248a8aaa8982d492688497f09d9060200160405180910390a2506107e060018055565b610d6b61188e565b6001600160a01b038116610db35760405162461bcd60e51b815260206004820152600f60248201526e496e76616c6964206164647265737360881b604482015260640161063d565b600280546001600160a01b0319166001600160a01b0392909216919091179055565b600080610de460026006611bb0565b610def90600a611cad565b6108f5906001611cb9565b610e0261188e565b604051806080016040528085815260200184815260200183815260200182151581525060056000876003811115610e3b57610e3b61196c565b6003811115610e4c57610e4c61196c565b815260208082019290925260409081016000208351815591830151600183015582015160028201556060909101516003909101805460ff19169115159190911790555050505050565b610e9d61188e565b610ea760006118bb565b565b610eb1611762565b3360009081526008602052604090205480610f045760405162461bcd60e51b8152602060048201526013602482015272139bc81bdd5d1cdd185b991a5b99c8189a5b1b606a1b604482015260640161063d565b6000610f1260066012611bb0565b610f1d90600a611cad565b610f279083611cd0565b905060008111610f6a5760405162461bcd60e51b815260206004820152600e60248201526d109a5b1b081d1bdbc81cdb585b1b60921b604482015260640161063d565b6003546040516323b872dd60e01b81526001600160a01b037f00000000000000000000000000000000000000000000000000000000000000008116926323b872dd92610fbe92339216908690600401611b59565b6020604051808303816000875af1158015610fdd573d6000803e3d6000fd5b505050506040513d601f19601f820116820180604052508101906110019190611b7d565b61103e5760405162461bcd60e51b815260206004820152600e60248201526d14185e5b595b9d0819985a5b195960921b604482015260640161063d565b3360008181526008602052604080822091909155517fa53d5ff8d58d253ff04700d46f9bf75189228ee0d4afdfba61f91b1352e8d47a906110829085815260200190565b60405180910390a25050610ea760018055565b61109d61188e565b6001600160a01b0381166110e55760405162461bcd60e51b815260206004820152600f60248201526e496e76616c6964206164647265737360881b604482015260640161063d565b600380546001600160a01b0319166001600160a01b0392909216919091179055565b6001600160a01b038116600090815260066020526040808220815160a08101909252805483929190829060ff1660038111156111455761114561196c565b60038111156111565761115661196c565b8152602001600182015481526020016002820154815260200160038201548152602001600482015481525050905080602001514211156111995750600092915050565b8060400151816060015110156111b25750600192915050565b6001600160a01b0383166000908152600760205260409020546601c6bf5263400011158061091457506000815160038111156111f0576111f061196c565b14159392505050565b61120161188e565b60408051608081018252600081526020810185905280820184905260016060820152815160a081019092529080600381526020016112428462015180611cb9565b61124c9042611d33565b8152602080820187905260006040808401829052426060909401939093526001600160a01b038916815260069091522081518154829060ff1916600183600381111561129a5761129a61196c565b021790555060208201518160010155604082015181600201556060820151816003015560808201518160040155905050846001600160a01b03167f044f95a2d17727b5b87e4f23d70278b59a2b0b285289cc9021cac8cdba4797b7600384620151806113069190611cb9565b6113109042611d33565b60405161131e929190611d46565b60405180910390a25050505050565b6000546001600160a01b031633146113875760405162461bcd60e51b815260206004820152601b60248201527f4f6e6c79206f776e65722063616e207265636f72642063616c6c730000000000604482015260640161063d565b6001600160a01b038216600090815260066020526040902060048101546113b19062278d00611d33565b42106113dd576000600382018190554260048301556001600160a01b0384168152600860205260408120555b6003810180549060006113ef83611d61565b91905055508060020154816003015411156114dc576001600160a01b0383166000908152600760205260409020546601c6bf5263400090811161145f576001600160a01b03841660009081526007602052604081208054839290611454908490611bb0565b9091555061148d9050565b6001600160a01b03841660009081526008602052604081208054839290611487908490611d33565b90915550505b826001600160a01b0316846001600160a01b03167fde43edd50a0df60bb9cc1d9d5e7a2cd65f3d1bf133fb19287d22c23135659a82836040516114d291815260200190565b60405180910390a3505b505050565b6114e9611762565b60038160038111156114fd576114fd61196c565b0361151a5760405162461bcd60e51b815260040161063d90611af9565b600081600381111561152e5761152e61196c565b0361154b5760405162461bcd60e51b815260040161063d90611cf2565b6002546001600160a01b03166115995760405162461bcd60e51b81526020600482015260136024820152721191515114c81d1bdad95b881b9bdd081cd95d606a1b604482015260640161063d565b6000600560008360038111156115b1576115b161196c565b60038111156115c2576115c261196c565b815260208082019290925260409081016000208151608081018352815481526001820154938101939093526002810154918301919091526003015460ff161515606082018190529091506116285760405162461bcd60e51b815260040161063d90611b30565b60006064611637601982611bb0565b83516116439190611cb9565b61164d9190611cd0565b9050600061165a82610dd5565b6002546003546040516323b872dd60e01b81529293506001600160a01b03918216926323b872dd926116959233929116908690600401611b59565b6020604051808303816000875af11580156116b4573d6000803e3d6000fd5b505050506040513d601f19601f820116820180604052508101906116d89190611b7d565b61171c5760405162461bcd60e51b81526020600482015260156024820152741191515114c81d1c985b9cd9995c8819985a5b1959605a1b604482015260640161063d565b610ba533858561178c565b61172f61188e565b6001600160a01b03811661175957604051631e4fbdf760e01b81526000600482015260240161063d565b6107e0816118bb565b60026001540361178557604051633ee5aeb560e01b815260040160405180910390fd5b6002600155565b600061179b4262278d00611d33565b90506040518060a001604052808460038111156117ba576117ba61196c565b8152602080820184905284810151604080840191909152600060608401819052426080909401939093526001600160a01b03881683526006909152902081518154829060ff191660018360038111156118155761181561196c565b021790555060208201518160010155604082015181600201556060820151816003015560808201518160040155905050836001600160a01b03167f044f95a2d17727b5b87e4f23d70278b59a2b0b285289cc9021cac8cdba4797b78483604051611880929190611d46565b60405180910390a250505050565b6000546001600160a01b03163314610ea75760405163118cdaa760e01b815233600482015260240161063d565b600080546001600160a01b038381166001600160a01b0319831681178455604051919092169283917f8be0079c531659141344cd1fd0a4f28419497f9722a3daafe3b4186f6b6457e09190a35050565b80356004811061191a57600080fd5b919050565b60006020828403121561193157600080fd5b6109148261190b565b80356001600160a01b038116811461191a57600080fd5b60006020828403121561196357600080fd5b6109148261193a565b634e487b7160e01b600052602160045260246000fd5b600481106119a057634e487b7160e01b600052602160045260246000fd5b9052565b60e081016119b2828a611982565b8760208301528660408301528560608301528460808301528360a08301528260c083015298975050505050505050565b6000602082840312156119f457600080fd5b5035919050565b80151581146107e057600080fd5b600080600080600060a08688031215611a2157600080fd5b611a2a8661190b565b94506020860135935060408601359250606086013591506080860135611a4f816119fb565b809150509295509295909350565b60008060008060808587031215611a7357600080fd5b611a7c8561193a565b966020860135965060408601359560600135945092505050565b60008060408385031215611aa957600080fd5b611ab28361193a565b9150611ac06020840161193a565b90509250929050565b60a08101611ad78288611982565b8560208301528460408301528360608301528260808301529695505050505050565b6020808252601c908201527f436f6e746163742073616c657320666f7220456e746572707269736500000000604082015260600190565b6020808252600f908201526e506c616e206e6f742061637469766560881b604082015260600190565b6001600160a01b039384168152919092166020820152604081019190915260600190565b600060208284031215611b8f57600080fd5b8151610914816119fb565b634e487b7160e01b600052601160045260246000fd5b81810381811115611bc357611bc3611b9a565b92915050565b600181815b80851115611c04578160001904821115611bea57611bea611b9a565b80851615611bf757918102915b93841c9390800290611bce565b509250929050565b600082611c1b57506001611bc3565b81611c2857506000611bc3565b8160018114611c3e5760028114611c4857611c64565b6001915050611bc3565b60ff841115611c5957611c59611b9a565b50506001821b611bc3565b5060208310610133831016604e8410600b8410161715611c87575081810a611bc3565b611c918383611bc9565b8060001904821115611ca557611ca5611b9a565b029392505050565b60006109148383611c0c565b8082028115828204841417611bc357611bc3611b9a565b600082611ced57634e487b7160e01b600052601260045260246000fd5b500490565b60208082526021908201527f46726565207469657220646f65736e27742072657175697265207061796d656e6040820152601d60fa1b606082015260800190565b80820180821115611bc357611bc3611b9a565b60408101611d548285611982565b8260208301529392505050565b600060018201611d7357611d73611b9a565b506001019056fea26469706673582212207ede0dab8b5d80dd4942d86083705d4c4730ae1b35cef4ba5d634cc5f0fc0b7864736f6c63430008140033","opcodes":"PUSH1 0xA0 PUSH1 0x40 MSTORE CALLVALUE DUP1 ISZERO PUSH3 0x11 JUMPI PUSH1 0x0 DUP1 REVERT JUMPDEST POP PUSH1 0x40 MLOAD PUSH3 0x24A0 CODESIZE SUB DUP1 PUSH3 0x24A0 DUP4 CODECOPY DUP2 ADD PUSH1 0x40 DUP2 SWAP1 MSTORE PUSH3 0x34 SWAP2 PUSH3 0x531 JUMP JUMPDEST DUP1 PUSH1 0x1 PUSH1 0x1 PUSH1 0xA0 SHL SUB DUP2 AND PUSH3 0x65 JUMPI PUSH1 0x40 MLOAD PUSH4 0x1E4FBDF7 PUSH1 0xE0 SHL DUP2 MSTORE PUSH1 0x0 PUSH1 0x4 DUP3 ADD MSTORE PUSH1 0x24 ADD JUMPDEST PUSH1 0x40 MLOAD DUP1 SWAP2 SUB SWAP1 REVERT JUMPDEST PUSH3 0x70 DUP2 PUSH3 0x4C4 JUMP JUMPDEST POP PUSH1 0x1 DUP1 SSTORE PUSH1 0x1 PUSH1 0x1 PUSH1 0xA0 SHL SUB DUP4 AND PUSH3 0xCD JUMPI PUSH1 0x40 MLOAD PUSH3 0x461BCD PUSH1 0xE5 SHL DUP2 MSTORE PUSH1 0x20 PUSH1 0x4 DUP3 ADD MSTORE PUSH1 0x14 PUSH1 0x24 DUP3 ADD MSTORE PUSH32 0x496E76616C696420555344432061646472657373000000000000000000000000 PUSH1 0x44 DUP3 ADD MSTORE PUSH1 0x64 ADD PUSH3 0x5C JUMP JUMPDEST PUSH1 0x1 PUSH1 0x1 PUSH1 0xA0 SHL SUB DUP3 AND PUSH3 0x118 JUMPI PUSH1 0x40 MLOAD PUSH3 0x461BCD PUSH1 0xE5 SHL DUP2 MSTORE PUSH1 0x20 PUSH1 0x4 DUP3 ADD MSTORE PUSH1 0x10 PUSH1 0x24 DUP3 ADD MSTORE PUSH16 0x496E76616C6964207472656173757279 PUSH1 0x80 SHL PUSH1 0x44 DUP3 ADD MSTORE PUSH1 0x64 ADD PUSH3 0x5C JUMP JUMPDEST PUSH1 0x1 PUSH1 0x1 PUSH1 0xA0 SHL SUB DUP4 DUP2 AND PUSH1 0x80 SWAP1 DUP2 MSTORE PUSH1 0x3 DUP1 SLOAD PUSH1 0x1 PUSH1 0x1 PUSH1 0xA0 SHL SUB NOT AND SWAP3 DUP6 AND SWAP3 SWAP1 SWAP3 OR SWAP1 SWAP2 SSTORE PUSH1 0x40 DUP1 MLOAD DUP1 DUP4 ADD DUP3 MSTORE PUSH1 0x0 DUP1 DUP3 MSTORE PUSH2 0x2710 PUSH1 0x20 DUP1 DUP5 ADD SWAP2 DUP3 MSTORE PUSH2 0x12C DUP5 DUP7 ADD SWAP1 DUP2 MSTORE PUSH1 0x1 PUSH1 0x60 DUP7 ADD SWAP1 DUP2 MSTORE SWAP4 DUP1 MSTORE PUSH1 0x5 SWAP1 SWAP2 MSTORE SWAP3 MLOAD PUSH32 0x5B8CCBB9D4D8FB16EA74CE3C29A41F1B461FBDAFF4714A0D9A8EB05499746BC SSTORE MLOAD PUSH32 0x5B8CCBB9D4D8FB16EA74CE3C29A41F1B461FBDAFF4714A0D9A8EB05499746BD SSTORE SWAP1 MLOAD PUSH32 0x5B8CCBB9D4D8FB16EA74CE3C29A41F1B461FBDAFF4714A0D9A8EB05499746BE SSTORE MLOAD PUSH32 0x5B8CCBB9D4D8FB16EA74CE3C29A41F1B461FBDAFF4714A0D9A8EB05499746BF DUP1 SLOAD PUSH1 0xFF NOT AND SWAP2 ISZERO ISZERO SWAP2 SWAP1 SWAP2 OR SWAP1 SSTORE DUP1 MLOAD SWAP2 DUP3 ADD SWAP1 MSTORE DUP1 PUSH3 0x225 PUSH1 0x6 PUSH1 0xA PUSH3 0x690 JUMP JUMPDEST PUSH3 0x232 SWAP1 PUSH1 0x1D PUSH3 0x6A5 JUMP JUMPDEST DUP2 MSTORE PUSH3 0x186A0 PUSH1 0x20 DUP1 DUP4 ADD SWAP2 SWAP1 SWAP2 MSTORE PUSH1 0x3C PUSH1 0x40 DUP1 DUP5 ADD SWAP2 SWAP1 SWAP2 MSTORE PUSH1 0x1 PUSH1 0x60 SWAP4 DUP5 ADD DUP2 SWAP1 MSTORE PUSH1 0x0 MSTORE PUSH1 0x5 DUP3 MSTORE DUP4 MLOAD PUSH32 0x1471EB6EB2C5E789FC3DE43F8CE62938C7D1836EC861730447E2ADA8FD81017B SSTORE SWAP1 DUP4 ADD MLOAD PUSH32 0x1471EB6EB2C5E789FC3DE43F8CE62938C7D1836EC861730447E2ADA8FD81017C SSTORE DUP3 DUP2 ADD MLOAD PUSH32 0x1471EB6EB2C5E789FC3DE43F8CE62938C7D1836EC861730447E2ADA8FD81017D SSTORE SWAP2 ADD MLOAD PUSH32 0x1471EB6EB2C5E789FC3DE43F8CE62938C7D1836EC861730447E2ADA8FD81017E DUP1 SLOAD PUSH1 0xFF NOT AND SWAP2 ISZERO ISZERO SWAP2 SWAP1 SWAP2 OR SWAP1 SSTORE DUP1 MLOAD PUSH1 0x80 DUP2 ADD SWAP1 SWAP2 MSTORE DUP1 PUSH3 0x318 PUSH1 0x6 PUSH1 0xA PUSH3 0x690 JUMP JUMPDEST PUSH3 0x325 SWAP1 PUSH1 0x63 PUSH3 0x6A5 JUMP JUMPDEST DUP2 MSTORE PUSH3 0xF4240 PUSH1 0x20 DUP1 DUP4 ADD SWAP2 SWAP1 SWAP2 MSTORE PUSH1 0x1E PUSH1 0x40 DUP1 DUP5 ADD SWAP2 SWAP1 SWAP2 MSTORE PUSH1 0x1 PUSH1 0x60 SWAP4 DUP5 ADD DUP2 SWAP1 MSTORE PUSH1 0x2 PUSH1 0x0 SWAP1 DUP2 MSTORE PUSH1 0x5 DUP1 DUP6 MSTORE DUP7 MLOAD PUSH32 0x89832631FB3C3307A103BA2C84AB569C64D6182A18893DCD163F0F1C2090733A SSTORE DUP7 DUP6 ADD MLOAD PUSH32 0x89832631FB3C3307A103BA2C84AB569C64D6182A18893DCD163F0F1C2090733B SSTORE DUP7 DUP5 ADD MLOAD PUSH32 0x89832631FB3C3307A103BA2C84AB569C64D6182A18893DCD163F0F1C2090733C SSTORE SWAP6 DUP6 ADD MLOAD PUSH32 0x89832631FB3C3307A103BA2C84AB569C64D6182A18893DCD163F0F1C2090733D DUP1 SLOAD SWAP2 ISZERO ISZERO PUSH1 0xFF NOT SWAP3 DUP4 AND OR SWAP1 SSTORE DUP4 MLOAD PUSH1 0x80 DUP2 ADD DUP6 MSTORE DUP3 DUP2 MSTORE PUSH1 0x0 NOT DUP2 DUP8 ADD SWAP1 DUP2 MSTORE SWAP5 DUP2 ADD DUP5 DUP2 MSTORE SWAP7 DUP2 ADD SWAP4 DUP5 MSTORE PUSH1 0x3 SWAP1 SWAP3 MSTORE SWAP6 SWAP1 SWAP4 MSTORE SWAP2 MLOAD PUSH32 0xA9BC9A3A348C357BA16B37005D7E6B3236198C0E939F4AF8C5F19B8DEEB8EBC0 SSTORE MLOAD PUSH32 0xA9BC9A3A348C357BA16B37005D7E6B3236198C0E939F4AF8C5F19B8DEEB8EBC1 SSTORE SWAP1 MLOAD PUSH32 0xA9BC9A3A348C357BA16B37005D7E6B3236198C0E939F4AF8C5F19B8DEEB8EBC2 SSTORE MLOAD PUSH32 0xA9BC9A3A348C357BA16B37005D7E6B3236198C0E939F4AF8C5F19B8DEEB8EBC3 DUP1 SLOAD SWAP2 ISZERO ISZERO SWAP2 SWAP1 SWAP3 AND OR SWAP1 SSTORE POP PUSH3 0x6BF SWAP2 POP POP JUMP JUMPDEST PUSH1 0x0 DUP1 SLOAD PUSH1 0x1 PUSH1 0x1 PUSH1 0xA0 SHL SUB DUP4 DUP2 AND PUSH1 0x1 PUSH1 0x1 PUSH1 0xA0 SHL SUB NOT DUP4 AND DUP2 OR DUP5 SSTORE PUSH1 0x40 MLOAD SWAP2 SWAP1 SWAP3 AND SWAP3 DUP4 SWAP2 PUSH32 0x8BE0079C531659141344CD1FD0A4F28419497F9722A3DAAFE3B4186F6B6457E0 SWAP2 SWAP1 LOG3 POP POP JUMP JUMPDEST DUP1 MLOAD PUSH1 0x1 PUSH1 0x1 PUSH1 0xA0 SHL SUB DUP2 AND DUP2 EQ PUSH3 0x52C JUMPI PUSH1 0x0 DUP1 REVERT JUMPDEST SWAP2 SWAP1 POP JUMP JUMPDEST PUSH1 0x0 DUP1 PUSH1 0x0 PUSH1 0x60 DUP5 DUP7 SUB SLT ISZERO PUSH3 0x547 JUMPI PUSH1 0x0 DUP1 REVERT JUMPDEST PUSH3 0x552 DUP5 PUSH3 0x514 JUMP JUMPDEST SWAP3 POP PUSH3 0x562 PUSH1 0x20 DUP6 ADD PUSH3 0x514 JUMP JUMPDEST SWAP2 POP PUSH3 0x572 PUSH1 0x40 DUP6 ADD PUSH3 0x514 JUMP JUMPDEST SWAP1 POP SWAP3 POP SWAP3 POP SWAP3 JUMP JUMPDEST PUSH4 0x4E487B71 PUSH1 0xE0 SHL PUSH1 0x0 MSTORE PUSH1 0x11 PUSH1 0x4 MSTORE PUSH1 0x24 PUSH1 0x0 REVERT JUMPDEST PUSH1 0x1 DUP2 DUP2 JUMPDEST DUP1 DUP6 GT ISZERO PUSH3 0x5D2 JUMPI DUP2 PUSH1 0x0 NOT DIV DUP3 GT ISZERO PUSH3 0x5B6 JUMPI PUSH3 0x5B6 PUSH3 0x57B JUMP JUMPDEST DUP1 DUP6 AND ISZERO PUSH3 0x5C4 JUMPI SWAP2 DUP2 MUL SWAP2 JUMPDEST SWAP4 DUP5 SHR SWAP4 SWAP1 DUP1 MUL SWAP1 PUSH3 0x596 JUMP JUMPDEST POP SWAP3 POP SWAP3 SWAP1 POP JUMP JUMPDEST PUSH1 0x0 DUP3 PUSH3 0x5EB JUMPI POP PUSH1 0x1 PUSH3 0x68A JUMP JUMPDEST DUP2 PUSH3 0x5FA JUMPI POP PUSH1 0x0 PUSH3 0x68A JUMP JUMPDEST DUP2 PUSH1 0x1 DUP2 EQ PUSH3 0x613 JUMPI PUSH1 0x2 DUP2 EQ PUSH3 0x61E JUMPI PUSH3 0x63E JUMP JUMPDEST PUSH1 0x1 SWAP2 POP POP PUSH3 0x68A JUMP JUMPDEST PUSH1 0xFF DUP5 GT ISZERO PUSH3 0x632 JUMPI PUSH3 0x632 PUSH3 0x57B JUMP JUMPDEST POP POP PUSH1 0x1 DUP3 SHL PUSH3 0x68A JUMP JUMPDEST POP PUSH1 0x20 DUP4 LT PUSH2 0x133 DUP4 LT AND PUSH1 0x4E DUP5 LT PUSH1 0xB DUP5 LT AND OR ISZERO PUSH3 0x663 JUMPI POP DUP2 DUP2 EXP PUSH3 0x68A JUMP JUMPDEST PUSH3 0x66F DUP4 DUP4 PUSH3 0x591 JUMP JUMPDEST DUP1 PUSH1 0x0 NOT DIV DUP3 GT ISZERO PUSH3 0x686 JUMPI PUSH3 0x686 PUSH3 0x57B JUMP JUMPDEST MUL SWAP1 POP JUMPDEST SWAP3 SWAP2 POP POP JUMP JUMPDEST PUSH1 0x0 PUSH3 0x69E DUP4 DUP4 PUSH3 0x5DA JUMP JUMPDEST SWAP4 SWAP3 POP POP POP JUMP JUMPDEST DUP1 DUP3 MUL DUP2 ISZERO DUP3 DUP3 DIV DUP5 EQ OR PUSH3 0x68A JUMPI PUSH3 0x68A PUSH3 0x57B JUMP JUMPDEST PUSH1 0x80 MLOAD PUSH2 0x1DB0 PUSH3 0x6F0 PUSH1 0x0 CODECOPY PUSH1 0x0 DUP2 DUP2 PUSH2 0x2C5 ADD MSTORE DUP2 DUP2 PUSH2 0x70A ADD MSTORE DUP2 DUP2 PUSH2 0xC18 ADD MSTORE PUSH2 0xF84 ADD MSTORE PUSH2 0x1DB0 PUSH1 0x0 RETURN INVALID PUSH1 0x80 PUSH1 0x40 MSTORE PUSH1 0x4 CALLDATASIZE LT PUSH2 0x1B7 JUMPI PUSH1 0x0 CALLDATALOAD PUSH1 0xE0 SHR DUP1 PUSH4 0x7F51BB1F GT PUSH2 0xEC JUMPI DUP1 PUSH4 0xD4EC0FC2 GT PUSH2 0x8A JUMPI DUP1 PUSH4 0xEC3E2FF4 GT PUSH2 0x64 JUMPI DUP1 PUSH4 0xEC3E2FF4 EQ PUSH2 0x543 JUMPI DUP1 PUSH4 0xF046395A EQ PUSH2 0x558 JUMPI DUP1 PUSH4 0xF2FDE38B EQ PUSH2 0x5B7 JUMPI DUP1 PUSH4 0xFE5FF468 EQ PUSH2 0x5D7 JUMPI PUSH1 0x0 DUP1 REVERT JUMPDEST DUP1 PUSH4 0xD4EC0FC2 EQ PUSH2 0x4E8 JUMPI DUP1 PUSH4 0xDCC1E643 EQ PUSH2 0x503 JUMPI DUP1 PUSH4 0xE8F41233 EQ PUSH2 0x523 JUMPI PUSH1 0x0 DUP1 REVERT JUMPDEST DUP1 PUSH4 0x958D6CA0 GT PUSH2 0xC6 JUMPI DUP1 PUSH4 0x958D6CA0 EQ PUSH2 0x466 JUMPI DUP1 PUSH4 0xC1419DEF EQ PUSH2 0x486 JUMPI DUP1 PUSH4 0xC609138B EQ PUSH2 0x49B JUMPI DUP1 PUSH4 0xCAF601E1 EQ PUSH2 0x4C8 JUMPI PUSH1 0x0 DUP1 REVERT JUMPDEST DUP1 PUSH4 0x7F51BB1F EQ PUSH2 0x3F8 JUMPI DUP1 PUSH4 0x8DA5CB5B EQ PUSH2 0x418 JUMPI DUP1 PUSH4 0x9091D2C3 EQ PUSH2 0x436 JUMPI PUSH1 0x0 DUP1 REVERT JUMPDEST DUP1 PUSH4 0x474FF178 GT PUSH2 0x159 JUMPI DUP1 PUSH4 0x60C2099D GT PUSH2 0x133 JUMPI DUP1 PUSH4 0x60C2099D EQ PUSH2 0x38E JUMPI DUP1 PUSH4 0x61D027B3 EQ PUSH2 0x3AE JUMPI DUP1 PUSH4 0x715018A6 EQ PUSH2 0x3CE JUMPI DUP1 PUSH4 0x7A781658 EQ PUSH2 0x3E3 JUMPI PUSH1 0x0 DUP1 REVERT JUMPDEST DUP1 PUSH4 0x474FF178 EQ PUSH2 0x2E7 JUMPI DUP1 PUSH4 0x5DC8BB40 EQ PUSH2 0x307 JUMPI DUP1 PUSH4 0x60A31A88 EQ PUSH2 0x327 JUMPI PUSH1 0x0 DUP1 REVERT JUMPDEST DUP1 PUSH4 0x2630C12F GT PUSH2 0x195 JUMPI DUP1 PUSH4 0x2630C12F EQ PUSH2 0x248 JUMPI DUP1 PUSH4 0x27D5FD92 EQ PUSH2 0x280 JUMPI DUP1 PUSH4 0x2AEA58B2 EQ PUSH2 0x293 JUMPI DUP1 PUSH4 0x3E413BEE EQ PUSH2 0x2B3 JUMPI PUSH1 0x0 DUP1 REVERT JUMPDEST DUP1 PUSH4 0x9C36AA7 EQ PUSH2 0x1BC JUMPI DUP1 PUSH4 0xCBEBC24 EQ PUSH2 0x1DE JUMPI DUP1 PUSH4 0x1A753FED EQ PUSH2 0x21A JUMPI JUMPDEST PUSH1 0x0 DUP1 REVERT JUMPDEST CALLVALUE DUP1 ISZERO PUSH2 0x1C8 JUMPI PUSH1 0x0 DUP1 REVERT JUMPDEST POP PUSH2 0x1DC PUSH2 0x1D7 CALLDATASIZE PUSH1 0x4 PUSH2 0x191F JUMP JUMPDEST PUSH2 0x604 JUMP JUMPDEST STOP JUMPDEST CALLVALUE DUP1 ISZERO PUSH2 0x1EA JUMPI PUSH1 0x0 DUP1 REVERT JUMPDEST POP PUSH2 0x1FE PUSH2 0x1F9 CALLDATASIZE PUSH1 0x4 PUSH2 0x1951 JUMP JUMPDEST PUSH2 0x7E3 JUMP JUMPDEST PUSH1 0x40 MLOAD PUSH2 0x211 SWAP8 SWAP7 SWAP6 SWAP5 SWAP4 SWAP3 SWAP2 SWAP1 PUSH2 0x19A4 JUMP JUMPDEST PUSH1 0x40 MLOAD DUP1 SWAP2 SUB SWAP1 RETURN JUMPDEST CALLVALUE DUP1 ISZERO PUSH2 0x226 JUMPI PUSH1 0x0 DUP1 REVERT JUMPDEST POP PUSH2 0x23A PUSH2 0x235 CALLDATASIZE PUSH1 0x4 PUSH2 0x19E2 JUMP JUMPDEST PUSH2 0x8DA JUMP JUMPDEST PUSH1 0x40 MLOAD SWAP1 DUP2 MSTORE PUSH1 0x20 ADD PUSH2 0x211 JUMP JUMPDEST CALLVALUE DUP1 ISZERO PUSH2 0x254 JUMPI PUSH1 0x0 DUP1 REVERT JUMPDEST POP PUSH1 0x4 SLOAD PUSH2 0x268 SWAP1 PUSH1 0x1 PUSH1 0x1 PUSH1 0xA0 SHL SUB AND DUP2 JUMP JUMPDEST PUSH1 0x40 MLOAD PUSH1 0x1 PUSH1 0x1 PUSH1 0xA0 SHL SUB SWAP1 SWAP2 AND DUP2 MSTORE PUSH1 0x20 ADD PUSH2 0x211 JUMP JUMPDEST PUSH2 0x1DC PUSH2 0x28E CALLDATASIZE PUSH1 0x4 PUSH2 0x191F JUMP JUMPDEST PUSH2 0x91B JUMP JUMPDEST CALLVALUE DUP1 ISZERO PUSH2 0x29F JUMPI PUSH1 0x0 DUP1 REVERT JUMPDEST POP PUSH2 0x1DC PUSH2 0x2AE CALLDATASIZE PUSH1 0x4 PUSH2 0x19E2 JUMP JUMPDEST PUSH2 0xBB1 JUMP JUMPDEST CALLVALUE DUP1 ISZERO PUSH2 0x2BF JUMPI PUSH1 0x0 DUP1 REVERT JUMPDEST POP PUSH2 0x268 PUSH32 0x0 DUP2 JUMP JUMPDEST CALLVALUE DUP1 ISZERO PUSH2 0x2F3 JUMPI PUSH1 0x0 DUP1 REVERT JUMPDEST POP PUSH2 0x1DC PUSH2 0x302 CALLDATASIZE PUSH1 0x4 PUSH2 0x1951 JUMP JUMPDEST PUSH2 0xD63 JUMP JUMPDEST CALLVALUE DUP1 ISZERO PUSH2 0x313 JUMPI PUSH1 0x0 DUP1 REVERT JUMPDEST POP PUSH2 0x23A PUSH2 0x322 CALLDATASIZE PUSH1 0x4 PUSH2 0x19E2 JUMP JUMPDEST PUSH2 0xDD5 JUMP JUMPDEST CALLVALUE DUP1 ISZERO PUSH2 0x333 JUMPI PUSH1 0x0 DUP1 REVERT JUMPDEST POP PUSH2 0x36C PUSH2 0x342 CALLDATASIZE PUSH1 0x4 PUSH2 0x191F JUMP JUMPDEST PUSH1 0x5 PUSH1 0x20 MSTORE PUSH1 0x0 SWAP1 DUP2 MSTORE PUSH1 0x40 SWAP1 KECCAK256 DUP1 SLOAD PUSH1 0x1 DUP3 ADD SLOAD PUSH1 0x2 DUP4 ADD SLOAD PUSH1 0x3 SWAP1 SWAP4 ADD SLOAD SWAP2 SWAP3 SWAP1 SWAP2 PUSH1 0xFF AND DUP5 JUMP JUMPDEST PUSH1 0x40 DUP1 MLOAD SWAP5 DUP6 MSTORE PUSH1 0x20 DUP6 ADD SWAP4 SWAP1 SWAP4 MSTORE SWAP2 DUP4 ADD MSTORE ISZERO ISZERO PUSH1 0x60 DUP3 ADD MSTORE PUSH1 0x80 ADD PUSH2 0x211 JUMP JUMPDEST CALLVALUE DUP1 ISZERO PUSH2 0x39A JUMPI PUSH1 0x0 DUP1 REVERT JUMPDEST POP PUSH2 0x1DC PUSH2 0x3A9 CALLDATASIZE PUSH1 0x4 PUSH2 0x1A09 JUMP JUMPDEST PUSH2 0xDFA JUMP JUMPDEST CALLVALUE DUP1 ISZERO PUSH2 0x3BA JUMPI PUSH1 0x0 DUP1 REVERT JUMPDEST POP PUSH1 0x3 SLOAD PUSH2 0x268 SWAP1 PUSH1 0x1 PUSH1 0x1 PUSH1 0xA0 SHL SUB AND DUP2 JUMP JUMPDEST CALLVALUE DUP1 ISZERO PUSH2 0x3DA JUMPI PUSH1 0x0 DUP1 REVERT JUMPDEST POP PUSH2 0x1DC PUSH2 0xE95 JUMP JUMPDEST CALLVALUE DUP1 ISZERO PUSH2 0x3EF JUMPI PUSH1 0x0 DUP1 REVERT JUMPDEST POP PUSH2 0x1DC PUSH2 0xEA9 JUMP JUMPDEST CALLVALUE DUP1 ISZERO PUSH2 0x404 JUMPI PUSH1 0x0 DUP1 REVERT JUMPDEST POP PUSH2 0x1DC PUSH2 0x413 CALLDATASIZE PUSH1 0x4 PUSH2 0x1951 JUMP JUMPDEST PUSH2 0x1095 JUMP JUMPDEST CALLVALUE DUP1 ISZERO PUSH2 0x424 JUMPI PUSH1 0x0 DUP1 REVERT JUMPDEST POP PUSH1 0x0 SLOAD PUSH1 0x1 PUSH1 0x1 PUSH1 0xA0 SHL SUB AND PUSH2 0x268 JUMP JUMPDEST CALLVALUE DUP1 ISZERO PUSH2 0x442 JUMPI PUSH1 0x0 DUP1 REVERT JUMPDEST POP PUSH2 0x456 PUSH2 0x451 CALLDATASIZE PUSH1 0x4 PUSH2 0x1951 JUMP JUMPDEST PUSH2 0x1107 JUMP JUMPDEST PUSH1 0x40 MLOAD SWAP1 ISZERO ISZERO DUP2 MSTORE PUSH1 0x20 ADD PUSH2 0x211 JUMP JUMPDEST CALLVALUE DUP1 ISZERO PUSH2 0x472 JUMPI PUSH1 0x0 DUP1 REVERT JUMPDEST POP PUSH2 0x1DC PUSH2 0x481 CALLDATASIZE PUSH1 0x4 PUSH2 0x1A5D JUMP JUMPDEST PUSH2 0x11F9 JUMP JUMPDEST CALLVALUE DUP1 ISZERO PUSH2 0x492 JUMPI PUSH1 0x0 DUP1 REVERT JUMPDEST POP PUSH2 0x23A PUSH1 0x6 DUP2 JUMP JUMPDEST CALLVALUE DUP1 ISZERO PUSH2 0x4A7 JUMPI PUSH1 0x0 DUP1 REVERT JUMPDEST POP PUSH2 0x23A PUSH2 0x4B6 CALLDATASIZE PUSH1 0x4 PUSH2 0x1951 JUMP JUMPDEST PUSH1 0x8 PUSH1 0x20 MSTORE PUSH1 0x0 SWAP1 DUP2 MSTORE PUSH1 0x40 SWAP1 KECCAK256 SLOAD DUP2 JUMP JUMPDEST CALLVALUE DUP1 ISZERO PUSH2 0x4D4 JUMPI PUSH1 0x0 DUP1 REVERT JUMPDEST POP PUSH1 0x2 SLOAD PUSH2 0x268 SWAP1 PUSH1 0x1 PUSH1 0x1 PUSH1 0xA0 SHL SUB AND DUP2 JUMP JUMPDEST CALLVALUE DUP1 ISZERO PUSH2 0x4F4 JUMPI PUSH1 0x0 DUP1 REVERT JUMPDEST POP PUSH2 0x23A PUSH7 0x1C6BF52634000 DUP2 JUMP JUMPDEST CALLVALUE DUP1 ISZERO PUSH2 0x50F JUMPI PUSH1 0x0 DUP1 REVERT JUMPDEST POP PUSH2 0x1DC PUSH2 0x51E CALLDATASIZE PUSH1 0x4 PUSH2 0x1A96 JUMP JUMPDEST PUSH2 0x132D JUMP JUMPDEST CALLVALUE DUP1 ISZERO PUSH2 0x52F JUMPI PUSH1 0x0 DUP1 REVERT JUMPDEST POP PUSH2 0x1DC PUSH2 0x53E CALLDATASIZE PUSH1 0x4 PUSH2 0x191F JUMP JUMPDEST PUSH2 0x14E1 JUMP JUMPDEST CALLVALUE DUP1 ISZERO PUSH2 0x54F JUMPI PUSH1 0x0 DUP1 REVERT JUMPDEST POP PUSH2 0x23A PUSH1 0x19 DUP2 JUMP JUMPDEST CALLVALUE DUP1 ISZERO PUSH2 0x564 JUMPI PUSH1 0x0 DUP1 REVERT JUMPDEST POP PUSH2 0x5A6 PUSH2 0x573 CALLDATASIZE PUSH1 0x4 PUSH2 0x1951 JUMP JUMPDEST PUSH1 0x6 PUSH1 0x20 MSTORE PUSH1 0x0 SWAP1 DUP2 MSTORE PUSH1 0x40 SWAP1 KECCAK256 DUP1 SLOAD PUSH1 0x1 DUP3 ADD SLOAD PUSH1 0x2 DUP4 ADD SLOAD PUSH1 0x3 DUP5 ADD SLOAD PUSH1 0x4 SWAP1 SWAP5 ADD SLOAD PUSH1 0xFF SWAP1 SWAP4 AND SWAP4 SWAP2 SWAP3 SWAP1 SWAP2 SWAP1 DUP6 JUMP JUMPDEST PUSH1 0x40 MLOAD PUSH2 0x211 SWAP6 SWAP5 SWAP4 SWAP3 SWAP2 SWAP1 PUSH2 0x1AC9 JUMP JUMPDEST CALLVALUE DUP1 ISZERO PUSH2 0x5C3 JUMPI PUSH1 0x0 DUP1 REVERT JUMPDEST POP PUSH2 0x1DC PUSH2 0x5D2 CALLDATASIZE PUSH1 0x4 PUSH2 0x1951 JUMP JUMPDEST PUSH2 0x1727 JUMP JUMPDEST CALLVALUE DUP1 ISZERO PUSH2 0x5E3 JUMPI PUSH1 0x0 DUP1 REVERT JUMPDEST POP PUSH2 0x23A PUSH2 0x5F2 CALLDATASIZE PUSH1 0x4 PUSH2 0x1951 JUMP JUMPDEST PUSH1 0x7 PUSH1 0x20 MSTORE PUSH1 0x0 SWAP1 DUP2 MSTORE PUSH1 0x40 SWAP1 KECCAK256 SLOAD DUP2 JUMP JUMPDEST PUSH2 0x60C PUSH2 0x1762 JUMP JUMPDEST PUSH1 0x3 DUP2 PUSH1 0x3 DUP2 GT ISZERO PUSH2 0x620 JUMPI PUSH2 0x620 PUSH2 0x196C JUMP JUMPDEST SUB PUSH2 0x646 JUMPI PUSH1 0x40 MLOAD PUSH3 0x461BCD PUSH1 0xE5 SHL DUP2 MSTORE PUSH1 0x4 ADD PUSH2 0x63D SWAP1 PUSH2 0x1AF9 JUMP JUMPDEST PUSH1 0x40 MLOAD DUP1 SWAP2 SUB SWAP1 REVERT JUMPDEST PUSH1 0x0 PUSH1 0x5 PUSH1 0x0 DUP4 PUSH1 0x3 DUP2 GT ISZERO PUSH2 0x65E JUMPI PUSH2 0x65E PUSH2 0x196C JUMP JUMPDEST PUSH1 0x3 DUP2 GT ISZERO PUSH2 0x66F JUMPI PUSH2 0x66F PUSH2 0x196C JUMP JUMPDEST DUP2 MSTORE PUSH1 0x20 DUP1 DUP3 ADD SWAP3 SWAP1 SWAP3 MSTORE PUSH1 0x40 SWAP1 DUP2 ADD PUSH1 0x0 KECCAK256 DUP2 MLOAD PUSH1 0x80 DUP2 ADD DUP4 MSTORE DUP2 SLOAD DUP2 MSTORE PUSH1 0x1 DUP3 ADD SLOAD SWAP4 DUP2 ADD SWAP4 SWAP1 SWAP4 MSTORE PUSH1 0x2 DUP2 ADD SLOAD SWAP2 DUP4 ADD SWAP2 SWAP1 SWAP2 MSTORE PUSH1 0x3 ADD SLOAD PUSH1 0xFF AND ISZERO ISZERO PUSH1 0x60 DUP3 ADD DUP2 SWAP1 MSTORE SWAP1 SWAP2 POP PUSH2 0x6D5 JUMPI PUSH1 0x40 MLOAD PUSH3 0x461BCD PUSH1 0xE5 SHL DUP2 MSTORE PUSH1 0x4 ADD PUSH2 0x63D SWAP1 PUSH2 0x1B30 JUMP JUMPDEST PUSH1 0x0 DUP3 PUSH1 0x3 DUP2 GT ISZERO PUSH2 0x6E9 JUMPI PUSH2 0x6E9 PUSH2 0x196C JUMP JUMPDEST EQ PUSH2 0x7CB JUMPI PUSH1 0x3 SLOAD DUP2 MLOAD PUSH1 0x40 MLOAD PUSH4 0x23B872DD PUSH1 0xE0 SHL DUP2 MSTORE PUSH1 0x1 PUSH1 0x1 PUSH1 0xA0 SHL SUB PUSH32 0x0 DUP2 AND SWAP4 PUSH4 0x23B872DD SWAP4 PUSH2 0x745 SWAP4 CALLER SWAP4 SWAP3 SWAP1 SWAP3 AND SWAP2 PUSH1 0x4 ADD PUSH2 0x1B59 JUMP JUMPDEST PUSH1 0x20 PUSH1 0x40 MLOAD DUP1 DUP4 SUB DUP2 PUSH1 0x0 DUP8 GAS CALL ISZERO DUP1 ISZERO PUSH2 0x764 JUMPI RETURNDATASIZE PUSH1 0x0 DUP1 RETURNDATACOPY RETURNDATASIZE PUSH1 0x0 REVERT JUMPDEST POP POP POP POP PUSH1 0x40 MLOAD RETURNDATASIZE PUSH1 0x1F NOT PUSH1 0x1F DUP3 ADD AND DUP3 ADD DUP1 PUSH1 0x40 MSTORE POP DUP2 ADD SWAP1 PUSH2 0x788 SWAP2 SWAP1 PUSH2 0x1B7D JUMP JUMPDEST PUSH2 0x7CB JUMPI PUSH1 0x40 MLOAD PUSH3 0x461BCD PUSH1 0xE5 SHL DUP2 MSTORE PUSH1 0x20 PUSH1 0x4 DUP3 ADD MSTORE PUSH1 0x14 PUSH1 0x24 DUP3 ADD MSTORE PUSH20 0x1554D110C81D1C985B9CD9995C8819985A5B1959 PUSH1 0x62 SHL PUSH1 0x44 DUP3 ADD MSTORE PUSH1 0x64 ADD PUSH2 0x63D JUMP JUMPDEST PUSH2 0x7D6 CALLER DUP4 DUP4 PUSH2 0x178C JUMP JUMPDEST POP PUSH2 0x7E0 PUSH1 0x1 DUP1 SSTORE JUMP JUMPDEST POP JUMP JUMPDEST PUSH1 0x1 PUSH1 0x1 PUSH1 0xA0 SHL SUB DUP2 AND PUSH1 0x0 SWAP1 DUP2 MSTORE PUSH1 0x6 PUSH1 0x20 MSTORE PUSH1 0x40 DUP1 DUP3 KECCAK256 DUP2 MLOAD PUSH1 0xA0 DUP2 ADD SWAP1 SWAP3 MSTORE DUP1 SLOAD DUP4 SWAP3 DUP4 SWAP3 DUP4 SWAP3 DUP4 SWAP3 DUP4 SWAP3 DUP4 SWAP3 DUP4 SWAP3 SWAP2 SWAP1 DUP3 SWAP1 PUSH1 0xFF AND PUSH1 0x3 DUP2 GT ISZERO PUSH2 0x82D JUMPI PUSH2 0x82D PUSH2 0x196C JUMP JUMPDEST PUSH1 0x3 DUP2 GT ISZERO PUSH2 0x83E JUMPI PUSH2 0x83E PUSH2 0x196C JUMP JUMPDEST DUP2 MSTORE PUSH1 0x20 ADD PUSH1 0x1 DUP3 ADD SLOAD DUP2 MSTORE PUSH1 0x20 ADD PUSH1 0x2 DUP3 ADD SLOAD DUP2 MSTORE PUSH1 0x20 ADD PUSH1 0x3 DUP3 ADD SLOAD DUP2 MSTORE PUSH1 0x20 ADD PUSH1 0x4 DUP3 ADD SLOAD DUP2 MSTORE POP POP SWAP1 POP DUP1 PUSH1 0x0 ADD MLOAD SWAP8 POP DUP1 PUSH1 0x20 ADD MLOAD SWAP7 POP DUP1 PUSH1 0x40 ADD MLOAD SWAP6 POP DUP1 PUSH1 0x60 ADD MLOAD SWAP5 POP DUP6 DUP6 LT ISZERO PUSH2 0x89F JUMPI PUSH2 0x89A DUP6 DUP8 PUSH2 0x1BB0 JUMP JUMPDEST PUSH2 0x8A2 JUMP JUMPDEST PUSH1 0x0 JUMPDEST PUSH1 0x1 PUSH1 0x1 PUSH1 0xA0 SHL SUB SWAP1 SWAP10 AND PUSH1 0x0 SWAP1 DUP2 MSTORE PUSH1 0x7 PUSH1 0x20 SWAP1 DUP2 MSTORE PUSH1 0x40 DUP1 DUP4 KECCAK256 SLOAD PUSH1 0x8 SWAP1 SWAP3 MSTORE SWAP1 SWAP2 KECCAK256 SLOAD SWAP9 SWAP11 SWAP8 SWAP10 SWAP7 SWAP9 SWAP6 SWAP8 SWAP1 SWAP6 SWAP5 POP SWAP3 POP POP POP JUMP JUMPDEST PUSH1 0x0 DUP1 PUSH2 0x8E9 PUSH1 0x6 PUSH1 0xA PUSH2 0x1CAD JUMP JUMPDEST PUSH2 0x8F5 SWAP1 PUSH2 0xBB8 PUSH2 0x1CB9 JUMP JUMPDEST SWAP1 POP DUP1 PUSH2 0x90A DUP5 PUSH8 0xDE0B6B3A7640000 PUSH2 0x1CB9 JUMP JUMPDEST PUSH2 0x914 SWAP2 SWAP1 PUSH2 0x1CD0 JUMP JUMPDEST SWAP4 SWAP3 POP POP POP JUMP JUMPDEST PUSH2 0x923 PUSH2 0x1762 JUMP JUMPDEST PUSH1 0x3 DUP2 PUSH1 0x3 DUP2 GT ISZERO PUSH2 0x937 JUMPI PUSH2 0x937 PUSH2 0x196C JUMP JUMPDEST SUB PUSH2 0x954 JUMPI PUSH1 0x40 MLOAD PUSH3 0x461BCD PUSH1 0xE5 SHL DUP2 MSTORE PUSH1 0x4 ADD PUSH2 0x63D SWAP1 PUSH2 0x1AF9 JUMP JUMPDEST PUSH1 0x0 DUP2 PUSH1 0x3 DUP2 GT ISZERO PUSH2 0x968 JUMPI PUSH2 0x968 PUSH2 0x196C JUMP JUMPDEST SUB PUSH2 0x985 JUMPI PUSH1 0x40 MLOAD PUSH3 0x461BCD PUSH1 0xE5 SHL DUP2 MSTORE PUSH1 0x4 ADD PUSH2 0x63D SWAP1 PUSH2 0x1CF2 JUMP JUMPDEST PUSH1 0x0 PUSH1 0x5 PUSH1 0x0 DUP4 PUSH1 0x3 DUP2 GT ISZERO PUSH2 0x99D JUMPI PUSH2 0x99D PUSH2 0x196C JUMP JUMPDEST PUSH1 0x3 DUP2 GT ISZERO PUSH2 0x9AE JUMPI PUSH2 0x9AE PUSH2 0x196C JUMP JUMPDEST DUP2 MSTORE PUSH1 0x20 DUP1 DUP3 ADD SWAP3 SWAP1 SWAP3 MSTORE PUSH1 0x40 SWAP1 DUP2 ADD PUSH1 0x0 KECCAK256 DUP2 MLOAD PUSH1 0x80 DUP2 ADD DUP4 MSTORE DUP2 SLOAD DUP2 MSTORE PUSH1 0x1 DUP3 ADD SLOAD SWAP4 DUP2 ADD SWAP4 SWAP1 SWAP4 MSTORE PUSH1 0x2 DUP2 ADD SLOAD SWAP2 DUP4 ADD SWAP2 SWAP1 SWAP2 MSTORE PUSH1 0x3 ADD SLOAD PUSH1 0xFF AND ISZERO ISZERO PUSH1 0x60 DUP3 ADD DUP2 SWAP1 MSTORE SWAP1 SWAP2 POP PUSH2 0xA14 JUMPI PUSH1 0x40 MLOAD PUSH3 0x461BCD PUSH1 0xE5 SHL DUP2 MSTORE PUSH1 0x4 ADD PUSH2 0x63D SWAP1 PUSH2 0x1B30 JUMP JUMPDEST PUSH1 0x0 PUSH2 0xA23 DUP3 PUSH1 0x0 ADD MLOAD PUSH2 0x8DA JUMP JUMPDEST SWAP1 POP DUP1 CALLVALUE LT ISZERO PUSH2 0xA68 JUMPI PUSH1 0x40 MLOAD PUSH3 0x461BCD PUSH1 0xE5 SHL DUP2 MSTORE PUSH1 0x20 PUSH1 0x4 DUP3 ADD MSTORE PUSH1 0x10 PUSH1 0x24 DUP3 ADD MSTORE PUSH16 0x92DCE6EACCCCD2C6D2CADCE8408AA89 PUSH1 0x83 SHL PUSH1 0x44 DUP3 ADD MSTORE PUSH1 0x64 ADD PUSH2 0x63D JUMP JUMPDEST PUSH1 0x3 SLOAD PUSH1 0x40 MLOAD PUSH1 0x0 SWAP2 PUSH1 0x1 PUSH1 0x1 PUSH1 0xA0 SHL SUB AND SWAP1 CALLVALUE SWAP1 DUP4 DUP2 DUP2 DUP2 DUP6 DUP8 GAS CALL SWAP3 POP POP POP RETURNDATASIZE DUP1 PUSH1 0x0 DUP2 EQ PUSH2 0xAB5 JUMPI PUSH1 0x40 MLOAD SWAP2 POP PUSH1 0x1F NOT PUSH1 0x3F RETURNDATASIZE ADD AND DUP3 ADD PUSH1 0x40 MSTORE RETURNDATASIZE DUP3 MSTORE RETURNDATASIZE PUSH1 0x0 PUSH1 0x20 DUP5 ADD RETURNDATACOPY PUSH2 0xABA JUMP JUMPDEST PUSH1 0x60 SWAP2 POP JUMPDEST POP POP SWAP1 POP DUP1 PUSH2 0xB01 JUMPI PUSH1 0x40 MLOAD PUSH3 0x461BCD PUSH1 0xE5 SHL DUP2 MSTORE PUSH1 0x20 PUSH1 0x4 DUP3 ADD MSTORE PUSH1 0x13 PUSH1 0x24 DUP3 ADD MSTORE PUSH19 0x115512081D1C985B9CD9995C8819985A5B1959 PUSH1 0x6A SHL PUSH1 0x44 DUP3 ADD MSTORE PUSH1 0x64 ADD PUSH2 0x63D JUMP JUMPDEST PUSH2 0xB0C CALLER DUP6 DUP6 PUSH2 0x178C JUMP JUMPDEST DUP2 CALLVALUE GT ISZERO PUSH2 0xBA5 JUMPI PUSH1 0x0 CALLER PUSH2 0xB21 DUP5 CALLVALUE PUSH2 0x1BB0 JUMP JUMPDEST PUSH1 0x40 MLOAD PUSH1 0x0 DUP2 DUP2 DUP2 DUP6 DUP8 GAS CALL SWAP3 POP POP POP RETURNDATASIZE DUP1 PUSH1 0x0 DUP2 EQ PUSH2 0xB5D JUMPI PUSH1 0x40 MLOAD SWAP2 POP PUSH1 0x1F NOT PUSH1 0x3F RETURNDATASIZE ADD AND DUP3 ADD PUSH1 0x40 MSTORE RETURNDATASIZE DUP3 MSTORE RETURNDATASIZE PUSH1 0x0 PUSH1 0x20 DUP5 ADD RETURNDATACOPY PUSH2 0xB62 JUMP JUMPDEST PUSH1 0x60 SWAP2 POP JUMPDEST POP POP SWAP1 POP DUP1 PUSH2 0xBA3 JUMPI PUSH1 0x40 MLOAD PUSH3 0x461BCD PUSH1 0xE5 SHL DUP2 MSTORE PUSH1 0x20 PUSH1 0x4 DUP3 ADD MSTORE PUSH1 0xD PUSH1 0x24 DUP3 ADD MSTORE PUSH13 0x1499599D5B990819985A5B1959 PUSH1 0x9A SHL PUSH1 0x44 DUP3 ADD MSTORE PUSH1 0x64 ADD PUSH2 0x63D JUMP JUMPDEST POP JUMPDEST POP POP POP PUSH2 0x7E0 PUSH1 0x1 DUP1 SSTORE JUMP JUMPDEST PUSH2 0xBB9 PUSH2 0x1762 JUMP JUMPDEST PUSH1 0x0 DUP2 GT PUSH2 0xBFE JUMPI PUSH1 0x40 MLOAD PUSH3 0x461BCD PUSH1 0xE5 SHL DUP2 MSTORE PUSH1 0x20 PUSH1 0x4 DUP3 ADD MSTORE PUSH1 0x12 PUSH1 0x24 DUP3 ADD MSTORE PUSH18 0x416D6F756E74206D757374206265203E203 PUSH1 0x74 SHL PUSH1 0x44 DUP3 ADD MSTORE PUSH1 0x64 ADD PUSH2 0x63D JUMP JUMPDEST PUSH1 0x3 SLOAD PUSH1 0x40 MLOAD PUSH4 0x23B872DD PUSH1 0xE0 SHL DUP2 MSTORE PUSH1 0x1 PUSH1 0x1 PUSH1 0xA0 SHL SUB PUSH32 0x0 DUP2 AND SWAP3 PUSH4 0x23B872DD SWAP3 PUSH2 0xC52 SWAP3 CALLER SWAP3 AND SWAP1 DUP7 SWAP1 PUSH1 0x4 ADD PUSH2 0x1B59 JUMP JUMPDEST PUSH1 0x20 PUSH1 0x40 MLOAD DUP1 DUP4 SUB DUP2 PUSH1 0x0 DUP8 GAS CALL ISZERO DUP1 ISZERO PUSH2 0xC71 JUMPI RETURNDATASIZE PUSH1 0x0 DUP1 RETURNDATACOPY RETURNDATASIZE PUSH1 0x0 REVERT JUMPDEST POP POP POP POP PUSH1 0x40 MLOAD RETURNDATASIZE PUSH1 0x1F NOT PUSH1 0x1F DUP3 ADD AND DUP3 ADD DUP1 PUSH1 0x40 MSTORE POP DUP2 ADD SWAP1 PUSH2 0xC95 SWAP2 SWAP1 PUSH2 0x1B7D JUMP JUMPDEST PUSH2 0xCD8 JUMPI PUSH1 0x40 MLOAD PUSH3 0x461BCD PUSH1 0xE5 SHL DUP2 MSTORE PUSH1 0x20 PUSH1 0x4 DUP3 ADD MSTORE PUSH1 0x14 PUSH1 0x24 DUP3 ADD MSTORE PUSH20 0x1554D110C81D1C985B9CD9995C8819985A5B1959 PUSH1 0x62 SHL PUSH1 0x44 DUP3 ADD MSTORE PUSH1 0x64 ADD PUSH2 0x63D JUMP JUMPDEST PUSH1 0x0 PUSH2 0xCE6 PUSH1 0x6 PUSH1 0x12 PUSH2 0x1BB0 JUMP JUMPDEST PUSH2 0xCF1 SWAP1 PUSH1 0xA PUSH2 0x1CAD JUMP JUMPDEST PUSH2 0xCFB SWAP1 DUP4 PUSH2 0x1CB9 JUMP JUMPDEST CALLER PUSH1 0x0 SWAP1 DUP2 MSTORE PUSH1 0x7 PUSH1 0x20 MSTORE PUSH1 0x40 DUP2 KECCAK256 DUP1 SLOAD SWAP3 SWAP4 POP DUP4 SWAP3 SWAP1 SWAP2 SWAP1 PUSH2 0xD1F SWAP1 DUP5 SWAP1 PUSH2 0x1D33 JUMP JUMPDEST SWAP1 SWAP2 SSTORE POP POP PUSH1 0x40 MLOAD DUP2 DUP2 MSTORE CALLER SWAP1 PUSH32 0xED46984C46E11F42EC323727BA7D99DC16BE2D248A8AAA8982D492688497F09D SWAP1 PUSH1 0x20 ADD PUSH1 0x40 MLOAD DUP1 SWAP2 SUB SWAP1 LOG2 POP PUSH2 0x7E0 PUSH1 0x1 DUP1 SSTORE JUMP JUMPDEST PUSH2 0xD6B PUSH2 0x188E JUMP JUMPDEST PUSH1 0x1 PUSH1 0x1 PUSH1 0xA0 SHL SUB DUP2 AND PUSH2 0xDB3 JUMPI PUSH1 0x40 MLOAD PUSH3 0x461BCD PUSH1 0xE5 SHL DUP2 MSTORE PUSH1 0x20 PUSH1 0x4 DUP3 ADD MSTORE PUSH1 0xF PUSH1 0x24 DUP3 ADD MSTORE PUSH15 0x496E76616C69642061646472657373 PUSH1 0x88 SHL PUSH1 0x44 DUP3 ADD MSTORE PUSH1 0x64 ADD PUSH2 0x63D JUMP JUMPDEST PUSH1 0x2 DUP1 SLOAD PUSH1 0x1 PUSH1 0x1 PUSH1 0xA0 SHL SUB NOT AND PUSH1 0x1 PUSH1 0x1 PUSH1 0xA0 SHL SUB SWAP3 SWAP1 SWAP3 AND SWAP2 SWAP1 SWAP2 OR SWAP1 SSTORE JUMP JUMPDEST PUSH1 0x0 DUP1 PUSH2 0xDE4 PUSH1 0x2 PUSH1 0x6 PUSH2 0x1BB0 JUMP JUMPDEST PUSH2 0xDEF SWAP1 PUSH1 0xA PUSH2 0x1CAD JUMP JUMPDEST PUSH2 0x8F5 SWAP1 PUSH1 0x1 PUSH2 0x1CB9 JUMP JUMPDEST PUSH2 0xE02 PUSH2 0x188E JUMP JUMPDEST PUSH1 0x40 MLOAD DUP1 PUSH1 0x80 ADD PUSH1 0x40 MSTORE DUP1 DUP6 DUP2 MSTORE PUSH1 0x20 ADD DUP5 DUP2 MSTORE PUSH1 0x20 ADD DUP4 DUP2 MSTORE PUSH1 0x20 ADD DUP3 ISZERO ISZERO DUP2 MSTORE POP PUSH1 0x5 PUSH1 0x0 DUP8 PUSH1 0x3 DUP2 GT ISZERO PUSH2 0xE3B JUMPI PUSH2 0xE3B PUSH2 0x196C JUMP JUMPDEST PUSH1 0x3 DUP2 GT ISZERO PUSH2 0xE4C JUMPI PUSH2 0xE4C PUSH2 0x196C JUMP JUMPDEST DUP2 MSTORE PUSH1 0x20 DUP1 DUP3 ADD SWAP3 SWAP1 SWAP3 MSTORE PUSH1 0x40 SWAP1 DUP2 ADD PUSH1 0x0 KECCAK256 DUP4 MLOAD DUP2 SSTORE SWAP2 DUP4 ADD MLOAD PUSH1 0x1 DUP4 ADD SSTORE DUP3 ADD MLOAD PUSH1 0x2 DUP3 ADD SSTORE PUSH1 0x60 SWAP1 SWAP2 ADD MLOAD PUSH1 0x3 SWAP1 SWAP2 ADD DUP1 SLOAD PUSH1 0xFF NOT AND SWAP2 ISZERO ISZERO SWAP2 SWAP1 SWAP2 OR SWAP1 SSTORE POP POP POP POP POP JUMP JUMPDEST PUSH2 0xE9D PUSH2 0x188E JUMP JUMPDEST PUSH2 0xEA7 PUSH1 0x0 PUSH2 0x18BB JUMP JUMPDEST JUMP JUMPDEST PUSH2 0xEB1 PUSH2 0x1762 JUMP JUMPDEST CALLER PUSH1 0x0 SWAP1 DUP2 MSTORE PUSH1 0x8 PUSH1 0x20 MSTORE PUSH1 0x40 SWAP1 KECCAK256 SLOAD DUP1 PUSH2 0xF04 JUMPI PUSH1 0x40 MLOAD PUSH3 0x461BCD PUSH1 0xE5 SHL DUP2 MSTORE PUSH1 0x20 PUSH1 0x4 DUP3 ADD MSTORE PUSH1 0x13 PUSH1 0x24 DUP3 ADD MSTORE PUSH19 0x139BC81BDD5D1CDD185B991A5B99C8189A5B1B PUSH1 0x6A SHL PUSH1 0x44 DUP3 ADD MSTORE PUSH1 0x64 ADD PUSH2 0x63D JUMP JUMPDEST PUSH1 0x0 PUSH2 0xF12 PUSH1 0x6 PUSH1 0x12 PUSH2 0x1BB0 JUMP JUMPDEST PUSH2 0xF1D SWAP1 PUSH1 0xA PUSH2 0x1CAD JUMP JUMPDEST PUSH2 0xF27 SWAP1 DUP4 PUSH2 0x1CD0 JUMP JUMPDEST SWAP1 POP PUSH1 0x0 DUP2 GT PUSH2 0xF6A JUMPI PUSH1 0x40 MLOAD PUSH3 0x461BCD PUSH1 0xE5 SHL DUP2 MSTORE PUSH1 0x20 PUSH1 0x4 DUP3 ADD MSTORE PUSH1 0xE PUSH1 0x24 DUP3 ADD MSTORE PUSH14 0x109A5B1B081D1BDBC81CDB585B1B PUSH1 0x92 SHL PUSH1 0x44 DUP3 ADD MSTORE PUSH1 0x64 ADD PUSH2 0x63D JUMP JUMPDEST PUSH1 0x3 SLOAD PUSH1 0x40 MLOAD PUSH4 0x23B872DD PUSH1 0xE0 SHL DUP2 MSTORE PUSH1 0x1 PUSH1 0x1 PUSH1 0xA0 SHL SUB PUSH32 0x0 DUP2 AND SWAP3 PUSH4 0x23B872DD SWAP3 PUSH2 0xFBE SWAP3 CALLER SWAP3 AND SWAP1 DUP7 SWAP1 PUSH1 0x4 ADD PUSH2 0x1B59 JUMP JUMPDEST PUSH1 0x20 PUSH1 0x40 MLOAD DUP1 DUP4 SUB DUP2 PUSH1 0x0 DUP8 GAS CALL ISZERO DUP1 ISZERO PUSH2 0xFDD JUMPI RETURNDATASIZE PUSH1 0x0 DUP1 RETURNDATACOPY RETURNDATASIZE PUSH1 0x0 REVERT JUMPDEST POP POP POP POP PUSH1 0x40 MLOAD RETURNDATASIZE PUSH1 0x1F NOT PUSH1 0x1F DUP3 ADD AND DUP3 ADD DUP1 PUSH1 0x40 MSTORE POP DUP2 ADD SWAP1 PUSH2 0x1001 SWAP2 SWAP1 PUSH2 0x1B7D JUMP JUMPDEST PUSH2 0x103E JUMPI PUSH1 0x40 MLOAD PUSH3 0x461BCD PUSH1 0xE5 SHL DUP2 MSTORE PUSH1 0x20 PUSH1 0x4 DUP3 ADD MSTORE PUSH1 0xE PUSH1 0x24 DUP3 ADD MSTORE PUSH14 0x14185E5B595B9D0819985A5B1959 PUSH1 0x92 SHL PUSH1 0x44 DUP3 ADD MSTORE PUSH1 0x64 ADD PUSH2 0x63D JUMP JUMPDEST CALLER PUSH1 0x0 DUP2 DUP2 MSTORE PUSH1 0x8 PUSH1 0x20 MSTORE PUSH1 0x40 DUP1 DUP3 KECCAK256 SWAP2 SWAP1 SWAP2 SSTORE MLOAD PUSH32 0xA53D5FF8D58D253FF04700D46F9BF75189228EE0D4AFDFBA61F91B1352E8D47A SWAP1 PUSH2 0x1082 SWAP1 DUP6 DUP2 MSTORE PUSH1 0x20 ADD SWAP1 JUMP JUMPDEST PUSH1 0x40 MLOAD DUP1 SWAP2 SUB SWAP1 LOG2 POP POP PUSH2 0xEA7 PUSH1 0x1 DUP1 SSTORE JUMP JUMPDEST PUSH2 0x109D PUSH2 0x188E JUMP JUMPDEST PUSH1 0x1 PUSH1 0x1 PUSH1 0xA0 SHL SUB DUP2 AND PUSH2 0x10E5 JUMPI PUSH1 0x40 MLOAD PUSH3 0x461BCD PUSH1 0xE5 SHL DUP2 MSTORE PUSH1 0x20 PUSH1 0x4 DUP3 ADD MSTORE PUSH1 0xF PUSH1 0x24 DUP3 ADD MSTORE PUSH15 0x496E76616C69642061646472657373 PUSH1 0x88 SHL PUSH1 0x44 DUP3 ADD MSTORE PUSH1 0x64 ADD PUSH2 0x63D JUMP JUMPDEST PUSH1 0x3 DUP1 SLOAD PUSH1 0x1 PUSH1 0x1 PUSH1 0xA0 SHL SUB NOT AND PUSH1 0x1 PUSH1 0x1 PUSH1 0xA0 SHL SUB SWAP3 SWAP1 SWAP3 AND SWAP2 SWAP1 SWAP2 OR SWAP1 SSTORE JUMP JUMPDEST PUSH1 0x1 PUSH1 0x1 PUSH1 0xA0 SHL SUB DUP2 AND PUSH1 0x0 SWAP1 DUP2 MSTORE PUSH1 0x6 PUSH1 0x20 MSTORE PUSH1 0x40 DUP1 DUP3 KECCAK256 DUP2 MLOAD PUSH1 0xA0 DUP2 ADD SWAP1 SWAP3 MSTORE DUP1 SLOAD DUP4 SWAP3 SWAP2 SWAP1 DUP3 SWAP1 PUSH1 0xFF AND PUSH1 0x3 DUP2 GT ISZERO PUSH2 0x1145 JUMPI PUSH2 0x1145 PUSH2 0x196C JUMP JUMPDEST PUSH1 0x3 DUP2 GT ISZERO PUSH2 0x1156 JUMPI PUSH2 0x1156 PUSH2 0x196C JUMP JUMPDEST DUP2 MSTORE PUSH1 0x20 ADD PUSH1 0x1 DUP3 ADD SLOAD DUP2 MSTORE PUSH1 0x20 ADD PUSH1 0x2 DUP3 ADD SLOAD DUP2 MSTORE PUSH1 0x20 ADD PUSH1 0x3 DUP3 ADD SLOAD DUP2 MSTORE PUSH1 0x20 ADD PUSH1 0x4 DUP3 ADD SLOAD DUP2 MSTORE POP POP SWAP1 POP DUP1 PUSH1 0x20 ADD MLOAD TIMESTAMP GT ISZERO PUSH2 0x1199 JUMPI POP PUSH1 0x0 SWAP3 SWAP2 POP POP JUMP JUMPDEST DUP1 PUSH1 0x40 ADD MLOAD DUP2 PUSH1 0x60 ADD MLOAD LT ISZERO PUSH2 0x11B2 JUMPI POP PUSH1 0x1 SWAP3 SWAP2 POP POP JUMP JUMPDEST PUSH1 0x1 PUSH1 0x1 PUSH1 0xA0 SHL SUB DUP4 AND PUSH1 0x0 SWAP1 DUP2 MSTORE PUSH1 0x7 PUSH1 0x20 MSTORE PUSH1 0x40 SWAP1 KECCAK256 SLOAD PUSH7 0x1C6BF52634000 GT ISZERO DUP1 PUSH2 0x914 JUMPI POP PUSH1 0x0 DUP2 MLOAD PUSH1 0x3 DUP2 GT ISZERO PUSH2 0x11F0 JUMPI PUSH2 0x11F0 PUSH2 0x196C JUMP JUMPDEST EQ ISZERO SWAP4 SWAP3 POP POP POP JUMP JUMPDEST PUSH2 0x1201 PUSH2 0x188E JUMP JUMPDEST PUSH1 0x40 DUP1 MLOAD PUSH1 0x80 DUP2 ADD DUP3 MSTORE PUSH1 0x0 DUP2 MSTORE PUSH1 0x20 DUP2 ADD DUP6 SWAP1 MSTORE DUP1 DUP3 ADD DUP5 SWAP1 MSTORE PUSH1 0x1 PUSH1 0x60 DUP3 ADD MSTORE DUP2 MLOAD PUSH1 0xA0 DUP2 ADD SWAP1 SWAP3 MSTORE SWAP1 DUP1 PUSH1 0x3 DUP2 MSTORE PUSH1 0x20 ADD PUSH2 0x1242 DUP5 PUSH3 0x15180 PUSH2 0x1CB9 JUMP JUMPDEST PUSH2 0x124C SWAP1 TIMESTAMP PUSH2 0x1D33 JUMP JUMPDEST DUP2 MSTORE PUSH1 0x20 DUP1 DUP3 ADD DUP8 SWAP1 MSTORE PUSH1 0x0 PUSH1 0x40 DUP1 DUP5 ADD DUP3 SWAP1 MSTORE TIMESTAMP PUSH1 0x60 SWAP1 SWAP5 ADD SWAP4 SWAP1 SWAP4 MSTORE PUSH1 0x1 PUSH1 0x1 PUSH1 0xA0 SHL SUB DUP10 AND DUP2 MSTORE PUSH1 0x6 SWAP1 SWAP2 MSTORE KECCAK256 DUP2 MLOAD DUP2 SLOAD DUP3 SWAP1 PUSH1 0xFF NOT AND PUSH1 0x1 DUP4 PUSH1 0x3 DUP2 GT ISZERO PUSH2 0x129A JUMPI PUSH2 0x129A PUSH2 0x196C JUMP JUMPDEST MUL OR SWAP1 SSTORE POP PUSH1 0x20 DUP3 ADD MLOAD DUP2 PUSH1 0x1 ADD SSTORE PUSH1 0x40 DUP3 ADD MLOAD DUP2 PUSH1 0x2 ADD SSTORE PUSH1 0x60 DUP3 ADD MLOAD DUP2 PUSH1 0x3 ADD SSTORE PUSH1 0x80 DUP3 ADD MLOAD DUP2 PUSH1 0x4 ADD SSTORE SWAP1 POP POP DUP5 PUSH1 0x1 PUSH1 0x1 PUSH1 0xA0 SHL SUB AND PUSH32 0x44F95A2D17727B5B87E4F23D70278B59A2B0B285289CC9021CAC8CDBA4797B7 PUSH1 0x3 DUP5 PUSH3 0x15180 PUSH2 0x1306 SWAP2 SWAP1 PUSH2 0x1CB9 JUMP JUMPDEST PUSH2 0x1310 SWAP1 TIMESTAMP PUSH2 0x1D33 JUMP JUMPDEST PUSH1 0x40 MLOAD PUSH2 0x131E SWAP3 SWAP2 SWAP1 PUSH2 0x1D46 JUMP JUMPDEST PUSH1 0x40 MLOAD DUP1 SWAP2 SUB SWAP1 LOG2 POP POP POP POP POP JUMP JUMPDEST PUSH1 0x0 SLOAD PUSH1 0x1 PUSH1 0x1 PUSH1 0xA0 SHL SUB AND CALLER EQ PUSH2 0x1387 JUMPI PUSH1 0x40 MLOAD PUSH3 0x461BCD PUSH1 0xE5 SHL DUP2 MSTORE PUSH1 0x20 PUSH1 0x4 DUP3 ADD MSTORE PUSH1 0x1B PUSH1 0x24 DUP3 ADD MSTORE PUSH32 0x4F6E6C79206F776E65722063616E207265636F72642063616C6C730000000000 PUSH1 0x44 DUP3 ADD MSTORE PUSH1 0x64 ADD PUSH2 0x63D JUMP JUMPDEST PUSH1 0x1 PUSH1 0x1 PUSH1 0xA0 SHL SUB DUP3 AND PUSH1 0x0 SWAP1 DUP2 MSTORE PUSH1 0x6 PUSH1 0x20 MSTORE PUSH1 0x40 SWAP1 KECCAK256 PUSH1 0x4 DUP2 ADD SLOAD PUSH2 0x13B1 SWAP1 PUSH3 0x278D00 PUSH2 0x1D33 JUMP JUMPDEST TIMESTAMP LT PUSH2 0x13DD JUMPI PUSH1 0x0 PUSH1 0x3 DUP3 ADD DUP2 SWAP1 SSTORE TIMESTAMP PUSH1 0x4 DUP4 ADD SSTORE PUSH1 0x1 PUSH1 0x1 PUSH1 0xA0 SHL SUB DUP5 AND DUP2 MSTORE PUSH1 0x8 PUSH1 0x20 MSTORE PUSH1 0x40 DUP2 KECCAK256 SSTORE JUMPDEST PUSH1 0x3 DUP2 ADD DUP1 SLOAD SWAP1 PUSH1 0x0 PUSH2 0x13EF DUP4 PUSH2 0x1D61 JUMP JUMPDEST SWAP2 SWAP1 POP SSTORE POP DUP1 PUSH1 0x2 ADD SLOAD DUP2 PUSH1 0x3 ADD SLOAD GT ISZERO PUSH2 0x14DC JUMPI PUSH1 0x1 PUSH1 0x1 PUSH1 0xA0 SHL SUB DUP4 AND PUSH1 0x0 SWAP1 DUP2 MSTORE PUSH1 0x7 PUSH1 0x20 MSTORE PUSH1 0x40 SWAP1 KECCAK256 SLOAD PUSH7 0x1C6BF52634000 SWAP1 DUP2 GT PUSH2 0x145F JUMPI PUSH1 0x1 PUSH1 0x1 PUSH1 0xA0 SHL SUB DUP5 AND PUSH1 0x0 SWAP1 DUP2 MSTORE PUSH1 0x7 PUSH1 0x20 MSTORE PUSH1 0x40 DUP2 KECCAK256 DUP1 SLOAD DUP4 SWAP3 SWAP1 PUSH2 0x1454 SWAP1 DUP5 SWAP1 PUSH2 0x1BB0 JUMP JUMPDEST SWAP1 SWAP2 SSTORE POP PUSH2 0x148D SWAP1 POP JUMP JUMPDEST PUSH1 0x1 PUSH1 0x1 PUSH1 0xA0 SHL SUB DUP5 AND PUSH1 0x0 SWAP1 DUP2 MSTORE PUSH1 0x8 PUSH1 0x20 MSTORE PUSH1 0x40 DUP2 KECCAK256 DUP1 SLOAD DUP4 SWAP3 SWAP1 PUSH2 0x1487 SWAP1 DUP5 SWAP1 PUSH2 0x1D33 JUMP JUMPDEST SWAP1 SWAP2 SSTORE POP POP JUMPDEST DUP3 PUSH1 0x1 PUSH1 0x1 PUSH1 0xA0 SHL SUB AND DUP5 PUSH1 0x1 PUSH1 0x1 PUSH1 0xA0 SHL SUB AND PUSH32 0xDE43EDD50A0DF60BB9CC1D9D5E7A2CD65F3D1BF133FB19287D22C23135659A82 DUP4 PUSH1 0x40 MLOAD PUSH2 0x14D2 SWAP2 DUP2 MSTORE PUSH1 0x20 ADD SWAP1 JUMP JUMPDEST PUSH1 0x40 MLOAD DUP1 SWAP2 SUB SWAP1 LOG3 POP JUMPDEST POP POP POP JUMP JUMPDEST PUSH2 0x14E9 PUSH2 0x1762 JUMP JUMPDEST PUSH1 0x3 DUP2 PUSH1 0x3 DUP2 GT ISZERO PUSH2 0x14FD JUMPI PUSH2 0x14FD PUSH2 0x196C JUMP JUMPDEST SUB PUSH2 0x151A JUMPI PUSH1 0x40 MLOAD PUSH3 0x461BCD PUSH1 0xE5 SHL DUP2 MSTORE PUSH1 0x4 ADD PUSH2 0x63D SWAP1 PUSH2 0x1AF9 JUMP JUMPDEST PUSH1 0x0 DUP2 PUSH1 0x3 DUP2 GT ISZERO PUSH2 0x152E JUMPI PUSH2 0x152E PUSH2 0x196C JUMP JUMPDEST SUB PUSH2 0x154B JUMPI PUSH1 0x40 MLOAD PUSH3 0x461BCD PUSH1 0xE5 SHL DUP2 MSTORE PUSH1 0x4 ADD PUSH2 0x63D SWAP1 PUSH2 0x1CF2 JUMP JUMPDEST PUSH1 0x2 SLOAD PUSH1 0x1 PUSH1 0x1 PUSH1 0xA0 SHL SUB AND PUSH2 0x1599 JUMPI PUSH1 0x40 MLOAD PUSH3 0x461BCD PUSH1 0xE5 SHL DUP2 MSTORE PUSH1 0x20 PUSH1 0x4 DUP3 ADD MSTORE PUSH1 0x13 PUSH1 0x24 DUP3 ADD MSTORE PUSH19 0x1191515114C81D1BDAD95B881B9BDD081CD95D PUSH1 0x6A SHL PUSH1 0x44 DUP3 ADD MSTORE PUSH1 0x64 ADD PUSH2 0x63D JUMP JUMPDEST PUSH1 0x0 PUSH1 0x5 PUSH1 0x0 DUP4 PUSH1 0x3 DUP2 GT ISZERO PUSH2 0x15B1 JUMPI PUSH2 0x15B1 PUSH2 0x196C JUMP JUMPDEST PUSH1 0x3 DUP2 GT ISZERO PUSH2 0x15C2 JUMPI PUSH2 0x15C2 PUSH2 0x196C JUMP JUMPDEST DUP2 MSTORE PUSH1 0x20 DUP1 DUP3 ADD SWAP3 SWAP1 SWAP3 MSTORE PUSH1 0x40 SWAP1 DUP2 ADD PUSH1 0x0 KECCAK256 DUP2 MLOAD PUSH1 0x80 DUP2 ADD DUP4 MSTORE DUP2 SLOAD DUP2 MSTORE PUSH1 0x1 DUP3 ADD SLOAD SWAP4 DUP2 ADD SWAP4 SWAP1 SWAP4 MSTORE PUSH1 0x2 DUP2 ADD SLOAD SWAP2 DUP4 ADD SWAP2 SWAP1 SWAP2 MSTORE PUSH1 0x3 ADD SLOAD PUSH1 0xFF AND ISZERO ISZERO PUSH1 0x60 DUP3 ADD DUP2 SWAP1 MSTORE SWAP1 SWAP2 POP PUSH2 0x1628 JUMPI PUSH1 0x40 MLOAD PUSH3 0x461BCD PUSH1 0xE5 SHL DUP2 MSTORE PUSH1 0x4 ADD PUSH2 0x63D SWAP1 PUSH2 0x1B30 JUMP JUMPDEST PUSH1 0x0 PUSH1 0x64 PUSH2 0x1637 PUSH1 0x19 DUP3 PUSH2 0x1BB0 JUMP JUMPDEST DUP4 MLOAD PUSH2 0x1643 SWAP2 SWAP1 PUSH2 0x1CB9 JUMP JUMPDEST PUSH2 0x164D SWAP2 SWAP1 PUSH2 0x1CD0 JUMP JUMPDEST SWAP1 POP PUSH1 0x0 PUSH2 0x165A DUP3 PUSH2 0xDD5 JUMP JUMPDEST PUSH1 0x2 SLOAD PUSH1 0x3 SLOAD PUSH1 0x40 MLOAD PUSH4 0x23B872DD PUSH1 0xE0 SHL DUP2 MSTORE SWAP3 SWAP4 POP PUSH1 0x1 PUSH1 0x1 PUSH1 0xA0 SHL SUB SWAP2 DUP3 AND SWAP3 PUSH4 0x23B872DD SWAP3 PUSH2 0x1695 SWAP3 CALLER SWAP3 SWAP2 AND SWAP1 DUP7 SWAP1 PUSH1 0x4 ADD PUSH2 0x1B59 JUMP JUMPDEST PUSH1 0x20 PUSH1 0x40 MLOAD DUP1 DUP4 SUB DUP2 PUSH1 0x0 DUP8 GAS CALL ISZERO DUP1 ISZERO PUSH2 0x16B4 JUMPI RETURNDATASIZE PUSH1 0x0 DUP1 RETURNDATACOPY RETURNDATASIZE PUSH1 0x0 REVERT JUMPDEST POP POP POP POP PUSH1 0x40 MLOAD RETURNDATASIZE PUSH1 0x1F NOT PUSH1 0x1F DUP3 ADD AND DUP3 ADD DUP1 PUSH1 0x40 MSTORE POP DUP2 ADD SWAP1 PUSH2 0x16D8 SWAP2 SWAP1 PUSH2 0x1B7D JUMP JUMPDEST PUSH2 0x171C JUMPI PUSH1 0x40 MLOAD PUSH3 0x461BCD PUSH1 0xE5 SHL DUP2 MSTORE PUSH1 0x20 PUSH1 0x4 DUP3 ADD MSTORE PUSH1 0x15 PUSH1 0x24 DUP3 ADD MSTORE PUSH21 0x1191515114C81D1C985B9CD9995C8819985A5B1959 PUSH1 0x5A SHL PUSH1 0x44 DUP3 ADD MSTORE PUSH1 0x64 ADD PUSH2 0x63D JUMP JUMPDEST PUSH2 0xBA5 CALLER DUP6 DUP6 PUSH2 0x178C JUMP JUMPDEST PUSH2 0x172F PUSH2 0x188E JUMP JUMPDEST PUSH1 0x1 PUSH1 0x1 PUSH1 0xA0 SHL SUB DUP2 AND PUSH2 0x1759 JUMPI PUSH1 0x40 MLOAD PUSH4 0x1E4FBDF7 PUSH1 0xE0 SHL DUP2 MSTORE PUSH1 0x0 PUSH1 0x4 DUP3 ADD MSTORE PUSH1 0x24 ADD PUSH2 0x63D JUMP JUMPDEST PUSH2 0x7E0 DUP2 PUSH2 0x18BB JUMP JUMPDEST PUSH1 0x2 PUSH1 0x1 SLOAD SUB PUSH2 0x1785 JUMPI PUSH1 0x40 MLOAD PUSH4 0x3EE5AEB5 PUSH1 0xE0 SHL DUP2 MSTORE PUSH1 0x4 ADD PUSH1 0x40 MLOAD DUP1 SWAP2 SUB SWAP1 REVERT JUMPDEST PUSH1 0x2 PUSH1 0x1 SSTORE JUMP JUMPDEST PUSH1 0x0 PUSH2 0x179B TIMESTAMP PUSH3 0x278D00 PUSH2 0x1D33 JUMP JUMPDEST SWAP1 POP PUSH1 0x40 MLOAD DUP1 PUSH1 0xA0 ADD PUSH1 0x40 MSTORE DUP1 DUP5 PUSH1 0x3 DUP2 GT ISZERO PUSH2 0x17BA JUMPI PUSH2 0x17BA PUSH2 0x196C JUMP JUMPDEST DUP2 MSTORE PUSH1 0x20 DUP1 DUP3 ADD DUP5 SWAP1 MSTORE DUP5 DUP2 ADD MLOAD PUSH1 0x40 DUP1 DUP5 ADD SWAP2 SWAP1 SWAP2 MSTORE PUSH1 0x0 PUSH1 0x60 DUP5 ADD DUP2 SWAP1 MSTORE TIMESTAMP PUSH1 0x80 SWAP1 SWAP5 ADD SWAP4 SWAP1 SWAP4 MSTORE PUSH1 0x1 PUSH1 0x1 PUSH1 0xA0 SHL SUB DUP9 AND DUP4 MSTORE PUSH1 0x6 SWAP1 SWAP2 MSTORE SWAP1 KECCAK256 DUP2 MLOAD DUP2 SLOAD DUP3 SWAP1 PUSH1 0xFF NOT AND PUSH1 0x1 DUP4 PUSH1 0x3 DUP2 GT ISZERO PUSH2 0x1815 JUMPI PUSH2 0x1815 PUSH2 0x196C JUMP JUMPDEST MUL OR SWAP1 SSTORE POP PUSH1 0x20 DUP3 ADD MLOAD DUP2 PUSH1 0x1 ADD SSTORE PUSH1 0x40 DUP3 ADD MLOAD DUP2 PUSH1 0x2 ADD SSTORE PUSH1 0x60 DUP3 ADD MLOAD DUP2 PUSH1 0x3 ADD SSTORE PUSH1 0x80 DUP3 ADD MLOAD DUP2 PUSH1 0x4 ADD SSTORE SWAP1 POP POP DUP4 PUSH1 0x1 PUSH1 0x1 PUSH1 0xA0 SHL SUB AND PUSH32 0x44F95A2D17727B5B87E4F23D70278B59A2B0B285289CC9021CAC8CDBA4797B7 DUP5 DUP4 PUSH1 0x40 MLOAD PUSH2 0x1880 SWAP3 SWAP2 SWAP1 PUSH2 0x1D46 JUMP JUMPDEST PUSH1 0x40 MLOAD DUP1 SWAP2 SUB SWAP1 LOG2 POP POP POP POP JUMP JUMPDEST PUSH1 0x0 SLOAD PUSH1 0x1 PUSH1 0x1 PUSH1 0xA0 SHL SUB AND CALLER EQ PUSH2 0xEA7 JUMPI PUSH1 0x40 MLOAD PUSH4 0x118CDAA7 PUSH1 0xE0 SHL DUP2 MSTORE CALLER PUSH1 0x4 DUP3 ADD MSTORE PUSH1 0x24 ADD PUSH2 0x63D JUMP JUMPDEST PUSH1 0x0 DUP1 SLOAD PUSH1 0x1 PUSH1 0x1 PUSH1 0xA0 SHL SUB DUP4 DUP2 AND PUSH1 0x1 PUSH1 0x1 PUSH1 0xA0 SHL SUB NOT DUP4 AND DUP2 OR DUP5 SSTORE PUSH1 0x40 MLOAD SWAP2 SWAP1 SWAP3 AND SWAP3 DUP4 SWAP2 PUSH32 0x8BE0079C531659141344CD1FD0A4F28419497F9722A3DAAFE3B4186F6B6457E0 SWAP2 SWAP1 LOG3 POP POP JUMP JUMPDEST DUP1 CALLDATALOAD PUSH1 0x4 DUP2 LT PUSH2 0x191A JUMPI PUSH1 0x0 DUP1 REVERT JUMPDEST SWAP2 SWAP1 POP JUMP JUMPDEST PUSH1 0x0 PUSH1 0x20 DUP3 DUP5 SUB SLT ISZERO PUSH2 0x1931 JUMPI PUSH1 0x0 DUP1 REVERT JUMPDEST PUSH2 0x914 DUP3 PUSH2 0x190B JUMP JUMPDEST DUP1 CALLDATALOAD PUSH1 0x1 PUSH1 0x1 PUSH1 0xA0 SHL SUB DUP2 AND DUP2 EQ PUSH2 0x191A JUMPI PUSH1 0x0 DUP1 REVERT JUMPDEST PUSH1 0x0 PUSH1 0x20 DUP3 DUP5 SUB SLT ISZERO PUSH2 0x1963 JUMPI PUSH1 0x0 DUP1 REVERT JUMPDEST PUSH2 0x914 DUP3 PUSH2 0x193A JUMP JUMPDEST PUSH4 0x4E487B71 PUSH1 0xE0 SHL PUSH1 0x0 MSTORE PUSH1 0x21 PUSH1 0x4 MSTORE PUSH1 0x24 PUSH1 0x0 REVERT JUMPDEST PUSH1 0x4 DUP2 LT PUSH2 0x19A0 JUMPI PUSH4 0x4E487B71 PUSH1 0xE0 SHL PUSH1 0x0 MSTORE PUSH1 0x21 PUSH1 0x4 MSTORE PUSH1 0x24 PUSH1 0x0 REVERT JUMPDEST SWAP1 MSTORE JUMP JUMPDEST PUSH1 0xE0 DUP2 ADD PUSH2 0x19B2 DUP3 DUP11 PUSH2 0x1982 JUMP JUMPDEST DUP8 PUSH1 0x20 DUP4 ADD MSTORE DUP7 PUSH1 0x40 DUP4 ADD MSTORE DUP6 PUSH1 0x60 DUP4 ADD MSTORE DUP5 PUSH1 0x80 DUP4 ADD MSTORE DUP4 PUSH1 0xA0 DUP4 ADD MSTORE DUP3 PUSH1 0xC0 DUP4 ADD MSTORE SWAP9 SWAP8 POP POP POP POP POP POP POP POP JUMP JUMPDEST PUSH1 0x0 PUSH1 0x20 DUP3 DUP5 SUB SLT ISZERO PUSH2 0x19F4 JUMPI PUSH1 0x0 DUP1 REVERT JUMPDEST POP CALLDATALOAD SWAP2 SWAP1 POP JUMP JUMPDEST DUP1 ISZERO ISZERO DUP2 EQ PUSH2 0x7E0 JUMPI PUSH1 0x0 DUP1 REVERT JUMPDEST PUSH1 0x0 DUP1 PUSH1 0x0 DUP1 PUSH1 0x0 PUSH1 0xA0 DUP7 DUP9 SUB SLT ISZERO PUSH2 0x1A21 JUMPI PUSH1 0x0 DUP1 REVERT JUMPDEST PUSH2 0x1A2A DUP7 PUSH2 0x190B JUMP JUMPDEST SWAP5 POP PUSH1 0x20 DUP7 ADD CALLDATALOAD SWAP4 POP PUSH1 0x40 DUP7 ADD CALLDATALOAD SWAP3 POP PUSH1 0x60 DUP7 ADD CALLDATALOAD SWAP2 POP PUSH1 0x80 DUP7 ADD CALLDATALOAD PUSH2 0x1A4F DUP2 PUSH2 0x19FB JUMP JUMPDEST DUP1 SWAP2 POP POP SWAP3 SWAP6 POP SWAP3 SWAP6 SWAP1 SWAP4 POP JUMP JUMPDEST PUSH1 0x0 DUP1 PUSH1 0x0 DUP1 PUSH1 0x80 DUP6 DUP8 SUB SLT ISZERO PUSH2 0x1A73 JUMPI PUSH1 0x0 DUP1 REVERT JUMPDEST PUSH2 0x1A7C DUP6 PUSH2 0x193A JUMP JUMPDEST SWAP7 PUSH1 0x20 DUP7 ADD CALLDATALOAD SWAP7 POP PUSH1 0x40 DUP7 ADD CALLDATALOAD SWAP6 PUSH1 0x60 ADD CALLDATALOAD SWAP5 POP SWAP3 POP POP POP JUMP JUMPDEST PUSH1 0x0 DUP1 PUSH1 0x40 DUP4 DUP6 SUB SLT ISZERO PUSH2 0x1AA9 JUMPI PUSH1 0x0 DUP1 REVERT JUMPDEST PUSH2 0x1AB2 DUP4 PUSH2 0x193A JUMP JUMPDEST SWAP2 POP PUSH2 0x1AC0 PUSH1 0x20 DUP5 ADD PUSH2 0x193A JUMP JUMPDEST SWAP1 POP SWAP3 POP SWAP3 SWAP1 POP JUMP JUMPDEST PUSH1 0xA0 DUP2 ADD PUSH2 0x1AD7 DUP3 DUP9 PUSH2 0x1982 JUMP JUMPDEST DUP6 PUSH1 0x20 DUP4 ADD MSTORE DUP5 PUSH1 0x40 DUP4 ADD MSTORE DUP4 PUSH1 0x60 DUP4 ADD MSTORE DUP3 PUSH1 0x80 DUP4 ADD MSTORE SWAP7 SWAP6 POP POP POP POP POP POP JUMP JUMPDEST PUSH1 0x20 DUP1 DUP3 MSTORE PUSH1 0x1C SWAP1 DUP3 ADD MSTORE PUSH32 0x436F6E746163742073616C657320666F7220456E746572707269736500000000 PUSH1 0x40 DUP3 ADD MSTORE PUSH1 0x60 ADD SWAP1 JUMP JUMPDEST PUSH1 0x20 DUP1 DUP3 MSTORE PUSH1 0xF SWAP1 DUP3 ADD MSTORE PUSH15 0x506C616E206E6F7420616374697665 PUSH1 0x88 SHL PUSH1 0x40 DUP3 ADD MSTORE PUSH1 0x60 ADD SWAP1 JUMP JUMPDEST PUSH1 0x1 PUSH1 0x1 PUSH1 0xA0 SHL SUB SWAP4 DUP5 AND DUP2 MSTORE SWAP2 SWAP1 SWAP3 AND PUSH1 0x20 DUP3 ADD MSTORE PUSH1 0x40 DUP2 ADD SWAP2 SWAP1 SWAP2 MSTORE PUSH1 0x60 ADD SWAP1 JUMP JUMPDEST PUSH1 0x0 PUSH1 0x20 DUP3 DUP5 SUB SLT ISZERO PUSH2 0x1B8F JUMPI PUSH1 0x0 DUP1 REVERT JUMPDEST DUP2 MLOAD PUSH2 0x914 DUP2 PUSH2 0x19FB JUMP JUMPDEST PUSH4 0x4E487B71 PUSH1 0xE0 SHL PUSH1 0x0 MSTORE PUSH1 0x11 PUSH1 0x4 MSTORE PUSH1 0x24 PUSH1 0x0 REVERT JUMPDEST DUP2 DUP2 SUB DUP2 DUP2 GT ISZERO PUSH2 0x1BC3 JUMPI PUSH2 0x1BC3 PUSH2 0x1B9A JUMP JUMPDEST SWAP3 SWAP2 POP POP JUMP JUMPDEST PUSH1 0x1 DUP2 DUP2 JUMPDEST DUP1 DUP6 GT ISZERO PUSH2 0x1C04 JUMPI DUP2 PUSH1 0x0 NOT DIV DUP3 GT ISZERO PUSH2 0x1BEA JUMPI PUSH2 0x1BEA PUSH2 0x1B9A JUMP JUMPDEST DUP1 DUP6 AND ISZERO PUSH2 0x1BF7 JUMPI SWAP2 DUP2 MUL SWAP2 JUMPDEST SWAP4 DUP5 SHR SWAP4 SWAP1 DUP1 MUL SWAP1 PUSH2 0x1BCE JUMP JUMPDEST POP SWAP3 POP SWAP3 SWAP1 POP JUMP JUMPDEST PUSH1 0x0 DUP3 PUSH2 0x1C1B JUMPI POP PUSH1 0x1 PUSH2 0x1BC3 JUMP JUMPDEST DUP2 PUSH2 0x1C28 JUMPI POP PUSH1 0x0 PUSH2 0x1BC3 JUMP JUMPDEST DUP2 PUSH1 0x1 DUP2 EQ PUSH2 0x1C3E JUMPI PUSH1 0x2 DUP2 EQ PUSH2 0x1C48 JUMPI PUSH2 0x1C64 JUMP JUMPDEST PUSH1 0x1 SWAP2 POP POP PUSH2 0x1BC3 JUMP JUMPDEST PUSH1 0xFF DUP5 GT ISZERO PUSH2 0x1C59 JUMPI PUSH2 0x1C59 PUSH2 0x1B9A JUMP JUMPDEST POP POP PUSH1 0x1 DUP3 SHL PUSH2 0x1BC3 JUMP JUMPDEST POP PUSH1 0x20 DUP4 LT PUSH2 0x133 DUP4 LT AND PUSH1 0x4E DUP5 LT PUSH1 0xB DUP5 LT AND OR ISZERO PUSH2 0x1C87 JUMPI POP DUP2 DUP2 EXP PUSH2 0x1BC3 JUMP JUMPDEST PUSH2 0x1C91 DUP4 DUP4 PUSH2 0x1BC9 JUMP JUMPDEST DUP1 PUSH1 0x0 NOT DIV DUP3 GT ISZERO PUSH2 0x1CA5 JUMPI PUSH2 0x1CA5 PUSH2 0x1B9A JUMP JUMPDEST MUL SWAP4 SWAP3 POP POP POP JUMP JUMPDEST PUSH1 0x0 PUSH2 0x914 DUP4 DUP4 PUSH2 0x1C0C JUMP JUMPDEST DUP1 DUP3 MUL DUP2 ISZERO DUP3 DUP3 DIV DUP5 EQ OR PUSH2 0x1BC3 JUMPI PUSH2 0x1BC3 PUSH2 0x1B9A JUMP JUMPDEST PUSH1 0x0 DUP3 PUSH2 0x1CED JUMPI PUSH4 0x4E487B71 PUSH1 0xE0 SHL PUSH1 0x0 MSTORE PUSH1 0x12 PUSH1 0x4 MSTORE PUSH1 0x24 PUSH1 0x0 REVERT JUMPDEST POP DIV SWAP1 JUMP JUMPDEST PUSH1 0x20 DUP1 DUP3 MSTORE PUSH1 0x21 SWAP1 DUP3 ADD MSTORE PUSH32 0x46726565207469657220646F65736E27742072657175697265207061796D656E PUSH1 0x40 DUP3 ADD MSTORE PUSH1 0x1D PUSH1 0xFA SHL PUSH1 0x60 DUP3 ADD MSTORE PUSH1 0x80 ADD SWAP1 JUMP JUMPDEST DUP1 DUP3 ADD DUP1 DUP3 GT ISZERO PUSH2 0x1BC3 JUMPI PUSH2 0x1BC3 PUSH2 0x1B9A JUMP JUMPDEST PUSH1 0x40 DUP2 ADD PUSH2 0x1D54 DUP3 DUP6 PUSH2 0x1982 JUMP JUMPDEST DUP3 PUSH1 0x20 DUP4 ADD MSTORE SWAP4 SWAP3 POP POP POP JUMP JUMPDEST PUSH1 0x0 PUSH1 0x1 DUP3 ADD PUSH2 0x1D73 JUMPI PUSH2 0x1D73 PUSH2 0x1B9A JUMP JUMPDEST POP PUSH1 0x1 ADD SWAP1 JUMP INVALID LOG2 PUSH5 0x6970667358 0x22 SLT KECCAK256 PUSH31 0xDE0DAB8B5D80DD4942D86083705D4C4730AE1B35CEF4BA5D634CC5F0FC0B78 PUSH5 0x736F6C6343 STOP ADDMOD EQ STOP CALLER "},"methodIdentifiers":{"COST_PER_CALL()":"d4ec0fc2","FEEDS_DISCOUNT()":"ec3e2ff4","USDC_DECIMALS()":"c1419def","addCredits(uint256)":"2aea58b2","canMakeCall(address)":"9091d2c3","credits(address)":"fe5ff468","feedsToken()":"caf601e1","getETHPrice(uint256)":"1a753fed","getFeedsPrice(uint256)":"5dc8bb40","getSubscription(address)":"0cbebc24","grantEnterpriseSubscription(address,uint256,uint256,uint256)":"958d6ca0","monthlyBills(address)":"c609138b","owner()":"8da5cb5b","payBill()":"7a781658","plans(uint8)":"60a31a88","priceOracle()":"2630c12f","recordAPICall(address,address)":"dcc1e643","renounceOwnership()":"715018a6","setFeedsToken(address)":"474ff178","subscribeWithETH(uint8)":"27d5fd92","subscribeWithFEEDS(uint8)":"e8f41233","subscribeWithUSDC(uint8)":"09c36aa7","subscriptions(address)":"f046395a","transferOwnership(address)":"f2fde38b","treasury()":"61d027b3","updatePlan(uint8,uint256,uint256,uint256,bool)":"60c2099d","updateTreasury(address)":"7f51bb1f","usdc()":"3e413bee"}}}}}