{
  "_format": "hh-sol-artifact-1",
  "contractName": "PriceOracle",
  "sourceName": "contracts/PriceOracle.sol",
  "abi": [
    {
      "inputs": [
        {
          "internalType": "string",
          "name": "_name",
          "type": "string"
        },
        {
          "internalType": "string",
          "name": "_symbol",
          "type": "string"
        },
        {
          "internalType": "uint8",
          "name": "_consensusThreshold",
          "type": "uint8"
        },
        {
          "internalType": "uint256",
          "name": "_updateFrequency",
          "type": "uint256"
        },
        {
          "internalType": "address",
          "name": "_registry",
          "type": "address"
        },
        {
          "internalType": "address[]",
          "name": "_validators",
          "type": "address[]"
        }
      ],
      "stateMutability": "nonpayable",
      "type": "constructor"
    },
    {
      "inputs": [],
      "name": "AccessControlBadConfirmation",
      "type": "error"
    },
    {
      "inputs": [
        {
          "internalType": "address",
          "name": "account",
          "type": "address"
        },
        {
          "internalType": "bytes32",
          "name": "neededRole",
          "type": "bytes32"
        }
      ],
      "name": "AccessControlUnauthorizedAccount",
      "type": "error"
    },
    {
      "inputs": [],
      "name": "ReentrancyGuardReentrantCall",
      "type": "error"
    },
    {
      "anonymous": false,
      "inputs": [
        {
          "indexed": false,
          "internalType": "uint256",
          "name": "round",
          "type": "uint256"
        },
        {
          "indexed": false,
          "internalType": "string",
          "name": "reason",
          "type": "string"
        }
      ],
      "name": "ConsensusFailed",
      "type": "event"
    },
    {
      "anonymous": false,
      "inputs": [
        {
          "indexed": false,
          "internalType": "uint256",
          "name": "round",
          "type": "uint256"
        },
        {
          "indexed": false,
          "internalType": "uint256",
          "name": "finalPrice",
          "type": "uint256"
        },
        {
          "indexed": false,
          "internalType": "uint8",
          "name": "agreementPercentage",
          "type": "uint8"
        }
      ],
      "name": "ConsensusReached",
      "type": "event"
    },
    {
      "anonymous": false,
      "inputs": [
        {
          "indexed": true,
          "internalType": "address",
          "name": "validator",
          "type": "address"
        },
        {
          "indexed": false,
          "internalType": "uint256",
          "name": "price",
          "type": "uint256"
        },
        {
          "indexed": false,
          "internalType": "uint256",
          "name": "round",
          "type": "uint256"
        }
      ],
      "name": "PriceSubmitted",
      "type": "event"
    },
    {
      "anonymous": false,
      "inputs": [
        {
          "indexed": false,
          "internalType": "uint256",
          "name": "price",
          "type": "uint256"
        },
        {
          "indexed": false,
          "internalType": "uint256",
          "name": "timestamp",
          "type": "uint256"
        },
        {
          "indexed": false,
          "internalType": "uint256",
          "name": "round",
          "type": "uint256"
        }
      ],
      "name": "PriceUpdated",
      "type": "event"
    },
    {
      "anonymous": false,
      "inputs": [
        {
          "indexed": true,
          "internalType": "bytes32",
          "name": "role",
          "type": "bytes32"
        },
        {
          "indexed": true,
          "internalType": "bytes32",
          "name": "previousAdminRole",
          "type": "bytes32"
        },
        {
          "indexed": true,
          "internalType": "bytes32",
          "name": "newAdminRole",
          "type": "bytes32"
        }
      ],
      "name": "RoleAdminChanged",
      "type": "event"
    },
    {
      "anonymous": false,
      "inputs": [
        {
          "indexed": true,
          "internalType": "bytes32",
          "name": "role",
          "type": "bytes32"
        },
        {
          "indexed": true,
          "internalType": "address",
          "name": "account",
          "type": "address"
        },
        {
          "indexed": true,
          "internalType": "address",
          "name": "sender",
          "type": "address"
        }
      ],
      "name": "RoleGranted",
      "type": "event"
    },
    {
      "anonymous": false,
      "inputs": [
        {
          "indexed": true,
          "internalType": "bytes32",
          "name": "role",
          "type": "bytes32"
        },
        {
          "indexed": true,
          "internalType": "address",
          "name": "account",
          "type": "address"
        },
        {
          "indexed": true,
          "internalType": "address",
          "name": "sender",
          "type": "address"
        }
      ],
      "name": "RoleRevoked",
      "type": "event"
    },
    {
      "inputs": [],
      "name": "DEFAULT_ADMIN_ROLE",
      "outputs": [
        {
          "internalType": "bytes32",
          "name": "",
          "type": "bytes32"
        }
      ],
      "stateMutability": "view",
      "type": "function"
    },
    {
      "inputs": [],
      "name": "VALIDATOR_ROLE",
      "outputs": [
        {
          "internalType": "bytes32",
          "name": "",
          "type": "bytes32"
        }
      ],
      "stateMutability": "view",
      "type": "function"
    },
    {
      "inputs": [
        {
          "internalType": "address",
          "name": "_validator",
          "type": "address"
        }
      ],
      "name": "addValidator",
      "outputs": [],
      "stateMutability": "nonpayable",
      "type": "function"
    },
    {
      "inputs": [],
      "name": "consensusThreshold",
      "outputs": [
        {
          "internalType": "uint8",
          "name": "",
          "type": "uint8"
        }
      ],
      "stateMutability": "view",
      "type": "function"
    },
    {
      "inputs": [],
      "name": "currentRound",
      "outputs": [
        {
          "internalType": "uint256",
          "name": "",
          "type": "uint256"
        }
      ],
      "stateMutability": "view",
      "type": "function"
    },
    {
      "inputs": [],
      "name": "getCurrentRoundSubmissions",
      "outputs": [
        {
          "components": [
            {
              "internalType": "uint256",
              "name": "price",
              "type": "uint256"
            },
            {
              "internalType": "uint256",
              "name": "timestamp",
              "type": "uint256"
            },
            {
              "internalType": "address",
              "name": "validator",
              "type": "address"
            }
          ],
          "internalType": "struct PriceOracle.ValidationSubmission[]",
          "name": "",
          "type": "tuple[]"
        }
      ],
      "stateMutability": "view",
      "type": "function"
    },
    {
      "inputs": [],
      "name": "getLatestPrice",
      "outputs": [
        {
          "internalType": "uint256",
          "name": "price",
          "type": "uint256"
        },
        {
          "internalType": "uint256",
          "name": "timestamp",
          "type": "uint256"
        },
        {
          "internalType": "uint8",
          "name": "decimals",
          "type": "uint8"
        }
      ],
      "stateMutability": "view",
      "type": "function"
    },
    {
      "inputs": [
        {
          "internalType": "bytes32",
          "name": "role",
          "type": "bytes32"
        }
      ],
      "name": "getRoleAdmin",
      "outputs": [
        {
          "internalType": "bytes32",
          "name": "",
          "type": "bytes32"
        }
      ],
      "stateMutability": "view",
      "type": "function"
    },
    {
      "inputs": [
        {
          "internalType": "bytes32",
          "name": "role",
          "type": "bytes32"
        },
        {
          "internalType": "address",
          "name": "account",
          "type": "address"
        }
      ],
      "name": "grantRole",
      "outputs": [],
      "stateMutability": "nonpayable",
      "type": "function"
    },
    {
      "inputs": [
        {
          "internalType": "bytes32",
          "name": "role",
          "type": "bytes32"
        },
        {
          "internalType": "address",
          "name": "account",
          "type": "address"
        }
      ],
      "name": "hasRole",
      "outputs": [
        {
          "internalType": "bool",
          "name": "",
          "type": "bool"
        }
      ],
      "stateMutability": "view",
      "type": "function"
    },
    {
      "inputs": [
        {
          "internalType": "uint256",
          "name": "",
          "type": "uint256"
        },
        {
          "internalType": "address",
          "name": "",
          "type": "address"
        }
      ],
      "name": "hasSubmitted",
      "outputs": [
        {
          "internalType": "bool",
          "name": "",
          "type": "bool"
        }
      ],
      "stateMutability": "view",
      "type": "function"
    },
    {
      "inputs": [],
      "name": "lastUpdateTime",
      "outputs": [
        {
          "internalType": "uint256",
          "name": "",
          "type": "uint256"
        }
      ],
      "stateMutability": "view",
      "type": "function"
    },
    {
      "inputs": [],
      "name": "latestPrice",
      "outputs": [
        {
          "internalType": "uint256",
          "name": "price",
          "type": "uint256"
        },
        {
          "internalType": "uint256",
          "name": "timestamp",
          "type": "uint256"
        },
        {
          "internalType": "uint8",
          "name": "decimals",
          "type": "uint8"
        }
      ],
      "stateMutability": "view",
      "type": "function"
    },
    {
      "inputs": [],
      "name": "name",
      "outputs": [
        {
          "internalType": "string",
          "name": "",
          "type": "string"
        }
      ],
      "stateMutability": "view",
      "type": "function"
    },
    {
      "inputs": [],
      "name": "needsUpdate",
      "outputs": [
        {
          "internalType": "bool",
          "name": "",
          "type": "bool"
        }
      ],
      "stateMutability": "view",
      "type": "function"
    },
    {
      "inputs": [
        {
          "internalType": "uint256",
          "name": "",
          "type": "uint256"
        },
        {
          "internalType": "uint256",
          "name": "",
          "type": "uint256"
        }
      ],
      "name": "pendingValidations",
      "outputs": [
        {
          "internalType": "uint256",
          "name": "price",
          "type": "uint256"
        },
        {
          "internalType": "uint256",
          "name": "timestamp",
          "type": "uint256"
        },
        {
          "internalType": "address",
          "name": "validator",
          "type": "address"
        }
      ],
      "stateMutability": "view",
      "type": "function"
    },
    {
      "inputs": [],
      "name": "registry",
      "outputs": [
        {
          "internalType": "address",
          "name": "",
          "type": "address"
        }
      ],
      "stateMutability": "view",
      "type": "function"
    },
    {
      "inputs": [
        {
          "internalType": "address",
          "name": "_validator",
          "type": "address"
        }
      ],
      "name": "removeValidator",
      "outputs": [],
      "stateMutability": "nonpayable",
      "type": "function"
    },
    {
      "inputs": [
        {
          "internalType": "bytes32",
          "name": "role",
          "type": "bytes32"
        },
        {
          "internalType": "address",
          "name": "callerConfirmation",
          "type": "address"
        }
      ],
      "name": "renounceRole",
      "outputs": [],
      "stateMutability": "nonpayable",
      "type": "function"
    },
    {
      "inputs": [
        {
          "internalType": "bytes32",
          "name": "role",
          "type": "bytes32"
        },
        {
          "internalType": "address",
          "name": "account",
          "type": "address"
        }
      ],
      "name": "revokeRole",
      "outputs": [],
      "stateMutability": "nonpayable",
      "type": "function"
    },
    {
      "inputs": [
        {
          "internalType": "uint256",
          "name": "_price",
          "type": "uint256"
        },
        {
          "internalType": "uint8",
          "name": "_decimals",
          "type": "uint8"
        }
      ],
      "name": "submitPrice",
      "outputs": [],
      "stateMutability": "nonpayable",
      "type": "function"
    },
    {
      "inputs": [
        {
          "internalType": "bytes4",
          "name": "interfaceId",
          "type": "bytes4"
        }
      ],
      "name": "supportsInterface",
      "outputs": [
        {
          "internalType": "bool",
          "name": "",
          "type": "bool"
        }
      ],
      "stateMutability": "view",
      "type": "function"
    },
    {
      "inputs": [],
      "name": "symbol",
      "outputs": [
        {
          "internalType": "string",
          "name": "",
          "type": "string"
        }
      ],
      "stateMutability": "view",
      "type": "function"
    },
    {
      "inputs": [],
      "name": "updateFrequency",
      "outputs": [
        {
          "internalType": "uint256",
          "name": "",
          "type": "uint256"
        }
      ],
      "stateMutability": "view",
      "type": "function"
    }
  ],
  "bytecode": "0x60806040523480156200001157600080fd5b50604051620017f7380380620017f78339810160408190526200003491620003ed565b60018055603360ff85161080159062000051575060648460ff1611155b620000975760405162461bcd60e51b8152602060048201526011602482015270125b9d985b1a59081d1a1c995cda1bdb19607a1b60448201526064015b60405180910390fd5b6000815111620000dc5760405162461bcd60e51b815260206004820152600f60248201526e4e6565642076616c696461746f727360881b60448201526064016200008e565b6002620000ea878262000545565b506003620000f9868262000545565b506004805460ff191660ff86161790556005839055600680546001600160a01b0319166001600160a01b0384161790556001600c556200013b600033620001ba565b5060005b8151811015620001ad57620001977f21702c8af46127c7fa207f89d0b0a8441bb32959a0ac7df790e9ab1a25c9892683838151811062000183576200018362000611565b6020026020010151620001ba60201b60201c565b5080620001a48162000627565b9150506200013f565b505050505050506200064f565b6000828152602081815260408083206001600160a01b038516845290915281205460ff166200025f576000838152602081815260408083206001600160a01b03861684529091529020805460ff19166001179055620002163390565b6001600160a01b0316826001600160a01b0316847f2f8788117e7eff1d82e926ec794901d17c78024a50270940304540a733656f0d60405160405180910390a450600162000263565b5060005b92915050565b634e487b7160e01b600052604160045260246000fd5b604051601f8201601f191681016001600160401b0381118282101715620002aa57620002aa62000269565b604052919050565b600082601f830112620002c457600080fd5b81516001600160401b03811115620002e057620002e062000269565b6020620002f6601f8301601f191682016200027f565b82815285828487010111156200030b57600080fd5b60005b838110156200032b5785810183015182820184015282016200030e565b506000928101909101919091529392505050565b80516001600160a01b03811681146200035757600080fd5b919050565b600082601f8301126200036e57600080fd5b815160206001600160401b038211156200038c576200038c62000269565b8160051b6200039d8282016200027f565b9283528481018201928281019087851115620003b857600080fd5b83870192505b84831015620003e257620003d2836200033f565b82529183019190830190620003be565b979650505050505050565b60008060008060008060c087890312156200040757600080fd5b86516001600160401b03808211156200041f57600080fd5b6200042d8a838b01620002b2565b975060208901519150808211156200044457600080fd5b620004528a838b01620002b2565b96506040890151915060ff821682146200046b57600080fd5b819550606089015194506200048360808a016200033f565b935060a08901519150808211156200049a57600080fd5b50620004a989828a016200035c565b9150509295509295509295565b600181811c90821680620004cb57607f821691505b602082108103620004ec57634e487b7160e01b600052602260045260246000fd5b50919050565b601f8211156200054057600081815260208120601f850160051c810160208610156200051b5750805b601f850160051c820191505b818110156200053c5782815560010162000527565b5050505b505050565b81516001600160401b0381111562000561576200056162000269565b6200057981620005728454620004b6565b84620004f2565b602080601f831160018114620005b15760008415620005985750858301515b600019600386901b1c1916600185901b1785556200053c565b600085815260208120601f198616915b82811015620005e257888601518255948401946001909101908401620005c1565b5085821015620006015787850151600019600388901b60f8161c191681555b5050505050600190811b01905550565b634e487b7160e01b600052603260045260246000fd5b6000600182016200064857634e487b7160e01b600052601160045260246000fd5b5060010190565b611198806200065f6000396000f3fe608060405234801561001057600080fd5b50600436106101585760003560e01c80638a19c8bc116100c3578063a57d38061161007c578063a57d380614610306578063c49baebe14610334578063c8f33c9114610349578063d547741f14610352578063f9b0b5b914610365578063fe9bd8cc1461038457600080fd5b80638a19c8bc1461029f5780638e15f473146102a857806391d14854146102ce57806395d89b41146102e1578063a217fddf146102e9578063a3e6ba94146102f157600080fd5b806336568abe1161011557806336568abe1461021f57806340a141ff146102325780634d238c8e146102455780636306d87414610258578063673ea0861461026b5780637b1039991461027457600080fd5b806301ffc9a71461015d57806306fdde031461018557806321768fbe1461019a578063248a9ca3146101d15780632f2ff15d14610202578063346c940914610217575b600080fd5b61017061016b366004610e99565b610399565b60405190151581526020015b60405180910390f35b61018d6103d0565b60405161017c9190610eca565b6101ad6101a8366004610f18565b61045e565b6040805193845260208401929092526001600160a01b03169082015260600161017c565b6101f46101df366004610f3a565b60009081526020819052604090206001015490565b60405190815260200161017c565b610215610210366004610f6f565b6104a9565b005b6101706104d4565b61021561022d366004610f6f565b6104ee565b610215610240366004610f9b565b610526565b610215610253366004610f9b565b610549565b610215610266366004610fb6565b61056c565b6101f460055481565b600654610287906001600160a01b031681565b6040516001600160a01b03909116815260200161017c565b6101f4600c5481565b6102b0610710565b60408051938452602084019290925260ff169082015260600161017c565b6101706102dc366004610f6f565b610781565b61018d6107aa565b6101f4600081565b6007546008546009546102b092919060ff1683565b610170610314366004610f6f565b600b60209081526000928352604080842090915290825290205460ff1681565b6101f460008051602061114383398151915281565b6101f4600d5481565b610215610360366004610f6f565b6107b7565b6004546103729060ff1681565b60405160ff909116815260200161017c565b61038c6107dc565b60405161017c9190610fec565b60006001600160e01b03198216637965db0b60e01b14806103ca57506301ffc9a760e01b6001600160e01b03198316145b92915050565b600280546103dd9061104e565b80601f01602080910402602001604051908101604052809291908181526020018280546104099061104e565b80156104565780601f1061042b57610100808354040283529160200191610456565b820191906000526020600020905b81548152906001019060200180831161043957829003601f168201915b505050505081565b600a602052816000526040600020818154811061047a57600080fd5b60009182526020909120600390910201805460018201546002909201549093509091506001600160a01b031683565b6000828152602081905260409020600101546104c481610871565b6104ce838361087e565b50505050565b6000600554600d546104e6919061109e565b421015905090565b6001600160a01b03811633146105175760405163334bd91960e11b815260040160405180910390fd5b6105218282610910565b505050565b600061053181610871565b61052160008051602061114383398151915283610910565b600061055481610871565b6105216000805160206111438339815191528361087e565b60008051602061114383398151915261058481610871565b61058c61097b565b600083116105d15760405162461bcd60e51b815260206004820152600d60248201526c496e76616c696420707269636560981b60448201526064015b60405180910390fd5b600c546000908152600b6020908152604080832033845290915290205460ff16156106325760405162461bcd60e51b8152602060048201526011602482015270105b1c9958591e481cdd589b5a5d1d1959607a1b60448201526064016105c8565b6040805160608101825284815242602080830191825233838501818152600c80546000908152600a855287812080546001808201835591835286832089516003909202019081559651878201559251600290960180546001600160a01b0319166001600160a01b039097169690961790955580548552600b8452868520838652845293869020805460ff191690911790559154845188815291820152919290917fb856642cc40fb1a5399c4c63a6e055952edac364712907f58c00983449b398f7910160405180910390a2610706836109a5565b5061052160018055565b600080600080600760010154116107695760405162461bcd60e51b815260206004820152601760248201527f4e6f207072696365206461746120617661696c61626c6500000000000000000060448201526064016105c8565b5050600754600854600954919390925060ff90911690565b6000918252602082815260408084206001600160a01b0393909316845291905290205460ff1690565b600380546103dd9061104e565b6000828152602081905260409020600101546107d281610871565b6104ce8383610910565b6060600a6000600c548152602001908152602001600020805480602002602001604051908101604052809291908181526020016000905b82821015610868576000848152602090819020604080516060810182526003860290920180548352600180820154848601526002909101546001600160a01b0316918301919091529083529092019101610813565b50505050905090565b61087b8133610e5c565b50565b600061088a8383610781565b610908576000838152602081815260408083206001600160a01b03861684529091529020805460ff191660011790556108c03390565b6001600160a01b0316826001600160a01b0316847f2f8788117e7eff1d82e926ec794901d17c78024a50270940304540a733656f0d60405160405180910390a45060016103ca565b5060006103ca565b600061091c8383610781565b15610908576000838152602081815260408083206001600160a01b0386168085529252808320805460ff1916905551339286917ff6391f5c32d9c69d2a47ea670b442974b53935d1edc7fd64eb21e047a839171b9190a45060016103ca565b60026001540361099e57604051633ee5aeb560e01b815260040160405180910390fd5b6002600155565b6000600a6000600c548152602001908152602001600020805480602002602001604051908101604052809291908181526020016000905b82821015610a31576000848152602090819020604080516060810182526003860290920180548352600180820154848601526002909101546001600160a01b03169183019190915290835290920191016109dc565b5050825192935050506002811015610a4857505050565b60008167ffffffffffffffff811115610a6357610a636110b1565b604051908082528060200260200182016040528015610a8c578160200160208202803683370190505b50905060005b82811015610ae757838181518110610aac57610aac6110c7565b602002602001015160000151828281518110610aca57610aca6110c7565b602090810291909101015280610adf816110dd565b915050610a92565b5060005b8151811015610be3576000610b0182600161109e565b90505b8251811015610bd057828181518110610b1f57610b1f6110c7565b6020026020010151838381518110610b3957610b396110c7565b60200260200101511115610bbe576000838381518110610b5b57610b5b6110c7565b60200260200101519050838281518110610b7757610b776110c7565b6020026020010151848481518110610b9157610b916110c7565b60200260200101818152505080848381518110610bb057610bb06110c7565b602002602001018181525050505b80610bc8816110dd565b915050610b04565b5080610bdb816110dd565b915050610aeb565b5060008160028351610bf591906110f6565b81518110610c0557610c056110c7565b602002602001015190506000806064836005610c219190611118565b610c2b91906110f6565b905060005b8451811015610cb257610c43828561112f565b858281518110610c5557610c556110c7565b602002602001015110158015610c8d5750610c70828561109e565b858281518110610c8257610c826110c7565b602002602001015111155b15610ca05782610c9c816110dd565b9350505b80610caa816110dd565b915050610c30565b50600085610cc1846064611118565b610ccb91906110f6565b60045490915060ff90811690821610610dc45760408051606081018252858152426020820181905260ff8b16918301829052600787905560088190556009805460ff1916909217909155600d55600c5490517ff861a1fe3ca8b7bdb29e61b793d162ffaa8a33712b873d11e27654b7146bb0ec91610d609187908590928352602083019190915260ff16604082015260600190565b60405180910390a1600c546040805186815242602082015280820192909252517f15819dd2fd9f6418b142e798d08a18d0bf06ea368f4480b7b0d3f75bd966bc489181900360600190a1600c8054906000610dba836110dd565b9190505550610e52565b60058610610e52577fa00af7757ae2591f16ac195e556143da33aedda4804b4768561df0e5e0b61d86600c54604051610e34918152604060208201819052601b908201527f436f6e73656e737573207468726573686f6c64206e6f74206d65740000000000606082015260800190565b60405180910390a1600c8054906000610e4c836110dd565b91905055505b5050505050505050565b610e668282610781565b610e955760405163e2517d3f60e01b81526001600160a01b0382166004820152602481018390526044016105c8565b5050565b600060208284031215610eab57600080fd5b81356001600160e01b031981168114610ec357600080fd5b9392505050565b600060208083528351808285015260005b81811015610ef757858101830151858201604001528201610edb565b506000604082860101526040601f19601f8301168501019250505092915050565b60008060408385031215610f2b57600080fd5b50508035926020909101359150565b600060208284031215610f4c57600080fd5b5035919050565b80356001600160a01b0381168114610f6a57600080fd5b919050565b60008060408385031215610f8257600080fd5b82359150610f9260208401610f53565b90509250929050565b600060208284031215610fad57600080fd5b610ec382610f53565b60008060408385031215610fc957600080fd5b82359150602083013560ff81168114610fe157600080fd5b809150509250929050565b602080825282518282018190526000919060409081850190868401855b828110156110415781518051855286810151878601528501516001600160a01b03168585015260609093019290850190600101611009565b5091979650505050505050565b600181811c9082168061106257607f821691505b60208210810361108257634e487b7160e01b600052602260045260246000fd5b50919050565b634e487b7160e01b600052601160045260246000fd5b808201808211156103ca576103ca611088565b634e487b7160e01b600052604160045260246000fd5b634e487b7160e01b600052603260045260246000fd5b6000600182016110ef576110ef611088565b5060010190565b60008261111357634e487b7160e01b600052601260045260246000fd5b500490565b80820281158282048414176103ca576103ca611088565b818103818111156103ca576103ca61108856fe21702c8af46127c7fa207f89d0b0a8441bb32959a0ac7df790e9ab1a25c98926a2646970667358221220679912c295ffbc34ed3f240a4c3134aa1b48db1f8e606f73c18f564f596775a764736f6c63430008140033",
  "linkReferences": {},
  "deployedLinkReferences": {}
}