{
  "_format": "hh-sol-artifact-1",
  "contractName": "FixrStaking",
  "sourceName": "contracts/FixrStaking.sol",
  "abi": [
    {
      "inputs": [
        {
          "internalType": "address",
          "name": "_fixrToken",
          "type": "address"
        },
        {
          "internalType": "address",
          "name": "_owner",
          "type": "address"
        }
      ],
      "stateMutability": "nonpayable",
      "type": "constructor"
    },
    {
      "inputs": [],
      "name": "EnforcedPause",
      "type": "error"
    },
    {
      "inputs": [],
      "name": "ExpectedPause",
      "type": "error"
    },
    {
      "inputs": [
        {
          "internalType": "address",
          "name": "owner",
          "type": "address"
        }
      ],
      "name": "OwnableInvalidOwner",
      "type": "error"
    },
    {
      "inputs": [
        {
          "internalType": "address",
          "name": "account",
          "type": "address"
        }
      ],
      "name": "OwnableUnauthorizedAccount",
      "type": "error"
    },
    {
      "inputs": [],
      "name": "ReentrancyGuardReentrantCall",
      "type": "error"
    },
    {
      "inputs": [
        {
          "internalType": "address",
          "name": "token",
          "type": "address"
        }
      ],
      "name": "SafeERC20FailedOperation",
      "type": "error"
    },
    {
      "anonymous": false,
      "inputs": [
        {
          "indexed": true,
          "internalType": "address",
          "name": "previousOwner",
          "type": "address"
        },
        {
          "indexed": true,
          "internalType": "address",
          "name": "newOwner",
          "type": "address"
        }
      ],
      "name": "OwnershipTransferStarted",
      "type": "event"
    },
    {
      "anonymous": false,
      "inputs": [
        {
          "indexed": true,
          "internalType": "address",
          "name": "previousOwner",
          "type": "address"
        },
        {
          "indexed": true,
          "internalType": "address",
          "name": "newOwner",
          "type": "address"
        }
      ],
      "name": "OwnershipTransferred",
      "type": "event"
    },
    {
      "anonymous": false,
      "inputs": [
        {
          "indexed": false,
          "internalType": "address",
          "name": "account",
          "type": "address"
        }
      ],
      "name": "Paused",
      "type": "event"
    },
    {
      "anonymous": false,
      "inputs": [
        {
          "indexed": true,
          "internalType": "address",
          "name": "user",
          "type": "address"
        },
        {
          "indexed": true,
          "internalType": "address",
          "name": "token",
          "type": "address"
        },
        {
          "indexed": false,
          "internalType": "uint256",
          "name": "amount",
          "type": "uint256"
        }
      ],
      "name": "RewardsClaimed",
      "type": "event"
    },
    {
      "anonymous": false,
      "inputs": [
        {
          "indexed": true,
          "internalType": "address",
          "name": "token",
          "type": "address"
        },
        {
          "indexed": false,
          "internalType": "uint256",
          "name": "amount",
          "type": "uint256"
        }
      ],
      "name": "RewardsDeposited",
      "type": "event"
    },
    {
      "anonymous": false,
      "inputs": [
        {
          "indexed": true,
          "internalType": "address",
          "name": "user",
          "type": "address"
        },
        {
          "indexed": true,
          "internalType": "uint256",
          "name": "positionId",
          "type": "uint256"
        },
        {
          "indexed": false,
          "internalType": "uint256",
          "name": "amount",
          "type": "uint256"
        },
        {
          "indexed": false,
          "internalType": "uint256",
          "name": "lockTier",
          "type": "uint256"
        },
        {
          "indexed": false,
          "internalType": "uint256",
          "name": "unlockAt",
          "type": "uint256"
        }
      ],
      "name": "Staked",
      "type": "event"
    },
    {
      "anonymous": false,
      "inputs": [
        {
          "indexed": false,
          "internalType": "address",
          "name": "account",
          "type": "address"
        }
      ],
      "name": "Unpaused",
      "type": "event"
    },
    {
      "anonymous": false,
      "inputs": [
        {
          "indexed": true,
          "internalType": "address",
          "name": "user",
          "type": "address"
        },
        {
          "indexed": true,
          "internalType": "uint256",
          "name": "positionId",
          "type": "uint256"
        },
        {
          "indexed": false,
          "internalType": "uint256",
          "name": "amount",
          "type": "uint256"
        }
      ],
      "name": "Unstaked",
      "type": "event"
    },
    {
      "inputs": [],
      "name": "MAX_REWARD_TOKENS",
      "outputs": [
        {
          "internalType": "uint256",
          "name": "",
          "type": "uint256"
        }
      ],
      "stateMutability": "view",
      "type": "function"
    },
    {
      "inputs": [],
      "name": "MULTIPLIER_BASE",
      "outputs": [
        {
          "internalType": "uint256",
          "name": "",
          "type": "uint256"
        }
      ],
      "stateMutability": "view",
      "type": "function"
    },
    {
      "inputs": [],
      "name": "NUM_TIERS",
      "outputs": [
        {
          "internalType": "uint256",
          "name": "",
          "type": "uint256"
        }
      ],
      "stateMutability": "view",
      "type": "function"
    },
    {
      "inputs": [],
      "name": "acceptOwnership",
      "outputs": [],
      "stateMutability": "nonpayable",
      "type": "function"
    },
    {
      "inputs": [
        {
          "internalType": "address",
          "name": "rewardToken",
          "type": "address"
        }
      ],
      "name": "claimRewardToken",
      "outputs": [],
      "stateMutability": "nonpayable",
      "type": "function"
    },
    {
      "inputs": [],
      "name": "claimRewards",
      "outputs": [],
      "stateMutability": "nonpayable",
      "type": "function"
    },
    {
      "inputs": [
        {
          "internalType": "address",
          "name": "token",
          "type": "address"
        },
        {
          "internalType": "uint256",
          "name": "amount",
          "type": "uint256"
        }
      ],
      "name": "depositRewards",
      "outputs": [],
      "stateMutability": "nonpayable",
      "type": "function"
    },
    {
      "inputs": [
        {
          "internalType": "address",
          "name": "token",
          "type": "address"
        },
        {
          "internalType": "address",
          "name": "to",
          "type": "address"
        },
        {
          "internalType": "uint256",
          "name": "amount",
          "type": "uint256"
        }
      ],
      "name": "emergencyWithdraw",
      "outputs": [],
      "stateMutability": "nonpayable",
      "type": "function"
    },
    {
      "inputs": [],
      "name": "fixrToken",
      "outputs": [
        {
          "internalType": "contract IERC20",
          "name": "",
          "type": "address"
        }
      ],
      "stateMutability": "view",
      "type": "function"
    },
    {
      "inputs": [
        {
          "internalType": "uint256",
          "name": "tierIndex",
          "type": "uint256"
        }
      ],
      "name": "getLockTier",
      "outputs": [
        {
          "components": [
            {
              "internalType": "uint256",
              "name": "duration",
              "type": "uint256"
            },
            {
              "internalType": "uint256",
              "name": "multiplier",
              "type": "uint256"
            }
          ],
          "internalType": "struct IFixrStaking.LockTier",
          "name": "tier",
          "type": "tuple"
        }
      ],
      "stateMutability": "view",
      "type": "function"
    },
    {
      "inputs": [
        {
          "internalType": "address",
          "name": "user",
          "type": "address"
        }
      ],
      "name": "getPositions",
      "outputs": [
        {
          "components": [
            {
              "internalType": "uint256",
              "name": "amount",
              "type": "uint256"
            },
            {
              "internalType": "uint256",
              "name": "weightedAmount",
              "type": "uint256"
            },
            {
              "internalType": "uint256",
              "name": "lockTier",
              "type": "uint256"
            },
            {
              "internalType": "uint256",
              "name": "stakedAt",
              "type": "uint256"
            },
            {
              "internalType": "uint256",
              "name": "unlockAt",
              "type": "uint256"
            }
          ],
          "internalType": "struct IFixrStaking.StakePosition[]",
          "name": "result",
          "type": "tuple[]"
        }
      ],
      "stateMutability": "view",
      "type": "function"
    },
    {
      "inputs": [],
      "name": "getRewardTokens",
      "outputs": [
        {
          "internalType": "address[]",
          "name": "tokens",
          "type": "address[]"
        }
      ],
      "stateMutability": "view",
      "type": "function"
    },
    {
      "inputs": [
        {
          "internalType": "address",
          "name": "",
          "type": "address"
        }
      ],
      "name": "isRewardToken",
      "outputs": [
        {
          "internalType": "bool",
          "name": "",
          "type": "bool"
        }
      ],
      "stateMutability": "view",
      "type": "function"
    },
    {
      "inputs": [
        {
          "internalType": "uint256",
          "name": "",
          "type": "uint256"
        }
      ],
      "name": "lockTiers",
      "outputs": [
        {
          "internalType": "uint256",
          "name": "duration",
          "type": "uint256"
        },
        {
          "internalType": "uint256",
          "name": "multiplier",
          "type": "uint256"
        }
      ],
      "stateMutability": "view",
      "type": "function"
    },
    {
      "inputs": [],
      "name": "owner",
      "outputs": [
        {
          "internalType": "address",
          "name": "",
          "type": "address"
        }
      ],
      "stateMutability": "view",
      "type": "function"
    },
    {
      "inputs": [],
      "name": "pause",
      "outputs": [],
      "stateMutability": "nonpayable",
      "type": "function"
    },
    {
      "inputs": [],
      "name": "paused",
      "outputs": [
        {
          "internalType": "bool",
          "name": "",
          "type": "bool"
        }
      ],
      "stateMutability": "view",
      "type": "function"
    },
    {
      "inputs": [],
      "name": "pendingOwner",
      "outputs": [
        {
          "internalType": "address",
          "name": "",
          "type": "address"
        }
      ],
      "stateMutability": "view",
      "type": "function"
    },
    {
      "inputs": [
        {
          "internalType": "address",
          "name": "user",
          "type": "address"
        },
        {
          "internalType": "address",
          "name": "rewardToken",
          "type": "address"
        }
      ],
      "name": "pendingRewards",
      "outputs": [
        {
          "internalType": "uint256",
          "name": "pending",
          "type": "uint256"
        }
      ],
      "stateMutability": "view",
      "type": "function"
    },
    {
      "inputs": [
        {
          "internalType": "address",
          "name": "",
          "type": "address"
        }
      ],
      "name": "positionCount",
      "outputs": [
        {
          "internalType": "uint256",
          "name": "",
          "type": "uint256"
        }
      ],
      "stateMutability": "view",
      "type": "function"
    },
    {
      "inputs": [
        {
          "internalType": "address",
          "name": "",
          "type": "address"
        },
        {
          "internalType": "uint256",
          "name": "",
          "type": "uint256"
        }
      ],
      "name": "positions",
      "outputs": [
        {
          "internalType": "uint256",
          "name": "amount",
          "type": "uint256"
        },
        {
          "internalType": "uint256",
          "name": "weightedAmount",
          "type": "uint256"
        },
        {
          "internalType": "uint256",
          "name": "lockTier",
          "type": "uint256"
        },
        {
          "internalType": "uint256",
          "name": "stakedAt",
          "type": "uint256"
        },
        {
          "internalType": "uint256",
          "name": "unlockAt",
          "type": "uint256"
        }
      ],
      "stateMutability": "view",
      "type": "function"
    },
    {
      "inputs": [],
      "name": "renounceOwnership",
      "outputs": [],
      "stateMutability": "nonpayable",
      "type": "function"
    },
    {
      "inputs": [
        {
          "internalType": "address",
          "name": "",
          "type": "address"
        }
      ],
      "name": "rewardPerTokenStored",
      "outputs": [
        {
          "internalType": "uint256",
          "name": "",
          "type": "uint256"
        }
      ],
      "stateMutability": "view",
      "type": "function"
    },
    {
      "inputs": [
        {
          "internalType": "uint256",
          "name": "",
          "type": "uint256"
        }
      ],
      "name": "rewardTokens",
      "outputs": [
        {
          "internalType": "address",
          "name": "",
          "type": "address"
        }
      ],
      "stateMutability": "view",
      "type": "function"
    },
    {
      "inputs": [
        {
          "internalType": "address",
          "name": "",
          "type": "address"
        },
        {
          "internalType": "address",
          "name": "",
          "type": "address"
        }
      ],
      "name": "rewards",
      "outputs": [
        {
          "internalType": "uint256",
          "name": "",
          "type": "uint256"
        }
      ],
      "stateMutability": "view",
      "type": "function"
    },
    {
      "inputs": [
        {
          "internalType": "uint256",
          "name": "amount",
          "type": "uint256"
        },
        {
          "internalType": "uint256",
          "name": "tierIndex",
          "type": "uint256"
        }
      ],
      "name": "stake",
      "outputs": [
        {
          "internalType": "uint256",
          "name": "positionId",
          "type": "uint256"
        }
      ],
      "stateMutability": "nonpayable",
      "type": "function"
    },
    {
      "inputs": [],
      "name": "totalWeightedStake",
      "outputs": [
        {
          "internalType": "uint256",
          "name": "",
          "type": "uint256"
        }
      ],
      "stateMutability": "view",
      "type": "function"
    },
    {
      "inputs": [
        {
          "internalType": "address",
          "name": "newOwner",
          "type": "address"
        }
      ],
      "name": "transferOwnership",
      "outputs": [],
      "stateMutability": "nonpayable",
      "type": "function"
    },
    {
      "inputs": [],
      "name": "unpause",
      "outputs": [],
      "stateMutability": "nonpayable",
      "type": "function"
    },
    {
      "inputs": [
        {
          "internalType": "uint256",
          "name": "positionId",
          "type": "uint256"
        }
      ],
      "name": "unstake",
      "outputs": [],
      "stateMutability": "nonpayable",
      "type": "function"
    },
    {
      "inputs": [
        {
          "internalType": "address",
          "name": "",
          "type": "address"
        },
        {
          "internalType": "address",
          "name": "",
          "type": "address"
        }
      ],
      "name": "userRewardPerTokenPaid",
      "outputs": [
        {
          "internalType": "uint256",
          "name": "",
          "type": "uint256"
        }
      ],
      "stateMutability": "view",
      "type": "function"
    },
    {
      "inputs": [
        {
          "internalType": "address",
          "name": "",
          "type": "address"
        }
      ],
      "name": "userWeightedStake",
      "outputs": [
        {
          "internalType": "uint256",
          "name": "",
          "type": "uint256"
        }
      ],
      "stateMutability": "view",
      "type": "function"
    }
  ],
  "bytecode": "0x60a06040523480156200001157600080fd5b5060405162001c6238038062001c628339810160408190526200003491620001e3565b6001600055806001600160a01b0381166200006a57604051631e4fbdf760e01b8152600060048201526024015b60405180910390fd5b62000075816200014e565b506001600160a01b038216620000be5760405162461bcd60e51b815260206004820152600d60248201526c24b73b30b634b2103a37b5b2b760991b604482015260640162000061565b506001600160a01b031660805260408051808201825262093a8080825261271060209283018190526003919091556004558151808301835262278d008082526130d4918301829052600555600655815180830183526276a700808252613a98918301829052600755600855815180830190925262ed4e00808352614e2092909101829052600955600a556200021b565b600280546001600160a01b031916905562000169816200016c565b50565b600180546001600160a01b03838116610100818102610100600160a81b031985161790945560405193909204169182907f8be0079c531659141344cd1fd0a4f28419497f9722a3daafe3b4186f6b6457e090600090a35050565b80516001600160a01b0381168114620001de57600080fd5b919050565b60008060408385031215620001f757600080fd5b6200020283620001c6565b91506200021260208401620001c6565b90509250929050565b608051611a166200024c600039600081816103360152818161067701528181610ada01526111ab0152611a166000f3fe608060405234801561001057600080fd5b50600436106101f05760003560e01c80638456cb591161010f578063c4f59f9b116100a2578063e70b9e2711610071578063e70b9e27146104f1578063eed9da1f1461051c578063f2fde38b14610525578063f97136af1461053857600080fd5b8063c4f59f9b146104a5578063ca37271b146104ba578063e30c3978146104cd578063e63ea408146104de57600080fd5b8063aff9f95f116100de578063aff9f95f146103bc578063b5fd73f8146103ea578063b915a4fd1461040d578063c1be66771461043557600080fd5b80638456cb591461036b5780638da5cb5b1461037357806397ad1cce146103895780639ce43f901461039c57600080fd5b80637035ab98116101875780637b0472f0116101565780637b0472f0146102f35780637bb7bed1146103065780637f1f9bca1461033157806380ac82281461035857600080fd5b80637035ab98146102985780637043c712146102c3578063715018a6146102e357806379ba5097146102eb57600080fd5b806342fd3880116101c357806342fd3880146102435780635c975abb146102715780635d0cde9714610288578063648c9f401461029057600080fd5b80632e17de78146101f5578063372500ab1461020a5780633eeb530e146102125780633f4ba83a1461023b575b600080fd5b610208610203366004611740565b610541565b005b6102086106ed565b610225610220366004611775565b61075b565b6040516102329190611797565b60405180910390f35b610208610897565b610263610251366004611775565b600d6020526000908152604090205481565b604051908152602001610232565b60015460ff165b6040519015158152602001610232565b610263600a81565b610263600481565b6102636102a6366004611805565b601260209081526000928352604080842090915290825290205481565b6102636102d1366004611775565b600e6020526000908152604090205481565b6102086108a7565b6102086108b9565b610263610301366004611838565b6108fa565b610319610314366004611740565b610b70565b6040516001600160a01b039091168152602001610232565b6103197f000000000000000000000000000000000000000000000000000000000000000081565b610263610366366004611805565b610b9a565b610208610c79565b60015461010090046001600160a01b0316610319565b61020861039736600461185a565b610c89565b6102636103aa366004611775565b60116020526000908152604090205481565b6103cf6103ca366004611740565b61100b565b60408051825181526020928301519281019290925201610232565b6102786103f8366004611775565b60106020526000908152604090205460ff1681565b61042061041b366004611740565b61109b565b60408051928352602083019190915201610232565b61047d61044336600461185a565b600c602090815260009283526040808420909152908252902080546001820154600283015460038401546004909401549293919290919085565b604080519586526020860194909452928401919091526060830152608082015260a001610232565b6104ad6110bd565b6040516102329190611884565b6102086104c8366004611775565b61111f565b6002546001600160a01b0316610319565b6102086104ec3660046118d1565b6111a1565b6102636104ff366004611805565b601360209081526000928352604080842090915290825290205481565b610263600b5481565b610208610533366004611775565b611243565b61026361271081565b6105496112ba565b336000908152600c60209081526040808320848452909152902080546105ab5760405162461bcd60e51b8152602060048201526012602482015271141bdcda5d1a5bdb881b9bdd08199bdd5b9960721b60448201526064015b60405180910390fd5b80600401544210156105ee5760405162461bcd60e51b815260206004820152600c60248201526b14dd1a5b1b081b1bd8dad95960a21b60448201526064016105a2565b6105f7336112e4565b80546001820154336000908152600e60205260408120805483929061061d908490611923565b9250508190555080600b60008282546106369190611923565b9091555050336000818152600c602090815260408083208884529091528120818155600181018290556002810182905560038101829055600401556106a6907f00000000000000000000000000000000000000000000000000000000000000006001600160a01b03169084611405565b604051828152849033907f7fc4727e062e336010f2c282598ef5f14facb3de68cf8195c2f23e1454b2b74e9060200160405180910390a35050506106ea6001600055565b50565b6106f56112ba565b6106fe336112e4565b60005b600f5481101561074e5761073c33600f838154811061072257610722611936565b6000918252602090912001546001600160a01b0316611464565b806107468161194c565b915050610701565b506107596001600055565b565b6001600160a01b0381166000908152600d60205260409020546060908067ffffffffffffffff81111561079057610790611965565b6040519080825280602002602001820160405280156107f357816020015b6107e06040518060a0016040528060008152602001600081526020016000815260200160008152602001600081525090565b8152602001906001900390816107ae5790505b50915060005b81811015610890576001600160a01b0384166000908152600c60209081526040808320848452825291829020825160a08101845281548152600182015492810192909252600281015492820192909252600382015460608201526004909101546080820152835184908390811061087257610872611936565b602002602001018190525080806108889061194c565b9150506107f9565b5050919050565b61089f611516565b610759611549565b6108af611516565b610759600061159b565b60025433906001600160a01b031681146108f15760405163118cdaa760e01b81526001600160a01b03821660048201526024016105a2565b6106ea8161159b565b60006109046112ba565b61090c6115b4565b6000831161094d5760405162461bcd60e51b815260206004820152600e60248201526d043616e6e6f74207374616b6520360941b60448201526064016105a2565b6004821061098c5760405162461bcd60e51b815260206004820152600c60248201526b24b73b30b634b2103a34b2b960a11b60448201526064016105a2565b610995336112e4565b6000600383600481106109aa576109aa611936565b6002020160405180604001604052908160008201548152602001600182015481525050905060006127108260200151866109e4919061197b565b6109ee9190611992565b336000908152600d6020526040812080549550919250849190610a108361194c565b91905055506040518060a00160405280868152602001828152602001858152602001428152602001836000015142610a4891906119b4565b9052336000818152600c6020908152604080832088845282528083208551815585830151600182015585820151600282015560608601516003820155608090950151600490950194909455918152600e9091529081208054839290610aae9084906119b4565b9250508190555080600b6000828254610ac791906119b4565b90915550610b0290506001600160a01b037f0000000000000000000000000000000000000000000000000000000000000000163330886115d8565b82336001600160a01b03167f9cfd25589d1eb8ad71e342a86a8524e83522e3936c0803048c08f6d9ad974f408787866000015142610b4091906119b4565b6040805193845260208401929092529082015260600160405180910390a35050610b6a6001600055565b92915050565b600f8181548110610b8057600080fd5b6000918252602090912001546001600160a01b0316905081565b6001600160a01b0382166000908152600e6020526040812054808203610be75750506001600160a01b03808316600090815260136020908152604080832093851683529290522054610b6a565b6001600160a01b038084166000818152601160209081526040808320549489168352601282528083209383529290522054670de0b6b3a7640000610c2b8284611923565b610c35908561197b565b610c3f9190611992565b6001600160a01b038088166000908152601360209081526040808320938a1683529290522054610c6f91906119b4565b9695505050505050565b610c81611516565b610759611617565b610c916112ba565b60008111610cd45760405162461bcd60e51b815260206004820152601060248201526f043616e6e6f74206465706f73697420360841b60448201526064016105a2565b6000600b5411610d135760405162461bcd60e51b815260206004820152600a6024820152694e6f207374616b65727360b01b60448201526064016105a2565b6001600160a01b038216610d595760405162461bcd60e51b815260206004820152600d60248201526c24b73b30b634b2103a37b5b2b760991b60448201526064016105a2565b6001600160a01b03821660009081526010602052604090205460ff16610e3157600f54600a11610dcb5760405162461bcd60e51b815260206004820152601960248201527f4d61782072657761726420746f6b656e7320726561636865640000000000000060448201526064016105a2565b6001600160a01b0382166000818152601060205260408120805460ff19166001908117909155600f805491820181559091527f8d1108e10bcb7c27dddfc02ed9d693a074039d026cf4ea4240b40f7d581ac8020180546001600160a01b03191690911790555b6040516370a0823160e01b81523060048201526000906001600160a01b038416906370a0823190602401602060405180830381865afa158015610e78573d6000803e3d6000fd5b505050506040513d601f19601f82011682018060405250810190610e9c91906119c7565b9050610eb36001600160a01b0384163330856115d8565b6040516370a0823160e01b815230600482015260009082906001600160a01b038616906370a0823190602401602060405180830381865afa158015610efc573d6000803e3d6000fd5b505050506040513d601f19601f82011682018060405250810190610f2091906119c7565b610f2a9190611923565b905060008111610f715760405162461bcd60e51b8152602060048201526012602482015271139bc81d1bdad95b9cc81c9958d95a5d995960721b60448201526064016105a2565b600b54610f8682670de0b6b3a764000061197b565b610f909190611992565b6001600160a01b03851660009081526011602052604081208054909190610fb89084906119b4565b90915550506040518181526001600160a01b038516907fb8b27d0db504fa5d914f1fd330347096e88d5ff94b6c612d32797e7c12a8f66f9060200160405180910390a250506110076001600055565b5050565b60408051808201909152600080825260208201526004821061105e5760405162461bcd60e51b815260206004820152600c60248201526b24b73b30b634b2103a34b2b960a11b60448201526064016105a2565b6003826004811061107157611071611936565b60020201604051806040016040529081600082015481526020016001820154815250509050919050565b600381600481106110ab57600080fd5b60020201805460019091015490915082565b6060600f80548060200260200160405190810160405280929190818152602001828054801561111557602002820191906000526020600020905b81546001600160a01b031681526001909101906020018083116110f7575b5050505050905090565b6111276112ba565b6001600160a01b03811660009081526010602052604090205460ff166111845760405162461bcd60e51b81526020600482015260126024820152712737ba1030903932bbb0b932103a37b5b2b760711b60448201526064016105a2565b61118d336112e4565b6111973382611464565b6106ea6001600055565b6111a9611516565b7f00000000000000000000000000000000000000000000000000000000000000006001600160a01b0316836001600160a01b03160361122a5760405162461bcd60e51b815260206004820152601c60248201527f43616e6e6f74207769746864726177207374616b656420746f6b656e0000000060448201526064016105a2565b61123e6001600160a01b0384168383611405565b505050565b61124b611516565b600280546001600160a01b0383166001600160a01b031990911681179091556112826001546001600160a01b036101009091041690565b6001600160a01b03167f38d16b8cac22d99fc7c124b9cd0de2d3fa1faef420bfe791d8c362d765e2270060405160405180910390a350565b6002600054036112dd57604051633ee5aeb560e01b815260040160405180910390fd5b6002600055565b6001600160a01b0381166000908152600e6020526040812054905b600f5481101561123e576000600f828154811061131e5761131e611936565b60009182526020808320909101546001600160a01b0390811680845260118352604080852054928916855260128452808520828652909352919092205490925084156113c857670de0b6b3a76400006113778284611923565b611381908761197b565b61138b9190611992565b6001600160a01b038088166000908152601360209081526040808320938816835292905290812080549091906113c29084906119b4565b90915550505b506001600160a01b0380861660009081526012602090815260408083209590931682529390935290912055806113fd8161194c565b9150506112ff565b6040516001600160a01b0383811660248301526044820183905261123e91859182169063a9059cbb906064015b604051602081830303815290604052915060e01b6020820180516001600160e01b038381831617835250505050611652565b6001600160a01b03808316600090815260136020908152604080832093851683529290522054801561123e576001600160a01b038084166000908152601360209081526040808320938616808452939091528120556114c4908483611405565b816001600160a01b0316836001600160a01b03167f9310ccfcb8de723f578a9e4282ea9f521f05ae40dc08f3068dfad528a65ee3c78360405161150991815260200190565b60405180910390a3505050565b6001546001600160a01b036101009091041633146107595760405163118cdaa760e01b81523360048201526024016105a2565b6115516116c3565b6001805460ff191690557f5db9ee0a495bf2e6ff9c91a7834c1ba4fdd244a5e8aa4e537bd38aeae4b073aa335b6040516001600160a01b03909116815260200160405180910390a1565b600280546001600160a01b03191690556106ea816116e6565b60015460ff16156107595760405163d93c066560e01b815260040160405180910390fd5b6040516001600160a01b0384811660248301528381166044830152606482018390526116119186918216906323b872dd90608401611432565b50505050565b61161f6115b4565b6001805460ff1916811790557f62e78cea01bee320cd4e420270b5ea74000d11b0c9f74754ebdbfc544b05a2583361157e565b600080602060008451602086016000885af180611675576040513d6000823e3d81fd5b50506000513d9150811561168d57806001141561169a565b6001600160a01b0384163b155b1561161157604051635274afe760e01b81526001600160a01b03851660048201526024016105a2565b60015460ff1661075957604051638dfc202b60e01b815260040160405180910390fd5b600180546001600160a01b03838116610100818102610100600160a81b031985161790945560405193909204169182907f8be0079c531659141344cd1fd0a4f28419497f9722a3daafe3b4186f6b6457e090600090a35050565b60006020828403121561175257600080fd5b5035919050565b80356001600160a01b038116811461177057600080fd5b919050565b60006020828403121561178757600080fd5b61179082611759565b9392505050565b602080825282518282018190526000919060409081850190868401855b828110156117f85781518051855286810151878601528581015186860152606080820151908601526080908101519085015260a090930192908501906001016117b4565b5091979650505050505050565b6000806040838503121561181857600080fd5b61182183611759565b915061182f60208401611759565b90509250929050565b6000806040838503121561184b57600080fd5b50508035926020909101359150565b6000806040838503121561186d57600080fd5b61187683611759565b946020939093013593505050565b6020808252825182820181905260009190848201906040850190845b818110156118c55783516001600160a01b0316835292840192918401916001016118a0565b50909695505050505050565b6000806000606084860312156118e657600080fd5b6118ef84611759565b92506118fd60208501611759565b9150604084013590509250925092565b634e487b7160e01b600052601160045260246000fd5b81810381811115610b6a57610b6a61190d565b634e487b7160e01b600052603260045260246000fd5b60006001820161195e5761195e61190d565b5060010190565b634e487b7160e01b600052604160045260246000fd5b8082028115828204841417610b6a57610b6a61190d565b6000826119af57634e487b7160e01b600052601260045260246000fd5b500490565b80820180821115610b6a57610b6a61190d565b6000602082840312156119d957600080fd5b505191905056fea2646970667358221220bcce2f005bc34828bdbc8b77df022f4d7349a4dc800bb2cdcf81982a2ee33def64736f6c63430008140033",
  "linkReferences": {},
  "deployedLinkReferences": {}
}